{"abi":[{"type":"function","name":"calculateIntegralLimitWrapper","inputs":[{"name":"_outgoingMax","type":"int256","internalType":"X216"},{"name":"_sqrtOffset","type":"int256","internalType":"X127"},{"name":"_sqrtInverseOffset","type":"int256","internalType":"X127"},{"name":"_amountSpecified","type":"int256","internalType":"X127"},{"name":"_growth","type":"int256","internalType":"X111"},{"name":"_shares","type":"uint256","internalType":"uint256"}],"outputs":[{"name":"limit0","type":"int256","internalType":"X216"},{"name":"limit1","type":"int256","internalType":"X216"}],"stateMutability":"nonpayable"},{"type":"function","name":"inRangeAmountWrapper","inputs":[{"name":"_sqrtOffset","type":"int256","internalType":"X127"},{"name":"_sqrtInverseOffset","type":"int256","internalType":"X127"},{"name":"_integral","type":"int256","internalType":"X216"},{"name":"_growth","type":"int256","internalType":"X111"},{"name":"_shares","type":"int256","internalType":"int256"},{"name":"_outgoingMax","type":"int256","internalType":"X216"},{"name":"_outgoingMaxModularInverse","type":"uint256","internalType":"uint256"},{"name":"_zeroOrOne","type":"bool","internalType":"bool"},{"name":"roundUp","type":"bool","internalType":"bool"}],"outputs":[{"name":"result","type":"int256","internalType":"X127"},{"name":"overflow","type":"bool","internalType":"bool"}],"stateMutability":"nonpayable"},{"type":"function","name":"safeInRangeAmountWrapper","inputs":[{"name":"_sqrtOffset","type":"int256","internalType":"X127"},{"name":"_sqrtInverseOffset","type":"int256","internalType":"X127"},{"name":"_integral","type":"int256","internalType":"X216"},{"name":"_growth","type":"int256","internalType":"X111"},{"name":"_shares","type":"int256","internalType":"int256"},{"name":"_outgoingMax","type":"int256","internalType":"X216"},{"name":"_outgoingMaxModularInverse","type":"uint256","internalType":"uint256"},{"name":"_zeroOrOne","type":"bool","internalType":"bool"},{"name":"roundUp","type":"bool","internalType":"bool"}],"outputs":[{"name":"result","type":"int256","internalType":"X127"}],"stateMutability":"nonpayable"},{"type":"function","name":"safeOutOfRangeAmountWrapper","inputs":[{"name":"_sqrtOffset","type":"int256","internalType":"X127"},{"name":"_sqrtInverseOffset","type":"int256","internalType":"X127"},{"name":"_growthMultiplier","type":"uint256","internalType":"X208"},{"name":"_shares","type":"int256","internalType":"int256"},{"name":"_zeroOrOne","type":"bool","internalType":"bool"}],"outputs":[{"name":"result","type":"int256","internalType":"X127"}],"stateMutability":"nonpayable"},{"type":"error","name":"SafeInRangeAmountOverflow","inputs":[{"name":"sqrtOffsetOrSqrtInverseOffset","type":"int256","internalType":"X127"},{"name":"integral","type":"int256","internalType":"X216"},{"name":"liquidity","type":"int256","internalType":"X111"},{"name":"outgoingMax","type":"int256","internalType":"X216"},{"name":"outgoingMaxModularInverse","type":"uint256","internalType":"uint256"}]},{"type":"error","name":"SafeOutOfRangeAmountOverflow","inputs":[{"name":"sqrtOffsetOrSqrtInverseOffset","type":"int256","internalType":"X127"},{"name":"growthMultiplier","type":"uint256","internalType":"X208"},{"name":"shares","type":"int256","internalType":"int256"}]}],"bytecode":{"object":"0x608080604052346015576107b6908161001a8239f35b5f80fdfe60806040526004361015610011575f80fd5b5f3560e01c80632c82ccfa146100545780636064a67f1461004f5780639622c8d91461004a5763ae8d0d8914610045575f80fd5b610296565b6101ee565b6100fe565b346100a557604061009761008c61006a366100b8565b989291939596909761072052610740526107b95160d81c9060281b1761079e52565b6107b952029061033b565b825191825215156020820152f35b5f80fd5b6084359081151582036100a557565b6101209060031901126100a557600435906024359060443590606435906084359060a4359060c4359060e43580151581036100a557906101043580151581036100a55790565b346100a55760a03660031901126100a55761019e6064356044356004356024356101266100a9565b8261072052816107405284610108525f146101e65750915b6101488360301b90565b916101615f831293845f146101de5782845f0391610550565b94610172858589859695991561038f565b156101a25750929361018b9350600160ff1b851061038f565b5f035b6040519081529081906020820190565b0390f35b909390156101c957506001936101c39291906001600160ff1b03851061038f565b0161018e565b936101d993600160ff1b1161038f565b61018e565b828491610550565b90509161013e565b346100a55760c03660031901126100a55760a43560843560643560443560243561023060043560ff5f861302610151536107b95160d81c9060281b1761079e52565b61072052610740526101085261069f5160801c9060801b178061068f5260801c9060801b1761067f525f610150536102666103b9565b6101525160281c6102756103b1565b61027d6103b9565b610152516040805192835260289190911c602083015290f35b346100a5576102de6102cf6102aa366100b8565b969099959892919761072095949552610740526107b95160d81c9060281b1761079e52565b846107b952029185838661033b565b9190945f146103315761072051935b61079e5160281c9261030457604051868152602090f35b60a495506040519463059cafa160e51b865260048601526024850152604484015260648301526084820152fd5b61074051936102ed565b909261037292156103855761072051915b5f8512948515610380575f035b61079e5160281c916107b9519387159015151494610464565b911561037d575f0391565b91565b610359565b610740519161034c565b1561039957505050565b63872deb8f60e01b5f5260045260245260445260645ffd5b60ff61015053565b6101515160ff1c1561041b576104106103fe61079e5160281c6101505160ff1c5f1461041257610720515b610108519061068f5160801c61067f5160801c029261069e565b61016d5160d81c9060281b1761015252565b565b610740516103e4565b61041061045661079e5160281c6101505160ff1c5f1461045b57610740515b610108515f039061068f5160801c61067f5160801c029261057e565b6103fe565b6107205161043a565b9495939291610474915f96610550565b90939192906001606f1b8110156105425761049e9060911b61049686606f1c90565b179460911b90565b6104a884606f1c90565b179080805f19870981878508089485831090039080821015610533578086915f031691600183805f030401029203041702946104f8575b5050600160ff1b8310156104ef57565b5f925060019150565b6d7fffffffffffffffffffffffffff161590811591610529575b5061051f575b5f806104df565b9160010191610518565b905015155f610512565b505f9750600196505050505050565b505f96506001955050505050565b61056a6105628495936105729361076c565b95909561076c565b93909461076c565b80939194019283100190565b9061058c9291949394610550565b91939091600160671b81101561068f576105b59060711b6105ad84608f1c90565b179260711b90565b6105bf85608f1c90565b1781805f19850981858408089283821090038281101561067f5783839261063e9284717fffffffffffffffffffffffffffffffffff965f0316928391600183805f030401029203041792046002816003021880820260020302808202600203028082026002030280820260020302808202600203028091026002030290565b0293161590811591610675575b5061066b575b600160d81b82101561065f57565b6001600160d81b039150565b9060010190610651565b905015155f61064b565b506001600160d81b039450505050565b506001600160d81b0393505050565b906106a99291610550565b909190600160671b81101561075c576106da6106c86106e19260711b90565b6106d285608f1c90565b179360711b90565b91608f1c90565b179082805f1983098183850808908183109003918383101561075c5761074c9284805f0316928391600183805f030401029203041792046002816003021880820260020302808202600203028082026002030280820260020302808202600203028091026002030290565b0290600160d81b82101561065f57565b506001600160d81b039392505050565b91905f19818409920291828082109103039056fea2646970667358221220fd39715a23be1dc2e5ba6d55d056c4c67704033ffa5e751b0467b7ce3b5868e964736f6c63430008210033","linkReferences":{}},"methodIdentifiers":{"calculateIntegralLimitWrapper(int256,int256,int256,int256,int256,uint256)":"9622c8d9","inRangeAmountWrapper(int256,int256,int256,int256,int256,int256,uint256,bool,bool)":"2c82ccfa","safeInRangeAmountWrapper(int256,int256,int256,int256,int256,int256,uint256,bool,bool)":"ae8d0d89","safeOutOfRangeAmountWrapper(int256,int256,uint256,int256,bool)":"6064a67f"},"id":7}