{"abi":[{"type":"function","name":"_amend","inputs":[{"name":"curve","type":"uint256","internalType":"Curve"},{"name":"curveLength","type":"uint256","internalType":"Index"},{"name":"target","type":"int256","internalType":"X59"},{"name":"curveArray","type":"uint256[]","internalType":"uint256[]"}],"outputs":[{"name":"curveLengthAmended","type":"uint256","internalType":"Index"}],"stateMutability":"nonpayable"},{"type":"function","name":"_boundaries","inputs":[{"name":"curve","type":"uint256","internalType":"Curve"},{"name":"curveArray","type":"uint256[]","internalType":"uint256[]"}],"outputs":[{"name":"qLower","type":"int256","internalType":"X59"},{"name":"qUpper","type":"int256","internalType":"X59"}],"stateMutability":"nonpayable"},{"type":"function","name":"_member","inputs":[{"name":"curve","type":"uint256","internalType":"Curve"},{"name":"curveArray","type":"uint256[]","internalType":"uint256[]"}],"outputs":[{"name":"result","type":"int256[]","internalType":"X59[]"}],"stateMutability":"nonpayable"},{"type":"function","name":"_newCurve","inputs":[{"name":"curve","type":"uint256","internalType":"Curve"},{"name":"qCurrent","type":"int256","internalType":"X59"},{"name":"qOther","type":"int256","internalType":"X59"}],"outputs":[{"name":"_qCurrent","type":"int256","internalType":"X59"},{"name":"_qOther","type":"int256","internalType":"X59"},{"name":"curveLength","type":"uint256","internalType":"Index"}],"stateMutability":"nonpayable"},{"type":"function","name":"_validate","inputs":[{"name":"curve","type":"uint256","internalType":"Curve"},{"name":"curveArray","type":"uint256[]","internalType":"uint256[]"}],"outputs":[{"name":"qLower","type":"int256","internalType":"X59"},{"name":"qUpper","type":"int256","internalType":"X59"},{"name":"qCurrent","type":"int256","internalType":"X59"},{"name":"qSpacing","type":"int256","internalType":"X59"},{"name":"sqrtSpacing","type":"int256","internalType":"X216"},{"name":"sqrtInverseSpacing","type":"int256","internalType":"X216"},{"name":"curveLength","type":"uint256","internalType":"Index"}],"stateMutability":"nonpayable"},{"type":"error","name":"BlankIntervalsShouldBeAvoided","inputs":[{"name":"qLower","type":"int256","internalType":"X59"},{"name":"qUpper","type":"int256","internalType":"X59"}]},{"type":"error","name":"CurveIndexOutOfRange","inputs":[{"name":"length","type":"uint256","internalType":"Index"}]},{"type":"error","name":"InvalidCurveArrangement","inputs":[{"name":"q0","type":"int256","internalType":"X59"},{"name":"q1","type":"int256","internalType":"X59"},{"name":"q2","type":"int256","internalType":"X59"}]},{"type":"error","name":"LogSpacingIsTooSmall","inputs":[{"name":"qSpacing","type":"int256","internalType":"X59"}]}],"bytecode":{"object":"0x6080806040523460155761081d908161001a8239f35b5f80fdfe60806040526004361015610011575f80fd5b5f3560e01c806325e0ca81146100645780633c78b8151461005f578063783d9b761461005a578063b1c81e77146100555763ff8431b414610050575f80fd5b6103ae565b610361565b610302565b61016d565b346100cb5761007236610100565b5050602435908160040135918260051b8091602401833781019160021b82525f5b82518110156100b9578060019160031b83015160c01c60208260051b8601015201610093565b604051806100c78582610134565b0390f35b5f80fd5b9181601f840112156100cb5782359167ffffffffffffffff83116100cb576020808501948460051b0101116100cb57565b9060406003198301126100cb57600435916024359067ffffffffffffffff82116100cb57610130916004016100cf565b9091565b60206040818301928281528451809452019201905f5b8181106101575750505090565b825184526020938401939092019160010161014a565b346100cb5761017b36610100565b5050602435806004013560051b9060240182378051600882015160c091821c911c8082136102fa5781815b6101e981858082036101b7816105b8565b6101ca816501000000000081121561044b565b6101d78383838113610465565b68010000000000000000038212610465565b6002925b8360031b86015160c01c9283156102585780841315801561024e575b61021b575b50600190929301926101ed565b818413158015610244575b1561020e5763207d71e160e11b5f526004526024525060445260645ffd5b5083811315610226565b5083821315610209565b5061029d8461028b87936102798361027461ffff821115151590565b610483565b61067f5160401c9060c01b1761067752565b6106535160101c9060f01b1761065152565b6100c76106775160c01c6107605160c01c6107685160281c6107835160281c916106515160f01c936040519788978893909796959260c0959260e08601998652602086015260408501526060840152608083015260a08201520152565b8091806101a6565b346100cb5760603660031901126100cb5760243560801b60443560c01b176004359081526106535160101c600160f11b1761065152606090600881015160c01c905160c01c6106515160f01c9060405192835260208301526040820152f35b346100cb57604061037136610100565b5050602435806004013560051b9060240182376008815160c01c91015160c01c818113155f146103a957905b82519182526020820152f35b61039d565b346100cb5760803660031901126100cb5760643560043560243560443567ffffffffffffffff84116100cb5761041161041792856100c7966004016103f336826100cf565b50503560051b9060240186376106535160101c9060f01b1761065152565b8261049d565b5f61065151918260f01c9260f21c60038416610443575b60051b90a16040519081529081906020820190565b60010161042e565b156104535750565b6387a53ed360e01b5f5260045260245ffd5b1561046e575050565b630c34b95560e21b5f5260045260245260445ffd5b1561048b5750565b63855b486b60e01b5f5260045260245ffd5b91825160c01c91600884015160c01c926104b7848261074c565b80831315610588576104c9858361075e565b8381131561055e5750506106515160f01c90846001915b1215610556578483125b15610545576001018181101561050b578060031b86015160c01c80956104e0565b9161054394506001939591505b60c01b908260031b01526105308161ffff8110610483565b016106535160101c9060f01b1761065152565b565b916105439450600193959150610518565b8285126104ea565b9250929490506105439350919060801b9060c01b1790526106535160101c600160f11b1761065152565b91506105439361059a9195939561075e565b9060801b9060c01b1790526106535160101c600160f11b1761065152565b6105439061068f6106898280028080025f19600160801b808385095f1984860903099061063d61062f610628600f600760681b8702046609c0000000000085040169c91800000000000000008604016106208580025f19878009621eee11605a1b9190030490565b0195606a1b90565b600f900490565b916624900000000000900490565b5f1992600160b41b926a06df920000000000000000909104910101600160ff1b016910000000000000000000818809905f199088090309600160fe1b818301810192919091030161076a565b60021b90565b808002905f1990800903808002905f1990800903808002905f1990800903808002905f1990800903808002905f1990800903808002905f1990800903808002905f1990800903808002905f1990800903808002905f1990800903808002905f1990800903808002905f1990800903808002905f1990800903808002905f1990800903808002905f19908009039061072f6107288361078a565b9260281c90565b610740805161077e94909452610763919091526107489190915252565b9080821215610759575090565b905090565b81811215610759575090565b5f198281019283919080600160fe1b850990030191600160fe1b90090890565b5f198181019180600160c11b7ff1aaddd7742e56d32fb9f997447d9e6314db84884fabab26bf059af9bc20b6090990030181600160c11b7ff1aaddd7742e56d32fb9f997447d9e6314db84884fabab26bf059af9bc20b60909089056fea26469706673582212204b5befea3b1241565f382fce767f9f26df1e521780f0cb5ff357d735d6ba01b664736f6c63430008210033","linkReferences":{}},"methodIdentifiers":{"_amend(uint256,uint256,int256,uint256[])":"ff8431b4","_boundaries(uint256,uint256[])":"b1c81e77","_member(uint256,uint256[])":"25e0ca81","_newCurve(uint256,int256,int256)":"783d9b76","_validate(uint256,uint256[])":"3c78b815"},"id":9}