{"abi":[{"type":"function","name":"midBurn","inputs":[{"name":"hookInput","type":"bytes","internalType":"bytes"}],"outputs":[{"name":"","type":"bytes4","internalType":"bytes4"}],"stateMutability":"nonpayable"},{"type":"function","name":"midDonate","inputs":[{"name":"hookInput","type":"bytes","internalType":"bytes"}],"outputs":[{"name":"","type":"bytes4","internalType":"bytes4"}],"stateMutability":"nonpayable"},{"type":"function","name":"midMint","inputs":[{"name":"hookInput","type":"bytes","internalType":"bytes"}],"outputs":[{"name":"","type":"bytes4","internalType":"bytes4"}],"stateMutability":"nonpayable"},{"type":"function","name":"midModifyKernel","inputs":[{"name":"hookInput","type":"bytes","internalType":"bytes"}],"outputs":[{"name":"","type":"bytes4","internalType":"bytes4"}],"stateMutability":"nonpayable"},{"type":"function","name":"midSwap","inputs":[{"name":"hookInput","type":"bytes","internalType":"bytes"}],"outputs":[{"name":"","type":"bytes4","internalType":"bytes4"}],"stateMutability":"nonpayable"},{"type":"function","name":"postBurn","inputs":[{"name":"hookInput","type":"bytes","internalType":"bytes"}],"outputs":[{"name":"","type":"bytes4","internalType":"bytes4"}],"stateMutability":"nonpayable"},{"type":"function","name":"postDonate","inputs":[{"name":"hookInput","type":"bytes","internalType":"bytes"}],"outputs":[{"name":"","type":"bytes4","internalType":"bytes4"}],"stateMutability":"nonpayable"},{"type":"function","name":"postInitialize","inputs":[{"name":"hookInput","type":"bytes","internalType":"bytes"}],"outputs":[{"name":"","type":"bytes4","internalType":"bytes4"}],"stateMutability":"nonpayable"},{"type":"function","name":"postMint","inputs":[{"name":"hookInput","type":"bytes","internalType":"bytes"}],"outputs":[{"name":"","type":"bytes4","internalType":"bytes4"}],"stateMutability":"nonpayable"},{"type":"function","name":"postModifyKernel","inputs":[{"name":"hookInput","type":"bytes","internalType":"bytes"}],"outputs":[{"name":"","type":"bytes4","internalType":"bytes4"}],"stateMutability":"nonpayable"},{"type":"function","name":"postSwap","inputs":[{"name":"hookInput","type":"bytes","internalType":"bytes"}],"outputs":[{"name":"","type":"bytes4","internalType":"bytes4"}],"stateMutability":"nonpayable"},{"type":"function","name":"preBurn","inputs":[{"name":"hookInput","type":"bytes","internalType":"bytes"}],"outputs":[{"name":"","type":"bytes4","internalType":"bytes4"}],"stateMutability":"nonpayable"},{"type":"function","name":"preDonate","inputs":[{"name":"hookInput","type":"bytes","internalType":"bytes"}],"outputs":[{"name":"","type":"bytes4","internalType":"bytes4"}],"stateMutability":"nonpayable"},{"type":"function","name":"preInitialize","inputs":[{"name":"hookInput","type":"bytes","internalType":"bytes"}],"outputs":[{"name":"","type":"bytes4","internalType":"bytes4"}],"stateMutability":"nonpayable"},{"type":"function","name":"preMint","inputs":[{"name":"hookInput","type":"bytes","internalType":"bytes"}],"outputs":[{"name":"","type":"bytes4","internalType":"bytes4"}],"stateMutability":"nonpayable"},{"type":"function","name":"preModifyKernel","inputs":[{"name":"hookInput","type":"bytes","internalType":"bytes"}],"outputs":[{"name":"","type":"bytes4","internalType":"bytes4"}],"stateMutability":"nonpayable"},{"type":"function","name":"preSwap","inputs":[{"name":"hookInput","type":"bytes","internalType":"bytes"}],"outputs":[{"name":"","type":"bytes4","internalType":"bytes4"}],"stateMutability":"nonpayable"},{"type":"error","name":"InvalidHook","inputs":[]}],"bytecode":{"object":"0x6080806040523460155761016e908161001a8239f35b5f80fdfe60806040526004361015610011575f80fd5b5f3560e01c806313a6d341146100d457806314ea355b146100d45780631da0c40d146100d45780635279ad9d146100d457806359350e8a146100d45780635e2b908e146100d45780635eac6a2d146100d4578063716a5da4146100d45780637ec4a7fc146100d4578063801b2eba146100d45780639fc41e54146100d4578063a048233f146100d4578063bf0e78db146100d4578063cb5e7318146100d4578063d243037e146100d4578063f16c1940146100d45763f3a79207146100d4575f80fd5b346101345760203660031901126101345760043567ffffffffffffffff811161013457366023820112156101345780600401359067ffffffffffffffff8211610134573660248383010111610134575050639c9d882360e01b5f5260045ffd5b5f80fdfea264697066735822122078003ce29826966aea8ed59ed2230dad04a41336e76f1af74b8ac1347e9bad4164736f6c63430008210033","linkReferences":{}},"methodIdentifiers":{"midBurn(bytes)":"13a6d341","midDonate(bytes)":"bf0e78db","midMint(bytes)":"14ea355b","midModifyKernel(bytes)":"7ec4a7fc","midSwap(bytes)":"716a5da4","postBurn(bytes)":"cb5e7318","postDonate(bytes)":"5e2b908e","postInitialize(bytes)":"5eac6a2d","postMint(bytes)":"f3a79207","postModifyKernel(bytes)":"5279ad9d","postSwap(bytes)":"d243037e","preBurn(bytes)":"9fc41e54","preDonate(bytes)":"a048233f","preInitialize(bytes)":"f16c1940","preMint(bytes)":"801b2eba","preModifyKernel(bytes)":"1da0c40d","preSwap(bytes)":"59350e8a"},"id":43}