{"abi":[{"type":"function","name":"add512","inputs":[{"name":"a0","type":"uint256","internalType":"uint256"},{"name":"a1","type":"uint256","internalType":"uint256"},{"name":"b0","type":"uint256","internalType":"uint256"},{"name":"b1","type":"uint256","internalType":"uint256"}],"outputs":[{"name":"r0","type":"uint256","internalType":"uint256"},{"name":"r1","type":"uint256","internalType":"uint256"}],"stateMutability":"nonpayable"},{"type":"function","name":"cheapMulDiv","inputs":[{"name":"a","type":"uint256","internalType":"uint256"},{"name":"b","type":"uint256","internalType":"uint256"},{"name":"denominator","type":"uint256","internalType":"uint256"}],"outputs":[{"name":"result","type":"uint256","internalType":"uint256"}],"stateMutability":"nonpayable"},{"type":"function","name":"modularInverse","inputs":[{"name":"value","type":"uint256","internalType":"uint256"}],"outputs":[{"name":"inverse","type":"uint256","internalType":"uint256"}],"stateMutability":"nonpayable"},{"type":"function","name":"mul512","inputs":[{"name":"a","type":"uint256","internalType":"uint256"},{"name":"b","type":"uint256","internalType":"uint256"}],"outputs":[{"name":"prod0","type":"uint256","internalType":"uint256"},{"name":"prod1","type":"uint256","internalType":"uint256"}],"stateMutability":"nonpayable"},{"type":"function","name":"mul768","inputs":[{"name":"a","type":"uint256","internalType":"uint256"},{"name":"b","type":"uint256","internalType":"uint256"},{"name":"c","type":"uint256","internalType":"uint256"}],"outputs":[{"name":"q0","type":"uint256","internalType":"uint256"},{"name":"q1","type":"uint256","internalType":"uint256"},{"name":"q2","type":"uint256","internalType":"uint256"}],"stateMutability":"nonpayable"},{"type":"function","name":"mulDiv","inputs":[{"name":"a","type":"uint256","internalType":"uint256"},{"name":"b","type":"uint256","internalType":"uint256"},{"name":"c","type":"uint256","internalType":"uint256"},{"name":"d","type":"uint256","internalType":"uint256"},{"name":"e","type":"uint256","internalType":"uint256"},{"name":"roundUp","type":"bool","internalType":"bool"}],"outputs":[{"name":"result","type":"uint256","internalType":"uint256"},{"name":"overflow","type":"bool","internalType":"bool"}],"stateMutability":"nonpayable"},{"type":"function","name":"mulDiv","inputs":[{"name":"a","type":"uint256","internalType":"uint256"},{"name":"b","type":"uint256","internalType":"uint256"},{"name":"c","type":"uint256","internalType":"uint256"},{"name":"d","type":"uint256","internalType":"uint256"},{"name":"roundUp","type":"bool","internalType":"bool"}],"outputs":[{"name":"result","type":"uint256","internalType":"uint256"}],"stateMutability":"nonpayable"},{"type":"function","name":"mulDiv","inputs":[{"name":"a","type":"uint256","internalType":"uint256"},{"name":"b","type":"uint256","internalType":"uint256"},{"name":"denominator","type":"uint256","internalType":"uint256"}],"outputs":[{"name":"result","type":"uint256","internalType":"uint256"}],"stateMutability":"nonpayable"},{"type":"function","name":"mulDivRoundUp","inputs":[{"name":"a","type":"uint256","internalType":"uint256"},{"name":"b","type":"uint256","internalType":"uint256"},{"name":"denominator","type":"uint256","internalType":"uint256"}],"outputs":[{"name":"result","type":"uint256","internalType":"uint256"}],"stateMutability":"nonpayable"},{"type":"function","name":"safeMulDiv","inputs":[{"name":"a","type":"uint256","internalType":"uint256"},{"name":"b","type":"uint256","internalType":"uint256"},{"name":"denominator","type":"uint256","internalType":"uint256"}],"outputs":[{"name":"result","type":"uint256","internalType":"uint256"}],"stateMutability":"nonpayable"},{"type":"function","name":"safeMulDivRoundUp","inputs":[{"name":"a","type":"uint256","internalType":"uint256"},{"name":"b","type":"uint256","internalType":"uint256"},{"name":"denominator","type":"uint256","internalType":"uint256"}],"outputs":[{"name":"result","type":"uint256","internalType":"uint256"}],"stateMutability":"nonpayable"},{"type":"function","name":"sub512","inputs":[{"name":"a0","type":"uint256","internalType":"uint256"},{"name":"a1","type":"uint256","internalType":"uint256"},{"name":"b0","type":"uint256","internalType":"uint256"},{"name":"b1","type":"uint256","internalType":"uint256"}],"outputs":[{"name":"r0","type":"uint256","internalType":"uint256"},{"name":"r1","type":"uint256","internalType":"uint256"}],"stateMutability":"nonpayable"},{"type":"error","name":"MulDivOverflow","inputs":[{"name":"a","type":"uint256","internalType":"uint256"},{"name":"b","type":"uint256","internalType":"uint256"},{"name":"denominator","type":"uint256","internalType":"uint256"}]}],"bytecode":{"object":"0x608080604052346015576105ee908161001a8239f35b5f80fdfe6080806040526004361015610012575f80fd5b5f3560e01c9081632886a33f146102925750806330d6363f1461026e5780634ec4fb07146102295780636573e771146101e15780636d422242146101ad5780636d7286531461018157806373d0b5121461014d578063aa9a091214610134578063b0533a3514610116578063bda4e619146100f5578063c0ecbc39146100d05763fa38dbe3146100a0575f80fd5b346100cc5760606100b96100b3366102b8565b9161057a565b9060405192835260208301526040820152f35b5f80fd5b346100cc5760406100e0366102d2565b90830192845193808552109101016020820152f35b346100cc57602061010e610108366102b8565b9161053c565b604051908152f35b346100cc5760203660031901126100cc57602061010e600435610508565b346100cc57602061010e610147366102b8565b916104b9565b346100cc5760403660031901126100cc5760406004356024355f198183099102908251918083528082109103036020820152f35b346100cc576020610191366102b8565b915f1983018092604051945f1990808386099003019209088152f35b346100cc5760a03660031901126100cc5760843580151581036100cc5761010e6020916064356044356024356004356103cb565b346100cc576102016101f2366102b8565b9081818495940915159361053c565b810180911161021557602090604051908152f35b634e487b7160e01b5f52601160045260245ffd5b346100cc5760c03660031901126100cc5760a43580151581036100cc576102606040916084356064356044356024356004356102f0565b825191825215156020820152f35b346100cc57604061027e366102d2565b908451938181038552109103036020820152f35b346100cc576020906102a3366102b8565b906102af8282856104b9565b92091515018152f35b60609060031901126100cc57600435906024359060443590565b60809060031901126100cc5760043590602435906044359060643590565b9495939291610300915f9661057a565b90939192906001606f1b8110156103bd5784606f1c9060911b179383606f1c9060911b179080805f198709818785080894858310900390808210156103ae578086915f031691600183805f03040102920304170294610373575b5050600160ff1b83101561036a57565b5f925060019150565b6d7fffffffffffffffffffffffffff1615908115916103a4575b5061039a575b5f8061035a565b9160010191610393565b905015155f61038d565b505f9750600196505050505050565b505f96506001955050505050565b906103d9929195949561057a565b909290600160671b8110156104a95783608f1c9060711b179282608f1c9060711b1781805f1986098186840808938482109003828110156104985761043691859184805f0316928391600183805f03040102920304179204610508565b0293610459575b5050600160d81b82101561044d57565b6001600160d81b039150565b717fffffffffffffffffffffffffffffffffff16159081159161048e575b50610484575b5f8061043d565b906001019061047d565b905015155f610477565b506001600160d81b03955050505050565b506001600160d81b039450505050565b915f1982840982840292838083109203948286146104ff5790839109906104e683805f0316809404610508565b94600184805f0304019185841191030302920304170290565b50505091500490565b6002816003021880820260020302808202600203028082026002030280820260020302808202600203028091026002030290565b929190815f1982860982860280821091030310156105615761055e92936104b9565b90565b8363362ced0960e11b5f5260045260245260445260645ffd5b9192905f198184099202918280821091030392805f198186099402905f1981850993029283808210910303929383820193841091808210910303019056fea26469706673582212209d2a7dbce579637f9e2fa0cacf61fa11bf52d061fcbb5e555c9d4e9926340e3464736f6c63430008210033","linkReferences":{}},"methodIdentifiers":{"add512(uint256,uint256,uint256,uint256)":"c0ecbc39","cheapMulDiv(uint256,uint256,uint256)":"6d728653","modularInverse(uint256)":"b0533a35","mul512(uint256,uint256)":"73d0b512","mul768(uint256,uint256,uint256)":"fa38dbe3","mulDiv(uint256,uint256,uint256)":"aa9a0912","mulDiv(uint256,uint256,uint256,uint256,bool)":"6d422242","mulDiv(uint256,uint256,uint256,uint256,uint256,bool)":"4ec4fb07","mulDivRoundUp(uint256,uint256,uint256)":"2886a33f","safeMulDiv(uint256,uint256,uint256)":"bda4e619","safeMulDivRoundUp(uint256,uint256,uint256)":"6573e771","sub512(uint256,uint256,uint256,uint256)":"30d6363f"},"id":15}