{"abi":[{"type":"function","name":"_calculateIntegralLimitInterval","inputs":[{"name":"exactInput","type":"bool","internalType":"bool"},{"name":"zeroForOne","type":"bool","internalType":"bool"},{"name":"back","type":"int256","internalType":"X59"},{"name":"next","type":"int256","internalType":"X59"},{"name":"outgoingMax","type":"int256","internalType":"X216"},{"name":"incomingMax","type":"int256","internalType":"X216"}],"outputs":[{"name":"integralLimitInterval","type":"int256","internalType":"X216"}],"stateMutability":"nonpayable"},{"type":"function","name":"_cross","inputs":[{"name":"values","type":"uint256[19]","internalType":"uint256[19]"}],"outputs":[{"name":"halt","type":"bool","internalType":"bool"}],"stateMutability":"nonpayable"},{"type":"function","name":"_setSwapParams","inputs":[{"name":"zeroForOne","type":"uint256","internalType":"uint256"},{"name":"poolId","type":"uint256","internalType":"uint256"},{"name":"curveContent","type":"uint256","internalType":"uint256"},{"name":"logPriceLimit","type":"int256","internalType":"X59"},{"name":"amountSpecified","type":"int256","internalType":"X127"},{"name":"outgoingMax","type":"int256","internalType":"X216"},{"name":"incomingMax","type":"int256","internalType":"X216"},{"name":"growth","type":"int256","internalType":"X111"},{"name":"sharesTotal","type":"uint256","internalType":"uint256"}],"outputs":[],"stateMutability":"nonpayable"},{"type":"function","name":"_swapWithin","inputs":[{"name":"values","type":"uint256[18]","internalType":"uint256[18]"},{"name":"kernelArray","type":"uint256[]","internalType":"uint256[]"},{"name":"curveArray","type":"uint256[]","internalType":"uint256[]"}],"outputs":[{"name":"exactAmount","type":"bool","internalType":"bool"}],"stateMutability":"nonpayable"},{"type":"function","name":"_transition","inputs":[{"name":"values","type":"uint256[12]","internalType":"uint256[12]"}],"outputs":[],"stateMutability":"nonpayable"},{"type":"function","name":"_updateAmounts","inputs":[{"name":"exactInput","type":"bool","internalType":"bool"},{"name":"zeroForOne","type":"bool","internalType":"bool"},{"name":"amount0","type":"int256","internalType":"X127"},{"name":"amount1","type":"int256","internalType":"X127"},{"name":"amountSpecified","type":"int256","internalType":"X127"},{"name":"outgoingAmount","type":"int256","internalType":"X127"},{"name":"incomingAmount","type":"int256","internalType":"X127"}],"outputs":[{"name":"amount0Updated","type":"int256","internalType":"X127"},{"name":"amount1Updated","type":"int256","internalType":"X127"},{"name":"amountSpecifiedUpdated","type":"int256","internalType":"X127"}],"stateMutability":"nonpayable"},{"type":"function","name":"_updateKernel","inputs":[{"name":"poolId","type":"uint256","internalType":"uint256"},{"name":"storagePointer","type":"uint256","internalType":"uint256"},{"name":"kernelLength0","type":"uint256","internalType":"Index"},{"name":"kernelLength1","type":"uint256","internalType":"Index"},{"name":"staticContent0","type":"bytes","internalType":"bytes"},{"name":"staticContent1","type":"bytes","internalType":"bytes"}],"outputs":[],"stateMutability":"nonpayable"},{"type":"error","name":"AccruedGrowthPortionOverflow","inputs":[{"name":"accruedValue","type":"int256","internalType":"X127"}]},{"type":"error","name":"CurveIndexOutOfRange","inputs":[{"name":"length","type":"uint256","internalType":"Index"}]},{"type":"error","name":"DeploymentFailed","inputs":[]},{"type":"error","name":"GrowthOverflow","inputs":[]},{"type":"error","name":"InvalidDirection","inputs":[{"name":"current","type":"int256","internalType":"X59"},{"name":"limit","type":"int256","internalType":"X59"}]},{"type":"error","name":"SafeAddFailed","inputs":[{"name":"a","type":"int256","internalType":"X127"},{"name":"b","type":"int256","internalType":"X127"}]},{"type":"error","name":"SafeInRangeAmountOverflow","inputs":[{"name":"sqrtOffsetOrSqrtInverseOffset","type":"int256","internalType":"X127"},{"name":"integral","type":"int256","internalType":"X216"},{"name":"liquidity","type":"int256","internalType":"X111"},{"name":"outgoingMax","type":"int256","internalType":"X216"},{"name":"outgoingMaxModularInverse","type":"uint256","internalType":"uint256"}]},{"type":"error","name":"SearchingForIncomingTargetFailed","inputs":[]},{"type":"error","name":"SearchingForOutgoingTargetFailed","inputs":[]},{"type":"error","name":"SearchingForOvershootFailed","inputs":[]}],"bytecode":{"object":"0x60808060405234601557614785908161001a8239f35b5f80fdfe60806040526004361015610011575f80fd5b5f3560e01c80630c3f03ce14610084578063395431681461007f57806369b873501461007a57806389bb1ec714610075578063b0d4f3bc14610070578063d69f819f1461006b5763f254a6f314610066575f80fd5b6108b0565b610806565b6105da565b6104c2565b61036d565b6102a0565b3461027e5761018036600319011261027e57366101841161027e576100aa60043560d852565b6100c26024356107b95160d81c9060281b1761079e52565b6100da6044356107f45160d81c9060281b176107d952565b6100e5606435610c47565b6100f0608435610cac565b61010860a43561069f5160801c9060801b1761068f52565b61012060c43561068f5160801c9060801b1761067f52565b61012c60e43561010852565b6101396101043561024452565b6101466101243561026452565b6101443561017a60d8516102065160c01c6101c85160c01c90800103671447e579411c2c936010526008525f5260305f2090565b556101a060d8516102065160c01c67d7cb7a927a838d416010526008525f5260305f2090565b6101643590556101d16101c85160c01c6101ca6102065160c01c6101c48184610ee7565b92610ef8565b9003610d0f565b6101df5f6101085113610f05565b6101f66102065160c01c6101c85160c01c13610f0e565b61021861021261020d60d85160b41c5f0b603b1b90565b610f17565b61072052565b61023c61023661022f60d85160b41c5f0b603b1b90565b5f03610f17565b61074052565b61025b61025561079e5160281c80805f03169004611196565b6107b952565b6102636111ca565b600a61060f516008815160c01c91015160c01c906108085fa3005b5f80fd5b60043590811515820361027e57565b60243590811515820361027e57565b3461027e5760c036600319011261027e5761031e6102bc610282565b61030c6102c7610291565b6102fa6044356102f560643591608435946102e160a43590565b9760ff026101515360ff0261015053610c47565b610cac565b6107b95160d81c9060281b1761079e52565b6107f45160d81c9060281b176107d952565b610326611486565b61016d5160405160289190911c815280602081015b0390f35b9181601f8401121561027e5782359167ffffffffffffffff831161027e576020838186019501011161027e57565b3461027e5760c036600319011261027e5760043560243560643560443560843567ffffffffffffffff811161027e576103a9368260040161033f565b505060a4359267ffffffffffffffff841161027e5761049d95610497946104458793610492956103dc368560040161033f565b50506103e78560d852565b6103fd886106515160101c9060f01b1761064f52565b602481600401358281809484016106e037610424856108085160101c9060f01b1761080652565b61042d89611512565b01016106e05e6106515160101c9060f01b1761064f52565b602481600401358281809484016106e03761046761046287610c25565b611512565b01016106e05e6104796108086105ef52565b61048c61048783833061158e565b6115f1565b3061158e565b6115fd565b61065552565b6104a561160f565b61064f51610655519060f01c6101285f19820160061b016106e0a2005b3461027e5761012036600319011261027e576105c96102366024356105756101043561056360e43561055160c43561030c60a4356102fa60843561054b6064356044356105158e6004356101505360d852565b6108085261052561080861060f52565b610545601061060f51015160c01c61067f5160401c9060c01b1761067752565b61012852565b61010852565b61069f5160801c9060801b1761068f52565b61068f5160801c9060801b1761067f52565b6105b561060f516101ca610595825160c01c600884015160c01c90610ee7565b916105af6105a4825160c01c90565b916008015160c01c90565b90610ef8565b60b41c5f0b603b1b61022f61021282610f17565b6105d16116bd565b600a6108085fa1005b3461027e5761026036600319011261027e57366102641161027e5761060060043560d852565b61061860243561069f5160801c9060801b1761068f52565b6106306044356106ba5160d81c9060281b1761069f52565b6106486064356106d55160d81c9060281b176106ba52565b61066060843561068f5160801c9060801b1761067f52565b61067860a4356107b95160d81c9060281b1761079e52565b61069060c4356107f45160d81c9060281b176107d952565b6106a860e4356107fa5160301c9060d01b176107f452565b6106c1610104356108065160301c9060d01b1761080052565b6106ce610124356105a952565b6106db610144356105c952565b6106f4610164356105ec5160181c9060e81b176105e952565b61070d610184356105ef5160181c9060e81b176105ec52565b61071a6101a43561018852565b6107276101c4356101a852565b6107346101e43561010852565b61074c610204356101085160801c9060801b1760f852565b61075861022435610c47565b61076461024435610cac565b61082860405261077661080861060f52565b6107845f6101085113610f05565b61079b6102065160c01c6101c85160c01c13610f0e565b6107b261021261020d60d85160b41c5f0b603b1b90565b6107c961023661022f60d85160b41c5f0b603b1b90565b6107e261025561079e5160281c80805f03169004611196565b61033b6107ed611833565b600a6108085fa160405190151581529081906020820190565b3461027e5760e036600319011261027e5761085b610822610282565b61082a610291565b6044356064356084359160a4359360c4359560ff026101515360ff0261015053610188526101a85261010852611a4e565b610188516101a8516101085160408051938452602084019290925290820152606090f35b9181601f8401121561027e5782359167ffffffffffffffff831161027e576020808501948460051b01011161027e57565b3461027e5761028036600319011261027e57366102441161027e576102443567ffffffffffffffff811161027e57806004016108ec368261087f565b5050610264359167ffffffffffffffff831161027e57610add600184610ac86108089586610b029860040191610922368461087f565b505061092f60043560d852565b61094760243561069f5160801c9060801b1761068f52565b61095f6044356106ba5160d81c9060281b1761069f52565b6109776064356106d55160d81c9060281b176106ba52565b61098f60843561068f5160801c9060801b1761067f52565b6109a760a4356107b95160d81c9060281b1761079e52565b6109bf60c4356107fa5160301c9060d01b176107f452565b6109d760e4356108065160301c9060d01b1761080052565b6109e4610104356105a952565b6109f1610124356105c952565b610a0a610144356105ec5160181c9060e81b176105e952565b610a23610164356105ef5160181c9060e81b176105ec52565b610a306101843561018852565b610a3d6101a4356101a852565b610a4a6101c43561010852565b610a636101e4356101505160401c9060c01b1761014852565b610a7b610204356101085160801c9060801b1760f852565b610a94610224356106535160101c9060f01b1761065152565b35938460051b80986024018337878201923560051b80916024018437870101604052610ac26108086105ef52565b61060f52565b811c016106515160101c9060f01b1761064f52565b5f196106515160f01c0160031b01015160c01c61067f5160401c9060c01b1761067752565b610b105f6101085113610f05565b610b276101485160c01c6106775160c01c13610f0e565b610b3e61021261020d60d85160b41c5f0b603b1b90565b610b5561023661022f60d85160b41c5f0b603b1b90565b610b6e61025561079e5160281c80805f03169004611196565b6101505160ff1c15610c0257610b976102f561060f516105af815160c01c916008015160c01c90565b610baf61016d5160d81c64ffffffffff191761015252565b610bc76101885160d81c64ffffffffff191761016d52565b61033b610bd2611ada565b600a61060f516001196106515160f01c0160031b015160c01c6108085fa260405190151581529081906020820190565b610b976102f561060f51610c1f815160c01c916008015160c01c90565b90610ee7565b9060018201809211610c3357565b634e487b7160e01b5f52601160045260245ffd5b610caa90610c5481612cc2565b905f198083019083600160c11b5f5160206147305f395f51905f520984030181600160c11b5f5160206147305f395f51905f5209086101a880516101e69290925260289390931c6101cb526101b0919091529052565b565b610caa90610cb981612cc2565b905f198083019083600160c11b5f5160206147305f395f51905f520984030181600160c11b5f5160206147305f395f51905f5209086101e680516102249290925260289390931c610209526101ee919091529052565b610caa90610d1c81612cc2565b905f198083019083600160c11b5f5160206147305f395f51905f520984030181600160c11b5f5160206147305f395f51905f520908610740805161077e9290925260289390931c61076352610748919091529052565b610caa90610d7f81612cc2565b905f198083019083600160c11b5f5160206147305f395f51905f520984030181600160c11b5f5160206147305f395f51905f52090861027380516102b19290925260289390931c6102965261027b919091529052565b610caa90610de281612cc2565b905f198083019083600160c11b5f5160206147305f395f51905f520984030181600160c11b5f5160206147305f395f51905f52090861036b80516103a99290925260289390931c61038e52610373919091529052565b610caa90610e4581612cc2565b905f198083019083600160c11b5f5160206147305f395f51905f520984030181600160c11b5f5160206147305f395f51905f5209086103a980516103e79290925260289390931c6103cc526103b1919091529052565b6001606f1b811315610eaa5790565b506001606f1b90565b805f125f14610ebf5790565b505f90565b5f811215610ed157505f90565b90565b806001125f14610ee15790565b50600190565b81811215610ef3575090565b905090565b9080821215610ef3575090565b60ff0261015153565b60ff0261015053565b610f85610f7f7fcf8e41e6c4d4aa5e9cc597c10cd32eacd30c44f750a8ffdb1a8863dd8f72f0a5926802d00000000000000003610f6a610f63610f5c83800260251b90565b6003900490565b9160921b90565b600160ff1b8183018101929190910301612e22565b60021b90565b808002905f1990800903808002905f1990800903808002905f1990800903808002905f1990800903808002905f1990800903808002905f1990800903808002905f1990800903808002905f1990800903808002905f1990800903808002905f1990800903808002905f1990800903808002905f1990800903808002905f1990800903808002905f1990800903808002905f1990800903808002905f1990800903808002905f1990800903808002905f1990800903808002905f1990800903808002905f1990800903808002905f1990800903808002905f1990800903808002905f1990800903808002905f1990800903808002905f1990800903808002905f1990800903808002905f1990800903808002905f1990800903808002905f1990800903808002905f1990800903808002905f1990800903808002905f1990800903808002905f1990800903808002905f1990800903808002905f1990800903808002905f1990800903808002905f1990800903808002905f1990800903808002905f1990800903808002905f1990800903808002905f1990800903808002905f1990800903808002905f1990800903808002905f1990800903808002905f1990800903808002905f1990800903808002905f1990800903808002905f19908009037f872db9e8ffa9e7d41f2aaf39897b91e4002e70fceed391471fad73d51503772d600160bf1b82099060bf1b030290565b6002816003021880820260020302808202600203028082026002030280820260020302808202600203028091026002030290565b61137b6101505160ff1c805f14611455576112136111f56102295160281c61079e5160281c90611f1e565b6106ba5160d81c61069f525b6106d55160d81c9060281b176106ba52565b61121b611f73565b80156113fc5761127f6102065160c01c6107605160c01c900361124b61020e5160281c6107835160281c9061205a565b906112636102295160281c6107685160281c90612035565b90919091906101e6519261022452610209526101ee526101e652565b611335610551611330610264516112c56112b460d8516102065160c01c671447e579411c2c936010526008525f5260305f2090565b80549081156113cb575b5061026452565b610244519061068f5160801c916112ee6101c8881515601b026023030193845160281c906120be565b016112f98161024452565b61131e60d8516101c85160c01c671447e579411c2c936010526008525f5260305f2090565b55610264519003905160281c906120f0565b610e9b565b61135a60d8516101c85160c01c67d7cb7a927a838d416010526008525f5260305f2090565b5490156113be5761067f5160801c0361068f5160801c9060801b1761067f52565b6113ae61060f516101c85160c01c6102065160c01c9060801b9060c01b1790526106535160101c600160f11b1761065152565b6113b661210d565b610caa611486565b61067f5160801c01610563565b90506113f36102068815601b02602303015160281c6107685160281c600160d81b0390612e7b565b8091555f6112be565b61127f6102065160c01c6107605160c01c0161142561020e5160281c6107685160281c90612035565b9061143d6102295160281c6107835160281c9061205a565b916101e6519261022452610209526101ee526101e652565b61121361146f61020e5160281c61079e5160281c90611f1e565b6112015f916106ba5160d81c9060281b1761069f52565b6101515160ff1c156114ce57610caa6114bc6107d95160281c6102066101505160ff1c1515601b02602303015160281c90611f1e565b6101885160d81c9060281b1761016d52565b610caa6114f761079e5160281c6101c86101505160ff1c15601b02602303015160281c90611f1e565b6114bc565b1561150357565b633011642560e01b5f5260045ffd5b60d8515f52602052610caa5f80604081206f67363d3d37363d3df03d5260086018f3825260108083f561154f6001600160a01b03821615156114fc565b6106d582610133811961064f5160f01c0160061b6106e05160581c610129820160401b6a61000080600a3d393df3001760a81b17845201925af16114fc565b91905f5260205260405f20604051915f5260ff600b536020527ff779edcbdc615c777a4cb2bee1bf733055aa41ff7247837d0cd548565f65d0346040526055600b2060145260405261d6945f5260016034536017601e206001600160a01b031690565b60016106e0610128923c565b90610808610129915f190160061b923c565b610caa6001610655510180610655526116326108065160f01c9160d8513061158e565b61012860016106e0833c6116696107f45160d01c6107fa5160d01c8082105f1461168b57506107fa5160301c9060d01b176107f452565b6101296105ef515f19840160061b923c6106515160101c9060f01b1761064f52565b90506107fa5160301c9060d01b176107f452565b156116a8575050565b6316b77c3360e31b5f5260045260245260445ffd5b6113ae6116cc61060f5161219f565b61174161172f6107605160c01c61170f678000000000000000610128516116fa60d85160b41c5f0b603b1b90565b9003016001835f198189030106840101610ee7565b905f1990805f19888201600160401b03010601600160401b030190610ef8565b6101505160401c9060c01b1761014852565b6101485160c01c906106775160c01c61175a8184131590565b926101505160f81c91600183111561181c575b50505061177982610f0e565b61010851611789905f1315610f05565b81156118125761179890610c47565b156117e4576117b46101d05160281c6107835160281c9061205a565b6117cb6101eb5160281c6107685160281c90612035565b91906101e6519261022452610209526101ee526101e652565b6117fb6101d05160281c6107685160281c90612035565b6117cb6101eb5160281c6107835160281c9061205a565b9161179890610c47565b61182b9215158515151461169f565b5f808061176d565b5f9061067f5160801c60f85160801c11611a48576118636102065160c01c61067f5160401c9060c01b1761067752565b61189661060f516102065160c01c6101c85160c01c9060801b9060c01b1790526106535160101c600160f11b1761065152565b61068f5160801c61067f5160801c026101505160ff1c5f14611a12576118e26118c5826106ba5160281c6122b0565b916118dd61020e5160281c6107d95160281c90611f1e565b6122ef565b905b6101505160ff1c156119e85761190a61146f61020e5160281c61079e5160281c90611f1e565b61192f61055161068f5160801c6107d95160281c9061079e5160281c80920390613121565b61067f5160801c156119e15790610caa916119486123fd565b611952575b611a4e565b61196b6107d95160281c61079e5160281c810384612f1c565b6101505160ff1c156119ac5761199a61199261194d926105a9516105e95160e81c91612436565b91906105a952565b6105ec5160181c9060e81b176105e952565b6119cf6119c761194d926105c9516105ec5160e81c91612436565b91906105c952565b6105ef5160181c9060e81b176105ec52565b505f925050565b61190a611a026102295160281c61079e5160281c90611f1e565b6106ba5160d81c61069f52611201565b611a42611a258261069f5160281c6121fc565b91611a3d6102295160281c6107d95160281c90611f1e565b612256565b906118e4565b60019150565b906101505160ff1c5f14611ab857611a7e81611a71845f03915b610188516124ef565b610188526101a8516124ef565b6101a8526101515160ff1c15611a9d5761054b91506101085103610eb3565b506101085101805f125f14611ab357505f61054b565b61054b565b611a7e825f03611a718391611a68565b61016d5160d81c9060281b1761015252565b5f61067f5160801c60f85160801c11610ee157611af561251b565b61028b5160c01c905b61038b5160c01c8214611f175750611b146125c7565b9081611b205790611afe565b505b6101505160ff1c611b59611b4a6105225160281c835f14611f0a576106ba5160281c90610ef8565b610502519061051d5261050252565b611b61611f7e565b611b7a6105225160281c61053851906105535261053852565b611b82611f89565b61068f5160801c61067f5160801c02906105225160281c906105075160281c92815f14611ef15761069f5160281c840192806106ba5160281c03945b85611bd8611bce8686899661232f565b92858715916123a9565b9580958891600160d81b90819a61038b5160c01c6102065160c01c81145f14611d735750505050611ccf98505f14611d35575091611c47611c2a8593611c2461194d97610551976122b0565b906124ef565b95611c4261020e5160281c61079e5160281c90611f1e565b610ef8565b905f905f90809380955b611c67826106ba5160d81c9060281b1761069f52565b611c7d856106d55160d81c9060281b176106ba52565b611c9961038b5160c01c61067f5160401c9060c01b1761067752565b611cad61060f5161038b5160c01c90612b24565b611cb56123fd565b611ce0575b50505050508161068f5160801c910390613121565b8015611cd85790565b610ed1612cb5565b611d2b946119cf94611d1461199a611992611d0386611d1a986119c79a036121fc565b6105a9516105e95160e81c91612436565b036122b0565b6105c9516105ec5160e81c91612436565b5f80808080611cba565b9450611d67611d4f8593611c2461194d97610551976121fc565b95611c426102295160281c61079e5160281c90611f1e565b5f915f81938395611c51565b611d906104479d9a95929394999d9b96989b5160f01c1515151590565b9081611ee0575b50611db5575b50505091611ccf9861194d9694926105519694611c51565b9350945095509693505b611dc9838661276a565b611dbf57611ccf97611ddb8487612976565b96909587958793611df661060f516103c95160c01c90612b24565b611e028a838b87612c3d565b9a91929093849c849c5f14611e7957505050611e2b928d92611e2392612f1c565b8094036121fc565b919315611e5b5791611e4961194d9896949261055198969403610eb3565b995b929496829b508194969850611d9d565b989791611e7361194d989694926105519896946124ef565b98611e4b565b8f9e969f9490611e97939a9b50611ea496929850611e9f9450612f1c565b809503610ec4565b6122b0565b919415611ec15791611e7361194d989694926105519896946124ef565b979891611eda61194d9896949261055198969403610eb3565b99611e4b565b6102935160c01c141590505f611d97565b8261069f5160281c03926106ba5160281c850194611bbe565b61069f5160281c90610ef8565b9050611b22565b64f8f6376c447f28256938c4923ff15ab260970aa81f81c15e6f5ef3af38dc210569e77db19359927e1561650620dabb6a84b684e2a7e5a47caa0a0905210083f0e3b551aabf84e98183850209920202030290565b603e6102066101c85e565b603e61038b6103c95e565b603e61038b6104c95e565b603e6102936102d15e565b603e61029361030f5e565b603e61029361034d5e565b603e61029361038b5e565b603e6102936104095e565b603e6102936104495e565b603e61040961030f5e565b603e9061038b5e565b603e906103c95e565b603e61048961030f5e565b603e6104c96103c95e565b603e6103c961034d5e565b603e61030f6103c95e565b603e61034d6103c95e565b603e6103c961038b5e565b6001600160d81b039190600160d81b8282096001600160d81b03908103929091090890565b6774600bc82ce9df527f7f6af8233bada11dd406b4458454ed9904d7af796be7aa4885b23e25b6985d49927fdbb82f7041b890fe67970a62a3568cc34df9dcb17cc3a2a6a027850e7e3724f9632ec3a856820264027d117d7b850209920202030290565b6120e66120de6120d69360271b938493606e1b614285565b9390936142d9565b9390926142d9565b9182915001100190565b6121006120de6120d68493614285565b91829150011001602d1c90565b6101515160ff1c1561215b57610caa611ac861079e5160281c6101505160ff1c5f1461215257610720515b610108519061068f5160801c61067f5160801c029261306c565b61074051612138565b610caa611ac861079e5160281c6101505160ff1c5f1461219657610740515b610108515f039061068f5160801c61067f5160801c0292612f7b565b6107205161217a565b6008815160c01c91015160c01c818113155f146121b95791565b9091565b949392919094156121cf575050505050565b60a495506040519463059cafa160e51b865260048601526024850152604484015260648301526084820152fd5b610740515f83129392610caa929190851561224a578261223087835f03945b61079e5160281c80966107b9519889936142ed565b9715612245575f035b966107405190156121bd565b612239565b8261223087839461221b565b610720515f83129392610caa929085156122a957805f03915b61228f61079e5160281c9485946107b951968791858c15600114946142ed565b97156122a4575f035b966107205190156121bd565b612298565b809161226f565b610720515f83129392610caa92919085156122e3578261228f87835f039461079e5160281c80966107b9519889936142ed565b8261228f87839461221b565b610740515f83129392610caa9290851561232857805f03915b61223061079e5160281c9485946107b951968791858c15600114946142ed565b8091612308565b919291610caa91841561239f5761072051905b825f821280156123945761236a81845f03955b61079e5160281c80976107b951998a936142ed565b911561238f575f035b97156123855761072051905b156121bd565b610740519061237f565b612373565b61236a818495612355565b6107405190612342565b919291610caa919084156123f35761072051915b5f81129182156123ec57815f03925b61236a61079e5160281c9586956107b951978891868615600114946142ed565b81926123cc565b61074051916123bd565b6107f45160d01c1580159061240f5790565b506108005160d01c151590565b156124245750565b631718db0760e31b5f5260045260245ffd5b92905f9261080051916b7fffffffffff8000000000006107f45160d01c8460d01c6580000000000003029360a11c1683015f1990600160a21b905f19906001605e1b818b0919905f19908b0908098101958693612496858481121561241c565b6124aa856001600160e71b0381131561241c565b5f85136124b9575b5050505050565b9495509293919290915f1991600160a21b9183916001605e1b82820919915f199109080960171b9102010490825f8080806124b2565b919080830192808412155f83121503612506575050565b639389559160e01b5f5260045260245260445ffd5b61259761060f51612540611c426125318361219f565b91906101485160c01c90610ee7565b6102935160401c9060c01b1761028b526125926106515160f01c915f198301612575816102875160101c9060f01b1761028552565b60031b81015160c01c926001190160031b015160c01c8212613174565b610d72565b61259f611f94565b6125a7611f9f565b6125af611faa565b6125b7611fb5565b6125bf611fc0565b610caa611fcb565b5f9061038b5160c01c6104495160c01c1461275d575b6102845160ff1c61038b5160c01c61034d5160c01c1461272e575b61030f516104095160c091821c911c13901515908103612721575b61263161262c61034d5160c01c6104495160c01c121590565b151590565b81036127135761264761ffff6104495b16611fe1565b6101505160ff1c151581036126f05761028b5161038b51610caa945060c091821c92911c8212036126e1575b506101515160ff1c156126c657612688613bc0565b9290926126b861269661348a565b915b6126aa8360281b610522510161052252565b60281b610507510161050752565b60281b61058e510161058e52565b6126ce6137a0565b9290926126b86126dc6139ac565b612698565b6126ea90610dd5565b5f612673565b50610caa6126fc61348a565b61270e8160281b61053d510161053d52565b6126b8565b61264761ffff61034d612641565b612729611fd6565b612613565b6127416127509161058e5160281c6131ac565b61056e51906105895261056e52565b6127586133c2565b6125f8565b61276561317d565b6125dd565b906103c95160c01c6104c95160c01c14612969575b6103c95160c01c6104495160c01c1461295c575b6102845160ff1c906103c95160c01c61034d5160c01c1461293a575b61030f516104095160c091821c911c1391151591820361292d575b61034d516104495160c091821c911c13820361291f576127f061ffff6104495b16611fea565b6101505160ff1c151582146128d8575b6128086135a8565b916128186101505160ff1c151590565b036128bb576128665f9161282a613689565b9461283d8560281b610558510161055852565b61284f8660281b610573510161057352565b6128618560281b61058e510161058e52565b613eab565b13612872575050600190565b6128a16128af92612881612009565b6128938360281b610558510361055852565b60281b610573510361057352565b60281b61058e510361058e52565b6128b7612014565b5f90565b506128d391506126b88160281b61053d510161053d52565b600190565b61030f516104895160c091821c911c138203612912575b6103c9516104c95160c091821c911c1382036128005761290d611ffe565b612800565b61291a611ff3565b6128ef565b6127f061ffff61034d6127ea565b612935611fd6565b6127ca565b9061274161294e9161058e5160281c61325e565b6129566133c2565b906127af565b61296461317d565b612793565b612971613deb565b61277f565b90916101505160ff1c905b61298b8484613f3e565b919283156129ff575050506129d090835f146129d5576129be6129cb9161034d5160c01c906103c95160c01c0190610ee7565b61030f5160c01c90610ef8565b610e38565b612981565b6129f26129cb9161030f5160c01c906103c95160c01c0190610ee7565b61034d5160c01c90610ef8565b909250610ed19495919395612a21612a178685612035565b610c1f868b612035565b916103c95160c01c612a3961034d5160c01c82141590565b9081612afc575b61030f5160c01c14159182612aed575b5080159182612ae5575b50612a73575b50505090612a6d91610ef8565b93610ef8565b612a9390612abe94969293959293612a89612009565b15159015146140bf565b612a9d88866141ee565b94909390612ab985610c1f612ab2898b612035565b918d612035565b121590565b612acd575b8094929394612a60565b909150612a6d9250612add61201f565b90915f612ac3565b90505f612a5a565b1515831515141591505f612a50565b821515841515149150612a40565b15612b125750565b63855b486b60e01b5f5260045260245ffd5b91825160c01c91600884015160c01c92612b3e8482610ef8565b80831315612c0d57612b508583610ee7565b83811315612be35750506106515160f01c90846001915b1215612bdb578483125b15612bca5760010181811015612b92578060031b86015160c01c8095612b67565b91610caa94506001939591505b60c01b908260031b0152612bb78161ffff8110612b0a565b016106535160101c9060f01b1761065152565b91610caa9450600193959150612b9f565b828512612b71565b925092949050610caa9350919060801b9060c01b1790526106535160101c600160f11b1761065152565b9150610caa93612c1f91959395610ee7565b9060801b9060c01b1790526106535160101c600160f11b1761065152565b919290928215612ca6575b612c5282846142d9565b612c5c86846142d9565b929091808411938415612c86575b505050505f14612c7c575090925f9150565b9390925060019150565b1492509082612c9b575b50505f808080612c6a565b101590505f80612c90565b83612c48579390925060019150565b6103256103241961028439565b612d9390610f7f90808002908180025f19600160801b808386095f19848709030990612d46612d38612d31600f600760681b8802046609c0000000000085040169c9180000000000000000860401612d298580025f19878009621eee11605a1b9190030490565b0196606a1b90565b600f900490565b916624900000000000900490565b5f1993600160b41b936a06df92000000000000000090049190920101600160ff1b01906910000000000000000000828209915f1991090309600160fe1b8183018101929190910301612e22565b808002905f1990800903808002905f1990800903808002905f1990800903808002905f1990800903808002905f1990800903808002905f1990800903808002905f1990800903808002905f1990800903808002905f1990800903808002905f1990800903808002905f1990800903808002905f1990800903808002905f1990800903808002905f199080090390565b5f198281019283919080600160fe1b850990030191600160fe1b90090890565b5f198281019283919080600160ff1b850990030191600160ff1b90090890565b90915f1981019283915f19908083860990030192090890565b5f19817b0ba4f53ea38636f85f007042540ae8ef33225e9a7ab4f4473a86d4a80991817b0ba4f53ea38636f85f007042540ae8ef33225e9a7ab4f4473a86d4a80291828085109403938085039414612f155781907b0ba4f53ea38636f85f007042540ae8ef33225e9a7ab4f4473a86d4a809612efd82805f0316809304611196565b93600183805f03040190848311900302920304170290565b5091500490565b9091612f2883836142d9565b9390928415612f455790829109612efd82805f0316809304611196565b505091500490565b612f67612f5f849593612f6f936142d9565b9590956142d9565b9390946142d9565b80939194019283100190565b90612f899291949394612f4d565b91939091600160671b81101561305d57612fb29060711b612faa84608f1c90565b179260711b90565b612fbc85608f1c90565b1781805f19850981858408089283821090038281101561304d5783839261300c9284717fffffffffffffffffffffffffffffffffff965f0316928391600183805f03040102920304179204611196565b0293161590811591613043575b50613039575b600160d81b82101561302d57565b6001600160d81b039150565b906001019061301f565b905015155f613019565b506001600160d81b039450505050565b506001600160d81b0393505050565b906130779291612f4d565b909190600160671b8110156130fb576130a86130966130af9260711b90565b6130a085608f1c90565b179360711b90565b91608f1c90565b179082805f198309818385080890818310900391838310156130fb576130eb9284805f0316928391600183805f03040102920304179204611196565b0290600160d81b82101561302d57565b506001600160d81b039392505050565b1561311257565b636dd3b1dd60e11b5f5260045ffd5b9161315f916108005160d01c846107f45160d01c910285602f1b0380910290602f1b0361315a8361315284846142d9565b90501061310b565b612f1c565b605e1c0190610caa6001607f1b83131561310b565b60ff0261028453565b60406104476104075e610caa6105ef51600160f01b6102875101806102875260f01c6102845160ff1c916143d9565b901515601b0260230368a43903008fac41d97d6102d161038b83015160281c92015160281c7f5bc2a24e50a66d39c35a9132c33f2fc50a1b99389d5455e78a7cf7ef8894e4cd8163cb21e499028464cef6ae8685020992020203907fdbad67320459464b8d379def907a3e0c7c8687340b82b93b6e54e966e257826781830202917f7082326d62b7ef4d06861f13c21dd192c8044b19a121205b7dc63c2642b5a8055f1992634bc3287b029102090390565b901515601b0260230368a43903008fac41d97d6102d16103c983015160281c92015160281c7f5bc2a24e50a66d39c35a9132c33f2fc50a1b99389d5455e78a7cf7ef8894e4cd8163cb21e499028464cef6ae8685020992020203907fdbad67320459464b8d379def907a3e0c7c8687340b82b93b6e54e966e257826781830202917f7082326d62b7ef4d06861f13c21dd192c8044b19a121205b7dc63c2642b5a8055f1992634bc3287b029102090390565b901515601b0260230368a43903008fac41d97d61038b6103c983015160281c92015160281c7f5bc2a24e50a66d39c35a9132c33f2fc50a1b99389d5455e78a7cf7ef8894e4cd8163cb21e499028464cef6ae8685020992020203907fdbad67320459464b8d379def907a3e0c7c8687340b82b93b6e54e966e257826781830202917f7082326d62b7ef4d06861f13c21dd192c8044b19a121205b7dc63c2642b5a8055f1992634bc3287b029102090390565b603e6102d161030f5e603e61034d6102d15e61345561060f5161ffff60f01b6102855101806102855260f01c60031b015160c01c6133ff81612cc2565b905f198083019083600160c11b5f5160206147305f395f51905f520984030181600160c11b5f5160206147305f395f51905f52090861032d805161036b9290925260289390931c61035052610335919091529052565b6102845160ff1c159061346782613174565b610caa826105ef516102875160f01c90613485835f19840183614475565b6143d9565b61030f5160c01c61038b5160c01c8082146135a2576104075160f01c906104475160f01c90811561359a5782820390848112918215601b02602303958561038b61030f89015160281c98015160281c951461358c576001603c1b82916104095160c01c938491875f1461357c578391920301029383030102925b1561356d576104495160c01c900380915b600160c01b87820993600160c01b86820991828610916001600160c01b03908890098601906001600160c01b03908a90098301030393600160c01b918203900881840660c01b0104910460c01b0192030201600f1c90565b6104495160c01c038091613515565b8284910301029403010292613504565b5050505090910302600f1c90565b505050505f90565b50505f90565b61030f5160c01c6103c95160c01c8082146135a2576104075160f01c906104475160f01c90811561359a5782820390848112918215601b0260230395856103c961030f89015160281c98015160281c951461358c576001603c1b82916104095160c01c938491875f1461357c578391920301029383030102921561356d576104495160c01c90038091600160c01b87820993600160c01b86820991828610916001600160c01b03908890098601906001600160c01b03908a90098301030393600160c01b918203900881840660c01b0104910460c01b0192030201600f1c90565b61030f5160c01c6103c95160c01c8082146135a2576104875160f01c906104c75160f01c90811561359a5782820390848112918215601b0260230395856103c961030f89015160281c98015160281c951461358c576001603c1b82916104895160c01c938491875f1461377a578391920301029383030102925b1561376b576104c95160c01c90038091600160c01b87820993600160c01b86820991828610916001600160c01b03908890098601906001600160c01b03908a90098301030393600160c01b918203900881840660c01b0104910460c01b0192030201600f1c90565b6104c95160c01c038091613515565b8284910301029403010292613703565b1561379157565b630f975a0160e11b5f5260045ffd5b6101525160281c6105225160281c9003906137b961348a565b90828213156139a7576101505160ff1c908115613991576104095160c01c6104495160c01c9003905b6104475160f01c926104075160f01c809403936138358786603c1b9286028301845f1461397857876104095160c01c61030f5160c01c90030201955b61030f851515601b02602303015160281c906144f7565b84608e1b03800190825f146139595761030f5161038b5160c090811c91901c039661386b90613866905b8a8a612e62565b610ed4565b8587820201908261388461387e83612cc2565b86612e42565b83608e1b039203809205918883020582603c1d039182600160531b03908001059182156138c5575088611c42613884936138be9301610ed4565b905061386b565b94975095505050506138df919450600160531b141561378a565b811561394a5761030f5160c01c0392905b6138f984610e38565b6139016135a8565b935b82851261391b5750505061391561202a565b60019190565b919350908115613942575f19015b613932826140bf565b61393a6135a8565b939190613903565b600101613929565b61030f5160c01c0192906138f0565b61038b5161030f5160c090811c91901c039661386b906138669061385f565b8761030f5160c01c6104095160c01c900302019561381e565b6104495160c01c6104095160c01c9003906137e2565b5f9250565b5f61030f5160c01c9061038b5160c01c808314613ac4576104475160f01c918215613abd57506104495160c01c908381129081601b026023039261038b61030f85015160281c94015160281c956104075160f01c808714613aae57826001603c1b9188038093875f14613a9d5782849103010294030102925b15613a8d576104095160c01c0380915b600160c01b85820990600160c01b88860994828610916001600160c01b03908890098601906001600160c01b03908a90098301030393600160c01b918203900881840660c01b0104910460c01b0192030203600f1c90565b6104095160c01c90038091613a35565b839192030102938303010292613a25565b505050505090910302600f1c90565b9250505090565b5050505f90565b5f61030f5160c01c906103c95160c01c808314613ac4576104475160f01c918215613abd57506104495160c01c908381129081601b02602303926103c961030f85015160281c94015160281c956104075160f01c808714613aae57826001603c1b9188038093875f14613a9d57828491030102940301029215613a8d576104095160c01c038091600160c01b85820990600160c01b88860994828610916001600160c01b03908890098601906001600160c01b03908a90098301030393600160c01b918203900881840660c01b0104910460c01b0192030203600f1c90565b15613bb157565b637fbbcd6760e01b5f5260045ffd5b6101525160281c6105075160281c900390613bd96139ac565b82811315613de5576101505160ff1c928315613dcf576104095160c01c6104495160c01c9003925b6104475160f01c936104075160f01c85039586603c1b9582028603815f14613db6578761030f5160c01c6104495160c01c90030201955b613c548583159461030f86601b02602303015160281c906144f7565b87608e1b0390825f14613da05761030f5160c01c61038b5160c01c9003975b8897808a1315613d85575b50965b878a8202039082613ca3613c9d613c9784612cc2565b60281c90565b8661454a565b83608e1b019201809205918b83020582603c1d019182600160531b0390800105918215613ce4575089611c42613ca393613cdd9303610ed4565b9050613c81565b9150925060018094979a50613d0c9699959850613d06925060531b1415613baa565b01610ef8565b8115613d755761030f5160c01c039391905b613d2785610e38565b613d2f613acb565b945b838613613d44575050505061391561202a565b92945090918115613d6d576001015b90613d5d836140bf565b613d65613acb565b949291613d31565b5f1901613d53565b61030f5160c01c01939190613d1e565b613ca3919850613866613d9991898c612e62565b9790613c7e565b61038b5160c01c61030f5160c01c900397613c73565b876104495160c01c61030f5160c01c9003020195613c38565b6104495160c01c6104095160c01c900392613c01565b5f925090565b60406104c76104875e610caa6105ef51613e1d600160f01b6102895101806102895260f01c6101505160ff1c926146cd565b929390919015613e7657613e43613e509161038b5160c01c03936103935160281c61205a565b916103ae5160281c61454a565b919091925b6104a780516104e7959095526104cc939093526104b1919091526104a95252565b613e95613ea29161038b9493945160c01c01936103935160281c61454a565b916103ae5160281c61205a565b91909192613e55565b6101505160ff1c91613ec38361058e5160281c61325e565b6105735160281c90613ed58583613310565b900361053d5160281c90036105075160281c9003906105225160281c016105585160281c9003935f14613f1b57613f169291613f109161454a565b9261454a565b900390565b613f1692613f109161454a565b15613f2f57565b6327177a2d60e11b5f5260045ffd5b906101505160ff1c90815f146140b95791905b613f596135a8565b90613f62613689565b613fa682613fa081613f926105225160281c8a01886105585160281c019003956105735160281c01809601610ec4565b9661058e5160281c0161325e565b92613310565b900392613fc561053d5160281c858301036105075160281c9003610ec4565b94613fce614575565b614022613fd961467f565b918515926103c98415601b0260230361400c8361038b614001876102d186015160281c611f1e565b93015160281c611f1e565b900394601b02602303015160281c910390611f1e565b931561408f5781816140559261403c8a61405e9796612035565b6140468987612035565b900399975b979801019061454a565b9280019061454a565b01935f85135f851314159460161d808560261b0594851561407d575050565b6140845750565b610caa901515613f28565b829181614055926140a68861405e979b999b612035565b6140b08985612035565b9003999761404b565b90613f51565b1561415957610caa5f196103c95160c01c017faa3ed2381a8b1241d16168fd77ef989ed2b13be12b716aa23f35ed0e395560016103d15160281c780fffffffffffffff8000000000000002aaaaaaaaaaaaaaa001780fffffffffffffff8000000000000002aaaaaaaaaaaaaaa000199109026141406103ec5160281c6146a5565b91906103a951926103e7526103cc526103b1526103a952565b610caa60016103c95160c01c016141756103d15160281c6146a5565b7faa3ed2381a8b1241d16168fd77ef989ed2b13be12b716aa23f35ed0e395560016103ec5160281c780fffffffffffffff8000000000000002aaaaaaaaaaaaaaa001780fffffffffffffff8000000000000002aaaaaaaaaaaaaaa0001991090291906103a951926103e7526103cc526103b1526103a952565b906101505160ff1c90815f1461427c5761427390925b61425a61420f6135a8565b614217613689565b9061422a868261058e5160281c0161325e565b916105735160281c019161423e8784613310565b9003966105225160281c01906105585160281c01900301610ec4565b9361053d5160281c9101036105075160281c9003610ec4565b90156121b95791565b61427390614204565b905f19827fba4f53ea38636f85f007042540ae8ef33225e9a7ab4f4473a86d4a8fdd1a5b8209917fba4f53ea38636f85f007042540ae8ef33225e9a7ab4f4473a86d4a8fdd1a5b8202918280821091030390565b91905f198184099202918280821091030390565b94959392916142fd915f96612f4d565b90939192906001606f1b8110156143cb576143279060911b61431f86606f1c90565b179460911b90565b61433184606f1c90565b179080805f198709818785080894858310900390808210156143bc578086915f031691600183805f03040102920304170294614381575b5050600160ff1b83101561437857565b5f925060019150565b6d7fffffffffffffffffffffffffff1615908115916143b2575b506143a8575b5f80614368565b91600101916143a1565b905015155f61439b565b505f9750600196505050505050565b505f96506001955050505050565b610caa92916143e7916146cd565b9293909190156144405761440d61441a916102d15160c01c03936102d95160281c61205a565b916102f45160281c61454a565b919091925b61042780516104679590955261044c93909352610431919091526104295252565b61445f61446c916102d19493945160c01c01936102d95160281c61454a565b916102f45160281c61205a565b9190919261441f565b610caa9291614483916146cd565b9293909190156144cf5761440d6144a9916102d15160c01c03936102d95160281c61205a565b919091925b6103e780516104279590955261040c939093526103f1919091526103e95252565b61445f6144ee916102d19493945160c01c01936102d95160281c61454a565b919091926144ae565b90917fd49c04af80af1ea5f98f85886b450a4b264fc14874f9f64143836145a37dd8a1927f0f1aaddd7742e56d32fb9f997447d9e6314db84884fabab26bf059af9bc20b61828183860909920202030290565b5f199165010000000000918391600160d81b81830919915f19915f81129003905f8112900309080990565b6104075161040951610447516104495160c092831c93921c9160f090811c91901c5b909192811561359a57828214614656576103c95160c01c80851461462c57837c15fc21041027acbbfcd46780fee71ead23fbcb7f4a81e58767ef801a3294958381125f1461461c5783039303910302905b80600160c01b838509926001600160c01b03908482039082908709089281840660c01b0104910460c01b0191020160281c90565b92809293039303910302906145e8565b50507c15fc21041027acbbfcd46780fee71ead23fbcb7f4a81e58767ef801a320260281c92915050565b50507c15fc21041027acbbfcd46780fee71ead23fbcb7f4a81e58767ef801a3291500260281c90565b61048751610489516104c7516104c95160c092831c93921c9160f090811c91901c614597565b780fffffffffffffff8000000000000002aaaaaaaaaaaaaaa00119818102915f199190090390565b905f80821561470657505060061b0190603f1982015160f01c91603d1981015160c01c9160351982015160281c91601a19015160281c90565b9093909250600160d81b91507801e355bbaee85cada65f73f32e88fb3cc629b709109f57564d9056fef1aaddd7742e56d32fb9f997447d9e6314db84884fabab26bf059af9bc20b609a2646970667358221220adaabf463c37d6122f1c30c0d33241b5cdf0c95a1882a83ee5006b8219b29ffb64736f6c63430008210033","linkReferences":{}},"methodIdentifiers":{"_calculateIntegralLimitInterval(bool,bool,int256,int256,int256,int256)":"39543168","_cross(uint256[19])":"b0d4f3bc","_setSwapParams(uint256,uint256,uint256,int256,int256,int256,int256,int256,uint256)":"89bb1ec7","_swapWithin(uint256[18],uint256[],uint256[])":"f254a6f3","_transition(uint256[12])":"0c3f03ce","_updateAmounts(bool,bool,int256,int256,int256,int256,int256)":"d69f819f","_updateKernel(uint256,uint256,uint256,uint256,bytes,bytes)":"69b87350"},"id":30}