{"abi":[{"type":"function","name":"_impose","inputs":[{"name":"kernel","type":"uint256","internalType":"Kernel"},{"name":"resultant","type":"uint256","internalType":"uint256"},{"name":"basePrice","type":"uint256","internalType":"uint256"},{"name":"index","type":"uint256","internalType":"Index"},{"name":"left","type":"bool","internalType":"bool"},{"name":"memberContent0","type":"uint256","internalType":"uint256"},{"name":"memberContent1","type":"uint256","internalType":"uint256"},{"name":"basePriceContent0","type":"uint256","internalType":"uint256"},{"name":"basePriceContent1","type":"uint256","internalType":"uint256"}],"outputs":[{"name":"resultantContent0","type":"uint256","internalType":"uint256"},{"name":"resultantContent1","type":"uint256","internalType":"uint256"}],"stateMutability":"nonpayable"},{"type":"function","name":"_member","inputs":[{"name":"kernel","type":"uint256","internalType":"Kernel"},{"name":"kernelArray","type":"uint256[]","internalType":"uint256[]"}],"outputs":[],"stateMutability":"nonpayable"}],"bytecode":{"object":"0x608080604052346015576103c4908161001a8239f35b5f80fdfe60806040526004361015610011575f80fd5b5f3560e01c806325e0ca81146100345763ea2bd4511461002f575f80fd5b610098565b346100945760403660031901126100945760043560243567ffffffffffffffff811161009457366023820112156100945780600401359067ffffffffffffffff821161009457602490369260051b010111610094576100929061011c565b005b5f80fd5b3461009457610120366003190112610094576084356004356024356044356064358415158503610094576100e29460a4359160c4359360e435956100dc6101043590565b976101cd565b60408051928352602083019190915290f35b80518210156101085760209160051b010190565b634e487b7160e01b5f52603260045260245ffd5b6024359081600401358060051b8093602401833760011c600260018201938301910160051b9283820190848201938585019582855282845282865282875286016040525f5b82811061018e5750506020805f95600182968360039a9760029760051b9a8b8098819501a101a101a101a1565b8061019b6001928461029d565b6101a5858d6100f4565b526101b0848b6100f4565b526101bb83886100f4565b526101c682886100f4565b5201610161565b91946101fd949691999861025c98600119880152601e8701528360061b830190603f19820152601f19015261029d565b92949293929091901561026a579061022661023392845160c01c0394846008015160281c61032a565b926023015160281c6102ff565b919091925b869091602119820193845195601e8401526003830152601719820152601f19015252565b601e60011983015192015190565b926102876102949294845160c01c0194846008015160281c6102ff565b926023015160281c61032a565b91909192610238565b905f8082156102d657505060061b0190603f1982015160f01c91603d1981015160c01c9160351982015160281c91601a19015160281c90565b9093909250600160d81b91507801e355bbaee85cada65f73f32e88fb3cc629b709109f57564d90565b5f199165010000000000918391600160d81b81830919915f19915f81129003905f8112900309080990565b6774600bc82ce9df527f7f6af8233bada11dd406b4458454ed9904d7af796be7aa4885b23e25b6985d49927fdbb82f7041b890fe67970a62a3568cc34df9dcb17cc3a2a6a027850e7e3724f9632ec3a856820264027d117d7b85020992020203029056fea2646970667358221220cece25fe75a6ec033023fb28e3ee35c88665edf1fe14cc6980f85659860bb0dd64736f6c63430008210033","linkReferences":{}},"methodIdentifiers":{"_impose(uint256,uint256,uint256,uint256,bool,uint256,uint256,uint256,uint256)":"ea2bd451","_member(uint256,uint256[])":"25e0ca81"},"id":23}