{"abi":[{"type":"function","name":"_calculateIntegrals","inputs":[{"name":"curveLength","type":"uint256","internalType":"Index"},{"name":"kernelArray","type":"uint256[]","internalType":"uint256[]"},{"name":"curveArray","type":"uint256[]","internalType":"uint256[]"}],"outputs":[{"name":"integral0","type":"int256","internalType":"X216"},{"name":"integral1","type":"int256","internalType":"X216"}],"stateMutability":"nonpayable"},{"type":"function","name":"_calculateMaxIntegrals","inputs":[{"name":"kernelArray","type":"uint256[]","internalType":"uint256[]"}],"outputs":[{"name":"outgoingMax","type":"int256","internalType":"X216"},{"name":"incomingMax","type":"int256","internalType":"X216"},{"name":"outgoingMaxModularInverse","type":"uint256","internalType":"uint256"}],"stateMutability":"nonpayable"},{"type":"function","name":"_clearInterval","inputs":[],"outputs":[{"name":"pre","type":"uint256","internalType":"uint256"},{"name":"post","type":"uint256","internalType":"uint256"}],"stateMutability":"nonpayable"},{"type":"function","name":"_getMismatch","inputs":[{"name":"zeroForOne","type":"bool","internalType":"bool"},{"name":"currentToOrigin","type":"int256","internalType":"X216"},{"name":"currentToOvershoot","type":"int256","internalType":"X216"},{"name":"currentToTarget","type":"int256","internalType":"X216"},{"name":"incomingCurrentToTarget","type":"int256","internalType":"X216"},{"name":"originToOvershoot","type":"int256","internalType":"X216"},{"name":"targetToOvershoot","type":"int256","internalType":"X216"},{"name":"integral0Incremented","type":"int256","internalType":"X216"},{"name":"integral1Incremented","type":"int256","internalType":"X216"},{"name":"target","type":"int256","internalType":"X59"},{"name":"overshoot","type":"int256","internalType":"X59"},{"name":"origin","type":"int256","internalType":"X59"}],"outputs":[{"name":"mismatch","type":"int256","internalType":"X216"}],"stateMutability":"nonpayable"},{"type":"function","name":"_getNewtonStep","inputs":[{"name":"zeroForOne","type":"bool","internalType":"bool"},{"name":"begin","type":"int256","internalType":"X59"},{"name":"origin","type":"int256","internalType":"X59"},{"name":"target","type":"int256","internalType":"X59"},{"name":"overshoot","type":"int256","internalType":"X59"},{"name":"integrals","type":"int256[8]","internalType":"X216[8]"},{"name":"input","type":"uint256[8]","internalType":"uint256[8]"}],"outputs":[{"name":"sign","type":"bool","internalType":"bool"},{"name":"step","type":"int256","internalType":"X59"},{"name":"integral0Amended","type":"int256","internalType":"X216"},{"name":"integral1Amended","type":"int256","internalType":"X216"}],"stateMutability":"nonpayable"},{"type":"function","name":"_initiateInterval","inputs":[{"name":"curve","type":"uint256","internalType":"Curve"},{"name":"curveLength","type":"uint256","internalType":"Index"},{"name":"qLimit","type":"int256","internalType":"X59"},{"name":"curveArray","type":"uint256[]","internalType":"uint256[]"}],"outputs":[{"name":"logPriceLimitOffsettedWithinInterval","type":"int256","internalType":"X59"},{"name":"indexCurve","type":"uint256","internalType":"Index"},{"name":"direction","type":"bool","internalType":"bool"}],"stateMutability":"nonpayable"},{"type":"function","name":"_moveBreakpointForward","inputs":[{"name":"forward1Content0","type":"uint256","internalType":"uint256"},{"name":"forward1Content1","type":"uint256","internalType":"uint256"},{"name":"targetContent0","type":"uint256","internalType":"uint256"},{"name":"targetContent1","type":"uint256","internalType":"uint256"},{"name":"memberContent0","type":"uint256","internalType":"uint256"},{"name":"memberContent1","type":"uint256","internalType":"uint256"},{"name":"indexKernelForward","type":"uint256","internalType":"Index"},{"name":"zeroForOne","type":"bool","internalType":"bool"}],"outputs":[{"name":"","type":"uint256","internalType":"uint256"},{"name":"","type":"uint256","internalType":"uint256"},{"name":"","type":"uint256","internalType":"uint256"},{"name":"","type":"uint256","internalType":"uint256"},{"name":"","type":"uint256","internalType":"Index"}],"stateMutability":"nonpayable"},{"type":"function","name":"_moveBreakpointTotal","inputs":[{"name":"total1Content0","type":"uint256","internalType":"uint256"},{"name":"total1Content1","type":"uint256","internalType":"uint256"},{"name":"originContent0","type":"uint256","internalType":"uint256"},{"name":"originContent1","type":"uint256","internalType":"uint256"},{"name":"memberContent0","type":"uint256","internalType":"uint256"},{"name":"memberContent1","type":"uint256","internalType":"uint256"},{"name":"indexKernelTotal","type":"uint256","internalType":"Index"},{"name":"direction","type":"bool","internalType":"bool"}],"outputs":[{"name":"","type":"uint256","internalType":"uint256"},{"name":"","type":"uint256","internalType":"uint256"},{"name":"","type":"uint256","internalType":"uint256"},{"name":"","type":"uint256","internalType":"uint256"},{"name":"","type":"uint256","internalType":"Index"}],"stateMutability":"nonpayable"},{"type":"function","name":"_moveOvershoot","inputs":[{"name":"direction","type":"bool","internalType":"bool"},{"name":"zeroForOne","type":"bool","internalType":"bool"},{"name":"originToOvershoot","type":"int256","internalType":"X216"},{"name":"input","type":"uint256[11]","internalType":"uint256[11]"}],"outputs":[{"name":"_direction","type":"bool","internalType":"bool"},{"name":"output","type":"uint256[16]","internalType":"uint256[16]"},{"name":"integrals","type":"int256[4]","internalType":"X216[4]"}],"stateMutability":"nonpayable"},{"type":"function","name":"_moveOvershootByEpsilon","inputs":[{"name":"overshoot","type":"int256","internalType":"X59"},{"name":"left","type":"bool","internalType":"bool"}],"outputs":[{"name":"overshootContent0","type":"uint256","internalType":"uint256"},{"name":"overshootContent1","type":"uint256","internalType":"uint256"}],"stateMutability":"nonpayable"},{"type":"function","name":"_movePhase","inputs":[{"name":"indexCurve","type":"uint256","internalType":"Index"},{"name":"indexKernelTotal","type":"uint256","internalType":"Index"},{"name":"direction","type":"bool","internalType":"bool"},{"name":"curveMember","type":"int256","internalType":"X59"},{"name":"input","type":"uint256[8]","internalType":"uint256[8]"}],"outputs":[{"name":"_indexCurve","type":"uint256","internalType":"Index"},{"name":"_direction","type":"bool","internalType":"bool"},{"name":"output","type":"uint256[10]","internalType":"uint256[10]"}],"stateMutability":"nonpayable"},{"type":"function","name":"_moveTarget","inputs":[{"name":"direction","type":"bool","internalType":"bool"},{"name":"zeroForOne","type":"bool","internalType":"bool"},{"name":"qLimit","type":"int256","internalType":"X59"},{"name":"originToOvershoot","type":"int256","internalType":"X216"},{"name":"input","type":"uint256[7]","internalType":"uint256[7]"}],"outputs":[{"name":"_direction","type":"bool","internalType":"bool"},{"name":"output","type":"uint256[12]","internalType":"uint256[12]"},{"name":"integrals","type":"int256[4]","internalType":"X216[4]"}],"stateMutability":"nonpayable"},{"type":"function","name":"_movements","inputs":[{"name":"integral0","type":"int256","internalType":"X216"},{"name":"integral1","type":"int256","internalType":"X216"},{"name":"qLimit","type":"int256","internalType":"X59"},{"name":"curveLength","type":"uint256","internalType":"Index"},{"name":"kernelArray","type":"uint256[]","internalType":"uint256[]"},{"name":"curveArray","type":"uint256[]","internalType":"uint256[]"}],"outputs":[],"stateMutability":"nonpayable"},{"type":"function","name":"_newIntegrals","inputs":[{"name":"zeroForOne","type":"bool","internalType":"bool"},{"name":"begin","type":"int256","internalType":"X59"},{"name":"origin","type":"int256","internalType":"X59"},{"name":"target","type":"int256","internalType":"X59"},{"name":"overshoot","type":"int256","internalType":"X59"},{"name":"integrals","type":"int256[8]","internalType":"X216[8]"},{"name":"input","type":"uint256[8]","internalType":"uint256[8]"}],"outputs":[{"name":"integral0Amended","type":"int256","internalType":"X216"},{"name":"integral1Amended","type":"int256","internalType":"X216"}],"stateMutability":"nonpayable"},{"type":"function","name":"_searchIncomingTarget","inputs":[{"name":"integralLimit","type":"int256","internalType":"X216"},{"name":"incomingCurrentToTarget","type":"int256","internalType":"X216"},{"name":"zeroForOne","type":"bool","internalType":"bool"},{"name":"input","type":"uint256[8]","internalType":"uint256[8]"}],"outputs":[{"name":"exactAmount","type":"bool","internalType":"bool"},{"name":"incoming","type":"int256","internalType":"X216"},{"name":"output","type":"uint256[4]","internalType":"uint256[4]"}],"stateMutability":"nonpayable"},{"type":"function","name":"_searchOutgoingTarget","inputs":[{"name":"integralLimit","type":"int256","internalType":"X216"},{"name":"currentToTarget","type":"int256","internalType":"X216"},{"name":"zeroForOne","type":"bool","internalType":"bool"},{"name":"input","type":"uint256[8]","internalType":"uint256[8]"}],"outputs":[{"name":"exactAmount","type":"bool","internalType":"bool"},{"name":"outgoing","type":"int256","internalType":"X216"},{"name":"output","type":"uint256[4]","internalType":"uint256[4]"}],"stateMutability":"nonpayable"},{"type":"function","name":"_searchOvershoot","inputs":[{"name":"integral0","type":"int256","internalType":"X216"},{"name":"integral1","type":"int256","internalType":"X216"},{"name":"qLimit","type":"int256","internalType":"X59"},{"name":"curveLength","type":"uint256","internalType":"Index"},{"name":"kernelArray","type":"uint256[]","internalType":"uint256[]"},{"name":"curveArray","type":"uint256[]","internalType":"uint256[]"}],"outputs":[{"name":"overshoot","type":"int256","internalType":"X59"},{"name":"integral0Amended","type":"int256","internalType":"X216"},{"name":"integral1Amended","type":"int256","internalType":"X216"}],"stateMutability":"nonpayable"},{"type":"error","name":"SearchingForIncomingTargetFailed","inputs":[]},{"type":"error","name":"SearchingForOutgoingTargetFailed","inputs":[]},{"type":"error","name":"SearchingForOvershootFailed","inputs":[]}],"bytecode":{"object":"0x6080806040523460155761411c908161001a8239f35b5f80fdfe60806040526004361015610011575f80fd5b5f3560e01c806315f1b191146101245780632697a0d41461011f5780635369943f1461011a57806358593d0d14610115578063587fe69a146101105780637d7bc0121461010b578063a7a01b5314610106578063ac11f23e14610101578063ac2d6d9d146100fc578063aecb7265146100f7578063b2907eb1146100f2578063be95da21146100ed578063c1d899a7146100e8578063c28b759d146100e3578063d1752509146100de578063eaf17e87146100d95763efb1d9e3146100d4575f80fd5b611cde565b611c44565b611baa565b611b12565b611735565b611622565b6114ea565b611388565b6112c9565b611180565b6110a8565b610f24565b610e71565b610d8f565b610aa9565b61080b565b6101c6565b60043590811515820361013857565b5f80fd5b60243590811515820361013857565b60443590811515820361013857565b905f905b6004821061016b57505050565b602080600192855181520193019101909161015e565b90151581526102a081019392915f602083015b601082106101b057505050906102206101ae92019061015a565b565b6020806001928551815201930191019091610194565b34610138576101c0366003190112610138576101e0610129565b6101e861013c565b90604435366101c4116101385761022a9061021b610204611d7c565b94610216610210611d8f565b95611e69565b611e72565b61056e51906105895261056e52565b6102366108086105ef52565b61024261094861060f52565b606435610948526109e860405261028b5160101c600160f01b17806102895260101c600160f21b17806102875260101c600160f01b176102855260843560a435908061048752816104a7526104c7526104e75260c43560e435906109a8526109c85261010435610124359061040752610427526101443561016435906104475261046752610184356101a43590610968526109885261039161038c61060f516101505160ff1c5f146107c35761030060016104c95160c01c01611e7b565b61035f60026102855160f01c0160031b82015160c01c6102845160ff1c61032c6101505160ff1c151590565b8115150361079c571561077b5761034d61035a916104095160c01c90611f8b565b6104895160c01c90611f8b565b611ea5565b61037a60016102855160f01c0160031b82015160c01c611ecf565b6102855160f01c60031b015160c01c90565b611edc565b6102845160ff1c6103a76101505160ff1c151590565b811515036107425715610718576103e36103de6103d161034d5160c01c6104495160c01c90611f7a565b6104c95160c01c90611f7a565b611f06565b6101505160ff1c156107005761043d61038b5160c01c6104c95160c01c90035b61040c81611f98565b9160026105ef51016104c75160f01c91602119820193845195601e8401526003830152601719820152601f19015252565b6101505160ff1c156106e85761049761038b5160c01c6109aa5160c01c90035b61046681611f98565b9160426105ef51016109a85160f01c91602119820193845195601e8401526003830152601719820152601f19015252565b6102845160ff1c156106d0576104f16102d15160c01c6104095160c01c90035b6104c081611f98565b9160826105ef51016104075160f01c91602119820193845195601e8401526003830152601719820152601f19015252565b6102845160ff1c156106b85761054b6102d15160c01c6104495160c01c90035b61051a81611f98565b9160c26105ef51016104475160f01c91602119820193845195601e8401526003830152601719820152601f19015252565b6102845160ff1c156106a0576105a66102d15160c01c61096a5160c01c90035b61057481611f98565b916101026105ef51016109685160f01c91602119820193845195601e8401526003830152601719820152601f19015252565b6105ae612002565b5061069c6102845160ff1c91610487516104a7519085526105cf8560200190565b526104c7516104e7519060408601526060850152610407516104275190608086015260a085015261044751610467519060c086015260e085015261030d5161032d519061010086015261012085015261034b5161036b51906101408601526101608501526102cf516102ef51906101808601526101a08501526103c7516103e751906101c08601526101e08501526105585160281c81526105735160281c6106778260200190565b5261058e5160281c604082015261053d5160281c606082015260405193849384610181565b0390f35b6105a661096a5160c01c6102d15160c01c900361056b565b61054b6104495160c01c6102d15160c01c9003610511565b6104f16104095160c01c6102d15160c01c90036104b7565b6104976109aa5160c01c61038b5160c01c900361045d565b61043d6104c95160c01c61038b5160c01c9003610403565b6103e36103de61073561034d5160c01c6104495160c01c90611f8b565b6104c95160c01c90611f8b565b15610761576103e36103de61034d5160c01c6104495160c01c90611f7a565b6103e36103de61034d5160c01c6104495160c01c90611f8b565b61078f61035a916104095160c01c90611f7a565b6104895160c01c90611f7a565b156107b25761035a906104095160c01c90611f8b565b61035a906104095160c01c90611f7a565b6107d55f196104c95160c01c01611e7b565b610300565b9181601f840112156101385782359167ffffffffffffffff8311610138576020808501948460051b01011161013857565b346101385760203660031901126101385760043567ffffffffffffffff811161013857610889816108a29260040161084336826107da565b505035908160051b906024016108083760011c6002810160061b610808016040526108086105ef52610884600182016106515160101c9060f01b1761064f52565b6123bf565b9250610740519261077e52610763526107485261074052565b61060f516106515160f01c60016107605160c01c016108c15f61060f52565b600160801b60c082901b175f526106535160101c600160f11b17610651526108f5816101505160401c9060c01b1761014852565b61090d61016d5160d81c64ffffffffff191761015252565b61091561247e565b61038b5160c01c8114610a3a5761092a612535565b15610915575061093d61094f9261060f52565b6106535160101c9060f01b1761065152565b6109c36109bd61096c6109676105225160281c613a61565b613ade565b610982816107b95160d81c9060281b1761079e52565b80805f031690046002816003021880820260020302808202600203028082026002030280820260020302808202600203028091026002030290565b6107b952565b6109f76109e56109e06105075160281c6107685160281c90613b3b565b613b90565b6107f45160d81c9060281b176107d952565b6109ff612bc7565b5f610325610284a161079e5160281c6107d95160281c9061069c6107b951604051938493846040919493926060820195825260208201520152565b5061093d61094f92610b34565b60c0600319820112610138576004359160243591604435916064359160843567ffffffffffffffff81116101385781610a82916004016107da565b9290929160a4359067ffffffffffffffff821161013857610aa5916004016107da565b9091565b3461013857610ade610b83610808610af0610ac336610a47565b5050505093929690966106ba5160d81c9060281b1761069f52565b6106d55160d81c9060281b176106ba52565b60843590610b4f600183600401358060051b80956024018737610b3a8587018760a435806004013560051b80916024018437880101604052610b346108086105ef52565b61060f52565b811c016106515160101c9060f01b1761064f52565b610b65816106535160101c9060f01b1761065152565b5f190160031b01015160c01c61067f5160401c9060c01b1761067752565b610b99816101505160401c9060c01b1761014852565b610bac6102166106775160c01c83131590565b610bc461016d5160d81c64ffffffffff191761015252565b610bcc61247e565b61038b5160c01c8114155b15610bf857610bd790610be8612535565b505f8080600a8180a49050610bcc565b610c006126bb565b610c086126c6565b610c216105225160281c61053851906105535261053852565b61038b5160c01c61060f5190610c3b825160c01c82141590565b9182610d04575b5050610c4a57005b610c676103c95160c01c610c6261060f515160c01c90565b141590565b15610d0257610c74612002565b506101505160ff1c15610cda57610cd26105075160281c61069f5160281c016106ba5160281c6105225160281c9003905b610cad6126d1565b610cb56126db565b610cbf82826127a7565b959250939092610ccd6126e6565b612928565b5f80a4610c4a565b610cd261069f5160281c6105225160281c90036105075160281c6106ba5160281c0190610ca5565b005b6008015160c01c141590508180610c42565b906084916101841161013857565b90610160600319830112610138576004359160243591604435801515810361013857916101641161013857606490565b60409194939260c0820195151582526020820152015f905b60048210610d7957505050565b6020806001928551815201930191019091610d6c565b346101385761069c610216610dd8610da636610d24565b9392949091610dc9610db6611d8f565b9661016d5160d81c9060281b1761015252565b610502519061051d5261050252565b80355f526020810135601e600261030f5e61032d5260408101355f526060810135601e600261038b5e6103a95260808101356104075260a081013561042752610e2760c082015b359160e00190565b35906104475261046752610e396129bb565b9290916103c7516103e751908252610e518260200190565b52610389516103a951906040830152606082015260405193849384610d54565b34610138575f366003190112610138576102845b5f1981526105a98111610eb2576020810180911115610e8557634e487b7160e01b5f52601160045260245ffd5b5f196102648190526105a952610ec6612bc7565b5f610325610284a1610264516105a95160408051928352602083019190915290f35b604091949392610180820195825215156020820152015f905b600a8210610f0e57505050565b6020806001928551815201930191019091610f01565b346101385761018036600319011261013857600435611024602435610f4761014b565b9061082860643560086018610808610f5e36610d16565b93610f67611da1565b99610f746108086105ef52565b8760061b91610f8583850161060f52565b6102875160101c8260f01b17610285526102895160101c8960f01b17610287528635610fb18860200190565b35905f52601e60026102d15e6102ef5260408701355f526060870135601e600261034d5e61036b525f525f190160031b01015e60808101358260a083013591600119860160061b90610808820152015261100e610e1f8260c00190565b35925f190160061b906108088201520152611e69565b61102c612bd4565b9061069c6102855160f01c9161030d5161032d5190825261104d8260200190565b526102cf516102ef51906040830152606082015261034b5161036b5190608083015260a082015261040751610427519060c083015260e082015261044751610467519061010083015261012082015260405193849384610ee8565b346101385761069c6102166110de6110bf36610d24565b93929490916110cf610db6611d8f565b6104e75190610502526104e752565b80355f526020810135601e600261030f5e61032d5260408101355f526060810135601e600261038b5e6103a95260808101356104075260a08101356104275261112960c08201610e1f565b35906104475261046752610e39612c63565b6102a0600319820112610138576004358015158103610138579160243591604435916064359160843591816101a4116101385760a4916101a4906102a4116101385790565b346101385761069c6112a561035a6111b66111bb6111b16103de6111a33661113b565b9994919792959a909a611e72565b611ecf565b611e7b565b80356104075260208101356104275260408101356104475260608101356104675260808101356104875260a08101356104a7526111fa60c08201610e1f565b35906104c7526104e7526112216112118260400190565b35610502519061051d5261050252565b611239606082015b3561053851906105535261053852565b611251608082015b35610553519061056e5261055352565b61126960a082015b3561056e51906105895261056e52565b61128160c082015b3561051d51906105385261051d52565b61129960e082015b356104e75190610502526104e752565b602081013590356127a7565b60408051941515855260208501939093529183015260608201529081906080820190565b346101385760603660031901126101385760043560243567ffffffffffffffff81116101385780600401906112fe36836107da565b50506044359267ffffffffffffffff841161013857610b4f600185610b3a6108089687611362996004019161133336846107da565b505035938460051b80996024018337888201923560051b80916024018437880101604052876105ef5261060f52565b61136a612e8e565b61069f516106ba5160408051602893841c81529190921c6020820152f35b346101385760803660031901126101385760643560043560243560443567ffffffffffffffff8411610138576113e8906113d685600401936113ca36866107da565b505061093d8661060f52565b6101505160401c9060c01b1761014852565b3560051b9160240190376113fa61247e565b6102935160c01c61029b5160281c6102b65160281c915f80a36102d15160c01c6102d95160281c6102f45160281c915f80a361030f5160c01c6103175160281c6103325160281c915f80a361034d5160c01c6103555160281c6103705160281c915f80a361038b5160c01c6103935160281c6103ae5160281c915f80a36104075160f01c6104095160c01c6104115160281c9061042c5160281c925f80a46104475160f01c6104495160c01c6104515160281c9061046c5160281c925f80a461028b5161028551610284516040805160c09490941c845260f09290921c602084015260ff1c151590820152606090f35b3461013857610ade611504610808610af0610ac336610a47565b61151a816101505160401c9060c01b1761014852565b61152d6102166106775160c01c83131590565b61154561016d5160d81c64ffffffffff191761015252565b61154d61247e565b61038b5160c01c8114155b156115715761155890611569612535565b50905061154d565b6115796126bb565b6115816126c6565b61159a6105225160281c61053851906105535261053852565b6101505160ff1c156115fe576105075160281c61069f5160281c016106ba5160281c6105225160281c90035b6115d08183612217565b6115c6576115dd91612f5b565b6103c9516040805160c09290921c8252602082019390935291820152606090f35b61069f5160281c6105225160281c90036105075160281c6106ba5160281c016115c6565b34610138576116e061035a6111b66116426111b16103de6111a33661113b565b80356104075260208101356104275260408101356104475260608101356104675260808101356104875260a08101356104a75261168160c08201610e1f565b35906104c7526104e7526116986112118260400190565b6116a460608201611229565b6116b060808201611241565b6116bc60a08201611259565b6116c860c08201611271565b6116d460e08201611289565b602081013590356130f0565b60408051928352602083019190915290f35b901515815261022081019392915f602083015b600c821061171f57505050906101a06101ae92019061015a565b6020806001928551815201930191019091611705565b34610138576101603660031901126101385761174f610129565b61175761013c565b906064356044353661016411610138576117a36119a29261021b611779611dae565b96610216611785611d8f565b9761179e61016d5160d81c64ffffffffff191761015252565b611e69565b6117af6108086105ef52565b6117bb6108c861060f52565b6084356108c8526109286040526102895160101c600160f11b17806102875260101c600160f01b176102855260a43560c43590610407526104275260e435610104359061044752610467526101243561014435906108e8526109085261183c61038c61060f5161035f60026102855160f01c0160031b82015160c01c611ea5565b6102845160ff1c15611afa576118966102d15160c01c6104095160c01c90035b61186581611f98565b9160026105ef51016104075160f01c91602119820193845195601e8401526003830152601719820152601f19015252565b6102845160ff1c15611ae2576118f06102d15160c01c6104495160c01c90035b6118bf81611f98565b9160426105ef51016104475160f01c91602119820193845195601e8401526003830152601719820152601f19015252565b6102845160ff1c15611aca5761194a6102d15160c01c6108ea5160c01c90035b61191981611f98565b9160826105ef51016108e85160f01c91602119820193845195601e8401526003830152601719820152601f19015252565b6102845160ff1c6119606101505160ff1c151590565b81151503611a915715611a6e576119906111b68261198b61034d5160c01c6104495160c01c90611f7a565b611f7a565b6102935160401c9060c01b1761028b52565b6119aa612535565b5061069c6102845160ff1c9161040751610427519085526119cb8560200190565b526104475161046751906040860152606085015261030d5161032d5190608086015260a085015261034b5161036b519060c086015260e08501526102cf516102ef5190610100860152610120850152610389516103a951906101408601526101608501526105225160281c81526105075160281c611a498260200190565b5261058e5160281c604082015261053d5160281c6060820152604051938493846116f2565b6119906111b682611a8c61034d5160c01c6104495160c01c90611f8b565b611f8b565b15611ab0576119906111b661034d5160c01c6104495160c01c90611f7a565b6119906111b661034d5160c01c6104495160c01c90611f8b565b61194a6108ea5160c01c6102d15160c01c9003611910565b6118f06104495160c01c6102d15160c01c90036118b6565b6118966104095160c01c6102d15160c01c900361185c565b34610138576101803660031901126101385761069c611b62611b32610129565b60243560443560643560843560a43560c4359060e43592610104359461012435966101443598610164359a611dbb565b6040519081529081906020820190565b61010090600319011261013857600435906024359060443590606435906084359060a4359060c4359060e43580151581036101385790565b3461013857611c00610828611bbe36611b72565b9794919590966108086105ef9594955261044752610467526102cf526102ef528360061b9061080882015201526102895160101c9060f01b1761028752611e69565b611c08613187565b610407516104275161044751610467516102875160408051958652602086019490945292840191909152606083015260f01c608082015260a090f35b3461013857611c9a610828611c5836611b72565b9794919590966108086105ef959495526104c7526104e752610389526103a9528360061b90610808820152015261028b5160101c9060f01b1761028952611e72565b611ca26131b6565b610487516104a7516104c7516104e7516102895160408051958652602086019490945292840191909152606083015260f01c608082015260a090f35b3461013857604036600319011261013857611d28600435611d23611d0061013c565b91611d0a81611f98565b91906103a951926103e7526103cc526103b1526103a952565b613276565b6103c7516103e75160408051928352602083019190915290f35b6040519190601f01601f1916820167ffffffffffffffff811183821017611d6857604052565b634e487b7160e01b5f52604160045260245ffd5b61020090611d8982611d42565b91368337565b611d996080611d42565b906080368337565b61014090611d8982611d42565b61018090611d8982611d42565b9461021b611e669c989a956110cf611e1796610dc9610ccd9d9f9a97611df9611e0898611e409e9a60ff026101505361051d51906105385261051d52565b61053851906105535261053852565b610553519061056e5261055352565b611e2081611f98565b919061036b51926103a95261038e526103735261036b52611d0a81611f98565b611e4981611f98565b6102b180516102ef929092526102d4929092526102b99290925252565b90565b60ff0261028453565b60ff0261015053565b6101ae90611e8881611f98565b61036b80516103a99290925261038e929092526103739290925252565b6101ae90611eb281611f98565b6102ef805161032d92909252610312929092526102f79290925252565b6101ae90611e4981611f98565b6101ae90611ee981611f98565b61032d805161036b92909252610350929092526103359290925252565b6101ae90611f1381611f98565b6103a980516103e7929092526103cc929092526103b19290925252565b6101ae90611f3d81611f98565b61027380516102b1929092526102969290925261027b9290925252565b5f811215611e6657505f90565b806001125f14611f745790565b50600190565b81811215611f86575090565b905090565b9080821215611f86575090565b611fa19061338c565b5f198181019082600160c11b7ff1aaddd7742e56d32fb9f997447d9e6314db84884fabab26bf059af9bc20b6090983030181600160c11b7ff1aaddd7742e56d32fb9f997447d9e6314db84884fabab26bf059af9bc20b60909089060281c91565b6103c95160c01c6104c95160c01c1461220a575b6103c95160c01c6104495160c01c146121fd575b6102845160ff1c6103c95160c01c61034d5160c01c146121dd575b61030f516104095160c091821c911c139015159081036121d0575b61034d516104495160c091821c911c1381036121c25761208661ffff6104495b166126fb565b6101505160ff1c1515811461217b575b61209e613761565b906120ae6101505160ff1c151590565b03612152576120bb61387f565b906120ce8160281b610558510161055852565b6120e08260281b610573510161057352565b6120f28160281b61058e510161058e52565b5f6120fd8180612928565b13612109575050600190565b6121386121469261211861271a565b61212a8360281b610558510361055852565b60281b610573510361057352565b60281b61058e510361058e52565b61214e612725565b5f90565b806121686121769260281b61053d510161053d52565b60281b61058e510161058e52565b600190565b61030f516104895160c091821c911c1381036121b5575b6103c9516104c95160c091821c911c138103612096576121b061270f565b612096565b6121bd612704565b612192565b61208661ffff61034d612080565b6121d86126f0565b612060565b61021b6121f09161058e5160281c61354b565b6121f8612bd4565b612045565b612205613187565b61202a565b6122126131b6565b612016565b906103c95160c01c6104c95160c01c146123b2575b6103c95160c01c6104495160c01c146123a5575b6102845160ff1c906103c95160c01c61034d5160c01c14612383575b61030f516104095160c091821c911c13911515918203612376575b61034d516104495160c091821c911c138203612368576122986104496126fb565b6101505160ff1c15158214612321575b6122b0613761565b916122c06101505160ff1c151590565b03612309576120fd5f916122d261387f565b946122e58560281b610558510161055852565b6122f78660281b610573510161057352565b610ccd8560281b61058e510161058e52565b5061217691506121688160281b61053d510161053d52565b61030f516104895160c091821c911c13820361235b575b6103c9516104c95160c091821c911c1382036122a85761235661270f565b6122a8565b612363612704565b612338565b61229861ffff61034d612080565b61237e6126f0565b612277565b9061021b6123979161058e5160281c61354b565b61239f612bd4565b9061225c565b6123ad613187565b612240565b6123ba6131b6565b61222c565b5f8082156123f657505060061b906107c882015160f01c916107ca81015160c01c916107ed6107d283015160281c92015160281c90565b915091600160d81b907801e355bbaee85cada65f73f32e88fb3cc629b709109f57564d90565b905f80821561245557505060061b0190603f1982015160f01c91603d1981015160c01c9160351982015160281c91601a19015160281c90565b9093909250600160d81b91507801e355bbaee85cada65f73f32e88fb3cc629b709109f57564d90565b6124fb61060f516124b4611990825160c01c600884015160c01c818113155f1461252b57611a8c905b6101485160c01c90611f7a565b6124f66106515160f01c915f1983016124d9816102875160101c9060f01b1761028552565b60031b81015160c01c926001190160031b015160c01c8212611e69565b611f30565b612503612730565b61250b61273b565b612513612746565b61251b612751565b61252361275c565b6101ae612767565b90611a8c906124a7565b5f9061038b5160c01c6104495160c01c146126ae575b6102845160ff1c61038b5160c01c61034d5160c01c1461268e575b61030f516104095160c091821c911c13901515908103612681575b61259f61259a61034d5160c01c6104495160c01c121590565b151590565b8103612673576125b561ffff6104495b16612772565b6101505160ff1c151581036126505761028b5161038b516101ae945060c091821c92911c821203612641575b506101515160ff1c15612626576125f6612c63565b929092612168612604613980565b915b6126188360281b610522510161052252565b60281b610507510161050752565b61262e6129bb565b92909261216861263c613bb8565b612606565b61264a90611e7b565b5f6125e1565b506101ae61265c613980565b61266e8160281b61053d510161053d52565b612168565b6125b561ffff61034d6125af565b6126896126f0565b612581565b61021b6126a19161058e5160281c6135fd565b6126a9612bd4565b612566565b6126b6613187565b61254b565b603e61038b6103c95e565b603e61038b6104c95e565b603e61030f60025e565b603e6103c961030f5e565b603e600261030f5e565b603e61040961030f5e565b603e906103c95e565b603e61048961030f5e565b603e6104c96103c95e565b603e6103c961034d5e565b603e61030f6103c95e565b603e6102936102d15e565b603e61029361030f5e565b603e61029361034d5e565b603e61029361038b5e565b603e6102936104095e565b603e6102936104495e565b603e9061038b5e565b603e6103c961038b5e565b603e61034d6103c95e565b1561279857565b6327177a2d60e11b5f5260045ffd5b906101505160ff1c90815f146129225791905b6127c2613761565b906127cb61387f565b61280f82612809816127fb6105225160281c8a01886105585160281c019003956105735160281c01809601611f5a565b9661058e5160281c0161354b565b926136af565b90039261282e61053d5160281c858301036105075160281c9003611f5a565b94612837613db6565b61288b612842613ec0565b918515926103c98415601b026023036128758361038b61286a876102d186015160281c613b3b565b93015160281c613b3b565b900394601b02602303015160281c910390613b3b565b93156128f85781816128be926128a58a6128c79796613ab9565b6128af8987613ab9565b900399975b9798010190613ee6565b92800190613ee6565b01935f85135f851314159460161d808560261b059485156128e6575050565b6128ed5750565b6101ae901515612791565b8291816128be9261290f886128c7979b999b613ab9565b6129198985613ab9565b900399976128b4565b906127ba565b6101505160ff1c916129408361058e5160281c61354b565b6105735160281c9061295285836136af565b900361053d5160281c90036105075160281c9003906105225160281c016105585160281c9003935f1461299857612993929161298d91613ee6565b92613ee6565b900390565b6129939261298d91613ee6565b156129ac57565b630f975a0160e11b5f5260045ffd5b6101525160281c6105225160281c9003906129d4613980565b9082821315612bc2576101505160ff1c908115612bac576104095160c01c6104495160c01c9003905b6104475160f01c926104075160f01c80940393612a508786603c1b9286028301845f14612b9357876104095160c01c61030f5160c01c90030201955b61030f851515601b02602303015160281c90613f11565b84608e1b03800190825f14612b745761030f5161038b5160c090811c91901c0396612a8690612a81905b8a8a613532565b611f67565b85878202019082612a9f612a998361338c565b866134f2565b83608e1b039203809205918883020582603c1d039182600160531b0390800105918215612ae0575088611a8c612a9f93612ad99301611f67565b9050612a86565b9497509550505050612afa919450600160531b14156129a5565b8115612b655761030f5160c01c0392905b612b1484611f06565b612b1c613761565b935b828512612b3657505050612b3061277b565b60019190565b919350908115612b5d575f19015b612b4d82613276565b612b55613761565b939190612b1e565b600101612b44565b61030f5160c01c019290612b0b565b61038b5161030f5160c090811c91901c0396612a8690612a8190612a7a565b8761030f5160c01c6104095160c01c9003020195612a39565b6104495160c01c6104095160c01c9003906129fd565b5f9250565b6103256103241961028439565b603e6102d161030f5e603e61034d6102d15e612c17612c0e61060f5161ffff60f01b6102855101806102855260f01c60031b015160c01c90565b611ee981611f98565b6102845160ff1c151515906101ae828060ff02610284536105ef516102875160f01c90612c48835f19840183613f64565b614000565b15612c5457565b637fbbcd6760e01b5f5260045ffd5b6101525160281c6105075160281c900390612c7c613bb8565b82811315612e88576101505160ff1c928315612e72576104095160c01c6104495160c01c9003925b6104475160f01c936104075160f01c85039586603c1b9582028603815f14612e59578761030f5160c01c6104495160c01c90030201955b612cf78583159461030f86601b02602303015160281c90613f11565b87608e1b0390825f14612e435761030f5160c01c61038b5160c01c9003975b8897808a1315612e28575b50965b878a8202039082612d46612d40612d3a8461338c565b60281c90565b86613ee6565b83608e1b019201809205918b83020582603c1d019182600160531b0390800105918215612d87575089611a8c612d4693612d809303611f67565b9050612d24565b9150925060018094979a50612daf9699959850612da9925060531b1415612c4d565b01611f8b565b8115612e185761030f5160c01c039391905b612dca85611f06565b612dd2613cd7565b945b838613612de75750505050612b3061277b565b92945090918115612e10576001015b90612e0083613276565b612e08613cd7565b949291612dd4565b5f1901612df6565b61030f5160c01c01939190612dc1565b612d46919850612a81612e3c91898c613532565b9790612d21565b61038b5160c01c61030f5160c01c900397612d16565b876104495160c01c61030f5160c01c9003020195612cdb565b6104495160c01c6104095160c01c900392612ca4565b5f925090565b61060f515160c01c612eac816101505160401c9060c01b1761014852565b612ebf6102166106775160c01c83131590565b612ed761016d5160d81c64ffffffffff191761015252565b612edf61247e565b61038b5160c01c8114612f5557612ef4612535565b15612edf57505b6101505160ff1c15612f2e576101ae61053d5160281c610ade6105225160281c916106ba5160d81c9060281b1761069f52565b6101ae6105225160281c610ade61053d5160281c916106ba5160d81c9060281b1761069f52565b50612efb565b90916101505160ff1c905b612f7084846127a7565b91928315612fdf57505050612fb090835f14612fb557612fa36103de9161034d5160c01c906103c95160c01c0190611f7a565b61030f5160c01c90611f8b565b612f66565b612fd26103de9161030f5160c01c906103c95160c01c0190611f7a565b61034d5160c01c90611f8b565b909250611e669495919395613007612ff78685613ab9565b613001868b613ab9565b90611f7a565b916103c95160c01c61301f61034d5160c01c82141590565b90816130e2575b61030f5160c01c141591826130d3575b50801591826130cb575b50613059575b5050509061305391611f8b565b93611f8b565b613079906130a49496929395929361306f61271a565b1515901514613276565b61308388866130f0565b9490939061309f85613001613098898b613ab9565b918d613ab9565b121590565b6130b3575b8094929394613046565b90915061305392506130c3612786565b90915f6130a9565b90505f613040565b1515831515141591505f613036565b821515841515149150613026565b906101505160ff1c90815f1461317e5761317590925b61315c613111613761565b61311961387f565b9061312c868261058e5160281c0161354b565b916105735160281c019161314087846136af565b9003966105225160281c01906105585160281c01900301611f5a565b9361053d5160281c9101036105075160281c9003611f5a565b9015610aa55791565b61317590613106565b60406104476104075e6101ae6105ef51600160f01b6102875101806102875260f01c6102845160ff1c91614000565b60406104c76104875e6101ae6105ef516131e8600160f01b6102895101806102895260f01c6101505160ff1c9261241c565b9293909190156132415761320e61321b9161038b5160c01c03936103935160281c614082565b916103ae5160281c613ee6565b919091925b6104a780516104e7959095526104cc939093526104b1919091526104a95252565b61326061326d9161038b9493945160c01c01936103935160281c613ee6565b916103ae5160281c614082565b91909192613220565b156132f7576101ae5f196103c95160c01c017faa3ed2381a8b1241d16168fd77ef989ed2b13be12b716aa23f35ed0e395560016103d15160281c780fffffffffffffff8000000000000002aaaaaaaaaaaaaaa001780fffffffffffffff8000000000000002aaaaaaaaaaaaaaa00019910902611d0a6103ec5160281c613b90565b6101ae60016103c95160c01c016133136103d15160281c613b90565b7faa3ed2381a8b1241d16168fd77ef989ed2b13be12b716aa23f35ed0e395560016103ec5160281c780fffffffffffffff8000000000000002aaaaaaaaaaaaaaa001780fffffffffffffff8000000000000002aaaaaaaaaaaaaaa0001991090291906103a951926103e7526103cc526103b1526103a952565b6134639061345d90808002908180025f19600160801b808386095f198487090309906134106134026133fb600f600760681b8802046609c0000000000085040169c91800000000000000008604016133f38580025f19878009621eee11605a1b9190030490565b0196606a1b90565b600f900490565b916624900000000000900490565b5f1993600160b41b936a06df92000000000000000090049190920101600160ff1b01906910000000000000000000828209915f1991090309600160fe1b8183018101929190910301613512565b60021b90565b808002905f1990800903808002905f1990800903808002905f1990800903808002905f1990800903808002905f1990800903808002905f1990800903808002905f1990800903808002905f1990800903808002905f1990800903808002905f1990800903808002905f1990800903808002905f1990800903808002905f1990800903808002905f199080090390565b5f198281019283919080600160ff1b850990030191600160ff1b90090890565b5f198281019283919080600160fe1b850990030191600160fe1b90090890565b90915f1981019283915f19908083860990030192090890565b901515601b0260230368a43903008fac41d97d6102d16103c983015160281c92015160281c7f5bc2a24e50a66d39c35a9132c33f2fc50a1b99389d5455e78a7cf7ef8894e4cd8163cb21e499028464cef6ae8685020992020203907fdbad67320459464b8d379def907a3e0c7c8687340b82b93b6e54e966e257826781830202917f7082326d62b7ef4d06861f13c21dd192c8044b19a121205b7dc63c2642b5a8055f1992634bc3287b029102090390565b901515601b0260230368a43903008fac41d97d6102d161038b83015160281c92015160281c7f5bc2a24e50a66d39c35a9132c33f2fc50a1b99389d5455e78a7cf7ef8894e4cd8163cb21e499028464cef6ae8685020992020203907fdbad67320459464b8d379def907a3e0c7c8687340b82b93b6e54e966e257826781830202917f7082326d62b7ef4d06861f13c21dd192c8044b19a121205b7dc63c2642b5a8055f1992634bc3287b029102090390565b901515601b0260230368a43903008fac41d97d61038b6103c983015160281c92015160281c7f5bc2a24e50a66d39c35a9132c33f2fc50a1b99389d5455e78a7cf7ef8894e4cd8163cb21e499028464cef6ae8685020992020203907fdbad67320459464b8d379def907a3e0c7c8687340b82b93b6e54e966e257826781830202917f7082326d62b7ef4d06861f13c21dd192c8044b19a121205b7dc63c2642b5a8055f1992634bc3287b029102090390565b61030f5160c01c6103c95160c01c808214613879576104075160f01c906104475160f01c9081156138715782820390848112918215601b0260230395856103c961030f89015160281c98015160281c9514613863576001603c1b82916104095160c01c938491875f14613853578391920301029383030102925b15613844576104495160c01c900380915b600160c01b87820993600160c01b86820991828610916001600160c01b03908890098601906001600160c01b03908a90098301030393600160c01b918203900881840660c01b0104910460c01b0192030201600f1c90565b6104495160c01c0380916137ec565b82849103010294030102926137db565b5050505090910302600f1c90565b505050505f90565b50505f90565b61030f5160c01c6103c95160c01c808214613879576104875160f01c906104c75160f01c9081156138715782820390848112918215601b0260230395856103c961030f89015160281c98015160281c9514613863576001603c1b82916104895160c01c938491875f14613970578391920301029383030102925b15613961576104c95160c01c90038091600160c01b87820993600160c01b86820991828610916001600160c01b03908890098601906001600160c01b03908a90098301030393600160c01b918203900881840660c01b0104910460c01b0192030201600f1c90565b6104c95160c01c0380916137ec565b82849103010294030102926138f9565b61030f5160c01c61038b5160c01c808214613879576104075160f01c906104475160f01c9081156138715782820390848112918215601b02602303958561038b61030f89015160281c98015160281c9514613863576001603c1b82916104095160c01c938491875f146138535783919203010293830301029215613844576104495160c01c90038091600160c01b87820993600160c01b86820991828610916001600160c01b03908890098601906001600160c01b03908a90098301030393600160c01b918203900881840660c01b0104910460c01b0192030201600f1c90565b6001600160d81b0390600160d81b7915fc21041027acbbfcd46780fee71ead23fbcb7f4a81e58767ef82096001600160d81b03908103917915fc21041027acbbfcd46780fee71ead23fbcb7f4a81e58767ef90090890565b6001600160d81b039190600160d81b8282096001600160d81b03908103929091090890565b7faa3ed2381a8b1241d16168fd77ef989ed2b13be12b716aa23f35ed0e3955600190780fffffffffffffff8000000000000002aaaaaaaaaaaaaaa001780fffffffffffffff8000000000000002aaaaaaaaaaaaaaa0001991090290565b64f8f6376c447f28256938c4923ff15ab260970aa81f81c15e6f5ef3af38dc210569e77db19359927e1561650620dabb6a84b684e2a7e5a47caa0a0905210083f0e3b551aabf84e98183850209920202030290565b780fffffffffffffff8000000000000002aaaaaaaaaaaaaaa00119818102915f199190090390565b5f61030f5160c01c9061038b5160c01c808314613cd0576104475160f01c918215613cc957506104495160c01c908381129081601b026023039261038b61030f85015160281c94015160281c956104075160f01c808714613cba57826001603c1b9188038093875f14613ca95782849103010294030102925b15613c99576104095160c01c0380915b600160c01b85820990600160c01b88860994828610916001600160c01b03908890098601906001600160c01b03908a90098301030393600160c01b918203900881840660c01b0104910460c01b0192030203600f1c90565b6104095160c01c90038091613c41565b839192030102938303010292613c31565b505050505090910302600f1c90565b9250505090565b5050505f90565b5f61030f5160c01c906103c95160c01c808314613cd0576104475160f01c918215613cc957506104495160c01c908381129081601b02602303926103c961030f85015160281c94015160281c956104075160f01c808714613cba57826001603c1b9188038093875f14613ca957828491030102940301029215613c99576104095160c01c038091600160c01b85820990600160c01b88860994828610916001600160c01b03908890098601906001600160c01b03908a90098301030393600160c01b918203900881840660c01b0104910460c01b0192030203600f1c90565b6104075161040951610447516104495160c092831c93921c9160f090811c91901c5b909192811561387157828214613e97576103c95160c01c808514613e6d57837c15fc21041027acbbfcd46780fee71ead23fbcb7f4a81e58767ef801a3294958381125f14613e5d5783039303910302905b80600160c01b838509926001600160c01b03908482039082908709089281840660c01b0104910460c01b0191020160281c90565b9280929303930391030290613e29565b50507c15fc21041027acbbfcd46780fee71ead23fbcb7f4a81e58767ef801a320260281c92915050565b50507c15fc21041027acbbfcd46780fee71ead23fbcb7f4a81e58767ef801a3291500260281c90565b61048751610489516104c7516104c95160c092831c93921c9160f090811c91901c613dd8565b5f199165010000000000918391600160d81b81830919915f19915f81129003905f8112900309080990565b90917fd49c04af80af1ea5f98f85886b450a4b264fc14874f9f64143836145a37dd8a1927f0f1aaddd7742e56d32fb9f997447d9e6314db84884fabab26bf059af9bc20b61828183860909920202030290565b6101ae9291613f729161241c565b929390919015613fcb57613f98613fa5916102d15160c01c03936102d95160281c614082565b916102f45160281c613ee6565b919091925b6103e780516104279590955261040c939093526103f1919091526103e95252565b613fea613ff7916102d19493945160c01c01936102d95160281c613ee6565b916102f45160281c614082565b91909192613faa565b6101ae929161400e9161241c565b92939091901561405a57613f98614034916102d15160c01c03936102d95160281c614082565b919091925b61042780516104679590955261044c93909352610431919091526104295252565b613fea614079916102d19493945160c01c01936102d95160281c613ee6565b91909192614039565b6774600bc82ce9df527f7f6af8233bada11dd406b4458454ed9904d7af796be7aa4885b23e25b6985d49927fdbb82f7041b890fe67970a62a3568cc34df9dcb17cc3a2a6a027850e7e3724f9632ec3a856820264027d117d7b85020992020203029056fea26469706673582212209278687d991fcd28ee21053e63fc4705f0ae16fd327b53bb4a846b2bcc6fe47064736f6c63430008210033","linkReferences":{}},"methodIdentifiers":{"_calculateIntegrals(uint256,uint256[],uint256[])":"ac2d6d9d","_calculateMaxIntegrals(uint256[])":"2697a0d4","_clearInterval()":"587fe69a","_getMismatch(bool,int256,int256,int256,int256,int256,int256,int256,int256,int256,int256,int256)":"c28b759d","_getNewtonStep(bool,int256,int256,int256,int256,int256[8],uint256[8])":"ac11f23e","_initiateInterval(uint256,uint256,int256,uint256[])":"aecb7265","_moveBreakpointForward(uint256,uint256,uint256,uint256,uint256,uint256,uint256,bool)":"eaf17e87","_moveBreakpointTotal(uint256,uint256,uint256,uint256,uint256,uint256,uint256,bool)":"d1752509","_moveOvershoot(bool,bool,int256,uint256[11])":"15f1b191","_moveOvershootByEpsilon(int256,bool)":"efb1d9e3","_movePhase(uint256,uint256,bool,int256,uint256[8])":"7d7bc012","_moveTarget(bool,bool,int256,int256,uint256[7])":"c1d899a7","_movements(int256,int256,int256,uint256,uint256[],uint256[])":"5369943f","_newIntegrals(bool,int256,int256,int256,int256,int256[8],uint256[8])":"be95da21","_searchIncomingTarget(int256,int256,bool,uint256[8])":"a7a01b53","_searchOutgoingTarget(int256,int256,bool,uint256[8])":"58593d0d","_searchOvershoot(int256,int256,int256,uint256,uint256[],uint256[])":"b2907eb1"},"id":21}