{"abi":[{"type":"function","name":"add","inputs":[{"name":"value0","type":"int256","internalType":"X127"},{"name":"value1","type":"int256","internalType":"X127"}],"outputs":[{"name":"result","type":"int256","internalType":"X127"}],"stateMutability":"nonpayable"},{"type":"function","name":"equals","inputs":[{"name":"value0","type":"int256","internalType":"X127"},{"name":"value1","type":"int256","internalType":"X127"}],"outputs":[{"name":"result","type":"bool","internalType":"bool"}],"stateMutability":"nonpayable"},{"type":"function","name":"greaterThan","inputs":[{"name":"value0","type":"int256","internalType":"X127"},{"name":"value1","type":"int256","internalType":"X127"}],"outputs":[{"name":"result","type":"bool","internalType":"bool"}],"stateMutability":"nonpayable"},{"type":"function","name":"greaterThanOrEqualTo","inputs":[{"name":"value0","type":"int256","internalType":"X127"},{"name":"value1","type":"int256","internalType":"X127"}],"outputs":[{"name":"result","type":"bool","internalType":"bool"}],"stateMutability":"nonpayable"},{"type":"function","name":"lessThan","inputs":[{"name":"value0","type":"int256","internalType":"X127"},{"name":"value1","type":"int256","internalType":"X127"}],"outputs":[{"name":"result","type":"bool","internalType":"bool"}],"stateMutability":"nonpayable"},{"type":"function","name":"lessThanOrEqualTo","inputs":[{"name":"value0","type":"int256","internalType":"X127"},{"name":"value1","type":"int256","internalType":"X127"}],"outputs":[{"name":"result","type":"bool","internalType":"bool"}],"stateMutability":"nonpayable"},{"type":"function","name":"maxX127","inputs":[{"name":"value0","type":"int256","internalType":"X127"},{"name":"value1","type":"int256","internalType":"X127"}],"outputs":[{"name":"result","type":"int256","internalType":"X127"}],"stateMutability":"nonpayable"},{"type":"function","name":"minX127","inputs":[{"name":"value0","type":"int256","internalType":"X127"},{"name":"value1","type":"int256","internalType":"X127"}],"outputs":[{"name":"result","type":"int256","internalType":"X127"}],"stateMutability":"nonpayable"},{"type":"function","name":"mulDiv","inputs":[{"name":"value","type":"int256","internalType":"X127"},{"name":"numerator","type":"int256","internalType":"X216"},{"name":"denominator","type":"int256","internalType":"X216"}],"outputs":[{"name":"result","type":"int256","internalType":"X127"}],"stateMutability":"nonpayable"},{"type":"function","name":"notEqual","inputs":[{"name":"value0","type":"int256","internalType":"X127"},{"name":"value1","type":"int256","internalType":"X127"}],"outputs":[{"name":"result","type":"bool","internalType":"bool"}],"stateMutability":"nonpayable"},{"type":"function","name":"safeAdd","inputs":[{"name":"value0","type":"int256","internalType":"X127"},{"name":"value1","type":"int256","internalType":"X127"}],"outputs":[{"name":"result","type":"int256","internalType":"X127"}],"stateMutability":"nonpayable"},{"type":"function","name":"sub","inputs":[{"name":"value0","type":"int256","internalType":"X127"},{"name":"value1","type":"int256","internalType":"X127"}],"outputs":[{"name":"result","type":"int256","internalType":"X127"}],"stateMutability":"nonpayable"},{"type":"function","name":"times","inputs":[{"name":"value","type":"int256","internalType":"X127"},{"name":"multiplier","type":"uint256","internalType":"X23"}],"outputs":[{"name":"product","type":"int256","internalType":"X127"}],"stateMutability":"nonpayable"},{"type":"function","name":"toInteger","inputs":[{"name":"value","type":"int256","internalType":"X127"}],"outputs":[{"name":"result","type":"int256","internalType":"int256"}],"stateMutability":"nonpayable"},{"type":"function","name":"toIntegerRoundUp","inputs":[{"name":"value","type":"int256","internalType":"X127"}],"outputs":[{"name":"result","type":"int256","internalType":"int256"}],"stateMutability":"nonpayable"},{"type":"error","name":"SafeAddFailed","inputs":[{"name":"a","type":"int256","internalType":"X127"},{"name":"b","type":"int256","internalType":"X127"}]}],"bytecode":{"object":"0x6080806040523460155761036a908161001a8239f35b5f80fdfe6080806040526004361015610012575f80fd5b5f3560e01c908163230ebba11461028f5750806370be203d146102755780638a0a645714610251578063a5f3c23b14610238578063adefc37b1461021f578063b4a480ad14610206578063babdd838146101ec578063bfb0f6bf146101d3578063c5bb4555146101b3578063c740183114610191578063cf8281361461016d578063f747540c14610144578063f997e13614610102578063fd70d9c3146100e95763ffe4b656146100c1575f80fd5b346100e55760403660031901126100e55760206040516024356004350260171c8152f35b5f80fd5b346100e55760206100f9366102a6565b60405191128152f35b346100e557610110366102a6565b9081810190808212155f8412150361012d57602082604051908152f35b9050639389559160e01b5f5260045260245260445ffd5b346100e5576020610154366102a6565b8082121561016657505b604051908152f35b905061015e565b346100e55760603660031901126100e557602061015e6044356024356004356102bc565b346100e55760206101a1366102a6565b90818112156101665750604051908152f35b346100e55760203660031901126100e5576020604051600435607f1d8152f35b346100e55760206101e3366102a6565b60405191148152f35b346100e55760206101fc366102a6565b6040519113158152f35b346100e5576020610216366102a6565b60405191138152f35b346100e557602061022f366102a6565b60405191038152f35b346100e5576020610248366102a6565b60405191018152f35b346100e55760203660031901126100e55760206040516004355f03607f1d5f038152f35b346100e5576020610285366102a6565b6040519112158152f35b346100e5576020906102a0366102a6565b14158152f35b60409060031901126100e5576004359060243590565b915f19828409828402928380831092039482861461032b57908391099082805f03168093046002816003021880820260020302808202600203028082026002030280820260020302808202600203028091026002030294600184805f0304019185841191030302920304170290565b5050509150049056fea26469706673582212209a72c463333526875a6100b90edcf96b5d4e25640a112123dc848a65fec2825664736f6c63430008210033","linkReferences":{}},"methodIdentifiers":{"add(int256,int256)":"a5f3c23b","equals(int256,int256)":"bfb0f6bf","greaterThan(int256,int256)":"b4a480ad","greaterThanOrEqualTo(int256,int256)":"70be203d","lessThan(int256,int256)":"fd70d9c3","lessThanOrEqualTo(int256,int256)":"babdd838","maxX127(int256,int256)":"c7401831","minX127(int256,int256)":"f747540c","mulDiv(int256,int256,int256)":"cf828136","notEqual(int256,int256)":"230ebba1","safeAdd(int256,int256)":"f997e136","sub(int256,int256)":"adefc37b","times(int256,uint256)":"ffe4b656","toInteger(int256)":"c5bb4555","toIntegerRoundUp(int256)":"8a0a6457"},"id":35}