{"abi":[{"type":"constructor","inputs":[{"name":"_name","type":"string","internalType":"string"},{"name":"_symbol","type":"string","internalType":"string"}],"stateMutability":"nonpayable"},{"type":"function","name":"balanceOf","inputs":[{"name":"","type":"address","internalType":"address"}],"outputs":[{"name":"","type":"uint256","internalType":"uint256"}],"stateMutability":"view"},{"type":"function","name":"decimals","inputs":[],"outputs":[{"name":"","type":"uint8","internalType":"uint8"}],"stateMutability":"view"},{"type":"function","name":"name","inputs":[],"outputs":[{"name":"","type":"string","internalType":"string"}],"stateMutability":"view"},{"type":"function","name":"symbol","inputs":[],"outputs":[{"name":"","type":"string","internalType":"string"}],"stateMutability":"view"},{"type":"function","name":"transfer","inputs":[{"name":"to","type":"address","internalType":"address"},{"name":"amount","type":"uint256","internalType":"uint256"}],"outputs":[{"name":"","type":"bool","internalType":"bool"}],"stateMutability":"nonpayable"}],"bytecode":{"object":"0x6080604052346103465761074c803803806100198161034a565b9283398101906040818303126103465780516001600160401b038111610346578261004591830161036f565b60208201519092906001600160401b03811161034657610065920161036f565b6002805460ff1916601217905581516001600160401b038111610251575f54600181811c9116801561033c575b602082101461023357601f81116102cf575b50602092601f821160011461027057928192935f92610265575b50508160011b915f199060031b1c1916175f555b80516001600160401b03811161025157600154600181811c91168015610247575b602082101461023357601f81116101c5575b50602091601f8211600114610165579181925f9261015a575b50508160011b915f199060031b1c1916176001555b335f52600360205269d3c21bcecceda100000060405f205560405161038b90816103c18239f35b015190505f8061011e565b601f1982169260015f52805f20915f5b8581106101ad57508360019510610195575b505050811b01600155610133565b01515f1960f88460031b161c191690555f8080610187565b91926020600181928685015181550194019201610175565b818111156101055760015f52601f820160051c7fb10e2d527612073b26eecdfd717e6a320cf44b4afac2b0732d9fcbe2b7fa0cf66020841061022b575b81601f9101920160051c03905f5b82811061021e575050610105565b5f82820155600101610210565b5f9150610202565b634e487b7160e01b5f52602260045260245ffd5b90607f16906100f3565b634e487b7160e01b5f52604160045260245ffd5b015190505f806100be565b601f198216935f8052805f20915f5b8681106102b7575083600195961061029f575b505050811b015f556100d2565b01515f1960f88460031b161c191690555f8080610292565b9192602060018192868501518155019401920161027f565b818111156100a4575f8052601f820160051c7f290decd9548b62a8d60345a988386fc84ba6bc95484008f6362f93160ef3e56360208410610334575b81601f9101920160051c03905f5b8281106103275750506100a4565b5f82820155600101610319565b5f915061030b565b90607f1690610092565b5f80fd5b6040519190601f01601f191682016001600160401b0381118382101761025157604052565b81601f82011215610346578051906001600160401b0382116102515761039e601f8301601f191660200161034a565b928284526020838301011161034657815f9260208093018386015e830101529056fe60806040526004361015610011575f80fd5b5f3560e01c806306fdde0314610243578063313ce5671461022357806370a08231146101eb57806395d89b41146100cd5763a9059cbb14610050575f80fd5b346100c95760403660031901126100c95761006961033f565b60243590335f52600360205260405f208054908382039182116100b557556001600160a01b03165f90815260036020526040902080549182019182106100b55755602060405160018152f35b634e487b7160e01b5f52601160045260245ffd5b5f80fd5b346100c9575f3660031901126100c9576040515f6001548060011c906001811680156101e1575b6020831081146101cd578285529081156101b1575060011461015b575b50819003601f01601f191681019067ffffffffffffffff82118183101761014757604082905281906101439082610315565b0390f35b634e487b7160e01b5f52604160045260245ffd5b60015f9081529091507fb10e2d527612073b26eecdfd717e6a320cf44b4afac2b0732d9fcbe2b7fa0cf65b82821061019b57506020915082010182610111565b6001816020925483858801015201910190610186565b90506020925060ff191682840152151560051b82010182610111565b634e487b7160e01b5f52602260045260245ffd5b91607f16916100f4565b346100c95760203660031901126100c9576001600160a01b0361020c61033f565b165f526003602052602060405f2054604051908152f35b346100c9575f3660031901126100c957602060ff60025416604051908152f35b346100c9575f3660031901126100c9576040515f5f548060011c9060018116801561030b575b6020831081146101cd578285529081156101b157506001146102b75750819003601f01601f191681019067ffffffffffffffff82118183101761014757604082905281906101439082610315565b5f8080529091507f290decd9548b62a8d60345a988386fc84ba6bc95484008f6362f93160ef3e5635b8282106102f557506020915082010182610111565b60018160209254838588010152019101906102e0565b91607f1691610269565b602060409281835280519182918282860152018484015e5f828201840152601f01601f1916010190565b600435906001600160a01b03821682036100c95756fea2646970667358221220c6b0ca2355d691a3e4df0f472a4962f34362f255534e0a3c37d52d548458eb5264736f6c63430008210033","linkReferences":{}},"methodIdentifiers":{"balanceOf(address)":"70a08231","decimals()":"313ce567","name()":"06fdde03","symbol()":"95d89b41","transfer(address,uint256)":"a9059cbb"},"id":0}