{"abi":[{"type":"function","name":"add","inputs":[{"name":"value0","type":"uint256","internalType":"X15"},{"name":"value1","type":"uint256","internalType":"X15"}],"outputs":[{"name":"result","type":"uint256","internalType":"X15"}],"stateMutability":"nonpayable"},{"type":"function","name":"equals","inputs":[{"name":"value0","type":"uint256","internalType":"X15"},{"name":"value1","type":"uint256","internalType":"X15"}],"outputs":[{"name":"result","type":"bool","internalType":"bool"}],"stateMutability":"nonpayable"},{"type":"function","name":"greaterThan","inputs":[{"name":"value0","type":"uint256","internalType":"X15"},{"name":"value1","type":"uint256","internalType":"X15"}],"outputs":[{"name":"result","type":"bool","internalType":"bool"}],"stateMutability":"nonpayable"},{"type":"function","name":"greaterThanOrEqualTo","inputs":[{"name":"value0","type":"uint256","internalType":"X15"},{"name":"value1","type":"uint256","internalType":"X15"}],"outputs":[{"name":"result","type":"bool","internalType":"bool"}],"stateMutability":"nonpayable"},{"type":"function","name":"lessThan","inputs":[{"name":"value0","type":"uint256","internalType":"X15"},{"name":"value1","type":"uint256","internalType":"X15"}],"outputs":[{"name":"result","type":"bool","internalType":"bool"}],"stateMutability":"nonpayable"},{"type":"function","name":"lessThanOrEqualTo","inputs":[{"name":"value0","type":"uint256","internalType":"X15"},{"name":"value1","type":"uint256","internalType":"X15"}],"outputs":[{"name":"result","type":"bool","internalType":"bool"}],"stateMutability":"nonpayable"},{"type":"function","name":"notEqual","inputs":[{"name":"value0","type":"uint256","internalType":"X15"},{"name":"value1","type":"uint256","internalType":"X15"}],"outputs":[{"name":"result","type":"bool","internalType":"bool"}],"stateMutability":"nonpayable"},{"type":"function","name":"sub","inputs":[{"name":"value0","type":"uint256","internalType":"X15"},{"name":"value1","type":"uint256","internalType":"X15"}],"outputs":[{"name":"result","type":"uint256","internalType":"X15"}],"stateMutability":"nonpayable"}],"bytecode":{"object":"0x6080806040523460155761018c908161001a8239f35b5f80fdfe6080806040526004361015610012575f80fd5b5f3560e01c9081632215ea7c1461012a5750806347b5cd811461011157806348f24ceb146100f8578063771602f7146100df578063b67d77c5146100c6578063ca4e89bf146100ac578063d73492a1146100925763fb1dd0e514610074575f80fd5b3461008e57602061008436610140565b6040519111158152f35b5f80fd5b3461008e5760206100a236610140565b6040519110158152f35b3461008e5760206100bc36610140565b6040519114158152f35b3461008e5760206100d636610140565b60405191038152f35b3461008e5760206100ef36610140565b60405191018152f35b3461008e57602061010836610140565b60405191118152f35b3461008e57602061012136610140565b60405191148152f35b3461008e5760209061013b36610140565b118152f35b604090600319011261008e57600435906024359056fea2646970667358221220760c8c1cd3cc3458b59c380845d28c809e036deac428463075eaba8012967b3564736f6c63430008210033","linkReferences":{}},"methodIdentifiers":{"add(uint256,uint256)":"771602f7","equals(uint256,uint256)":"47b5cd81","greaterThan(uint256,uint256)":"48f24ceb","greaterThanOrEqualTo(uint256,uint256)":"d73492a1","lessThan(uint256,uint256)":"2215ea7c","lessThanOrEqualTo(uint256,uint256)":"fb1dd0e5","notEqual(uint256,uint256)":"ca4e89bf","sub(uint256,uint256)":"b67d77c5"},"id":36}