{"abi":[{"type":"function","name":"decrementIntegral","inputs":[{"name":"integralValue","type":"int256","internalType":"X216"},{"name":"decrement","type":"int256","internalType":"X216"}],"outputs":[{"name":"result","type":"int256","internalType":"X216"}],"stateMutability":"nonpayable"},{"type":"function","name":"evaluate","inputs":[{"name":"b0","type":"int256","internalType":"X59"},{"name":"b1","type":"int256","internalType":"X59"},{"name":"c0","type":"uint256","internalType":"X15"},{"name":"c1","type":"uint256","internalType":"X15"},{"name":"target","type":"int256","internalType":"X59"}],"outputs":[{"name":"result","type":"int256","internalType":"X216"}],"stateMutability":"nonpayable"},{"type":"function","name":"incoming","inputs":[{"name":"b0","type":"int256","internalType":"X59"},{"name":"b1","type":"int256","internalType":"X59"},{"name":"c0","type":"uint256","internalType":"X15"},{"name":"c1","type":"uint256","internalType":"X15"},{"name":"from","type":"int256","internalType":"X59"},{"name":"to","type":"int256","internalType":"X59"}],"outputs":[{"name":"result","type":"int256","internalType":"X216"}],"stateMutability":"nonpayable"},{"type":"function","name":"incrementIntegral","inputs":[{"name":"integralValue","type":"int256","internalType":"X216"},{"name":"increment","type":"int256","internalType":"X216"}],"outputs":[{"name":"result","type":"int256","internalType":"X216"}],"stateMutability":"nonpayable"},{"type":"function","name":"integral","inputs":[{"name":"integralValue","type":"int256","internalType":"X216"}],"outputs":[{"name":"result","type":"int256","internalType":"X216"}],"stateMutability":"nonpayable"},{"type":"function","name":"outgoing","inputs":[{"name":"b0","type":"int256","internalType":"X59"},{"name":"b1","type":"int256","internalType":"X59"},{"name":"c0","type":"uint256","internalType":"X15"},{"name":"c1","type":"uint256","internalType":"X15"},{"name":"from","type":"int256","internalType":"X59"},{"name":"to","type":"int256","internalType":"X59"}],"outputs":[{"name":"result","type":"int256","internalType":"X216"}],"stateMutability":"nonpayable"},{"type":"function","name":"setIntegral","inputs":[{"name":"integralValue","type":"int256","internalType":"X216"}],"outputs":[{"name":"result","type":"int256","internalType":"X216"}],"stateMutability":"nonpayable"},{"type":"function","name":"shift","inputs":[{"name":"integralValue","type":"int256","internalType":"X216"},{"name":"logPrice0","type":"int256","internalType":"X59"},{"name":"logPrice1","type":"int256","internalType":"X59"},{"name":"left","type":"bool","internalType":"bool"}],"outputs":[{"name":"result","type":"int256","internalType":"X216"}],"stateMutability":"nonpayable"}],"bytecode":{"object":"0x608080604052346015576109ee908161001a8239f35b5f80fdfe60806040526004361015610011575f80fd5b5f3560e01c806302f0053c14610094578063312822841461008f578063485e1adc1461008a5780634c70f138146100855780635fdbd38d14610080578063754de7051461007b578063800222e314610076576383ce0aa914610071575f80fd5b610426565b6103a9565b610314565b6102da565b6101d7565b610196565b610161565b34610137576101336101236100a83661013b565b94610100604095939492955260b01b9060f01b0160805260b01b9060f01b0160c0526100d381610460565b9060405192604084016040528160181c9060c01b01835260d81b01601e8201526100fc82610460565b9060405193604085016040528160181c9060c01b01845260d81b01601e83015260826105d9565b6040519081529081906020820190565b0390f35b5f80fd5b60c090600319011261013757600435906024359060443590606435906084359060a43590565b346101375760203660031901126101375760206004356040518281016040528160281b90526040519060018060d81b03168152f35b34610137576020366003190112610137576020600435604051908282016040528060281b8252601f198201805191600419840152525160281c604051908152f35b346101375760803660031901126101375760043560243560443560643590811515809203610137576102209061021760405194607c8601604052856106f9565b603e84016106f9565b601b026023030168a43903008fac41d97d603e825160281c92015160281c7f5bc2a24e50a66d39c35a9132c33f2fc50a1b99389d5455e78a7cf7ef8894e4cd8163cb21e499028464cef6ae86850209920202039061013360405192827fdbad67320459464b8d379def907a3e0c7c8687340b82b93b6e54e966e25782678594830202917f7082326d62b7ef4d06861f13c21dd192c8044b19a121205b7dc63c2642b5a8055f1992634bc3287b029102090382526020820190565b34610137576040366003190112610137576020600435602435906040519183830160405260281b9060281b038091526040519060281c8152f35b3461013757610133610123600261032a3661013b565b9593909492604051936080850160405260b01b9060f01b01835260b01b9060f01b01604082015261035a83610460565b9060405194604086016040528160181c9060c01b01855260d81b01601e84015261038384610460565b9060405195604087016040528160181c9060c01b01865260d81b01601e85015201610720565b346101375760a036600319011261013757610133610123600435600260243591604435926064359060843594604051936080850160405260b01b9060f01b01835260b01b9060f01b01604082015261040083610460565b9060405194604086016040528160181c9060c01b01855260d81b01601e8401520161082e565b34610137576040366003190112610137576020600435602435906040519183830160405260281b9060281b018091526040519060281c8152f35b6105379061053190808002908180025f19600160801b808386095f198487090309906104e46104d66104cf600f600760681b8802046609c0000000000085040169c91800000000000000008604016104c78580025f19878009621eee11605a1b9190030490565b0196606a1b90565b600f900490565b916624900000000000900490565b5f1993600160b41b936a06df92000000000000000090049190920101600160ff1b01906910000000000000000000828209915f1991090309600160fe1b818301810192919091030161093b565b60021b90565b808002905f1990800903808002905f1990800903808002905f1990800903808002905f1990800903808002905f1990800903808002905f1990800903808002905f1990800903808002905f1990800903808002905f1990800903808002905f1990800903808002905f1990800903808002905f1990800903808002905f1990800903808002905f19908009036105d66105cf8261095b565b9160281c90565b91565b9091825160c01c90805160c01c8083146106f057604084019360011981015160f01c94603e82015160f01c9485156106e4578686039287828612968715601b026023039a8b015160281c9a015160281c97146106d45783916001603c1b915160c01c948591885f146106c4578391920301029484030102935b156106b8575160c01c900380915b600160c01b87820993600160c01b86820991828610916001600160c01b03908890098601906001600160c01b03908a90098301030393600160c01b918203900881840660c01b0104910460c01b0192030201600f1c90565b5160c01c038091610660565b8284910301029503010293610652565b50505050505090910302600f1c90565b50505050505050505f90565b50505050505f90565b61070282610460565b929091601f19810192835194601e8301526003820152601719015252565b91905f91815160c01c93815160c01c9081861461082457603e81015160f01c94851561081a5750604081015160c01c908683129384601b026023039586015160281c95015160281c9660011982015160f01c8088146106d457836001603c1b9189038093885f146108095782849103010295030102935b156107fc575160c01c0380915b600160c01b85820990600160c01b88860994828610916001600160c01b03908890098601906001600160c01b03908a90098301030393600160c01b918203900881840660c01b0104910460c01b0192030203600f1c90565b5160c01c900380916107a4565b839192030102948403010293610797565b9550505050505090565b5050505050505f90565b61085360011982015160f01c825160c01c926040603e82015160f01c91015160c01c92565b919382939193156106f057838314610911575160c01c8085146108e757837c15fc21041027acbbfcd46780fee71ead23fbcb7f4a81e58767ef801a3294958381125f146108d75783039303910302905b80600160c01b838509926001600160c01b03908482039082908709089281840660c01b0104910460c01b0191020160281c90565b92809293039303910302906108a3565b50507c15fc21041027acbbfcd46780fee71ead23fbcb7f4a81e58767ef801a320260281c92915050565b5050507c15fc21041027acbbfcd46780fee71ead23fbcb7f4a81e58767ef801a3291500260281c90565b5f198281019283919080600160fe1b850990030191600160fe1b90090890565b5f198181019180600160c11b7ff1aaddd7742e56d32fb9f997447d9e6314db84884fabab26bf059af9bc20b6090990030181600160c11b7ff1aaddd7742e56d32fb9f997447d9e6314db84884fabab26bf059af9bc20b60909089056fea2646970667358221220dc4a4e1bd8aa42d30851b575e7aee917462984a01dc35eeea79d75d81ea91bfc64736f6c63430008210033","linkReferences":{}},"methodIdentifiers":{"decrementIntegral(int256,int256)":"5fdbd38d","evaluate(int256,int256,uint256,uint256,int256)":"800222e3","incoming(int256,int256,uint256,uint256,int256,int256)":"754de705","incrementIntegral(int256,int256)":"83ce0aa9","integral(int256)":"31282284","outgoing(int256,int256,uint256,uint256,int256,int256)":"02f0053c","setIntegral(int256)":"485e1adc","shift(int256,int256,int256,bool)":"4c70f138"},"id":20}