{"abi":[{"type":"function","name":"add","inputs":[{"name":"value0","type":"int256","internalType":"X111"},{"name":"value1","type":"int256","internalType":"X111"}],"outputs":[{"name":"result","type":"int256","internalType":"X111"}],"stateMutability":"nonpayable"},{"type":"function","name":"equals","inputs":[{"name":"value0","type":"int256","internalType":"X111"},{"name":"value1","type":"int256","internalType":"X111"}],"outputs":[{"name":"result","type":"bool","internalType":"bool"}],"stateMutability":"nonpayable"},{"type":"function","name":"greaterThan","inputs":[{"name":"value0","type":"int256","internalType":"X111"},{"name":"value1","type":"int256","internalType":"X111"}],"outputs":[{"name":"result","type":"bool","internalType":"bool"}],"stateMutability":"nonpayable"},{"type":"function","name":"greaterThanOrEqualTo","inputs":[{"name":"value0","type":"int256","internalType":"X111"},{"name":"value1","type":"int256","internalType":"X111"}],"outputs":[{"name":"result","type":"bool","internalType":"bool"}],"stateMutability":"nonpayable"},{"type":"function","name":"lessThan","inputs":[{"name":"value0","type":"int256","internalType":"X111"},{"name":"value1","type":"int256","internalType":"X111"}],"outputs":[{"name":"result","type":"bool","internalType":"bool"}],"stateMutability":"nonpayable"},{"type":"function","name":"lessThanOrEqualTo","inputs":[{"name":"value0","type":"int256","internalType":"X111"},{"name":"value1","type":"int256","internalType":"X111"}],"outputs":[{"name":"result","type":"bool","internalType":"bool"}],"stateMutability":"nonpayable"},{"type":"function","name":"maxX111","inputs":[{"name":"value0","type":"int256","internalType":"X111"},{"name":"value1","type":"int256","internalType":"X111"}],"outputs":[{"name":"result","type":"int256","internalType":"X111"}],"stateMutability":"nonpayable"},{"type":"function","name":"minX111","inputs":[{"name":"value0","type":"int256","internalType":"X111"},{"name":"value1","type":"int256","internalType":"X111"}],"outputs":[{"name":"result","type":"int256","internalType":"X111"}],"stateMutability":"nonpayable"},{"type":"function","name":"mulDivByExpInv8","inputs":[{"name":"value","type":"int256","internalType":"X111"},{"name":"multiplier","type":"int256","internalType":"X216"}],"outputs":[{"name":"result","type":"uint256","internalType":"X208"}],"stateMutability":"nonpayable"},{"type":"function","name":"notEqual","inputs":[{"name":"value0","type":"int256","internalType":"X111"},{"name":"value1","type":"int256","internalType":"X111"}],"outputs":[{"name":"result","type":"bool","internalType":"bool"}],"stateMutability":"nonpayable"},{"type":"function","name":"sub","inputs":[{"name":"value0","type":"int256","internalType":"X111"},{"name":"value1","type":"int256","internalType":"X111"}],"outputs":[{"name":"result","type":"int256","internalType":"X111"}],"stateMutability":"nonpayable"},{"type":"function","name":"timesSigned","inputs":[{"name":"_growth","type":"int256","internalType":"X111"},{"name":"_shares","type":"int256","internalType":"int256"}],"outputs":[{"name":"result","type":"int256","internalType":"X111"}],"stateMutability":"nonpayable"},{"type":"function","name":"timesUnsigned","inputs":[{"name":"_growth","type":"int256","internalType":"X111"},{"name":"_shares","type":"uint256","internalType":"uint256"}],"outputs":[{"name":"result","type":"int256","internalType":"X111"}],"stateMutability":"nonpayable"}],"bytecode":{"object":"0x608080604052346015576102ef908161001a8239f35b5f80fdfe6080806040526004361015610012575f80fd5b5f3560e01c908163087ad07b14610284575080631cbb5fc9146101e6578063230ebba1146101cc57806348661c86146101ab5780634dfa18d71461018a57806370be203d1461017057806383bfc31514610146578063a5f3c23b1461012d578063adefc37b14610114578063b4a480ad146100fb578063babdd838146100e1578063bfb0f6bf146100c85763fd70d9c3146100ab575f80fd5b346100c45760206100bb366102a3565b60405191128152f35b5f80fd5b346100c45760206100d8366102a3565b60405191148152f35b346100c45760206100f1366102a3565b6040519113158152f35b346100c457602061010b366102a3565b60405191138152f35b346100c4576020610124366102a3565b60405191038152f35b346100c457602061013d366102a3565b60405191018152f35b346100c4576020610156366102a3565b908181121561016957505b604051908152f35b9050610161565b346100c4576020610180366102a3565b6040519112158152f35b346100c45760403660031901126100c4576020604051602435600435028152f35b346100c45760206101bb366102a3565b808212156101695750604051908152f35b346100c45760206101dc366102a3565b6040519114158152f35b346100c45760403660031901126100c457602060243560271b600435606e1b5f19817fba4f53ea38636f85f007042540ae8ef33225e9a7ab4f4473a86d4a8fdd1a5b8209907fba4f53ea38636f85f007042540ae8ef33225e9a7ab4f4473a86d4a8fdd1a5b82818102928380821091030393805f19818709950293815f19910992020280821091030391604051928083011091808210910303018152f35b346100c45760403660031901126100c457602090602435600435028152f35b60409060031901126100c457600435906024359056fea2646970667358221220f878c2bcebc29cf9d67d1f9659c09c7fe654ab6534def1e8edb4e44214b1e56764736f6c63430008210033","linkReferences":{}},"methodIdentifiers":{"add(int256,int256)":"a5f3c23b","equals(int256,int256)":"bfb0f6bf","greaterThan(int256,int256)":"b4a480ad","greaterThanOrEqualTo(int256,int256)":"70be203d","lessThan(int256,int256)":"fd70d9c3","lessThanOrEqualTo(int256,int256)":"babdd838","maxX111(int256,int256)":"83bfc315","minX111(int256,int256)":"48661c86","mulDivByExpInv8(int256,int256)":"1cbb5fc9","notEqual(int256,int256)":"230ebba1","sub(int256,int256)":"adefc37b","timesSigned(int256,int256)":"4dfa18d7","timesUnsigned(int256,uint256)":"087ad07b"},"id":34}