{"abi":[{"type":"constructor","inputs":[{"name":"_delegatee","type":"address","internalType":"address"},{"name":"admin","type":"address","internalType":"address"}],"stateMutability":"nonpayable"},{"type":"function","name":"allowance","inputs":[{"name":"owner","type":"address","internalType":"address"},{"name":"spender","type":"address","internalType":"address"},{"name":"tag","type":"uint256","internalType":"Tag"}],"outputs":[{"name":"amount","type":"uint256","internalType":"uint256"}],"stateMutability":"view"},{"type":"function","name":"approve","inputs":[{"name":"spender","type":"address","internalType":"address"},{"name":"tag","type":"uint256","internalType":"Tag"},{"name":"amount","type":"uint256","internalType":"uint256"}],"outputs":[{"name":"success","type":"bool","internalType":"bool"}],"stateMutability":"nonpayable"},{"type":"function","name":"balanceOf","inputs":[{"name":"owner","type":"address","internalType":"address"},{"name":"tag","type":"uint256","internalType":"Tag"}],"outputs":[{"name":"amount","type":"uint256","internalType":"uint256"}],"stateMutability":"view"},{"type":"function","name":"callManipulator","inputs":[{"name":"manipulator","type":"address","internalType":"address"},{"name":"input","type":"bytes","internalType":"bytes"}],"outputs":[],"stateMutability":"nonpayable"},{"type":"function","name":"clear","inputs":[{"name":"tag","type":"uint256","internalType":"Tag"},{"name":"amount","type":"uint256","internalType":"uint256"}],"outputs":[],"stateMutability":"nonpayable"},{"type":"function","name":"dispatch","inputs":[{"name":"input","type":"bytes","internalType":"bytes"}],"outputs":[{"name":"output0","type":"int256","internalType":"int256"},{"name":"output1","type":"int256","internalType":"int256"}],"stateMutability":"nonpayable"},{"type":"function","name":"isOperator","inputs":[{"name":"owner","type":"address","internalType":"address"},{"name":"spender","type":"address","internalType":"address"}],"outputs":[{"name":"status","type":"bool","internalType":"bool"}],"stateMutability":"view"},{"type":"function","name":"modifyBalance","inputs":[{"name":"owner","type":"address","internalType":"address"},{"name":"tag0","type":"uint256","internalType":"Tag"},{"name":"tag1","type":"uint256","internalType":"Tag"},{"name":"amount0","type":"int256","internalType":"int256"},{"name":"amount1","type":"int256","internalType":"int256"}],"outputs":[],"stateMutability":"nonpayable"},{"type":"function","name":"modifyBalance","inputs":[{"name":"owner","type":"address","internalType":"address"},{"name":"tag","type":"uint256","internalType":"Tag"},{"name":"amount","type":"int256","internalType":"int256"}],"outputs":[],"stateMutability":"nonpayable"},{"type":"function","name":"onERC1155BatchReceived","inputs":[{"name":"","type":"address","internalType":"address"},{"name":"","type":"address","internalType":"address"},{"name":"","type":"uint256[]","internalType":"uint256[]"},{"name":"","type":"uint256[]","internalType":"uint256[]"},{"name":"","type":"bytes","internalType":"bytes"}],"outputs":[{"name":"","type":"bytes4","internalType":"bytes4"}],"stateMutability":"pure"},{"type":"function","name":"onERC1155Received","inputs":[{"name":"","type":"address","internalType":"address"},{"name":"","type":"address","internalType":"address"},{"name":"","type":"uint256","internalType":"uint256"},{"name":"","type":"uint256","internalType":"uint256"},{"name":"","type":"bytes","internalType":"bytes"}],"outputs":[{"name":"","type":"bytes4","internalType":"bytes4"}],"stateMutability":"pure"},{"type":"function","name":"setOperator","inputs":[{"name":"spender","type":"address","internalType":"address"},{"name":"approved","type":"bool","internalType":"bool"}],"outputs":[{"name":"success","type":"bool","internalType":"bool"}],"stateMutability":"nonpayable"},{"type":"function","name":"settle","inputs":[],"outputs":[{"name":"paid","type":"uint256","internalType":"uint256"}],"stateMutability":"payable"},{"type":"function","name":"storageAccess","inputs":[{"name":"slot","type":"bytes32","internalType":"bytes32"}],"outputs":[{"name":"","type":"bytes32","internalType":"bytes32"}],"stateMutability":"view"},{"type":"function","name":"storageAccess","inputs":[{"name":"startSlot","type":"bytes32","internalType":"bytes32"},{"name":"nSlots","type":"uint256","internalType":"uint256"}],"outputs":[{"name":"","type":"bytes32[]","internalType":"bytes32[]"}],"stateMutability":"view"},{"type":"function","name":"storageAccess","inputs":[{"name":"slots","type":"bytes32[]","internalType":"bytes32[]"}],"outputs":[{"name":"","type":"bytes32[]","internalType":"bytes32[]"}],"stateMutability":"view"},{"type":"function","name":"supportsInterface","inputs":[{"name":"interfaceId","type":"bytes4","internalType":"bytes4"}],"outputs":[{"name":"","type":"bool","internalType":"bool"}],"stateMutability":"pure"},{"type":"function","name":"swap","inputs":[{"name":"poolId","type":"uint256","internalType":"uint256"},{"name":"amountSpecified","type":"int256","internalType":"int256"},{"name":"logPriceLimit","type":"int256","internalType":"X59"},{"name":"zeroForOne","type":"uint256","internalType":"uint256"},{"name":"hookData","type":"bytes","internalType":"bytes"}],"outputs":[{"name":"amount0","type":"int256","internalType":"int256"},{"name":"amount1","type":"int256","internalType":"int256"}],"stateMutability":"nonpayable"},{"type":"function","name":"sync","inputs":[{"name":"token","type":"address","internalType":"address"}],"outputs":[],"stateMutability":"nonpayable"},{"type":"function","name":"sync","inputs":[{"name":"token","type":"address","internalType":"address"},{"name":"tokenId","type":"uint256","internalType":"uint256"}],"outputs":[],"stateMutability":"nonpayable"},{"type":"function","name":"take","inputs":[{"name":"token","type":"address","internalType":"address"},{"name":"tokenId","type":"uint256","internalType":"uint256"},{"name":"to","type":"address","internalType":"address"},{"name":"amount","type":"uint256","internalType":"uint256"}],"outputs":[],"stateMutability":"nonpayable"},{"type":"function","name":"take","inputs":[{"name":"token","type":"address","internalType":"address"},{"name":"to","type":"address","internalType":"address"},{"name":"amount","type":"uint256","internalType":"uint256"}],"outputs":[],"stateMutability":"nonpayable"},{"type":"function","name":"take","inputs":[{"name":"token","type":"address","internalType":"address"},{"name":"tokenId","type":"uint256","internalType":"uint256"},{"name":"to","type":"address","internalType":"address"},{"name":"amount","type":"uint256","internalType":"uint256"},{"name":"transferData","type":"bytes","internalType":"bytes"}],"outputs":[],"stateMutability":"nonpayable"},{"type":"function","name":"transfer","inputs":[{"name":"receiver","type":"address","internalType":"address"},{"name":"tag","type":"uint256","internalType":"Tag"},{"name":"amount","type":"uint256","internalType":"uint256"}],"outputs":[{"name":"success","type":"bool","internalType":"bool"}],"stateMutability":"nonpayable"},{"type":"function","name":"transferFrom","inputs":[{"name":"sender","type":"address","internalType":"address"},{"name":"receiver","type":"address","internalType":"address"},{"name":"tag","type":"uint256","internalType":"Tag"},{"name":"amount","type":"uint256","internalType":"uint256"}],"outputs":[{"name":"success","type":"bool","internalType":"bool"}],"stateMutability":"nonpayable"},{"type":"function","name":"transferTransientBalanceFrom","inputs":[{"name":"sender","type":"address","internalType":"address"},{"name":"receiver","type":"address","internalType":"address"},{"name":"tag","type":"uint256","internalType":"Tag"},{"name":"amount","type":"uint256","internalType":"uint256"}],"outputs":[],"stateMutability":"nonpayable"},{"type":"function","name":"transientAccess","inputs":[{"name":"slot","type":"bytes32","internalType":"bytes32"}],"outputs":[{"name":"","type":"bytes32","internalType":"bytes32"}],"stateMutability":"view"},{"type":"function","name":"transientAccess","inputs":[{"name":"slots","type":"bytes32[]","internalType":"bytes32[]"}],"outputs":[{"name":"","type":"bytes32[]","internalType":"bytes32[]"}],"stateMutability":"view"},{"type":"function","name":"transientAccess","inputs":[{"name":"startSlot","type":"bytes32","internalType":"bytes32"},{"name":"nSlots","type":"uint256","internalType":"uint256"}],"outputs":[{"name":"","type":"bytes32[]","internalType":"bytes32[]"}],"stateMutability":"view"},{"type":"function","name":"unlock","inputs":[{"name":"unlockTarget","type":"address","internalType":"address"},{"name":"data","type":"bytes","internalType":"bytes"}],"outputs":[{"name":"result","type":"bytes","internalType":"bytes"}],"stateMutability":"payable"},{"type":"event","name":"Approval","inputs":[{"name":"owner","type":"address","indexed":true,"internalType":"address"},{"name":"spender","type":"address","indexed":true,"internalType":"address"},{"name":"tag","type":"uint256","indexed":true,"internalType":"Tag"},{"name":"amount","type":"uint256","indexed":false,"internalType":"uint256"}],"anonymous":false},{"type":"event","name":"Donate","inputs":[{"name":"poolId","type":"uint256","indexed":true,"internalType":"uint256"},{"name":"caller","type":"address","indexed":true,"internalType":"address"},{"name":"data","type":"bytes32","indexed":false,"internalType":"bytes32"}],"anonymous":false},{"type":"event","name":"Initialize","inputs":[{"name":"poolId","type":"uint256","indexed":true,"internalType":"uint256"},{"name":"tag0","type":"uint256","indexed":true,"internalType":"Tag"},{"name":"tag1","type":"uint256","indexed":true,"internalType":"Tag"},{"name":"data","type":"bytes","indexed":false,"internalType":"bytes"}],"anonymous":false},{"type":"event","name":"ModifyDoubleBalanceEvent","inputs":[{"name":"caller","type":"address","indexed":true,"internalType":"address"},{"name":"owner","type":"address","indexed":true,"internalType":"address"},{"name":"tag","type":"uint256","indexed":true,"internalType":"Tag"},{"name":"increment","type":"int256","indexed":false,"internalType":"int256"},{"name":"balance","type":"uint256","indexed":false,"internalType":"uint256"}],"anonymous":false},{"type":"event","name":"ModifyKernel","inputs":[{"name":"poolId","type":"uint256","indexed":true,"internalType":"uint256"},{"name":"caller","type":"address","indexed":true,"internalType":"address"},{"name":"data","type":"bytes","indexed":false,"internalType":"bytes"}],"anonymous":false},{"type":"event","name":"ModifyPoolGrowthPortion","inputs":[{"name":"poolId","type":"uint256","indexed":true,"internalType":"uint256"},{"name":"caller","type":"address","indexed":true,"internalType":"address"},{"name":"data","type":"bytes32","indexed":false,"internalType":"bytes32"}],"anonymous":false},{"type":"event","name":"ModifyPoolOwner","inputs":[{"name":"poolId","type":"uint256","indexed":true,"internalType":"uint256"},{"name":"oldOwner","type":"address","indexed":true,"internalType":"address"},{"name":"newOwner","type":"address","indexed":true,"internalType":"address"}],"anonymous":false},{"type":"event","name":"ModifyPosition","inputs":[{"name":"poolId","type":"uint256","indexed":true,"internalType":"uint256"},{"name":"caller","type":"address","indexed":true,"internalType":"address"},{"name":"data","type":"bytes32[6]","indexed":false,"internalType":"bytes32[6]"}],"anonymous":false},{"type":"event","name":"ModifyProtocol","inputs":[{"name":"newOwner","type":"address","indexed":true,"internalType":"address"},{"name":"newProtocol","type":"uint256","indexed":false,"internalType":"uint256"}],"anonymous":false},{"type":"event","name":"ModifySentinel","inputs":[{"name":"oldSentinel","type":"address","indexed":false,"internalType":"contract ISentinel"},{"name":"newSentinel","type":"address","indexed":false,"internalType":"contract ISentinel"}],"anonymous":false},{"type":"event","name":"OperatorSet","inputs":[{"name":"owner","type":"address","indexed":true,"internalType":"address"},{"name":"operator","type":"address","indexed":true,"internalType":"address"},{"name":"approved","type":"bool","indexed":false,"internalType":"bool"}],"anonymous":false},{"type":"event","name":"PoolCollection","inputs":[{"name":"poolId","type":"uint256","indexed":true,"internalType":"uint256"},{"name":"owner","type":"address","indexed":true,"internalType":"address"},{"name":"amount0","type":"uint256","indexed":false,"internalType":"uint256"},{"name":"amount1","type":"uint256","indexed":false,"internalType":"uint256"}],"anonymous":false},{"type":"event","name":"ProtocolCollection","inputs":[{"name":"poolId","type":"uint256","indexed":true,"internalType":"uint256"},{"name":"amount0","type":"uint256","indexed":false,"internalType":"uint256"},{"name":"amount1","type":"uint256","indexed":false,"internalType":"uint256"}],"anonymous":false},{"type":"event","name":"Swap","inputs":[{"name":"poolId","type":"uint256","indexed":true,"internalType":"uint256"},{"name":"caller","type":"address","indexed":true,"internalType":"address"},{"name":"data","type":"bytes32","indexed":false,"internalType":"bytes32"}],"anonymous":false},{"type":"event","name":"Transfer","inputs":[{"name":"caller","type":"address","indexed":false,"internalType":"address"},{"name":"from","type":"address","indexed":true,"internalType":"address"},{"name":"to","type":"address","indexed":true,"internalType":"address"},{"name":"tag","type":"uint256","indexed":true,"internalType":"Tag"},{"name":"amount","type":"uint256","indexed":false,"internalType":"uint256"}],"anonymous":false},{"type":"event","name":"UpdateGrowthPortions","inputs":[{"name":"poolId","type":"uint256","indexed":true,"internalType":"uint256"},{"name":"caller","type":"address","indexed":true,"internalType":"address"},{"name":"data","type":"bytes32","indexed":false,"internalType":"bytes32"}],"anonymous":false},{"type":"error","name":"AccruedGrowthPortionOverflow","inputs":[{"name":"accruedValue","type":"int256","internalType":"X127"}]},{"type":"error","name":"AlreadyUnlocked","inputs":[{"name":"currentCaller","type":"address","internalType":"address"}]},{"type":"error","name":"BalanceOverflow","inputs":[{"name":"balance","type":"uint256","internalType":"uint256"}]},{"type":"error","name":"CannotTransferToAddressZero","inputs":[]},{"type":"error","name":"CurveIndexOutOfRange","inputs":[{"name":"length","type":"uint256","internalType":"Index"}]},{"type":"error","name":"GrowthOverflow","inputs":[]},{"type":"error","name":"HookDataTooLong","inputs":[{"name":"hookDataByteCount","type":"uint256","internalType":"uint256"}]},{"type":"error","name":"InsufficientBalance","inputs":[{"name":"owner","type":"address","internalType":"address"},{"name":"tag","type":"uint256","internalType":"Tag"}]},{"type":"error","name":"InsufficientPermission","inputs":[{"name":"spender","type":"address","internalType":"address"},{"name":"tag","type":"uint256","internalType":"Tag"}]},{"type":"error","name":"InvalidDirection","inputs":[{"name":"current","type":"int256","internalType":"X59"},{"name":"limit","type":"int256","internalType":"X59"}]},{"type":"error","name":"MsgValueIsNonZero","inputs":[{"name":"msgValue","type":"uint256","internalType":"uint256"}]},{"type":"error","name":"NativeTokenCannotBeSynced","inputs":[]},{"type":"error","name":"NoDelegateCall","inputs":[{"name":"context","type":"address","internalType":"address"}]},{"type":"error","name":"NotEqualToTransientBalance","inputs":[{"name":"currentBalance","type":"int256","internalType":"int256"}]},{"type":"error","name":"OutstandingAmount","inputs":[]},{"type":"error","name":"PoolDoesNotExist","inputs":[{"name":"poolId","type":"uint256","internalType":"uint256"}]},{"type":"error","name":"PoolIsLocked","inputs":[{"name":"poolId","type":"uint256","internalType":"uint256"}]},{"type":"error","name":"ProtocolIsLocked","inputs":[]},{"type":"error","name":"SafeAddFailed","inputs":[{"name":"a","type":"int256","internalType":"X127"},{"name":"b","type":"int256","internalType":"X127"}]},{"type":"error","name":"SafeCastOverflow","inputs":[{"name":"value","type":"uint256","internalType":"uint256"}]},{"type":"error","name":"SafeInRangeAmountOverflow","inputs":[{"name":"sqrtOffsetOrSqrtInverseOffset","type":"int256","internalType":"X127"},{"name":"integral","type":"int256","internalType":"X216"},{"name":"liquidity","type":"int256","internalType":"X111"},{"name":"outgoingMax","type":"int256","internalType":"X216"},{"name":"outgoingMaxModularInverse","type":"uint256","internalType":"uint256"}]},{"type":"error","name":"SearchingForIncomingTargetFailed","inputs":[]},{"type":"error","name":"SearchingForOutgoingTargetFailed","inputs":[]},{"type":"error","name":"SearchingForOvershootFailed","inputs":[]},{"type":"error","name":"TagsOutOfOrder","inputs":[{"name":"tag0","type":"uint256","internalType":"Tag"},{"name":"tag1","type":"uint256","internalType":"Tag"}]}],"bytecode":{"object":"0x60c0346100a857601f6158c938819003918201601f19168301916001600160401b038311848410176100ac5780849260409485528339810103126100a857610052602061004b836100c0565b92016100c0565b3060805260a0919091526001600160a01b03167ffb342fa999fea16067b1f01baf96673f31a25f2b1443e6754d93fc40b57e8df1556040516157f490816100d58239608051816111bb015260a05181610d2a0152f35b5f80fd5b634e487b7160e01b5f52604160045260245ffd5b51906001600160a01b03821682036100a85756fe60806040526004361015610011575f80fd5b5f3560e01c8062fdd58e146101f357806301ffc9a7146101ee5780630720b584146101e9578063095bcdb6146101e45780630b0d9c09146101df57806311da60b4146101da5780631352ea35146101d55780632b7f670f146101d057806332269698146101cb57806341ee903e146101c6578063426a8493146101c157806349dff3ab146101bc578063558a7297146101b7578063598af9e7146101b2578063738c440a146101ad578063745fa652146101a8578063834178fe146101a357806389c59eb91461019e5780639385145b14610199578063a584119414610194578063ab7fff181461018f578063b6363cf21461018a578063b84a0dd214610185578063bc197c8114610180578063bea556c91461017b578063d02bdb6214610176578063da95455914610171578063ef4fcafa1461016c578063f23a6e61146101675763fe99049a14610162575f80fd5b61110e565b6110b8565b611032565b610ff0565b610f5b565b610e89565b610df1565b610da4565b610d55565b610ce3565b610c5b565b610c3b565b610bee565b610b78565b610b18565b610a43565b6109ad565b610909565b6107d8565b610754565b6106e3565b61069b565b6105e2565b610599565b61044d565b6103b7565b610394565b6102db565b610285565b61023e565b600435906001600160a01b038216820361020e57565b5f80fd5b604435906001600160a01b038216820361020e57565b602435906001600160a01b038216820361020e57565b3461020e57604036600319011261020e57602061027c61025c6101f8565b602435906b3c244899b5fa3e971383ac4b6020526014525f5260405f2090565b54604051908152f35b3461020e57602036600319011261020e5760043563ffffffff60e01b811680910361020e576020906301ffc9a760e01b81149081156102ca575b506040519015158152f35b630f632fb360e01b1490505f6102bf565b3461020e57608036600319011261020e5760205f60646102f96101f8565b8260243591610306610212565b9260643590610313611505565b826014528084526103316034852061032a84611533565b9033611556565b604051946304ade6db60e11b86526004860152602485015260448401525af160203d1460015f511416161561036257005b3d5f803e3d5ffd5b606090600319011261020e576004356001600160a01b038116810361020e57906024359060443590565b3461020e576103ac6103a53661036a565b9133611609565b602060405160018152f35b3461020e57606036600319011261020e576103d06101f8565b6103d8610228565b604435916103e4611505565b6001600160a01b0381166104016103fa85611533565b8233611556565b61041557505f80809381935af11561036257005b60445f808093602095966040519763a9059cbb60e01b84526004526024525af1601f3d1160015f5114163d1517161561036257604052005b5f36600319011261020e57610460611505565b5f7f9b9b0454cadcb5884dd3faa6ba975da4d2459aa3f11d31291a25a8358f84946c5c6001600160a01b03811690829081908315908115610538575b50156104d557505050506104d15f6104c134915b61032a6104bc84611533565b611173565b6040519081529081906020820190565b0390f35b6104d1936104c1926104e8343415611133565b156105225761051761050e8261050861051d94886014525f5260345f2090565b96611717565b945b9285611161565b93611759565b6104b0565b5061051d610517610532856116de565b94610510565b60a01c15159250905081610570575b7ff712c2fa585715e22c7fcc833629ce4482ad96496ecd08f3a14847183c4ef4ed5c905f61049c565b7f53dc9bf46bebdca9be947ee80674b58899973aac1948a8396714431da6d4f1665c9350610547565b3461020e57602036600319011261020e57600435545f5260205ff35b9181601f8401121561020e578235916001600160401b03831161020e576020838186019501011161020e57565b3461020e5760a036600319011261020e576105fb6101f8565b60243590610607610212565b90606435916084356001600160401b03811161020e575f948594610630869336906004016105b5565b509161063a611505565b856014528084526106516034852061032a84611533565b604051637921219560e11b815230600482015260248101959095526044850152606484015260a06084840152601f1901803590602082019060a485013760c401925af11561036257005b3461020e5760a036600319011261020e576084356001600160401b03811161020e576106cb9036906004016105b5565b505060406106d76111b5565b82519182526020820152f35b3461020e57604036600319011261020e5760043561070a602435610705611505565b611533565b61072b82336bdc0da6920d198e2eedf81ef66020526014525f5260405f2090565b5c918282016107415761073f925033611556565b005b82633733429b60e21b5f5260045260245ffd5b3461020e576107623661036a565b909181610794848333929190604051936b034105b980ba117bd0c29fe06034526028526014525f5260545f2091604052565b556040519182526001600160a01b03169033907fb3fd5071835887567a0671151121894ddccc2842f1d10bedad13e0d17cace9a790602090a4602060405160018152f35b3461020e5760a036600319011261020e576107f16101f8565b606435608435604435602435610805611505565b61081282828082116114ac565b6108826108438383889291604051936bc8f78086c3211e71a328e7f56040526034526020525f5260605f2091604052565b9461085b8654906001600160801b0382169160801c90565b9687939187908490805f83126108eb5750019889955b5f83126108c55750019788916128ae565b61088d818433611556565b610898858533611556565b806108b2575b505050816108a857005b61073f93336128df565b6108bd9287336128df565b5f808061089e565b90506108e2888c845f036108da818484612810565b8410156114ca565b019788916128ae565b9050610900888d845f036108da818484612810565b01988995610871565b3461020e57604036600319011261020e576109226101f8565b602435908115159182810361020e5761095382336be442b523d9447037e4923f5b6020526014525f526034600c2090565b90156109a55760ff60015b1690556040519182526001600160a01b03169033907fceb576d9f15e4e200fdb5096d64d5dfd667e16def20c1eefd14256d8e3faa26790602090a360405160018152602090f35b60ff5f61095e565b3461020e57606036600319011261020e57602061027c6109cb6101f8565b6109d3610228565b60443591929190604051936b034105b980ba117bd0c29fe06034526028526014525f5260545f2091604052565b90604060031983011261020e576004356001600160a01b038116810361020e5791602435906001600160401b03821161020e57610a3f916004016105b5565b9091565b610a4c36610a00565b50505f51602061579f5f395f51905f525c6001600160a01b031680610b0657506001600160a01b03167f08afe526398486e38896d620563771687e7d20a3b0d01f72483eeb2e7d93a48e5d335f51602061579f5f395f51905f525d63d4e27d3b60e01b60805233608452604060a4525f806064602435600401803590602082019060c437016080346004355af11561036257610af65f51602061575f5f395f51905f525c156114f0565b610afe612926565b3d5f803e3d5ff35b632ab8097760e01b5f5260045260245ffd5b3461020e57604036600319011261020e57600435602435906040519160408360208152826020820152019060051b8301916001602060408501935b83548152019101908483821015610b6f57506020600191610b53565b60408186030190f35b3461020e57602036600319011261020e576004355c5f5260205ff35b9181601f8401121561020e578235916001600160401b03831161020e576020808501948460051b01011161020e57565b602060031982011261020e57600435906001600160401b03821161020e57610a3f91600401610b94565b3461020e57610bfc36610bc4565b6040519160408360208152836020820152019160051b8301916020806040850193925b8335548152019101908483821015610b6f575060208091610c1f565b3461020e575f80610c4b36610a00565b5050816044359182606483375af4005b3461020e57602036600319011261020e57610c746101f8565b6001600160a01b038116908115610cd457610cb0917f9b9b0454cadcb5884dd3faa6ba975da4d2459aa3f11d31291a25a8358f84946c5d6116de565b7ff712c2fa585715e22c7fcc833629ce4482ad96496ecd08f3a14847183c4ef4ed5d005b63c0a7e46960e01b5f5260045ffd5b3461020e57602036600319011261020e576004356001600160401b03811161020e575f6024604092610d1836826004016105b5565b505060048101359182910160803760807f00000000000000000000000000000000000000000000000000000000000000005af4156103625760405ff35b3461020e57604036600319011261020e576020610d99610d736101f8565b610d7b610228565b906be442b523d9447037e4923f5b6020526014525f526034600c2090565b541515604051908152f35b3461020e57610db236610bc4565b6040519160408360208152836020820152019160051b8301916020806040850193925b83355c8152019101908483821015610b6f575060208091610dd5565b3461020e5760a036600319011261020e57610e0a6101f8565b50610e13610228565b506044356001600160401b03811161020e57610e33903690600401610b94565b50506064356001600160401b03811161020e57610e54903690600401610b94565b50506084356001600160401b03811161020e57610e759036906004016105b5565b505060405163bc197c8160e01b8152602090f35b3461020e57606036600319011261020e5761073f610ea56101f8565b60243560443591610eb4611505565b82825f8212610f085782610ee282610f02956b3c244899b5fa3e971383ac4b6020526014525f5260405f2090565b8381540190610efb826001600160801b038111156115ef565b55336129a2565b33611556565b610f5692915f0391610f3182826b3c244899b5fa3e971383ac4b6020526014525f5260405f2090565b868154610f3f868686612810565b610f4d8585888410156114ca565b0190553361295b565b610f02565b3461020e57604036600319011261020e57600435602435906040519160408360208152826020820152019060051b8301916001602060408501935b835c8152019101908483821015610b6f57506020600191610f96565b608090600319011261020e576004356001600160a01b038116810361020e57906024356001600160a01b038116810361020e57906044359060643590565b3461020e5761073f61102261102a61100736610fb2565b9481949295611017949294611505565b610705818685612810565b928391611556565b5f0391611556565b3461020e57604036600319011261020e5761104b6101f8565b6001600160a01b03811690602435908215610cd457610cb0926001600160a01b0319177f9b9b0454cadcb5884dd3faa6ba975da4d2459aa3f11d31291a25a8358f84946c5d817f53dc9bf46bebdca9be947ee80674b58899973aac1948a8396714431da6d4f1665d611717565b3461020e5760a036600319011261020e576110d16101f8565b506110da610228565b506084356001600160401b03811161020e576110fa9036906004016105b5565b505060405163f23a6e6160e01b8152602090f35b3461020e576103ac61111f36610fb2565b9261112e848383959495612810565b611609565b1561113b5750565b63833bded760e01b5f5260045260245ffd5b634e487b7160e01b5f52601160045260245ffd5b9190820391821161116e57565b61114d565b905f82810392125f83128116905f84139015161761116e57565b156111955750565b631569cf5360e01b5f9081526001600160a01b0391909116600452602490fd5b6111ea307f00000000000000000000000000000000000000000000000000000000000000006001600160a01b0316811461118d565b6111f2611505565b6111fa611797565b60d85160a01c6101001661149f575b61123c60d8517f08afe526398486e38896d620563771687e7d20a3b0d01f72483eeb2e7d93a48e6020525f5260405f2090565b611245816118bc565b61124d6118de565b611255611a31565b611492575b611262611aff565b60d85160a01c61020016611485575b6101485160c01c6106775160c01c14801561147a575b611471575f5b6106775160c01c6102065160c01c146113e0575b6112b76106775160c01c6101c85160c01c141590565b80156113cb575b801561139b575b15611388576112d26121ce565b611382575b6106775160c01c6101485160c01c14611382576101085161128d57505b6112fc61261b565b611304611a31565b611375575b611311612768565b611322610188515f03607f1d5f0390565b915f6113356101a8515f03607f1d5f0390565b92611344856106e05133611556565b611352846107005133611556565b5d61135b6127c4565b60d85160a01c6104001661136b57565b611373612a7a565b565b61137d6126b5565b611309565b506112f4565b611390611fb3565b156112d757506112f4565b506101505160ff1c6113c16113bc6101485160c01c6102065160c01c121590565b151590565b90151514156112c5565b506101525160281c61016d5160281c136112be565b6108065160f01c611464575b15611401575b6113fa611ce8565b60016112a1565b61143061142960d8516101c85160c01c671447e579411c2c936010526008525f5260305f2090565b5461024452565b61145f61145860d8516102065160c01c671447e579411c2c936010526008525f5260305f2090565b5461026452565b6113f2565b61146c611c85565b6113ec565b5f905d5f905f90565b506101085115611287565b61148d612a31565b611271565b61149a611a50565b61125a565b6114a76129e8565b611209565b156114b5575050565b633fa491e760e21b5f5260045260245260445ffd5b156114d3575050565b633db7aa8160e21b5f5260018060a01b031660045260245260445ffd5b156114f757565b62ef38f560e61b5f5260045ffd5b5f51602061579f5f395f51905f525c6001600160a01b03161561152457565b63892e4e5760e01b5f5260045ffd5b6001600160ff1b0381116115445790565b630d643c8160e21b5f5260045260245ffd5b9082156115ea5761157d916bdc0da6920d198e2eedf81ef66020526014525f5260405f2090565b805c8281019283125f821290801582169115161761116e57826115c057505f195f51602061575f5f395f51905f525c015f51602061575f5f395f51905f525d5b5d565b6115bd5760015f51602061575f5f395f51905f525c015f51602061575f5f395f51905f525d6115bd565b505050565b156115f75750565b630610d90760e11b5f5260045260245ffd5b91926001600160a01b03821692909183156116cf578161169886604093611668827f1b3d7edb2e9c0b0e7c525b20aaaef0f5940d2ed71663c7d39266ecafac728859976b3c244899b5fa3e971383ac4b6020526014525f5260405f2090565b8781546116798588848410156114ca565b0390556b3c244899b5fa3e971383ac4b6020526014525f5260405f2090565b8054906116b48683018093886001600160801b030310156115ef565b55815133815260208101949094526001600160a01b031692a4565b63a7cd662f60e01b5f5260045ffd5b5f602481806020946370a0823160e01b8252306004525af160203d141615610362575f5190611373826001600160801b038111156115ef565b5f6044818060209460405196627eeac760e11b8352306004526024525af160203d141615610362576040525f5190611373826001600160801b038111156115ef565b7ff712c2fa585715e22c7fcc833629ce4482ad96496ecd08f3a14847183c4ef4ed5d565b156117855750565b63805cfd4b60e01b5f5260045260245ffd5b6117ab3360d85160a01c9060601b1760c452565b6117b660043560d852565b60243560026001607f1b031981126118ad575b60016001607f1b03811361189f575b607f1b610108526117eb60443561012852565b60643560801c60016001607f1b038111611891575b611815906101085160801c9060801b1760f852565b60743560801c60028111611889575b6101505361137360246084358060040135918291016108083761184961080861062f52565b6118588161ffff81111561177d565b61187261ffff82166106555160101c9060f01b1761065352565b61187f610744820160a452565b610808016105ef52565b506002611824565b5060016001607f1b03611800565b5060016001607f1b036117d8565b5060026001607f1b03196117c9565b60d851815c6118cc57505f19905d565b6376f8d70760e01b5f5260045260245ffd5b61190160d8516f6890d047ad8c870137858a70716b2c6b6010525f5260305f2090565b8054806106755260018201546106955260028201546106b55261068f5160801c1560d85190611a1f575060f01c61ffff8103611a1557505f190154610655525b61137361195061065551612ac3565b61195981612b28565b6119856119736107f45160d01c6107fa5160d01c90612b34565b6107fa5160301c9060d01b176107f452565b803b610128190160061c6001016119a8816106515160101c9060f01b1761064f52565b6119b7816105ef519384612b46565b6119ca5f19916108065160f01c90612b55565b0160061b016119d98161060f52565b60026119e3612b61565b6119f9816106535160101c9060f01b1761065152565b5f1901811c0160051b01611a0c81604052565b60c3190160a452565b6106555250611941565b631e657b1d60e01b5f5260045260245ffd5b6107f45160d01c15801590611a435790565b506108005160d01c151590565b611a7360d8516f5e1c6265e3e30cea650443fb20ef1ef96010525f5260305f2090565b54611a9262ffffff8260d01c166105ec5160181c9060e81b176105e952565b611aab8160e81c6105ef5160181c9060e81b176105ec52565b6cffffffffffffffffffffffffff607f1b81607f1b166105a9526cffffffffffffffffffffffffff607f1b9060171b166105c952565b15611aea575050565b6316b77c3360e31b5f5260045260245260445ffd5b611c26611b0e61060f51612c47565b611b83611b716107605160c01c611b5167800000000000000061012851611b3c60d85160b41c5f0b603b1b90565b9003016001835f198189030106840101612ca4565b905f1990805f19888201600160401b03010601600160401b030190612cb0565b6101505160401c9060c01b1761014852565b6101485160c01c906106775160c01c611b9c8184131590565b926101505160f81c916001831115611c6e575b505050611bbb82612cbd565b61010851611bcb905f1315612cc6565b8115611c6457611bda90612ccf565b15611c3657611bf66101d05160281c6107835160281c90612e80565b611c0d6101eb5160281c6107685160281c90612e5b565b91906101e6519261022452610209526101ee526101e652565b611c2e612ee4565b611373612f8d565b611c4d6101d05160281c6107685160281c90612e5b565b611c0d6101eb5160281c6107835160281c90612e80565b91611bda90612ccf565b611c7d92151585151514611ae1565b5f8080611baf565b611373611ca9611cd66001610655510180610655526108065160f01c928391612ac3565b61012860016106e0833c611ccd6119736107f45160d01c6107fa5160d01c90612b34565b6105ef51612b46565b6106515160101c9060f01b1761064f52565b611eab6101505160ff1c805f14611f8257611d31611d136102295160281c61079e5160281c90613004565b6106ba5160d81c61069f525b6106d55160d81c9060281b176106ba52565b611d39613059565b8015611f2957611d9d6102065160c01c6107605160c01c9003611d6961020e5160281c6107835160281c90612e80565b90611d816102295160281c6107685160281c90612e5b565b90919091906101e6519261022452610209526101ee526101e652565b611e65611e53611e4e61026451611de3611dd260d8516102065160c01c671447e579411c2c936010526008525f5260305f2090565b8054908115611ef8575b5061026452565b610244519061068f5160801c91611e0c6101c8881515601b026023030193845160281c9061311b565b01611e178161024452565b611e3c60d8516101c85160c01c671447e579411c2c936010526008525f5260305f2090565b55610264519003905160281c9061314d565b612c61565b61069f5160801c9060801b1761068f52565b611e8a60d8516101c85160c01c67d7cb7a927a838d416010526008525f5260305f2090565b549015611ede5761067f5160801c0361068f5160801c9060801b1761067f52565b611c2661060f516101c85160c01c6102065160c01c9060801b9060c01b1790526106535160101c600160f11b1761065152565b61067f5160801c0161068f5160801c9060801b1761067f52565b9050611f206102068815601b02602303015160281c6107685160281c600160d81b0390613e47565b8091555f611ddc565b611d9d6102065160c01c6107605160c01c01611f5261020e5160281c6107685160281c90612e5b565b90611f6a6102295160281c6107835160281c90612e80565b916101e6519261022452610209526101ee526101e652565b611d31611f9c61020e5160281c61079e5160281c90613004565b611d1f5f916106ba5160d81c9060281b1761069f52565b5f9061067f5160801c60f85160801c116121c857611fe36102065160c01c61067f5160401c9060c01b1761067752565b61201661060f516102065160c01c6101c85160c01c9060801b9060c01b1790526106535160101c600160f11b1761065152565b61068f5160801c61067f5160801c026101505160ff1c5f1461219257612062612045826106ba5160281c61325d565b9161205d61020e5160281c6107d95160281c90613004565b61329c565b905b6101505160ff1c156121685761208a611f9c61020e5160281c61079e5160281c90613004565b6120af611e5361068f5160801c6107d95160281c9061079e5160281c80920390613f5d565b61067f5160801c156121615790611373916120c8611a31565b6120d2575b613463565b6120eb6107d95160281c61079e5160281c810384613ee8565b6101505160ff1c1561212c5761211a6121126120cd926105a9516105e95160e81c916133aa565b91906105a952565b6105ec5160181c9060e81b176105e952565b61214f6121476120cd926105c9516105ec5160e81c916133aa565b91906105c952565b6105ef5160181c9060e81b176105ec52565b505f925050565b61208a6121826102295160281c61079e5160281c90613004565b6106ba5160d81c61069f52611d1f565b6121c26121a58261069f5160281c6131a9565b916121bd6102295160281c6107d95160281c90613004565b613203565b90612064565b60019150565b5f61067f5160801c60f85160801c11612615576121e96134e3565b61028b5160c01c905b61038b5160c01c821461260e575061220861358f565b908161221457906121f2565b505b6101505160ff1c61224d61223e6105225160281c835f14612601576106ba5160281c90612cb0565b610502519061051d5261050252565b612255613064565b61226e6105225160281c61053851906105535261053852565b61227661306f565b61068f5160801c61067f5160801c02906105225160281c906105075160281c92815f146125e85761069f5160281c840192806106ba5160281c03945b856122cc6122c2868689966132dc565b9285871591613356565b9580958891600160d81b90819a61038b5160c01c6102065160c01c81145f1461246a57505050506123c398505f1461242c57509161233b61231e85936123186120cd97611e539761325d565b90613c7e565b9561233661020e5160281c61079e5160281c90613004565b612cb0565b905f905f90809380955b61235b826106ba5160d81c9060281b1761069f52565b612371856106d55160d81c9060281b176106ba52565b61238d61038b5160c01c61067f5160401c9060c01b1761067752565b6123a161060f5161038b5160c01c90613aed565b6123a9611a31565b6123d7575b50505050508161068f5160801c910390613f5d565b80156123cc5790565b6123d4613caa565b90565b6124229461214f9461240b61211a6121126123fa86612411986121479a036131a9565b6105a9516105e95160e81c916133aa565b0361325d565b6105c9516105ec5160e81c916133aa565b5f808080806123ae565b945061245e61244685936123186120cd97611e53976131a9565b956123366102295160281c61079e5160281c90613004565b5f915f81938395612345565b6124876104479d9a95929394999d9b96989b5160f01c1515151590565b90816125d7575b506124ac575b505050916123c3986120cd969492611e539694612345565b9350945095509693505b6124c0838661372d565b6124b6576123c3976124d28487613939565b969095879587936124ed61060f516103c95160c01c90613aed565b6124f98a838b87613c06565b9a91929093849c849c5f1461257057505050612522928d9261251a92613ee8565b8094036131a9565b91931561255257916125406120cd98969492611e5398969403612c86565b995b929496829b508194969850612494565b98979161256a6120cd98969492611e53989694613c7e565b98612542565b8f9e969f949061258e939a9b5061259b969298506125969450613ee8565b809503612c79565b61325d565b9194156125b8579161256a6120cd98969492611e53989694613c7e565b9798916125d16120cd98969492611e5398969403612c86565b99612542565b6102935160c01c141590505f61248e565b8261069f5160281c03926106ba5160281c8501946122b2565b61069f5160281c90612cb0565b9050612216565b50600190565b61263e60d8516f6890d047ad8c870137858a70716b2c6b6010525f5260305f2090565b6106555161ffff81106126825750610655515f198201556106775160101c61ffff60f01b17610675525b61067551815561069551600182015560026106b551910155565b61ffff6106775160101c911660f01b1761067552612668565b156126a35750565b631718db0760e31b5f5260045260245ffd5b6105a9516126c6815f81121561269b565b6126da816001600160e71b0381131561269b565b6105c9516126eb815f81121561269b565b6126ff816001600160e71b0381131561269b565b6105e951906105ec519061272c60d8516f5e1c6265e3e30cea650443fb20ef1ef96010525f5260305f2090565b93607f1c907001ffffffffffffffffffffffffffffffff60681b9060171c16179162ffffff60d01b9060181c169062ffffff60e81b1617179055565b61278b60d8516f3b2d91718dfb37f9969a1b0670a83e706010525f5260305f2090565b61060f51610651518151835560f01c5f190160021c8201915b8281106127b057505050565b6001602091019101918251825591906127a4565b60d85161060f516207fff86106515160ed1c1601805191601061068f835e33907f7b1b2e572a782739fc5ac300a50ada6a682434d210dee70c511533a0c8782ed66020600f198501a352565b909190336001600160a01b0382160361282857505050565b61284a33826be442b523d9447037e4923f5b6020526014525f526034600c2090565b541561285557505050565b604080516b034105b980ba117bd0c29fe0603452602892909252336014525f8481526054902091905291825490828210612898575060018101156115ea57039055565b63731555bd60e01b5f523360045260245260445ffd5b916128c3826001600160801b038111156115ef565b6128d7816001600160801b038111156115ef565b60801b179055565b60408051948552602085019590955291936001600160a01b039182169391909216917f56a6ca58daf8ecd992baa77cfb74dc2a696e42aa279cf8fbbc55bf3081f18d5191a4565b5f7f08afe526398486e38896d620563771687e7d20a3b0d01f72483eeb2e7d93a48e5d5f5f51602061579f5f395f51905f525d565b604080516001600160a01b039283168152602081019590955292935f9392909116917f1b3d7edb2e9c0b0e7c525b20aaaef0f5940d2ed71663c7d39266ecafac72885991a4565b604080516001600160a01b039283168152602081019590955292939116915f917f1b3d7edb2e9c0b0e7c525b20aaaef0f5940d2ed71663c7d39266ecafac7288599190a4565b60845160201c632c9a874560e11b17608052602060845260205f60018060a01b0360d85116608082604460a45101925af15f51632c9a874560e11b143d60201416161561036257565b60845160201c631c5a976960e21b17608052602060845260205f60018060a01b0360d85116608082604460a45101925af15f51631c5a976960e21b143d60201416161561036257565b60845160201c63692181bf60e11b17608052602060845260205f60018060a01b0360d85116608082604460a45101925af15f5163692181bf60e11b143d60201416161561036257565b60d8515f5260205260405f2060405190305f5260ff600b536020527ff779edcbdc615c777a4cb2bee1bf733055aa41ff7247837d0cd548565f65d0346040526055600b2060145260405261d6945f5260016034536017601e206001600160a01b031690565b60016106e0610128923c565b9080821015612b41575090565b905090565b61012991925f190160061b923c565b81811015612b41575090565b5f612b8560d8516f3b2d91718dfb37f9969a1b0670a83e706010525f5260305f2090565b9061060f51916106775160c01c905b805492828460c01c14612c2f57826001600160401b038560801c1614612c0e57826001600160401b038560401c1614612bf55760040192826001600160401b03821614612bec57602091600191865201930192612b94565b92949391505052565b67ffffffffffffffff1990931690935250600301919050565b6fffffffffffffffffffffffffffffffff1990931690935250600201919050565b6001600160c01b031990931690935250600101919050565b6008815160c01c91015160c01c818113155f14610a3f5791565b6001606f1b811315612c705790565b506001606f1b90565b5f8112156123d457505f90565b805f125f14612c925790565b505f90565b806001125f146126155790565b81811215612b41575090565b9080821215612b41575090565b60ff0261015053565b60ff0261015153565b61137390612cdc81615129565b905f198083019083600160c11b5f51602061577f5f395f51905f520984030181600160c11b5f51602061577f5f395f51905f5209086101a880516101e69290925260289390931c6101cb526101b0919091529052565b61137390612d3f81615129565b905f198083019083600160c11b5f51602061577f5f395f51905f520984030181600160c11b5f51602061577f5f395f51905f52090861027380516102b19290925260289390931c6102965261027b919091529052565b61137390612da281615129565b905f198083019083600160c11b5f51602061577f5f395f51905f520984030181600160c11b5f51602061577f5f395f51905f52090861036b80516103a99290925260289390931c61038e52610373919091529052565b61137390612e0581615129565b905f198083019083600160c11b5f51602061577f5f395f51905f520984030181600160c11b5f51602061577f5f395f51905f5209086103a980516103e79290925260289390931c6103cc526103b1919091529052565b6001600160d81b039190600160d81b8282096001600160d81b03908103929091090890565b6774600bc82ce9df527f7f6af8233bada11dd406b4458454ed9904d7af796be7aa4885b23e25b6985d49927fdbb82f7041b890fe67970a62a3568cc34df9dcb17cc3a2a6a027850e7e3724f9632ec3a856820264027d117d7b850209920202030290565b6101515160ff1c15612f4457611373612f2961079e5160281c6101505160ff1c5f14612f3b57610720515b610108519061068f5160801c61067f5160801c0292613da8565b61016d5160d81c9060281b1761015252565b61074051612f0f565b611373612f7f61079e5160281c6101505160ff1c5f14612f8457610740515b610108515f039061068f5160801c61067f5160801c0292613cb7565b612f29565b61072051612f63565b6101515160ff1c15612fd957612fc76107d95160281c612fc16101505160ff1c156102069015601b02602303015160281c90565b90613004565b6101885160d81c9060281b1761016d52565b612fff61079e5160281c6101c86101505160ff1c15601b02602303015160281c90613004565b612fc7565b64f8f6376c447f28256938c4923ff15ab260970aa81f81c15e6f5ef3af38dc210569e77db19359927e1561650620dabb6a84b684e2a7e5a47caa0a0905210083f0e3b551aabf84e98183850209920202030290565b603e6102066101c85e565b603e61038b6103c95e565b603e61038b6104c95e565b603e6102936102d15e565b603e61029361030f5e565b603e61029361034d5e565b603e61029361038b5e565b603e6102936104095e565b603e6102936104495e565b603e61040961030f5e565b603e9061038b5e565b603e906103c95e565b603e61048961030f5e565b603e6104c96103c95e565b603e6103c961034d5e565b603e61030f6103c95e565b603e61034d6103c95e565b603e6103c961038b5e565b61314361313b6131339360271b938493606e1b6150c1565b939093615115565b939092615115565b9182915001100190565b61315d61313b61313384936150c1565b91829150011001602d1c90565b9493929190941561317c575050505050565b60a495506040519463059cafa160e51b865260048601526024850152604484015260648301526084820152fd5b610740515f8312939261137392919085156131f757826131dd87835f03945b61079e5160281c80966107b95198899361531c565b97156131f2575f035b9661074051901561316a565b6131e6565b826131dd8783946131c8565b610720515f831293926113739290851561325657805f03915b61323c61079e5160281c9485946107b951968791858c156001149461531c565b9715613251575f035b9661072051901561316a565b613245565b809161321c565b610720515f831293926113739291908515613290578261323c87835f039461079e5160281c80966107b95198899361531c565b8261323c8783946131c8565b610740515f83129392611373929085156132d557805f03915b6131dd61079e5160281c9485946107b951968791858c156001149461531c565b80916132b5565b91929161137391841561334c5761072051905b825f821280156133415761331781845f03955b61079e5160281c80976107b951998a9361531c565b911561333c575f035b97156133325761072051905b1561316a565b610740519061332c565b613320565b613317818495613302565b61074051906132ef565b919291611373919084156133a05761072051915b5f811291821561339957815f03925b61331761079e5160281c9586956107b9519788918686156001149461531c565b8192613379565b610740519161336a565b92905f9261080051916b7fffffffffff8000000000006107f45160d01c8460d01c6580000000000003029360a11c1683015f1990600160a21b905f19906001605e1b818b0919905f19908b090809810195869361340a858481121561269b565b61341e856001600160e71b0381131561269b565b5f851361342d575b5050505050565b9495509293919290915f1991600160a21b9183916001605e1b82820919915f199109080960171b9102010490825f808080613426565b906101505160ff1c5f146134d35761349381613486845f03915b61018851613c7e565b610188526101a851613c7e565b6101a8526101515160ff1c156134b8576134b291506101085103612c86565b61010852565b506101085101805f125f146134ce57505f6134b2565b6134b2565b613493825f03613486839161347d565b61355f61060f516135086123366134f983612c47565b91906101485160c01c90612ca4565b6102935160401c9060c01b1761028b5261355a6106515160f01c915f19830161353d816102875160101c9060f01b1761028552565b60031b81015160c01c926001190160031b015160c01c8212613fb0565b612d32565b61356761307a565b61356f613085565b613577613090565b61357f61309b565b6135876130a6565b6113736130b1565b5f9061038b5160c01c6104495160c01c14613720575b6102845160ff1c61038b5160c01c61034d5160c01c146136f1575b61030f516104095160c091821c911c139015159081036136e4575b6135f46113bc61034d5160c01c6104495160c01c121590565b81036136d65761360a61ffff6104495b166130c7565b6101505160ff1c151581036136b35761028b5161038b51611373945060c091821c92911c8212036136a4575b506101515160ff1c156136895761364b6149fc565b92909261367b6136596142c6565b915b61366d8360281b610522510161052252565b60281b610507510161050752565b60281b61058e510161058e52565b6136916145dc565b92909261367b61369f6147e8565b61365b565b6136ad90612d95565b5f613636565b506113736136bf6142c6565b6136d18160281b61053d510161053d52565b61367b565b61360a61ffff61034d613604565b6136ec6130bc565b6135db565b6137046137139161058e5160281c613fe8565b61056e51906105895261056e52565b61371b6141fe565b6135c0565b613728613fb9565b6135a5565b906103c95160c01c6104c95160c01c1461392c575b6103c95160c01c6104495160c01c1461391f575b6102845160ff1c906103c95160c01c61034d5160c01c146138fd575b61030f516104095160c091821c911c139115159182036138f0575b61034d516104495160c091821c911c1382036138e2576137b361ffff6104495b166130d0565b6101505160ff1c1515821461389b575b6137cb6143e4565b916137db6101505160ff1c151590565b0361387e576138295f916137ed6144c5565b946138008560281b610558510161055852565b6138128660281b610573510161057352565b6138248560281b61058e510161058e52565b614ce7565b13613835575050600190565b613864613872926138446130ef565b6138568360281b610558510361055852565b60281b610573510361057352565b60281b61058e510361058e52565b61387a6130fa565b5f90565b50613896915061367b8160281b61053d510161053d52565b600190565b61030f516104895160c091821c911c1382036138d5575b6103c9516104c95160c091821c911c1382036137c3576138d06130e4565b6137c3565b6138dd6130d9565b6138b2565b6137b361ffff61034d6137ad565b6138f86130bc565b61378d565b906137046139119161058e5160281c61409a565b6139196141fe565b90613772565b613927613fb9565b613756565b613934614c27565b613742565b90916101505160ff1c905b61394e8484614d7a565b919283156139c25750505061399390835f146139985761398161398e9161034d5160c01c906103c95160c01c0190612ca4565b61030f5160c01c90612cb0565b612df8565b613944565b6139b561398e9161030f5160c01c906103c95160c01c0190612ca4565b61034d5160c01c90612cb0565b9092506123d494959193956139ea6139da8685612e5b565b6139e4868b612e5b565b90612ca4565b916103c95160c01c613a0261034d5160c01c82141590565b9081613ac5575b61030f5160c01c14159182613ab6575b5080159182613aae575b50613a3c575b50505090613a3691612cb0565b93612cb0565b613a5c90613a8794969293959293613a526130ef565b1515901514614efb565b613a66888661502a565b94909390613a82856139e4613a7b898b612e5b565b918d612e5b565b121590565b613a96575b8094929394613a29565b909150613a369250613aa6613105565b90915f613a8c565b90505f613a23565b1515831515141591505f613a19565b821515841515149150613a09565b15613adb5750565b63855b486b60e01b5f5260045260245ffd5b91825160c01c91600884015160c01c92613b078482612cb0565b80831315613bd657613b198583612ca4565b83811315613bac5750506106515160f01c90846001915b1215613ba4578483125b15613b935760010181811015613b5b578060031b86015160c01c8095613b30565b9161137394506001939591505b60c01b908260031b0152613b808161ffff8110613ad3565b016106535160101c9060f01b1761065152565b916113739450600193959150613b68565b828512613b3a565b9250929490506113739350919060801b9060c01b1790526106535160101c600160f11b1761065152565b915061137393613be891959395612ca4565b9060801b9060c01b1790526106535160101c600160f11b1761065152565b919290928215613c6f575b613c1b8284615115565b613c258684615115565b929091808411938415613c4f575b505050505f14613c45575090925f9150565b9390925060019150565b1492509082613c64575b50505f808080613c33565b101590505f80613c59565b83613c11579390925060019150565b919080830192808412155f83121503613c95575050565b639389559160e01b5f5260045260245260445ffd5b6103256103241961028439565b90613cc59291949394613f19565b91939091600160671b811015613d9957613cee9060711b613ce684608f1c90565b179260711b90565b613cf885608f1c90565b1781805f198509818584080892838210900382811015613d8957838392613d489284717fffffffffffffffffffffffffffffffffff965f0316928391600183805f030401029203041792046152e8565b0293161590811591613d7f575b50613d75575b600160d81b821015613d6957565b6001600160d81b039150565b9060010190613d5b565b905015155f613d55565b506001600160d81b039450505050565b506001600160d81b0393505050565b90613db39291613f19565b909190600160671b811015613e3757613de4613dd2613deb9260711b90565b613ddc85608f1c90565b179360711b90565b91608f1c90565b179082805f19830981838508089081831090039183831015613e3757613e279284805f0316928391600183805f030401029203041792046152e8565b0290600160d81b821015613d6957565b506001600160d81b039392505050565b5f19817b0ba4f53ea38636f85f007042540ae8ef33225e9a7ab4f4473a86d4a80991817b0ba4f53ea38636f85f007042540ae8ef33225e9a7ab4f4473a86d4a80291828085109403938085039414613ee15781907b0ba4f53ea38636f85f007042540ae8ef33225e9a7ab4f4473a86d4a809613ec982805f03168093046152e8565b93600183805f03040190848311900302920304170290565b5091500490565b9091613ef48383615115565b9390928415613f115790829109613ec982805f03168093046152e8565b505091500490565b613f33613f2b849593613f3b93615115565b959095615115565b939094615115565b80939194019283100190565b15613f4e57565b636dd3b1dd60e11b5f5260045ffd5b91613f9b916108005160d01c846107f45160d01c910285602f1b0380910290602f1b03613f9683613f8e8484615115565b905010613f47565b613ee8565b605e1c01906113736001607f1b831315613f47565b60ff0261028453565b60406104476104075e6113736105ef51600160f01b6102875101806102875260f01c6102845160ff1c91615408565b901515601b0260230368a43903008fac41d97d6102d161038b83015160281c92015160281c7f5bc2a24e50a66d39c35a9132c33f2fc50a1b99389d5455e78a7cf7ef8894e4cd8163cb21e499028464cef6ae8685020992020203907fdbad67320459464b8d379def907a3e0c7c8687340b82b93b6e54e966e257826781830202917f7082326d62b7ef4d06861f13c21dd192c8044b19a121205b7dc63c2642b5a8055f1992634bc3287b029102090390565b901515601b0260230368a43903008fac41d97d6102d16103c983015160281c92015160281c7f5bc2a24e50a66d39c35a9132c33f2fc50a1b99389d5455e78a7cf7ef8894e4cd8163cb21e499028464cef6ae8685020992020203907fdbad67320459464b8d379def907a3e0c7c8687340b82b93b6e54e966e257826781830202917f7082326d62b7ef4d06861f13c21dd192c8044b19a121205b7dc63c2642b5a8055f1992634bc3287b029102090390565b901515601b0260230368a43903008fac41d97d61038b6103c983015160281c92015160281c7f5bc2a24e50a66d39c35a9132c33f2fc50a1b99389d5455e78a7cf7ef8894e4cd8163cb21e499028464cef6ae8685020992020203907fdbad67320459464b8d379def907a3e0c7c8687340b82b93b6e54e966e257826781830202917f7082326d62b7ef4d06861f13c21dd192c8044b19a121205b7dc63c2642b5a8055f1992634bc3287b029102090390565b603e6102d161030f5e603e61034d6102d15e61429161060f5161ffff60f01b6102855101806102855260f01c60031b015160c01c61423b81615129565b905f198083019083600160c11b5f51602061577f5f395f51905f520984030181600160c11b5f51602061577f5f395f51905f52090861032d805161036b9290925260289390931c61035052610335919091529052565b6102845160ff1c15906142a382613fb0565b611373826105ef516102875160f01c906142c1835f198401836154a4565b615408565b61030f5160c01c61038b5160c01c8082146143de576104075160f01c906104475160f01c9081156143d65782820390848112918215601b02602303958561038b61030f89015160281c98015160281c95146143c8576001603c1b82916104095160c01c938491875f146143b8578391920301029383030102925b156143a9576104495160c01c900380915b600160c01b87820993600160c01b86820991828610916001600160c01b03908890098601906001600160c01b03908a90098301030393600160c01b918203900881840660c01b0104910460c01b0192030201600f1c90565b6104495160c01c038091614351565b8284910301029403010292614340565b5050505090910302600f1c90565b505050505f90565b50505f90565b61030f5160c01c6103c95160c01c8082146143de576104075160f01c906104475160f01c9081156143d65782820390848112918215601b0260230395856103c961030f89015160281c98015160281c95146143c8576001603c1b82916104095160c01c938491875f146143b857839192030102938303010292156143a9576104495160c01c90038091600160c01b87820993600160c01b86820991828610916001600160c01b03908890098601906001600160c01b03908a90098301030393600160c01b918203900881840660c01b0104910460c01b0192030201600f1c90565b61030f5160c01c6103c95160c01c8082146143de576104875160f01c906104c75160f01c9081156143d65782820390848112918215601b0260230395856103c961030f89015160281c98015160281c95146143c8576001603c1b82916104895160c01c938491875f146145b6578391920301029383030102925b156145a7576104c95160c01c90038091600160c01b87820993600160c01b86820991828610916001600160c01b03908890098601906001600160c01b03908a90098301030393600160c01b918203900881840660c01b0104910460c01b0192030201600f1c90565b6104c95160c01c038091614351565b828491030102940301029261453f565b156145cd57565b630f975a0160e11b5f5260045ffd5b6101525160281c6105225160281c9003906145f56142c6565b90828213156147e3576101505160ff1c9081156147cd576104095160c01c6104495160c01c9003905b6104475160f01c926104075160f01c809403936146718786603c1b9286028301845f146147b457876104095160c01c61030f5160c01c90030201955b61030f851515601b02602303015160281c90615526565b84608e1b03800190825f146147955761030f5161038b5160c090811c91901c03966146a7906146a2905b8a8a6152cf565b612c97565b858782020190826146c06146ba83615129565b8661528f565b83608e1b039203809205918883020582603c1d039182600160531b03908001059182156147015750886123366146c0936146fa9301612c97565b90506146a7565b949750955050505061471b919450600160531b14156145c6565b81156147865761030f5160c01c0392905b61473584612df8565b61473d6143e4565b935b82851261475757505050614751613110565b60019190565b91935090811561477e575f19015b61476e82614efb565b6147766143e4565b93919061473f565b600101614765565b61030f5160c01c01929061472c565b61038b5161030f5160c090811c91901c03966146a7906146a29061469b565b8761030f5160c01c6104095160c01c900302019561465a565b6104495160c01c6104095160c01c90039061461e565b5f9250565b5f61030f5160c01c9061038b5160c01c808314614900576104475160f01c9182156148f957506104495160c01c908381129081601b026023039261038b61030f85015160281c94015160281c956104075160f01c8087146148ea57826001603c1b9188038093875f146148d95782849103010294030102925b156148c9576104095160c01c0380915b600160c01b85820990600160c01b88860994828610916001600160c01b03908890098601906001600160c01b03908a90098301030393600160c01b918203900881840660c01b0104910460c01b0192030203600f1c90565b6104095160c01c90038091614871565b839192030102938303010292614861565b505050505090910302600f1c90565b9250505090565b5050505f90565b5f61030f5160c01c906103c95160c01c808314614900576104475160f01c9182156148f957506104495160c01c908381129081601b02602303926103c961030f85015160281c94015160281c956104075160f01c8087146148ea57826001603c1b9188038093875f146148d9578284910301029403010292156148c9576104095160c01c038091600160c01b85820990600160c01b88860994828610916001600160c01b03908890098601906001600160c01b03908a90098301030393600160c01b918203900881840660c01b0104910460c01b0192030203600f1c90565b156149ed57565b637fbbcd6760e01b5f5260045ffd5b6101525160281c6105075160281c900390614a156147e8565b82811315614c21576101505160ff1c928315614c0b576104095160c01c6104495160c01c9003925b6104475160f01c936104075160f01c85039586603c1b9582028603815f14614bf2578761030f5160c01c6104495160c01c90030201955b614a908583159461030f86601b02602303015160281c90615526565b87608e1b0390825f14614bdc5761030f5160c01c61038b5160c01c9003975b8897808a1315614bc1575b50965b878a8202039082614adf614ad9614ad384615129565b60281c90565b86615579565b83608e1b019201809205918b83020582603c1d019182600160531b0390800105918215614b20575089612336614adf93614b199303612c97565b9050614abd565b9150925060018094979a50614b489699959850614b42925060531b14156149e6565b01612cb0565b8115614bb15761030f5160c01c039391905b614b6385612df8565b614b6b614907565b945b838613614b805750505050614751613110565b92945090918115614ba9576001015b90614b9983614efb565b614ba1614907565b949291614b6d565b5f1901614b8f565b61030f5160c01c01939190614b5a565b614adf9198506146a2614bd591898c6152cf565b9790614aba565b61038b5160c01c61030f5160c01c900397614aaf565b876104495160c01c61030f5160c01c9003020195614a74565b6104495160c01c6104095160c01c900392614a3d565b5f925090565b60406104c76104875e6113736105ef51614c59600160f01b6102895101806102895260f01c6101505160ff1c926156fc565b929390919015614cb257614c7f614c8c9161038b5160c01c03936103935160281c612e80565b916103ae5160281c615579565b919091925b6104a780516104e7959095526104cc939093526104b1919091526104a95252565b614cd1614cde9161038b9493945160c01c01936103935160281c615579565b916103ae5160281c612e80565b91909192614c91565b6101505160ff1c91614cff8361058e5160281c61409a565b6105735160281c90614d11858361414c565b900361053d5160281c90036105075160281c9003906105225160281c016105585160281c9003935f14614d5757614d529291614d4c91615579565b92615579565b900390565b614d5292614d4c91615579565b15614d6b57565b6327177a2d60e11b5f5260045ffd5b906101505160ff1c90815f14614ef55791905b614d956143e4565b90614d9e6144c5565b614de282614ddc81614dce6105225160281c8a01886105585160281c019003956105735160281c01809601612c79565b9661058e5160281c0161409a565b9261414c565b900392614e0161053d5160281c858301036105075160281c9003612c79565b94614e0a6155a4565b614e5e614e156156ae565b918515926103c98415601b02602303614e488361038b614e3d876102d186015160281c613004565b93015160281c613004565b900394601b02602303015160281c910390613004565b9315614ecb578181614e9192614e788a614e9a9796612e5b565b614e828987612e5b565b900399975b9798010190615579565b92800190615579565b01935f85135f851314159460161d808560261b05948515614eb9575050565b614ec05750565b611373901515614d64565b829181614e9192614ee288614e9a979b999b612e5b565b614eec8985612e5b565b90039997614e87565b90614d8d565b15614f95576113735f196103c95160c01c017faa3ed2381a8b1241d16168fd77ef989ed2b13be12b716aa23f35ed0e395560016103d15160281c780fffffffffffffff8000000000000002aaaaaaaaaaaaaaa001780fffffffffffffff8000000000000002aaaaaaaaaaaaaaa00019910902614f7c6103ec5160281c6156d4565b91906103a951926103e7526103cc526103b1526103a952565b61137360016103c95160c01c01614fb16103d15160281c6156d4565b7faa3ed2381a8b1241d16168fd77ef989ed2b13be12b716aa23f35ed0e395560016103ec5160281c780fffffffffffffff8000000000000002aaaaaaaaaaaaaaa001780fffffffffffffff8000000000000002aaaaaaaaaaaaaaa0001991090291906103a951926103e7526103cc526103b1526103a952565b906101505160ff1c90815f146150b8576150af90925b61509661504b6143e4565b6150536144c5565b90615066868261058e5160281c0161409a565b916105735160281c019161507a878461414c565b9003966105225160281c01906105585160281c01900301612c79565b9361053d5160281c9101036105075160281c9003612c79565b9015610a3f5791565b6150af90615040565b905f19827fba4f53ea38636f85f007042540ae8ef33225e9a7ab4f4473a86d4a8fdd1a5b8209917fba4f53ea38636f85f007042540ae8ef33225e9a7ab4f4473a86d4a8fdd1a5b8202918280821091030390565b91905f198184099202918280821091030390565b615200906151fa90808002908180025f19600160801b808386095f198487090309906151ad61519f615198600f600760681b8802046609c0000000000085040169c91800000000000000008604016151908580025f19878009621eee11605a1b9190030490565b0196606a1b90565b600f900490565b916624900000000000900490565b5f1993600160b41b936a06df92000000000000000090049190920101600160ff1b01906910000000000000000000828209915f1991090309600160fe1b81830181019291909103016152af565b60021b90565b808002905f1990800903808002905f1990800903808002905f1990800903808002905f1990800903808002905f1990800903808002905f1990800903808002905f1990800903808002905f1990800903808002905f1990800903808002905f1990800903808002905f1990800903808002905f1990800903808002905f1990800903808002905f199080090390565b5f198281019283919080600160ff1b850990030191600160ff1b90090890565b5f198281019283919080600160fe1b850990030191600160fe1b90090890565b90915f1981019283915f19908083860990030192090890565b6002816003021880820260020302808202600203028082026002030280820260020302808202600203028091026002030290565b949593929161532c915f96613f19565b90939192906001606f1b8110156153fa576153569060911b61534e86606f1c90565b179460911b90565b61536084606f1c90565b179080805f198709818785080894858310900390808210156153eb578086915f031691600183805f030401029203041702946153b0575b5050600160ff1b8310156153a757565b5f925060019150565b6d7fffffffffffffffffffffffffff1615908115916153e1575b506153d7575b5f80615397565b91600101916153d0565b905015155f6153ca565b505f9750600196505050505050565b505f96506001955050505050565b6113739291615416916156fc565b92939091901561546f5761543c615449916102d15160c01c03936102d95160281c612e80565b916102f45160281c615579565b919091925b61042780516104679590955261044c93909352610431919091526104295252565b61548e61549b916102d19493945160c01c01936102d95160281c615579565b916102f45160281c612e80565b9190919261544e565b61137392916154b2916156fc565b9293909190156154fe5761543c6154d8916102d15160c01c03936102d95160281c612e80565b919091925b6103e780516104279590955261040c939093526103f1919091526103e95252565b61548e61551d916102d19493945160c01c01936102d95160281c615579565b919091926154dd565b90917fd49c04af80af1ea5f98f85886b450a4b264fc14874f9f64143836145a37dd8a1927f0f1aaddd7742e56d32fb9f997447d9e6314db84884fabab26bf059af9bc20b61828183860909920202030290565b5f199165010000000000918391600160d81b81830919915f19915f81129003905f8112900309080990565b6104075161040951610447516104495160c092831c93921c9160f090811c91901c5b90919281156143d657828214615685576103c95160c01c80851461565b57837c15fc21041027acbbfcd46780fee71ead23fbcb7f4a81e58767ef801a3294958381125f1461564b5783039303910302905b80600160c01b838509926001600160c01b03908482039082908709089281840660c01b0104910460c01b0191020160281c90565b9280929303930391030290615617565b50507c15fc21041027acbbfcd46780fee71ead23fbcb7f4a81e58767ef801a320260281c92915050565b50507c15fc21041027acbbfcd46780fee71ead23fbcb7f4a81e58767ef801a3291500260281c90565b61048751610489516104c7516104c95160c092831c93921c9160f090811c91901c6155c6565b780fffffffffffffff8000000000000002aaaaaaaaaaaaaaa00119818102915f199190090390565b905f80821561573557505060061b0190603f1982015160f01c91603d1981015160c01c9160351982015160281c91601a19015160281c90565b9093909250600160d81b91507801e355bbaee85cada65f73f32e88fb3cc629b709109f57564d9056fe5d43e4cd1a16168a103e08dc189528d374b6e2bd5c612e94553d728c80030103f1aaddd7742e56d32fb9f997447d9e6314db84884fabab26bf059af9bc20b609d71f1cf4f9d9f82ef0f0a7247563f6632677ada0e0f8f0d8734b4d2327da39e9a264697066735822122081855d39241dbde925a2c053c835adccb371b62991391ab0a8697587acfa2d4d64736f6c63430008210033","linkReferences":{}},"methodIdentifiers":{"allowance(address,address,uint256)":"598af9e7","approve(address,uint256,uint256)":"426a8493","balanceOf(address,uint256)":"00fdd58e","callManipulator(address,bytes)":"9385145b","clear(uint256,uint256)":"41ee903e","dispatch(bytes)":"ab7fff18","isOperator(address,address)":"b6363cf2","modifyBalance(address,uint256,int256)":"bea556c9","modifyBalance(address,uint256,uint256,int256,int256)":"49dff3ab","onERC1155BatchReceived(address,address,uint256[],uint256[],bytes)":"bc197c81","onERC1155Received(address,address,uint256,uint256,bytes)":"f23a6e61","setOperator(address,bool)":"558a7297","settle()":"11da60b4","storageAccess(bytes32)":"1352ea35","storageAccess(bytes32,uint256)":"745fa652","storageAccess(bytes32[])":"89c59eb9","supportsInterface(bytes4)":"01ffc9a7","swap(uint256,int256,int256,uint256,bytes)":"32269698","sync(address)":"a5841194","sync(address,uint256)":"ef4fcafa","take(address,address,uint256)":"0b0d9c09","take(address,uint256,address,uint256)":"0720b584","take(address,uint256,address,uint256,bytes)":"2b7f670f","transfer(address,uint256,uint256)":"095bcdb6","transferFrom(address,address,uint256,uint256)":"fe99049a","transferTransientBalanceFrom(address,address,uint256,uint256)":"da954559","transientAccess(bytes32)":"834178fe","transientAccess(bytes32,uint256)":"d02bdb62","transientAccess(bytes32[])":"b84a0dd2","unlock(address,bytes)":"738c440a"},"id":94}