{"abi":[{"type":"function","name":"authorizeInitialization","inputs":[{"name":"sentinelInput","type":"bytes","internalType":"bytes"}],"outputs":[{"name":"selector","type":"bytes4","internalType":"bytes4"}],"stateMutability":"nonpayable"},{"type":"function","name":"authorizeInitializationSelector","inputs":[],"outputs":[{"name":"","type":"bytes4","internalType":"bytes4"}],"stateMutability":"view"},{"type":"function","name":"authorizeModificationOfPoolGrowthPortion","inputs":[{"name":"sentinelInput","type":"bytes","internalType":"bytes"}],"outputs":[{"name":"selector","type":"bytes4","internalType":"bytes4"}],"stateMutability":"nonpayable"},{"type":"function","name":"authorizeModificationOfPoolGrowthPortionSelector","inputs":[],"outputs":[{"name":"","type":"bytes4","internalType":"bytes4"}],"stateMutability":"view"},{"type":"function","name":"getGrowthPortions","inputs":[{"name":"sentinelInput","type":"bytes","internalType":"bytes"}],"outputs":[{"name":"_maxPoolGrowthPortion","type":"uint256","internalType":"X47"},{"name":"_protocolGrowthPortion","type":"uint256","internalType":"X47"}],"stateMutability":"nonpayable"},{"type":"function","name":"maxPoolGrowthPortion","inputs":[],"outputs":[{"name":"","type":"uint256","internalType":"X47"}],"stateMutability":"view"},{"type":"function","name":"protocolGrowthPortion","inputs":[],"outputs":[{"name":"","type":"uint256","internalType":"X47"}],"stateMutability":"view"},{"type":"function","name":"setValues","inputs":[{"name":"_maxPoolGrowthPortion","type":"uint256","internalType":"X47"},{"name":"_protocolGrowthPortion","type":"uint256","internalType":"X47"},{"name":"selector0","type":"bytes4","internalType":"bytes4"},{"name":"selector1","type":"bytes4","internalType":"bytes4"}],"outputs":[],"stateMutability":"nonpayable"}],"bytecode":{"object":"0x6080806040523460155761026e908161001a8239f35b5f80fdfe6080806040526004361015610012575f80fd5b5f3560e01c9081630c4257de146101c5575080631dfa4738146101a85780633d5e89371461018c578063445bebf91461016357806353c16ec11461013a5780638fcaa6e2146100ca578063b8bc6125146100a15763ef0c20a714610074575f80fd5b3461009d575f36600319011261009d57602063ffffffff60e01b60025460c01b16604051908152f35b5f80fd5b3461009d576100af366101e7565b5050602063ffffffff60e01b60025460c01b16604051908152f35b3461009d57608036600319011261009d576044356001600160e01b03198116810361009d576064356001600160e01b03198116810361009d576004355f5560243560015567ffffffff00000000806002549260c01c16169160e01c9067ffffffffffffffff191617176002555f80f35b3461009d575f36600319011261009d57602060025460e01b6040519063ffffffff60e01b168152f35b3461009d57610171366101e7565b5050602060025460e01b6040519063ffffffff60e01b168152f35b3461009d575f36600319011261009d5760205f54604051908152f35b3461009d575f36600319011261009d576020600154604051908152f35b3461009d576040906101d6366101e7565b50505f546001549082526020820152f35b90602060031983011261009d5760043567ffffffffffffffff811161009d578260238201121561009d5780600401359267ffffffffffffffff841161009d576024848301011161009d57602401919056fea2646970667358221220964266a7044aa9fe2f338a9aaa63ffb7fd8b859aba4f7ec23f7ef879232fce3664736f6c63430008210033","linkReferences":{}},"methodIdentifiers":{"authorizeInitialization(bytes)":"445bebf9","authorizeInitializationSelector()":"53c16ec1","authorizeModificationOfPoolGrowthPortion(bytes)":"b8bc6125","authorizeModificationOfPoolGrowthPortionSelector()":"ef0c20a7","getGrowthPortions(bytes)":"0c4257de","maxPoolGrowthPortion()":"3d5e8937","protocolGrowthPortion()":"1dfa4738","setValues(uint256,uint256,bytes4,bytes4)":"8fcaa6e2"},"id":29}