{"abi":[{"type":"function","name":"_accruedParamsSlot","inputs":[],"outputs":[{"name":"storageSlot","type":"uint256","internalType":"uint256"}],"stateMutability":"nonpayable"},{"type":"function","name":"_allowanceSlot","inputs":[],"outputs":[{"name":"storageSlot","type":"uint256","internalType":"uint256"}],"stateMutability":"nonpayable"},{"type":"function","name":"_calculateGrowthMultiplier0","inputs":[{"name":"poolId","type":"uint256","internalType":"uint256"},{"name":"qSpacing","type":"int256","internalType":"X59"},{"name":"qBoundary","type":"int256","internalType":"X59"},{"name":"growthMultiplier","type":"uint256","internalType":"X208"}],"outputs":[{"name":"growthMultiplierResult","type":"uint256","internalType":"X208"},{"name":"growthMultiplierStorage","type":"uint256","internalType":"X208"}],"stateMutability":"nonpayable"},{"type":"function","name":"_calculateGrowthMultiplier0","inputs":[{"name":"qSpacing","type":"int256","internalType":"X59"},{"name":"qBoundary","type":"int256","internalType":"X59"}],"outputs":[{"name":"growthMultiplier","type":"uint256","internalType":"X208"}],"stateMutability":"nonpayable"},{"type":"function","name":"_calculateGrowthMultiplier1","inputs":[{"name":"qSpacing","type":"int256","internalType":"X59"},{"name":"qBoundary","type":"int256","internalType":"X59"}],"outputs":[{"name":"growthMultiplier","type":"uint256","internalType":"X208"}],"stateMutability":"nonpayable"},{"type":"function","name":"_calculateGrowthMultiplier1","inputs":[{"name":"poolId","type":"uint256","internalType":"uint256"},{"name":"qSpacing","type":"int256","internalType":"X59"},{"name":"qBoundary","type":"int256","internalType":"X59"},{"name":"growthMultiplier","type":"uint256","internalType":"X208"}],"outputs":[{"name":"growthMultiplierResult","type":"uint256","internalType":"X208"},{"name":"growthMultiplierStorage","type":"uint256","internalType":"X208"}],"stateMutability":"nonpayable"},{"type":"function","name":"_curveSlot","inputs":[],"outputs":[{"name":"storageSlot","type":"uint256","internalType":"uint256"}],"stateMutability":"nonpayable"},{"type":"function","name":"_decrementBalance","inputs":[{"name":"currentBalance","type":"uint256","internalType":"uint256"},{"name":"currentIsOperator","type":"bool","internalType":"bool"},{"name":"currentAllowance","type":"uint256","internalType":"uint256"},{"name":"owner","type":"address","internalType":"address"},{"name":"tag","type":"uint256","internalType":"Tag"},{"name":"amount","type":"uint256","internalType":"uint256"}],"outputs":[{"name":"newBalance","type":"uint256","internalType":"uint256"},{"name":"newAllowance","type":"uint256","internalType":"uint256"}],"stateMutability":"nonpayable"},{"type":"function","name":"_doubleBalanceSlot","inputs":[],"outputs":[{"name":"storageSlot","type":"uint256","internalType":"uint256"}],"stateMutability":"nonpayable"},{"type":"function","name":"_dynamicParamsSlot","inputs":[],"outputs":[{"name":"storageSlot","type":"uint256","internalType":"uint256"}],"stateMutability":"nonpayable"},{"type":"function","name":"_getAccruedParamsSlot","inputs":[{"name":"poolId","type":"uint256","internalType":"uint256"}],"outputs":[{"name":"storageSlot","type":"uint256","internalType":"uint256"}],"stateMutability":"nonpayable"},{"type":"function","name":"_getAllowanceSlot","inputs":[{"name":"owner","type":"address","internalType":"address"},{"name":"spender","type":"address","internalType":"address"},{"name":"tag","type":"uint256","internalType":"Tag"}],"outputs":[{"name":"storageSlot","type":"uint256","internalType":"uint256"}],"stateMutability":"nonpayable"},{"type":"function","name":"_getCurveSlot","inputs":[{"name":"poolId","type":"uint256","internalType":"uint256"}],"outputs":[{"name":"storageSlot","type":"uint256","internalType":"uint256"}],"stateMutability":"nonpayable"},{"type":"function","name":"_getDoubleBalanceSlot","inputs":[{"name":"owner","type":"address","internalType":"address"},{"name":"tag0","type":"uint256","internalType":"Tag"},{"name":"tag1","type":"uint256","internalType":"Tag"}],"outputs":[{"name":"storageSlot","type":"uint256","internalType":"uint256"}],"stateMutability":"nonpayable"},{"type":"function","name":"_getDynamicParamsSlot","inputs":[{"name":"poolId","type":"uint256","internalType":"uint256"}],"outputs":[{"name":"storageSlot","type":"uint256","internalType":"uint256"}],"stateMutability":"nonpayable"},{"type":"function","name":"_getGrowthMultiplierSlot","inputs":[{"name":"poolId","type":"uint256","internalType":"uint256"},{"name":"qBoundary","type":"int256","internalType":"X59"}],"outputs":[{"name":"storageSlot","type":"uint256","internalType":"uint256"}],"stateMutability":"nonpayable"},{"type":"function","name":"_getGrowthPortions","inputs":[{"name":"protocol","type":"uint256","internalType":"uint256"}],"outputs":[{"name":"maxPoolGrowthPortion","type":"uint256","internalType":"X47"},{"name":"protocolGrowthPortion","type":"uint256","internalType":"X47"}],"stateMutability":"nonpayable"},{"type":"function","name":"_getIsOperatorSlot","inputs":[{"name":"owner","type":"address","internalType":"address"},{"name":"spender","type":"address","internalType":"address"}],"outputs":[{"name":"storageSlot","type":"uint256","internalType":"uint256"}],"stateMutability":"nonpayable"},{"type":"function","name":"_getPoolOwnerSlot","inputs":[{"name":"poolId","type":"uint256","internalType":"uint256"}],"outputs":[{"name":"storageSlot","type":"uint256","internalType":"uint256"}],"stateMutability":"nonpayable"},{"type":"function","name":"_getProtocolOwner","inputs":[{"name":"protocol","type":"uint256","internalType":"uint256"}],"outputs":[{"name":"result","type":"address","internalType":"address"}],"stateMutability":"nonpayable"},{"type":"function","name":"_getSharesDeltaSlot","inputs":[{"name":"poolId","type":"uint256","internalType":"uint256"},{"name":"qBoundary","type":"int256","internalType":"X59"}],"outputs":[{"name":"storageSlot","type":"uint256","internalType":"uint256"}],"stateMutability":"nonpayable"},{"type":"function","name":"_getSharesGrossSlot","inputs":[{"name":"poolId","type":"uint256","internalType":"uint256"}],"outputs":[{"name":"storageSlot","type":"uint256","internalType":"uint256"}],"stateMutability":"nonpayable"},{"type":"function","name":"_getSingleBalanceSlot","inputs":[{"name":"owner","type":"address","internalType":"address"},{"name":"tag","type":"uint256","internalType":"Tag"}],"outputs":[{"name":"storageSlot","type":"uint256","internalType":"uint256"}],"stateMutability":"nonpayable"},{"type":"function","name":"_getStaticParamsStorageAddress","inputs":[{"name":"poolId","type":"uint256","internalType":"uint256"},{"name":"storagePointer","type":"uint256","internalType":"uint256"}],"outputs":[{"name":"storageAddress","type":"address","internalType":"address"}],"stateMutability":"nonpayable"},{"type":"function","name":"_getStaticParamsStorageAddress","inputs":[{"name":"nofeeswap","type":"address","internalType":"address"},{"name":"poolId","type":"uint256","internalType":"uint256"},{"name":"storagePointer","type":"uint256","internalType":"uint256"}],"outputs":[{"name":"storageAddress","type":"address","internalType":"address"}],"stateMutability":"nonpayable"},{"type":"function","name":"_growthMultiplierSlot","inputs":[],"outputs":[{"name":"storageSlot","type":"uint256","internalType":"uint256"}],"stateMutability":"nonpayable"},{"type":"function","name":"_incrementBalance","inputs":[{"name":"currentBalance","type":"uint256","internalType":"uint256"},{"name":"owner","type":"address","internalType":"address"},{"name":"tag","type":"uint256","internalType":"Tag"},{"name":"amount","type":"uint256","internalType":"uint256"}],"outputs":[{"name":"newBalance","type":"uint256","internalType":"uint256"}],"stateMutability":"nonpayable"},{"type":"function","name":"_isOperatorSlot","inputs":[],"outputs":[{"name":"storageSlot","type":"uint256","internalType":"uint256"}],"stateMutability":"nonpayable"},{"type":"function","name":"_modifySharesDelta","inputs":[{"name":"poolId","type":"uint256","internalType":"uint256"},{"name":"sharesGross","type":"uint256","internalType":"uint256"},{"name":"shares","type":"int256","internalType":"int256"},{"name":"sharesDeltaMin","type":"int256","internalType":"int256"},{"name":"sharesDeltaMax","type":"int256","internalType":"int256"},{"name":"qMin","type":"int256","internalType":"X59"},{"name":"qMax","type":"int256","internalType":"X59"},{"name":"qSpacing","type":"int256","internalType":"X59"}],"outputs":[{"name":"sharesGrossNew","type":"uint256","internalType":"uint256"},{"name":"sharesDeltaMinNew","type":"int256","internalType":"int256"},{"name":"sharesDeltaMaxNew","type":"int256","internalType":"int256"}],"stateMutability":"nonpayable"},{"type":"function","name":"_poolOwnerSlot","inputs":[],"outputs":[{"name":"storageSlot","type":"uint256","internalType":"uint256"}],"stateMutability":"nonpayable"},{"type":"function","name":"_protocolSlot","inputs":[],"outputs":[{"name":"storageSlot","type":"uint256","internalType":"uint256"}],"stateMutability":"nonpayable"},{"type":"function","name":"_readAccruedParams","inputs":[{"name":"poolId","type":"uint256","internalType":"uint256"},{"name":"content","type":"uint256","internalType":"uint256"}],"outputs":[{"name":"poolRatio0","type":"uint256","internalType":"X23"},{"name":"poolRatio1","type":"uint256","internalType":"X23"},{"name":"accrued0","type":"int256","internalType":"X127"},{"name":"accrued1","type":"int256","internalType":"X127"}],"stateMutability":"nonpayable"},{"type":"function","name":"_readBoundaries","inputs":[{"name":"poolId","type":"uint256","internalType":"uint256"},{"name":"content","type":"uint256","internalType":"uint256"}],"outputs":[{"name":"qLower","type":"int256","internalType":"X59"},{"name":"qUpper","type":"int256","internalType":"X59"}],"stateMutability":"nonpayable"},{"type":"function","name":"_readCurve","inputs":[{"name":"poolId","type":"uint256","internalType":"uint256"},{"name":"qCurrent","type":"int256","internalType":"X59"},{"name":"curveArray","type":"uint256[]","internalType":"uint256[]"}],"outputs":[{"name":"curveMembers","type":"int256[]","internalType":"X59[]"},{"name":"curveLength","type":"uint256","internalType":"Index"}],"stateMutability":"nonpayable"},{"type":"function","name":"_readDoubleBalance","inputs":[{"name":"storageSlot","type":"uint256","internalType":"uint256"},{"name":"content","type":"uint256","internalType":"uint256"}],"outputs":[{"name":"amount0","type":"uint256","internalType":"uint256"},{"name":"amount1","type":"uint256","internalType":"uint256"}],"stateMutability":"nonpayable"},{"type":"function","name":"_readDynamicParams","inputs":[{"name":"poolId","type":"uint256","internalType":"uint256"},{"name":"content0","type":"uint256","internalType":"uint256"},{"name":"content1","type":"uint256","internalType":"uint256"},{"name":"content2","type":"uint256","internalType":"uint256"},{"name":"content3","type":"uint256","internalType":"uint256"}],"outputs":[{"name":"staticParamsStoragePointerExtension","type":"uint256","internalType":"uint256"},{"name":"staticParamsStoragePointer","type":"uint16","internalType":"uint16"},{"name":"logPriceCurrent","type":"int256","internalType":"X59"},{"name":"sharesTotal","type":"uint256","internalType":"uint256"},{"name":"growth","type":"int256","internalType":"X111"},{"name":"integral0","type":"int256","internalType":"X216"},{"name":"integral1","type":"int256","internalType":"X216"}],"stateMutability":"nonpayable"},{"type":"function","name":"_readGrowthMultiplier","inputs":[{"name":"storageSlot","type":"uint256","internalType":"uint256"},{"name":"content","type":"uint256","internalType":"uint256"}],"outputs":[{"name":"growthMultiplier","type":"uint256","internalType":"X208"}],"stateMutability":"nonpayable"},{"type":"function","name":"_readGrowthPortions","inputs":[{"name":"sentinel","type":"address","internalType":"contract ISentinel"},{"name":"protocol","type":"uint256","internalType":"uint256"}],"outputs":[{"name":"maxPoolGrowthPortion","type":"uint256","internalType":"X47"},{"name":"protocolGrowthPortion","type":"uint256","internalType":"X47"}],"stateMutability":"nonpayable"},{"type":"function","name":"_readKernel","inputs":[{"name":"content","type":"bytes","internalType":"bytes"}],"outputs":[{"name":"contentResult","type":"bytes","internalType":"bytes"}],"stateMutability":"nonpayable"},{"type":"function","name":"_readKernelLength","inputs":[{"name":"content","type":"bytes","internalType":"bytes"}],"outputs":[{"name":"length","type":"uint256","internalType":"Index"}],"stateMutability":"nonpayable"},{"type":"function","name":"_readPoolData0","inputs":[{"name":"poolId","type":"uint256","internalType":"uint256"},{"name":"kernelLength","type":"uint256","internalType":"Index"},{"name":"storagePointer","type":"uint256","internalType":"uint256"},{"name":"dynamicContent","type":"uint256[4]","internalType":"uint256[4]"},{"name":"curveArray","type":"uint256[]","internalType":"uint256[]"},{"name":"staticContent","type":"bytes","internalType":"bytes"}],"outputs":[],"stateMutability":"nonpayable"},{"type":"function","name":"_readPoolData1","inputs":[{"name":"poolId","type":"uint256","internalType":"uint256"},{"name":"kernel","type":"uint256","internalType":"Kernel"}],"outputs":[{"name":"contentResult","type":"bytes","internalType":"bytes"}],"stateMutability":"nonpayable"},{"type":"function","name":"_readPoolOwner","inputs":[{"name":"storageSlot","type":"uint256","internalType":"uint256"},{"name":"poolOwner","type":"address","internalType":"address"}],"outputs":[{"name":"poolOwnerResult","type":"address","internalType":"address"}],"stateMutability":"nonpayable"},{"type":"function","name":"_readProtocol","inputs":[{"name":"protocol","type":"uint256","internalType":"uint256"}],"outputs":[{"name":"result","type":"uint256","internalType":"uint256"}],"stateMutability":"nonpayable"},{"type":"function","name":"_readSentinel","inputs":[{"name":"sentinel","type":"address","internalType":"contract ISentinel"}],"outputs":[{"name":"sentinelResult","type":"address","internalType":"contract ISentinel"}],"stateMutability":"nonpayable"},{"type":"function","name":"_readSharesDelta","inputs":[{"name":"storageSlot","type":"uint256","internalType":"uint256"},{"name":"content","type":"uint256","internalType":"uint256"}],"outputs":[{"name":"sharesDelta","type":"int256","internalType":"int256"}],"stateMutability":"nonpayable"},{"type":"function","name":"_readStaticParams","inputs":[{"name":"content","type":"bytes","internalType":"bytes"}],"outputs":[{"name":"contentResult","type":"bytes","internalType":"bytes"}],"stateMutability":"nonpayable"},{"type":"function","name":"_readStaticParamsAndKernel","inputs":[{"name":"content","type":"bytes","internalType":"bytes"}],"outputs":[{"name":"contentResult","type":"bytes","internalType":"bytes"}],"stateMutability":"nonpayable"},{"type":"function","name":"_sentinelSlot","inputs":[],"outputs":[{"name":"storageSlot","type":"uint256","internalType":"uint256"}],"stateMutability":"nonpayable"},{"type":"function","name":"_sharesDeltaSlot","inputs":[],"outputs":[{"name":"storageSlot","type":"uint256","internalType":"uint256"}],"stateMutability":"nonpayable"},{"type":"function","name":"_sharesGrossSlot","inputs":[],"outputs":[{"name":"storageSlot","type":"uint256","internalType":"uint256"}],"stateMutability":"nonpayable"},{"type":"function","name":"_singleBalanceSlot","inputs":[],"outputs":[{"name":"storageSlot","type":"uint256","internalType":"uint256"}],"stateMutability":"nonpayable"},{"type":"function","name":"_totalSupplySlot","inputs":[],"outputs":[{"name":"storageSlot","type":"uint256","internalType":"uint256"}],"stateMutability":"nonpayable"},{"type":"function","name":"_updateAllowance","inputs":[{"name":"currentIsOperator","type":"bool","internalType":"bool"},{"name":"currentAllowance","type":"uint256","internalType":"uint256"},{"name":"owner","type":"address","internalType":"address"},{"name":"tag","type":"uint256","internalType":"Tag"},{"name":"amount","type":"uint256","internalType":"uint256"}],"outputs":[{"name":"newAllowance","type":"uint256","internalType":"uint256"}],"stateMutability":"nonpayable"},{"type":"function","name":"_updateTotalSupply","inputs":[{"name":"storageSlot","type":"uint256","internalType":"uint256"},{"name":"totalSupply","type":"uint256","internalType":"uint256"},{"name":"poolId","type":"uint256","internalType":"uint256"},{"name":"qMin","type":"int256","internalType":"X59"},{"name":"qMax","type":"int256","internalType":"X59"},{"name":"shares","type":"int256","internalType":"int256"}],"outputs":[{"name":"newTotalSupply","type":"uint256","internalType":"uint256"}],"stateMutability":"nonpayable"},{"type":"function","name":"_writeAccruedParams","inputs":[{"name":"poolId","type":"uint256","internalType":"uint256"},{"name":"poolRatio0","type":"uint256","internalType":"X23"},{"name":"poolRatio1","type":"uint256","internalType":"X23"},{"name":"accrued0","type":"int256","internalType":"X127"},{"name":"accrued1","type":"int256","internalType":"X127"}],"outputs":[{"name":"content","type":"uint256","internalType":"uint256"}],"stateMutability":"nonpayable"},{"type":"function","name":"_writeCurve","inputs":[{"name":"poolId","type":"uint256","internalType":"uint256"},{"name":"curveLength","type":"uint256","internalType":"Index"},{"name":"curveArray","type":"uint256[]","internalType":"uint256[]"}],"outputs":[{"name":"curveArrayResult","type":"uint256[]","internalType":"uint256[]"}],"stateMutability":"nonpayable"},{"type":"function","name":"_writeDoubleBalance","inputs":[{"name":"storageSlot","type":"uint256","internalType":"uint256"},{"name":"amount0","type":"uint256","internalType":"uint256"},{"name":"amount1","type":"uint256","internalType":"uint256"}],"outputs":[{"name":"content","type":"uint256","internalType":"uint256"}],"stateMutability":"nonpayable"},{"type":"function","name":"_writeDynamicParams","inputs":[{"name":"poolId","type":"uint256","internalType":"uint256"},{"name":"staticParamsStoragePointerExtension","type":"uint256","internalType":"uint256"},{"name":"staticParamsStoragePointer","type":"uint16","internalType":"uint16"},{"name":"logPriceCurrent","type":"int256","internalType":"X59"},{"name":"sharesTotal","type":"uint256","internalType":"uint256"},{"name":"growth","type":"int256","internalType":"X111"},{"name":"integral0","type":"int256","internalType":"X216"},{"name":"integral1","type":"int256","internalType":"X216"}],"outputs":[{"name":"content0","type":"uint256","internalType":"uint256"},{"name":"content1","type":"uint256","internalType":"uint256"},{"name":"content2","type":"uint256","internalType":"uint256"},{"name":"content3","type":"uint256","internalType":"uint256"}],"stateMutability":"nonpayable"},{"type":"function","name":"_writeGrowthMultiplier","inputs":[{"name":"storageSlot","type":"uint256","internalType":"uint256"},{"name":"growthMultiplier","type":"uint256","internalType":"X208"}],"outputs":[{"name":"content","type":"uint256","internalType":"uint256"}],"stateMutability":"nonpayable"},{"type":"function","name":"_writeGrowthMultipliers","inputs":[{"name":"poolId","type":"uint256","internalType":"uint256"},{"name":"qSpacing","type":"int256","internalType":"X59"},{"name":"qLower","type":"int256","internalType":"X59"},{"name":"qUpper","type":"int256","internalType":"X59"}],"outputs":[{"name":"growthMultiplierLowerResult","type":"uint256","internalType":"X208"},{"name":"growthMultiplierUpperResult","type":"uint256","internalType":"X208"}],"stateMutability":"nonpayable"},{"type":"function","name":"_writePoolOwner","inputs":[{"name":"storageSlot","type":"uint256","internalType":"uint256"},{"name":"poolOwner","type":"address","internalType":"address"}],"outputs":[{"name":"content","type":"uint256","internalType":"uint256"}],"stateMutability":"nonpayable"},{"type":"function","name":"_writeProtocol","inputs":[{"name":"protocol","type":"uint256","internalType":"uint256"}],"outputs":[{"name":"protocolResult","type":"uint256","internalType":"uint256"}],"stateMutability":"nonpayable"},{"type":"function","name":"_writeSentinel","inputs":[{"name":"sentinel","type":"address","internalType":"contract ISentinel"}],"outputs":[{"name":"sentinelResult","type":"uint256","internalType":"uint256"}],"stateMutability":"nonpayable"},{"type":"function","name":"_writeStaticParams","inputs":[{"name":"poolId","type":"uint256","internalType":"uint256"},{"name":"kernelLength","type":"uint256","internalType":"Index"},{"name":"storagePointer","type":"uint256","internalType":"uint256"},{"name":"storageAddress","type":"uint160","internalType":"uint160"},{"name":"content","type":"bytes","internalType":"bytes"}],"outputs":[{"name":"contentResult","type":"bytes","internalType":"bytes"}],"stateMutability":"nonpayable"},{"type":"event","name":"Transfer","inputs":[{"name":"caller","type":"address","indexed":false,"internalType":"address"},{"name":"from","type":"address","indexed":true,"internalType":"address"},{"name":"to","type":"address","indexed":true,"internalType":"address"},{"name":"tag","type":"uint256","indexed":true,"internalType":"Tag"},{"name":"amount","type":"uint256","indexed":false,"internalType":"uint256"}],"anonymous":false},{"type":"error","name":"AccruedGrowthPortionOverflow","inputs":[{"name":"accruedValue","type":"int256","internalType":"X127"}]},{"type":"error","name":"BalanceOverflow","inputs":[{"name":"balance","type":"uint256","internalType":"uint256"}]},{"type":"error","name":"DeploymentFailed","inputs":[]},{"type":"error","name":"InsufficientBalance","inputs":[{"name":"owner","type":"address","internalType":"address"},{"name":"tag","type":"uint256","internalType":"Tag"}]},{"type":"error","name":"InsufficientPermission","inputs":[{"name":"spender","type":"address","internalType":"address"},{"name":"tag","type":"uint256","internalType":"Tag"}]},{"type":"error","name":"PoolDoesNotExist","inputs":[{"name":"poolId","type":"uint256","internalType":"uint256"}]},{"type":"error","name":"SharesGrossOverflow","inputs":[{"name":"sharesGross","type":"int256","internalType":"int256"}]}],"bytecode":{"object":"0x60808060405234601557612aa4908161001a8239f35b5f80fdfe60806040526004361015610011575f80fd5b5f3560e01c806302ae745414610410578063037aef471461040b5780630638a445146104065780630a8d43cf146104015780630b6a9c40146103fc5780630e1134a9146103f75780630f220f2d146103f2578063138c9d8614610320578063147d64991461037a57806315a72216146103ed5780631e27bcf5146103e85780631ebb8a50146103e357806320522ac1146103de578063245e6f88146103d9578063268481af146103d45780632c450a84146103205780632fba011c146103cf57806331fb0a77146103ca578063350ce6ec146103c557806335713e91146103c057806339ea5dd4146103bb5780633dc0c836146103b65780633f8fd396146103b15780634250ea05146103ac57806346331f20146103a75780634663aaa4146103a2578063478d74611461039d578063492e04a8146103985780634b4c4f76146103935780634f23f5881461038e57806350647a4c1461038957806353f6fcfa14610384578063608efbae1461032a57806360f183ca1461037f57806367d532a61461037a57806369f9d0b71461037557806370d4a96014610370578063766526f41461036b5780637fbb6da01461036657806380af3797146103615780638d13f3821461035c5780638d7f380e1461035757806393a825781461035257806393e635e91461034d5780639545a85014610348578063a1f3202114610343578063a4d386491461033e578063a67fe20014610339578063a870307a14610334578063b7f7dfc91461032f578063b8c6a87c1461032a578063bee6c99d14610325578063c3fb990614610320578063cb21c7171461031b578063ce8fab4514610316578063d47a54d314610311578063dc65cc2a1461030c578063dd808c0d14610307578063e076c3a514610302578063e6e75c9f146102fd578063efcc4408146102f8578063f04125ed146102f3578063f1f2fb1f146102ee578063fb0f7b72146102e95763fd29c9f7146102e4575f80fd5b6120cd565b612099565b612072565b612044565b61201e565b611f86565b611f60565b611f2f565b611ea9565b611e73565b611e3c565b611d12565b610a62565b611ce8565b611616565b611cb0565b611c6e565b611bd5565b611acc565b611aa2565b611a6b565b611a49565b611a23565b6119fc565b6118fa565b61185e565b6117ea565b6117b4565b611761565b61167a565b610a97565b611644565b6115ec565b6115a0565b611519565b6114ef565b6113f7565b611383565b6112eb565b6112b2565b61128b565b611255565b6110f8565b610fc6565b610f83565b610f5d565b610f33565b610f0a565b610e65565b610e3b565b610dfa565b610c02565b610af0565b610ace565b610965565b6108a3565b610679565b6105de565b6105a6565b610507565b346104e55760803660031901126104e55760043560d8526064356104cc6104ae60443561043e60243561227a565b6104878460d851610463848290671447e579411c2c936010526008525f5260305f2090565b61046c856123b4565b905590671447e579411c2c936010526008525f5260305f2090565b6104908561229c565b905560d85190671447e579411c2c936010526008525f5260305f2090565b549160d85190671447e579411c2c936010526008525f5260305f2090565b54604080519283526020830191909152819081015b0390f35b5f80fd5b60809060031901126104e55760043590602435906044359060643590565b346104e557610525610518366104e9565b918360d89592955261227a565b610543838390671447e579411c2c936010526008525f5260305f2090565b556105648260d85190671447e579411c2c936010526008525f5260305f2090565b91825491821561058d575b906104cc9190671447e579411c2c936010526008525f5260305f2090565b6104cc925061059b8261229c565b80945583925061056f565b346104e55760403660031901126104e557602435600435819055604080516001600160801b038316815260809290921c602083015290f35b346104e55760403660031901126104e557602061060760243561060260043561227a565b61229c565b604051908152f35b9181601f840112156104e55782359167ffffffffffffffff83116104e5576020808501948460051b0101116104e557565b60206040818301928281528451809452019201905f5b8181106106635750505090565b8251845260209384019390920191600101610656565b346104e55760603660031901126104e55760243560043560443567ffffffffffffffff81116104e55780600401926106b1368561060f565b50508260d8526106cd816106535160101c9060f01b1761065152565b60031b809160240161080837610828019135825261080861060f5261070b60d8516f3b2d91718dfb37f9969a1b0670a83e706010525f5260305f2090565b61060f51610651518151835560f01c5f190160021c8201915b828110610787578461074d856f3b2d91718dfb37f9969a1b0670a83e706010525f5260305f2090565b5f905b825182101561077957610771816001925461076b858761212d565b5261215a565b910190610750565b604051806104e18582610640565b600160209101910191825182559190610724565b9181601f840112156104e55782359167ffffffffffffffff83116104e557602083818601950101116104e557565b60206003198201126104e5576004359067ffffffffffffffff82116104e5576107f49160040161079b565b9091565b604090602081526106c051806020830152806106e08484015e5f828201840152601f01601f1916010190565b604090602081525f518060208301528060208484015e5f828201840152601f01601f1916010190565b604090602081526107e851806020830152806108088484015e5f828201840152601f01601f1916010190565b602060409281835280519182918282860152018484015e5f828201840152601f01601f1916010190565b346104e5576108b1366107c9565b50506063608053366042190160e01b60815260806085536060608653600e60875360606088535f6089536039608a536060608b535f608c5360f3608d535f608e5236604319016044608f3761090d366034190160805ff06122bf565b6101286106c052604051806104e1816107f8565b92919060408401906040855280518092526020606086019101915f5b81811061094f57505060209150930152565b835183526020938401939092019160010161093d565b346104e55760603660031901126104e55760043560243560443567ffffffffffffffff81116104e5576109c1926109a36109de92369060040161060f565b9490936109af8360d852565b61067f5160401c9060c01b1761067752565b6f3b2d91718dfb37f9969a1b0670a83e706010525f5260305f2090565b905f915b838310610a41576109f561080861060f52565b6109fd6122cb565b8060031b610808018181525f5b828110610a2157506104e160405192839283610921565b8060019160031b610808015160c01c610a3a828561212d565b5201610a0a565b610a5a600191610a52858786612168565b35815561215a565b9201916109e2565b346104e55760403660031901126104e5576020600435602435809155604051908152f35b6001600160a01b038116036104e557565b346104e55760403660031901126104e5576020600435602435610ab981610a86565b6001600160a01b031690819055604051908152f35b346104e5575f3660031901126104e557602060405167d7cb7a927a838d418152f35b346104e55760403660031901126104e55760043560d8526024356105ef52610b166124e4565b610bee610b296106555160d851306126a4565b610b32816122bf565b610b5e610b4c6107f45160d01c6107fa5160d01c90612880565b6107fa5160301c9060d01b176107f452565b803b610128190160061c600101610b81816106515160101c9060f01b1761064f52565b610b90816105ef519384612573565b610ba35f19916108065160f01c90612892565b0160061b01610bb28161060f52565b6002610bbc6122cb565b610bd2816106535160101c9060f01b1761065152565b5f1901811c0160051b01610be581604052565b60c3190160a452565b604051601f1981015f52806104e181610824565b346104e5576101003660031901126104e5576004356024356044359060643560843590610c8260a4359460c4359460e435918860d85261010852610c5d886fa20d6232b6352d00abc0d966e2bcfb8a6010525f5260305f2090565b556101005160401c8660c01b1760f8526101085160401c8560c01b176101005261227a565b610ca084869067d7cb7a927a838d416010526008525f5260305f2090565b55610cbf82859067d7cb7a927a838d416010526008525f5260305f2090565b5560d8516101085160f85160c01c91610cec83829067d7cb7a927a838d416010526008525f5260305f2090565b828154019055610d3e6101005160c01c91610d1b83829067d7cb7a927a838d416010526008525f5260305f2090565b8481540390556fa20d6232b6352d00abc0d966e2bcfb8a6010525f5260305f2090565b926107605160c01c910304028154018091556f7fffffffffffffffffffffffffffffff8113610de85750610dca6104e191610daf610d93866fa20d6232b6352d00abc0d966e2bcfb8a6010525f5260305f2090565b5494869067d7cb7a927a838d416010526008525f5260305f2090565b54949067d7cb7a927a838d416010526008525f5260305f2090565b54604051938493846040919493926060820195825260208201520152565b63462df80560e11b5f5260045260245ffd5b346104e55760203660031901126104e5576020600435610e1981610a86565b6001600160a01b03165f516020612a2f5f395f51905f52819055604051908152f35b346104e5575f3660031901126104e55760206040516f5daca5ccc655360fa5ccacf9c267936c8152f35b346104e55760403660031901126104e557600435610ea1602435918060d8526f3b2d91718dfb37f9969a1b0670a83e706010525f5260305f2090565b55610ec560d8516f3b2d91718dfb37f9969a1b0670a83e706010525f5260305f2090565b5461060f516106535160101c600160f11b17610651528181526008015160c090811c91901c81811215610f04575b604080519182526020820192909252f35b90610ef3565b346104e55760403660031901126104e5576020610607602435610f2e60043561227a565b6123b4565b346104e5575f3660031901126104e55760206040516fa20d6232b6352d00abc0d966e2bcfb8a8152f35b346104e5575f3660031901126104e55760206040516be442b523d9447037e4923f5b8152f35b346104e55760403660031901126104e557602061060760043560243567d7cb7a927a838d416010526008525f5260305f2090565b6024359081151582036104e557565b346104e55760c03660031901126104e557600435610fe2610fb7565b60643591604435610ff284610a86565b6084359260a4359261101b85876b3c244899b5fa3e971383ac4b6020526014525f5260405f2090565b5561103e33866be442b523d9447037e4923f5b6020526014525f526034600c2090565b90156110f05760ff60015b1690556110578333866123d4565b5561107982846b3c244899b5fa3e971383ac4b6020526014525f5260405f2090565b8054611086838587612622565b8281106110cd57916110a391816104cc959403905582853361289e565b6110c481846b3c244899b5fa3e971383ac4b6020526014525f5260405f2090565b549233906123d4565b633db7aa8160e21b5f9081526001600160a01b0386166004526024859052604490fd5b60ff5f611049565b346104e55760403660031901126104e55760043561111581610a86565b6024355f516020612a2f5f395f51905f528290555f516020612a4f5f395f51905f525565ffffffffffff806001600160a01b03831661120d575b6111949250906001602f1b811182818015611200575b6111b2575b5050611182906108005160301c9060d01b176107fa52565b6108065160301c9060d01b1761080052565b6107fa51610800516040805160d093841c81529190921c6020820152f35b5f516020612a4f5f395f51905f525460d081901c9060a01c65ffffffffffff16926111f4575b506001602f1b106111ea575b8061116a565b91506111826111e4565b92506001602f1b6111d8565b506001602f1b8111611165565b50505f60409160845160201c6306212bef60e11b1760805261122f6020608452565b608082604460a45101925af11561124d576111945f5160205161114f565b3d5f803e3d5ffd5b346104e55760203660031901126104e55760206106076004356fa20d6232b6352d00abc0d966e2bcfb8a6010525f5260305f2090565b346104e55760203660031901126104e5576040516001600160a01b03600435168152602090f35b346104e55760403660031901126104e55760206112d9600435602435908060d852306126a4565b6040516001600160a01b039091168152f35b346104e5576112f9366107c9565b50506113076108086105ef52565b6063608053366042190160e01b60815260806085536060608653600e60875360606088535f6089536039608a536060608b535f608c5360f3608d535f608e5236604319016044608f37611361366034190160805ff06123fd565b5f1961064f5160f01c0160061b610128016106c052604051806104e1816107f8565b346104e5576101203660031901126104e5576004356044356024353660e4116104e55760e43567ffffffffffffffff81116104e5576113c690369060040161060f565b929091610104359467ffffffffffffffff86116104e5576113ee6113f596369060040161079b565b50506121a2565b005b346104e55760803660031901126104e5576104e16114de60043560243561141d81610a86565b60443580926064359061144783856b3c244899b5fa3e971383ac4b6020526014525f5260405f2090565b5561146982846b3c244899b5fa3e971383ac4b6020526014525f5260405f2090565b8181540190611482826001600160801b038111156124ca565b556040805133815260208101929092526001600160a01b038416915f917f1b3d7edb2e9c0b0e7c525b20aaaef0f5940d2ed71663c7d39266ecafac72885991a46b3c244899b5fa3e971383ac4b6020526014525f5260405f2090565b546040519081529081906020820190565b346104e5575f3660031901126104e55760206040516f5e1c6265e3e30cea650443fb20ef1ef98152f35b346104e557611527366107c9565b50506063608053366042190160e01b60815260806085536060608653600e60875360606088535f6089536039608a536060608b535f608c5360f3608d535f608e5236604319016044608f376104e1611590366034190160805ff03b610128190160061c60010190565b6040519081529081906020820190565b346104e55760603660031901126104e55760206004356115bf81610a86565b602435604435604051926bc8f78086c3211e71a328e7f560405260345283525f5260605f20816040528152f35b346104e5575f3660031901126104e55760206040516f6890d047ad8c870137858a70716b2c6b8152f35b346104e55760203660031901126104e5576020600435805f516020612a4f5f395f51905f5255604051908152f35b346104e55760203660031901126104e55760206106076004356f3b2d91718dfb37f9969a1b0670a83e706010525f5260305f2090565b346104e55760a03660031901126104e55760043560243560443590606435916116c1608435948060d8526f6890d047ad8c870137858a70716b2c6b6010525f5260305f2090565b9182556001820180831161175c5755600281019182821161175c576116e69255612194565b556116ef6124e4565b610655516106755160f01c906104e16106775160c01c61067f5160801c61068f5160801c61069f5160281c916106ba5160281c936040519788978893909796959261ffff60c0969360e087019a875216602086015260408501526060840152608083015260a08201520152565b612146565b346104e55760603660031901126104e5576020600435602435604435611791826001600160801b038111156124ca565b6117a5816001600160801b038111156124ca565b60801b17809155604051908152f35b346104e55760203660031901126104e55760206106076004356f5e1c6265e3e30cea650443fb20ef1ef96010525f5260305f2090565b346104e55760c03660031901126104e5576104e160043560243560443560643560843560a4359385556f5daca5ccc655360fa5ccacf9c267936c6020526010526008525f5260405f20908154019061184c826001600160801b038111156124ca565b55546040519081529081906020820190565b346104e55761186c366107c9565b505061187a6108086105ef52565b6063608053366042190160e01b60815260806085536060608653600e60875360606088535f6089536039608a536060608b535f608c5360f3608d535f608e5236604319016044608f37366034190160805ff06118e3813b610128190160061c6001018092612561565b5f190160061b6107e852604051806104e18161084d565b346104e55760403660031901126104e557611957600435602435611935826f5e1c6265e3e30cea650443fb20ef1ef96010525f5260305f2090565b558060d8526f5e1c6265e3e30cea650443fb20ef1ef96010525f5260305f2090565b546cffffffffffffffffffffffffff607f1b81607f1b16906119bc6cffffffffffffffffffffffffff607f1b8260171b16916119a762ffffff8260d01c166105ec5160181c9060e81b176105e952565b60e81c6105ef5160181c9060e81b176105ec52565b816105a952806105c9526104e16105e95160e81c916105ec5160e81c93604051948594859094939260609260808301968352602083015260408201520152565b346104e5575f3660031901126104e55760206040515f516020612a4f5f395f51905f528152f35b346104e5575f3660031901126104e55760206040516bc8f78086c3211e71a328e7f58152f35b346104e5575f3660031901126104e5576020604051671447e579411c2c938152f35b346104e55760203660031901126104e5576020600435611a8a81610a86565b805f516020612a2f5f395f51905f5255604051908152f35b346104e5575f3660031901126104e55760206040516f3b2d91718dfb37f9969a1b0670a83e708152f35b346104e5576101003660031901126104e55760443560043560243561ffff831683036104e557611b8d92606435608435611b2860a435926109af60c4359560e435978960d852610655526106775160101c9060f01b1761067552565b61068f5160801c9060801b1761067f5261069f5160801c9060801b1761068f526106ba5160d81c9060281b1761069f526106d55160d81c9060281b176106ba52611b70612582565b6f6890d047ad8c870137858a70716b2c6b6010525f5260305f2090565b80546104e1611b9b83612178565b5492611bb0611ba982612186565b5491612194565b5490604051948594859094939260609260808301968352602083015260408201520152565b346104e55760a03660031901126104e557600435606435604435602435611bfb83610a86565b6084359167ffffffffffffffff83116104e5576104e194611c3f611c4e938560040192611c28368561079b565b505060d8526106515160101c9060f01b1761064f52565b3580936024016106e03761244e565b5f816106e00192803b8452610700813b9301903c60405191829182610879565b346104e55760403660031901126104e5576020610607600435611c9081610a86565b602435906b3c244899b5fa3e971383ac4b6020526014525f5260405f2090565b346104e55760203660031901126104e5576004356f68e919334073168f7b6f6d0178986a646010525f52602060305f20604051908152f35b346104e5575f3660031901126104e55760206040516f68e919334073168f7b6f6d0178986a648152f35b346104e55760a03660031901126104e5576104e16114de60043560243560443590611d6960643592611d57608435938660d8526105ec5160181c9060e81b176105e952565b6105ef5160181c9060e81b176105ec52565b816105a9526105c952611d7f815f811215612608565b611d93816001600160e71b03811315612608565b6105c951611da4815f811215612608565b611db8816001600160e71b03811315612608565b6105e951906105ec5190611de560d8516f5e1c6265e3e30cea650443fb20ef1ef96010525f5260305f2090565b93607f1c907001ffffffffffffffffffffffffffffffff60681b9060171c16179162ffffff60d01b9060181c169062ffffff60e81b16171790556f5e1c6265e3e30cea650443fb20ef1ef96010525f5260305f2090565b346104e55760603660031901126104e5576020610607600435611e5e81610a86565b602435611e6a81610a86565b604435916123d4565b346104e55760203660031901126104e55760206106076004356f6890d047ad8c870137858a70716b2c6b6010525f5260305f2090565b346104e557611eba610518366104e9565b611ed8838390671447e579411c2c936010526008525f5260305f2090565b55611ef98260d85190671447e579411c2c936010526008525f5260305f2090565b918254918215611f2157906104cc9190671447e579411c2c936010526008525f5260305f2090565b6104cc925061059b826123b4565b346104e55760203660031901126104e5576040805160043560d081901c825260a01c65ffffffffffff166020820152f35b346104e5575f3660031901126104e55760206040516b3c244899b5fa3e971383ac4b8152f35b346104e55760a03660031901126104e55760043580151581036104e5576114de6104e191611fb360243590565b9061200f60443591611fc483610a86565b6064359360843591611fee33866be442b523d9447037e4923f5b6020526014525f526034600c2090565b90156120165760ff60015b1690556120078533866123d4565b558383612622565b33906123d4565b60ff5f611ff9565b346104e5575f3660031901126104e55760206040516b034105b980ba117bd0c29fe08152f35b346104e55760603660031901126104e55760206112d960043561206681610a86565b602435604435916126a4565b346104e5575f3660031901126104e55760206040515f516020612a2f5f395f51905f528152f35b346104e55760403660031901126104e5576020610607600435602435671447e579411c2c936010526008525f5260305f2090565b346104e55760403660031901126104e55760206106076004356120ef81610a86565b602435906120fc82610a86565b6be442b523d9447037e4923f5b6020526014525f526034600c2090565b634e487b7160e01b5f52603260045260245ffd5b80518210156121415760209160051b010190565b612119565b634e487b7160e01b5f52601160045260245ffd5b5f19811461175c5760010190565b91908110156121415760051b0190565b906001820180921161175c57565b906002820180921161175c57565b5f1981019190821161175c57565b91939290926121f16121cb846f6890d047ad8c870137858a70716b2c6b6010525f5260305f2090565b60643581556121d981612178565b60843590556121e781612186565b60a4359055612194565b60c4359055612217836f3b2d91718dfb37f9969a1b0670a83e706010525f5260305f2090565b905f915b818310612261575050505061225f92916122376122499260d852565b6106515160101c9060f01b1761064f52565b610104358060040135906024016106e03761244e565b565b612272600191610a52858588612168565b92019161221b565b61228381612707565b9190610740519261077e52610763526107485261074052565b6122a86122bc91612707565b506107685160281c600160d81b0390612962565b90565b60016106e0610128923c565b5f6122ef60d8516f3b2d91718dfb37f9969a1b0670a83e706010525f5260305f2090565b9061060f51916106775160c01c905b805492828460c01c1461239c578267ffffffffffffffff8560801c161461237b578267ffffffffffffffff8560401c161461236257600401928267ffffffffffffffff821614612359576020916001918652019301926122fe565b92949391505052565b67ffffffffffffffff1990931690935250600301919050565b6fffffffffffffffffffffffffffffffff1990931690935250600201919050565b6001600160c01b031990931690935250600101919050565b6123c06122bc91612707565b6107685160281c600160d81b039150612962565b929190604051936b034105b980ba117bd0c29fe06034526028526014525f5260545f2091604052565b61225f9061012860016106e0833c803b610128190160061c6001019061242f826106515160101c9060f01b1761064f52565b6105ef51612573565b1561243f57565b633011642560e01b5f5260045ffd5b60d8515f5260205261225f5f80604081206f67363d3d37363d3df03d5260086018f3825260108083f561248b6001600160a01b0382161515612438565b6106d582610133811961064f5160f01c0160061b6106e05160581c610129820160401b6a61000080600a3d393df3001760a81b17845201925af1612438565b156124d25750565b630610d90760e11b5f5260045260245ffd5b61250760d8516f6890d047ad8c870137858a70716b2c6b6010525f5260305f2090565b8054806106755260018201546106955260028201546106b55261068f5160801c1560d8519061254f575060f01c61ffff810361254857505f19015461065552565b6106555250565b631e657b1d60e01b5f5260045260245ffd5b90610808610129915f190160061b923c565b61012991925f190160061b923c565b6125a560d8516f6890d047ad8c870137858a70716b2c6b6010525f5260305f2090565b6106555161ffff81106125e95750610655515f198201556106775160101c61ffff60f01b17610675525b61067551815561069551600182015560026106b551910155565b61ffff61260391166106775160101c9060f01b1761067552565b6125cf565b156126105750565b631718db0760e31b5f5260045260245ffd5b909190336001600160a01b0382160361263b575b505050565b61265d33826be442b523d9447037e4923f5b6020526014525f526034600c2090565b541561266857505050565b826126749133906123d4565b9182549082821061268e5750600181011561263657039055565b63731555bd60e01b5f523360045260245260445ffd5b91905f5260205260405f20604051915f5260ff600b536020527ff779edcbdc615c777a4cb2bee1bf733055aa41ff7247837d0cd548565f65d0346040526055600b2060145260405261d6945f5260016034536017601e206001600160a01b031690565b6127de906127d890808002908180025f19600160801b808386095f1984870903099061278b61277d612776600f600760681b8802046609c0000000000085040169c918000000000000000086040161276e8580025f19878009621eee11605a1b9190030490565b0196606a1b90565b600f900490565b916624900000000000900490565b5f1993600160b41b936a06df92000000000000000090049190920101600160ff1b01906910000000000000000000828209915f1991090309600160fe1b81830181019291909103016128e5565b60021b90565b808002905f1990800903808002905f1990800903808002905f1990800903808002905f1990800903808002905f1990800903808002905f1990800903808002905f1990800903808002905f1990800903808002905f1990800903808002905f1990800903808002905f1990800903808002905f1990800903808002905f1990800903808002905f199080090361287d61287682612905565b9160281c90565b91565b908082101561288d575090565b905090565b8181101561288d575090565b604080516001600160a01b039283168152602081019590955292935f9392909116917f1b3d7edb2e9c0b0e7c525b20aaaef0f5940d2ed71663c7d39266ecafac72885991a4565b5f198281019283919080600160fe1b850990030191600160fe1b90090890565b5f198181019180600160c11b7ff1aaddd7742e56d32fb9f997447d9e6314db84884fabab26bf059af9bc20b6090990030181600160c11b7ff1aaddd7742e56d32fb9f997447d9e6314db84884fabab26bf059af9bc20b609090890565b905f19827b0ba4f53ea38636f85f007042540ae8ef33225e9a7ab4f4473a86d4a80990827b0ba4f53ea38636f85f007042540ae8ef33225e9a7ab4f4473a86d4a8029182808210910393818514612a265782907b0ba4f53ea38636f85f007042540ae8ef33225e9a7ab4f4473a86d4a8099082805f03168093046002816003021880820260020302808202600203028082026002030280820260020302808202600203028091026002030294600184805f0304019185841191030302920304170290565b50509150049056fed0716769b9821201d69d150facfd6f46f5fd95ac252f6eccb21b7560a01e078bfb342fa999fea16067b1f01baf96673f31a25f2b1443e6754d93fc40b57e8df1a2646970667358221220f75e28ef3555525751bda128e262bb3f32c77156049eb95335a3a62ada93753264736f6c63430008210033","linkReferences":{}},"methodIdentifiers":{"_accruedParamsSlot()":"4b4c4f76","_allowanceSlot()":"efcc4408","_calculateGrowthMultiplier0(int256,int256)":"0a8d43cf","_calculateGrowthMultiplier0(uint256,int256,int256,uint256)":"037aef47","_calculateGrowthMultiplier1(int256,int256)":"2fba011c","_calculateGrowthMultiplier1(uint256,int256,int256,uint256)":"dc65cc2a","_curveSlot()":"a1f32021","_decrementBalance(uint256,bool,uint256,address,uint256,uint256)":"39ea5dd4","_doubleBalanceSlot()":"93a82578","_dynamicParamsSlot()":"53f6fcfa","_getAccruedParamsSlot(uint256)":"766526f4","_getAllowanceSlot(address,address,uint256)":"ce8fab45","_getCurveSlot(uint256)":"60f183ca","_getDoubleBalanceSlot(address,uint256,uint256)":"50647a4c","_getDynamicParamsSlot(uint256)":"d47a54d3","_getGrowthMultiplierSlot(uint256,int256)":"fb0f7b72","_getGrowthPortions(uint256)":"dd808c0d","_getIsOperatorSlot(address,address)":"fd29c9f7","_getPoolOwnerSlot(uint256)":"b7f7dfc9","_getProtocolOwner(uint256)":"4250ea05","_getSharesDeltaSlot(uint256,int256)":"35713e91","_getSharesGrossSlot(uint256)":"3f8fd396","_getSingleBalanceSlot(address,uint256)":"a870307a","_getStaticParamsStorageAddress(address,uint256,uint256)":"f04125ed","_getStaticParamsStorageAddress(uint256,uint256)":"46331f20","_growthMultiplierSlot()":"93e635e9","_incrementBalance(uint256,address,uint256,uint256)":"492e04a8","_isOperatorSlot()":"350ce6ec","_modifySharesDelta(uint256,uint256,int256,int256,int256,int256,int256,int256)":"1ebb8a50","_poolOwnerSlot()":"bee6c99d","_protocolSlot()":"8d7f380e","_readAccruedParams(uint256,uint256)":"8d13f382","_readBoundaries(uint256,uint256)":"268481af","_readCurve(uint256,int256,uint256[])":"0f220f2d","_readDoubleBalance(uint256,uint256)":"0638a445","_readDynamicParams(uint256,uint256,uint256,uint256,uint256)":"69f9d0b7","_readGrowthMultiplier(uint256,uint256)":"c3fb9906","_readGrowthPortions(address,uint256)":"3dc0c836","_readKernel(bytes)":"80af3797","_readKernelLength(bytes)":"4f23f588","_readPoolData0(uint256,uint256,uint256,uint256[4],uint256[],bytes)":"478d7461","_readPoolData1(uint256,uint256)":"1e27bcf5","_readPoolOwner(uint256,address)":"147d6499","_readProtocol(uint256)":"b8c6a87c","_readSentinel(address)":"20522ac1","_readSharesDelta(uint256,uint256)":"138c9d86","_readStaticParams(bytes)":"0e1134a9","_readStaticParamsAndKernel(bytes)":"4663aaa4","_sentinelSlot()":"f1f2fb1f","_sharesDeltaSlot()":"15a72216","_sharesGrossSlot()":"31fb0a77","_singleBalanceSlot()":"e076c3a5","_totalSupplySlot()":"245e6f88","_updateAllowance(bool,uint256,address,uint256,uint256)":"e6e75c9f","_updateTotalSupply(uint256,uint256,uint256,int256,int256,int256)":"7fbb6da0","_writeAccruedParams(uint256,uint256,uint256,int256,int256)":"cb21c717","_writeCurve(uint256,uint256,uint256[])":"0b6a9c40","_writeDoubleBalance(uint256,uint256,uint256)":"70d4a960","_writeDynamicParams(uint256,uint256,uint16,int256,uint256,int256,int256,int256)":"a4d38649","_writeGrowthMultiplier(uint256,uint256)":"2c450a84","_writeGrowthMultipliers(uint256,int256,int256,int256)":"02ae7454","_writePoolOwner(uint256,address)":"67d532a6","_writeProtocol(uint256)":"608efbae","_writeSentinel(address)":"9545a850","_writeStaticParams(uint256,uint256,uint256,uint160,bytes)":"a67fe200"},"id":29}