{"abi":[{"type":"function","name":"equals","inputs":[{"name":"value0","type":"uint256","internalType":"X47"},{"name":"value1","type":"uint256","internalType":"X47"}],"outputs":[{"name":"result","type":"bool","internalType":"bool"}],"stateMutability":"nonpayable"},{"type":"function","name":"greaterThan","inputs":[{"name":"value0","type":"uint256","internalType":"X47"},{"name":"value1","type":"uint256","internalType":"X47"}],"outputs":[{"name":"result","type":"bool","internalType":"bool"}],"stateMutability":"nonpayable"},{"type":"function","name":"greaterThanOrEqualTo","inputs":[{"name":"value0","type":"uint256","internalType":"X47"},{"name":"value1","type":"uint256","internalType":"X47"}],"outputs":[{"name":"result","type":"bool","internalType":"bool"}],"stateMutability":"nonpayable"},{"type":"function","name":"lessThan","inputs":[{"name":"value0","type":"uint256","internalType":"X47"},{"name":"value1","type":"uint256","internalType":"X47"}],"outputs":[{"name":"result","type":"bool","internalType":"bool"}],"stateMutability":"nonpayable"},{"type":"function","name":"lessThanOrEqualTo","inputs":[{"name":"value0","type":"uint256","internalType":"X47"},{"name":"value1","type":"uint256","internalType":"X47"}],"outputs":[{"name":"result","type":"bool","internalType":"bool"}],"stateMutability":"nonpayable"},{"type":"function","name":"maxX47","inputs":[{"name":"value0","type":"uint256","internalType":"X47"},{"name":"value1","type":"uint256","internalType":"X47"}],"outputs":[{"name":"result","type":"uint256","internalType":"X47"}],"stateMutability":"nonpayable"},{"type":"function","name":"minX47","inputs":[{"name":"value0","type":"uint256","internalType":"X47"},{"name":"value1","type":"uint256","internalType":"X47"}],"outputs":[{"name":"result","type":"uint256","internalType":"X47"}],"stateMutability":"nonpayable"},{"type":"function","name":"notEqual","inputs":[{"name":"value0","type":"uint256","internalType":"X47"},{"name":"value1","type":"uint256","internalType":"X47"}],"outputs":[{"name":"result","type":"bool","internalType":"bool"}],"stateMutability":"nonpayable"}],"bytecode":{"object":"0x608080604052346015576101a5908161001a8239f35b5f80fdfe6080806040526004361015610012575f80fd5b5f3560e01c9081632215ea7c146101435750806347b5cd811461012a57806348f24ceb146101115780637da23c70146100ef5780637fafdf5b146100c6578063ca4e89bf146100ac578063d73492a1146100925763fb1dd0e514610074575f80fd5b3461008e57602061008436610159565b6040519111158152f35b5f80fd5b3461008e5760206100a236610159565b6040519110158152f35b3461008e5760206100bc36610159565b6040519114158152f35b3461008e5760206100d636610159565b808210156100e857505b604051908152f35b90506100e0565b3461008e5760206100ff36610159565b90818110156100e85750604051908152f35b3461008e57602061012136610159565b60405191118152f35b3461008e57602061013a36610159565b60405191148152f35b3461008e5760209061015436610159565b118152f35b604090600319011261008e57600435906024359056fea2646970667358221220b519f485409ec52abccc34abe182c3482d9eaeb860cc0daff69f1047188f9b6e64736f6c63430008210033","linkReferences":{}},"methodIdentifiers":{"equals(uint256,uint256)":"47b5cd81","greaterThan(uint256,uint256)":"48f24ceb","greaterThanOrEqualTo(uint256,uint256)":"d73492a1","lessThan(uint256,uint256)":"2215ea7c","lessThanOrEqualTo(uint256,uint256)":"fb1dd0e5","maxX47(uint256,uint256)":"7da23c70","minX47(uint256,uint256)":"7fafdf5b","notEqual(uint256,uint256)":"ca4e89bf"},"id":40}