{"abi":[{"type":"constructor","inputs":[{"name":"_kernelLimit","type":"uint256","internalType":"uint256"},{"name":"_curveLimit","type":"uint256","internalType":"uint256"}],"stateMutability":"nonpayable"},{"type":"function","name":"buildAndIntegrate","inputs":[{"name":"seed_base","type":"bool[3]","internalType":"bool[3]"},{"name":"seed_boundaries","type":"uint64[3]","internalType":"uint64[3]"},{"name":"seed_kernel","type":"uint88[]","internalType":"uint88[]"},{"name":"seed_curve","type":"uint64[]","internalType":"uint64[]"}],"outputs":[],"stateMutability":"nonpayable"},{"type":"function","name":"buildWithSpacingAndIntegrate","inputs":[{"name":"qSpacing","type":"int256","internalType":"X59"},{"name":"seed_base","type":"bool[3]","internalType":"bool[3]"},{"name":"seed_boundaries","type":"uint64[3]","internalType":"uint64[3]"},{"name":"seed_kernel","type":"uint88[]","internalType":"uint88[]"},{"name":"seed_curve","type":"uint64[]","internalType":"uint64[]"}],"outputs":[],"stateMutability":"nonpayable"},{"type":"function","name":"currentToOrigin_reference","inputs":[],"outputs":[{"name":"","type":"int256","internalType":"X216"}],"stateMutability":"view"},{"type":"function","name":"currentToTarget_reference","inputs":[],"outputs":[{"name":"","type":"int256","internalType":"X216"}],"stateMutability":"view"},{"type":"function","name":"incomingCurrentToTarget_reference","inputs":[],"outputs":[{"name":"","type":"int256","internalType":"X216"}],"stateMutability":"view"},{"type":"function","name":"originToOvershoot_reference","inputs":[],"outputs":[{"name":"","type":"int256","internalType":"X216"}],"stateMutability":"view"}],"bytecode":{"object":"0x60c034606957601f61126e38819003918201601f19168301916001600160401b03831184841017606d578084926040948552833981010312606957602081519101519060805260a0526040516111ec90816100828239608051816104c8015260a05181610d370152f35b5f80fd5b634e487b7160e01b5f52604160045260245ffdfe60806040526004361015610011575f80fd5b5f3560e01c806329bd432a146100745780634a33f20a1461006f5780637fc1946d1461006a57806380ac802914610065578063ea1cd6f7146100605763fefcd4671461005b575f80fd5b61020c565b6101ef565b610154565b610138565b6100c5565b34610090575f3660031901126100905760035460805260206080f35b5f80fd5b9181601f840112156100905782359167ffffffffffffffff8311610090576020808501948460051b01011161009057565b34610090576101203660031901126100905736608411610090573660e4116100905760e43567ffffffffffffffff811161009057610107903690600401610094565b906101043567ffffffffffffffff811161009057610129903690600401610094565b9290916084602460043561024b565b34610090575f3660031901126100905760205f54604051908152f35b34610090576101003660031901126100905736606411610090573660c4116100905760c43567ffffffffffffffff811161009057610196903690600401610094565b9060e43567ffffffffffffffff8111610090576101b7903690600401610094565b929091606460046101ea6101ca83610229565b67555554555555555567ffffffffffffffff650100000000009216060190565b61024b565b34610090575f366003190112610090576020600154604051908152f35b34610090575f366003190112610090576020600254604051908152f35b3567ffffffffffffffff811681036100905790565b3580151581036100905790565b9295919361028861028361027c61026460208901610229565b87800167ffffffffffffffff03906001890190610471565b9660400190565b610229565b610290610c10565b9161029f5f1987018093610428565b835d82915f906102ae836104c6565b935b84831061033157505050610306986102e1936102fd95936102f7936102d48661023e565b8a6102e66020890161023e565b61023e565b926102f181886104f9565b96610625565b60400190565b91830193610863565b61030e610961565b610316610a2c565b61060f516106515160ed1c6207fff816016105ee19016105eff35b9091946103618361035c61034f8f8a8961034a9261048a565b6104ae565b67ffffffffffffffff1690565b610428565b9061036a610c10565b9180835d815c811361038f5750906103856001928260010155565b955b0191906102b0565b80849298945c125f146103b15750906103ab8160019360010155565b91610387565b9a96929995919894909b9793836001850154905b8d815c13801561040a575b156103e157506001810154906103c5565b61040592969a9e95999d509a6103ff816001969a9e95999d60010155565b60010155565b610387565b508d825c126103d0565b634e487b7160e01b5f52601260045260245ffd5b8160011291825f1461046957600180935b1561045f576001915b030190811561045a5767ffffffffffffffff16060190565b610414565b6001809250610442565b808093610439565b906001906104426104828583610bf7565b948592610c04565b919081101561049a5760051b0190565b634e487b7160e01b5f52603260045260245ffd5b356affffffffffffffffffffff811681036100905790565b7f000000000000000000000000000000000000000000000000000000000000000090818111156104f4575090565b905090565b919091610504610c10565b905f825d81905f925b610516866104c6565b8410156105f75761055561054661053f61053461034a888b8861048a565b60401c62ffffff1690565b61ffff1690565b61ffff617fff91160660010190565b9061055e610c10565b9180835d815c81116105825750906105796001928260010155565b935b019261050d565b80859296955c105f146105a457509061059e8160019360010155565b9261057b565b95909691939480976001820154985b805c891080156105ed575b156105cf57506001890154986105b3565b6105e89297939850956103ff816001969b939860010155565b61057b565b50888a5c106105be565b9450505050565b634e487b7160e01b5f52601160045260245ffd5b5f1981019190821161062057565b6105fe565b9296919594828661063592610c2a565b916106426108086105ef52565b6001978015610829575b610813575b60018310156106c0575b505050509161069393918360019490156106ae575b610695575b506106809082610ce6565b016106515160101c9060f01b1761064f52565b565b61068091926106a685925c82610ce6565b019190610675565b50640100000000815c83031315610670565b9590935f989297959398965b6106d589610612565b8810156107fa576001015493878a6107196107096107036106fa61034a868d8761048a565b60501c60ff1690565b60011690565b6affffffffffffffffffffff1690565b1580156107da575b6107a7575b61070361073d61034a610746948b6107099561048a565b60541c600f1690565b158015610787575b610762575b600190810154970196936106cc565b95600180806106d59361077c828c01545c8a5c9083610d22565b019892505050610753565b506107a264010000000060018301545c835c90031315151590565b61074e565b9761070361073d61034a610746948b6001610709966107cb8e8b5c905c9083610d22565b019d9550509450505050610726565b506107f564010000000060018501545c855c90031315151590565b610721565b509197509395509293509190508160016106935f61065b565b9650610821875c865c610cb4565b600296610651565b50640100000000865c131561064c565b906008820180921161062057565b906040820180921161062057565b5f1981146106205760010190565b926105ef515f1961064f5160f01c0160061b01926108818461060f52565b156109575761089a9094925b85939560c01b8152610839565b916108ac5f935b8660c01b8152610839565b946108b683610d35565b8414610940576108c68183610bf7565b916108d3825f1992610c04565b019081831461090f576109006108ac92610907929460016108f86102838a8a8d61048a565b910190610471565b9294610855565b9391956108a1565b5050505061093b9150916109366002610693945b016106535160101c9060f01b1761065152565b610847565b604052565b50505061093b915091610936600261069394610923565b9161089a9061088d565b5f80555f5f1961064f5160f01c01906105ef5161060f51610998610986825160c01c90565b600883015160c01c121590565b121590565b925b8481106109a8575050505050565b806109f66109b860019386610d63565b5091929150806109ca85870189610d63565b505080939193928b5f146109ff575050600888015160c01c91820392910390829082905b5f5496610dc5565b015f550161099a565b91509150610a11886008015160c01c90565b01918291610a23896008015160c01c90565b019283916109ee565b610a355f600155565b610a3e5f600255565b610a475f600355565b5f196106515160f01c019061060f5190610a7983610a6c81859060031b015160c01c90565b939060031b015160c01c90565b9161060f51935f1961064f5160f01c01926105ef5192610ab7610ab261060f51610993610aa7825160c01c90565b916008015160c01c90565b151590565b925b60018110610bed575f1901600381901b88015160c01c9692909180881285811490858a5f5b8a8c8210610af457505050505050509190610ab9565b86600193610b028484610d63565b5050610b15819492949588880190610d63565b505080969196928b5f14610bb8575050610b3c92610b42918a039384938b03948592610bf7565b94610c04565b94858412610bad575b8a15610b8e57918183610b7787610b718a89878f99610b869e9b610b809d9b5496610e92565b01600155565b60035496610dc5565b01600355565b018b90610ade565b91610ba29391610ba8969360025496610dc5565b01600255565b610b86565b505050505050610b86565b610bd394919350610bd992508a019384938b01948592610c04565b94610bf7565b9483861215610b4b57505050505050610b86565b5050945050505050565b90808212156104f4575090565b818112156104f4575090565b5f5c5f5260205f2090815f5d565b8015610620575f190190565b92919280935f925b828410610c3f5750505050565b90919294815c600183015490815c148015610ca5575b15610c935750610c8860019182840183815401549055610c83610c7c848701546001015490565b8660010155565b610c1e565b955b01929190610c32565b60019196939250819092015492610c8a565b50835c60018501545c14610c55565b6105ef5191610cc282610f48565b939092601f1982019384519560208401526005830152601519820152601d19015252565b6105ef519060061b0190618000610cfc82610f48565b939092605f19820193845195601f19840152603a19830152605519820152605d19015252565b6105ef519060061b0191610cfc82610f48565b7f000000000000000000000000000000000000000000000000000000000000000090818111156104f4575090565b905f808215610d9c57505060061b0190603f1982015160f01c91603d1981015160c01c9160351982015160281c91601a19015160281c90565b9093909250600160d81b91507801e355bbaee85cada65f73f32e88fb3cc629b709109f57564d90565b610de3955f9594909392818403610de6575b505050505050600f1c90565b90565b909192938581969750125f14610e4c578385846001603c1b93610e308a8686610e1c610e15610e3e9e9f610f48565b5097610f48565b509a8b950399039a8b9203018802856110c1565b9203020196030102906110c1565b90035b5f8080808080610dd7565b91610e8b9486826001603c1b969893610e30610e688996610f48565b949050610e7486610f48565b998a94915003978c03998a918d03018802856110c1565b9003610e41565b610de3955f95919392909190858403610eb157505050505050600f1c90565b909180939495965082125f14610f0d57610e3e9492826001603c1b959392610efe610edc8895610f48565b939050610ee885610f48565b9890508303968b039889918c03018702846110c1565b918603020196030102906110c1565b85826001603c1b92610efe610f28610e8b99979a9896610f48565b50928585610f358d610f48565b509985039803998a9203018702846110c1565b61101f9061101990808002908180025f19600160801b808386095f19848709030990610fcc610fbe610fb7600f600760681b8802046609c0000000000085040169c9180000000000000000860401610faf8580025f19878009621eee11605a1b9190030490565b0196606a1b90565b600f900490565b916624900000000000900490565b5f1993600160b41b936a06df92000000000000000090049190920101600160ff1b01906910000000000000000000828209915f1991090309600160fe1b8183018101929190910301611139565b60021b90565b808002905f1990800903808002905f1990800903808002905f1990800903808002905f1990800903808002905f1990800903808002905f1990800903808002905f1990800903808002905f1990800903808002905f1990800903808002905f1990800903808002905f1990800903808002905f1990800903808002905f1990800903808002905f19908009036110be6110b782611159565b9160281c90565b91565b915f19828409828402928380831092039482861461113057908391099082805f03168093046002816003021880820260020302808202600203028082026002030280820260020302808202600203028091026002030294600184805f0304019185841191030302920304170290565b50505091500490565b5f198281019283919080600160fe1b850990030191600160fe1b90090890565b5f198181019180600160c11b7ff1aaddd7742e56d32fb9f997447d9e6314db84884fabab26bf059af9bc20b6090990030181600160c11b7ff1aaddd7742e56d32fb9f997447d9e6314db84884fabab26bf059af9bc20b60909089056fea26469706673582212209bc7213153c1b72ae2644e5a33617f0edb015b1953e22615cb80f47db56ff66364736f6c63430008210033","linkReferences":{}},"methodIdentifiers":{"buildAndIntegrate(bool[3],uint64[3],uint88[],uint64[])":"80ac8029","buildWithSpacingAndIntegrate(int256,bool[3],uint64[3],uint88[],uint64[])":"4a33f20a","currentToOrigin_reference()":"fefcd467","currentToTarget_reference()":"29bd432a","incomingCurrentToTarget_reference()":"ea1cd6f7","originToOvershoot_reference()":"7fc1946d"},"id":85}