{"abi":[{"type":"function","name":"add","inputs":[{"name":"value0","type":"uint256","internalType":"X23"},{"name":"value1","type":"uint256","internalType":"X23"}],"outputs":[{"name":"result","type":"uint256","internalType":"X23"}],"stateMutability":"nonpayable"},{"type":"function","name":"sub","inputs":[{"name":"value0","type":"uint256","internalType":"X23"},{"name":"value1","type":"uint256","internalType":"X23"}],"outputs":[{"name":"result","type":"uint256","internalType":"X23"}],"stateMutability":"nonpayable"}],"bytecode":{"object":"0x6080806040523460135760a7908160188239f35b5f80fdfe60808060405260043610156011575f80fd5b5f3560e01c908163771602f7146049575063b67d77c514602f575f80fd5b346045576020603c36605c565b60405191038152f35b5f80fd5b34604557602090605736605c565b018152f35b6040906003190112604557600435906024359056fea2646970667358221220499387b1296064d24ee389dd1dd5dde0e9339acac982efb0f094e43dd6734a0064736f6c63430008210033","linkReferences":{}},"methodIdentifiers":{"add(uint256,uint256)":"771602f7","sub(uint256,uint256)":"b67d77c5"},"id":39}