{"abi":[{"type":"function","name":"_calculateGrowthPortion","inputs":[{"name":"protocolGrowthPortion","type":"uint256","internalType":"X47"},{"name":"poolGrowthPortion","type":"uint256","internalType":"X47"},{"name":"increment","type":"int256","internalType":"X127"},{"name":"currentAccrued","type":"int256","internalType":"X127"},{"name":"currentPoolRatio","type":"uint256","internalType":"X23"}],"outputs":[{"name":"updatedAccrued","type":"int256","internalType":"X127"},{"name":"updatedPoolRatio","type":"uint256","internalType":"X23"}],"stateMutability":"nonpayable"},{"type":"function","name":"_isGrowthPortion","inputs":[{"name":"protocolGrowthPortion","type":"uint256","internalType":"X47"},{"name":"poolGrowthPortion","type":"uint256","internalType":"X47"}],"outputs":[{"name":"result","type":"bool","internalType":"bool"}],"stateMutability":"nonpayable"},{"type":"error","name":"AccruedGrowthPortionOverflow","inputs":[{"name":"accruedValue","type":"int256","internalType":"X127"}]}],"bytecode":{"object":"0x608080604052346015576101e6908161001a8239f35b5f80fdfe60806040526004361015610011575f80fd5b5f3560e01c8063224939c7146100345763339a0fd41461002f575f80fd5b6100a6565b346100a25760403660031901126100a257610076600435610064602435916108065160301c9060d01b1761080052565b6107fa5160301c9060d01b176107f452565b6107f45160d01c15801590610093575b6020906040519015158152f35b506108005160d01c1515610086565b5f80fd5b346100a25760a03660031901126100a2576108065160301c60043560d01b17610800526064356044356084356100dd602435610064565b5f9261080051926b7fffffffffff8000000000006107f45160d01c8560d01c6580000000000003029460a11c1684015f1990600160a21b905f19906001605e1b81860919905f1990860908098201936101398584811215610196565b61014d856001600160e71b03811315610196565b5f8513610165575b6040805186815260208101889052f35b93945084935f1991600160a21b9183916001605e1b82820919915f199109080960171b91020104905f808080610155565b1561019e5750565b631718db0760e31b5f5260045260245ffdfea2646970667358221220152bcaaa3bf757fffa135e184ef2a28b518633433c3e4846a66a8bfe4b17eeca64736f6c63430008210033","linkReferences":{}},"methodIdentifiers":{"_calculateGrowthPortion(uint256,uint256,int256,int256,uint256)":"339a0fd4","_isGrowthPortion(uint256,uint256)":"224939c7"},"id":16}