{"abi":[{"type":"function","name":"updateGrowthWrapper","inputs":[{"name":"_growth","type":"int256","internalType":"X111"},{"name":"_protocolGrowthPortion","type":"uint256","internalType":"X47"},{"name":"_poolGrowthPortion","type":"uint256","internalType":"X47"},{"name":"numerator","type":"int256","internalType":"X216"},{"name":"denominator","type":"int256","internalType":"X216"}],"outputs":[{"name":"updatedGrowth","type":"int256","internalType":"X111"}],"stateMutability":"nonpayable"},{"type":"error","name":"GrowthOverflow","inputs":[]}],"bytecode":{"object":"0x6080806040523460155761019f908161001a8239f35b5f80fdfe60806040526004361015610011575f80fd5b5f3560e01c639472f83d14610024575f80fd5b346100c95760a03660031901126100c9576100c56004356100a160243560443560643590608435926108065160301c9060d01b17610800526107fa5160301c9060d01b17806107f452846108005160d01c0285602f1b03809160d01c0290602f1b0361009c8361009484846100e3565b9050106100cd565b6100f7565b605e1c016100b56001607f1b8213156100cd565b6040519081529081906020820190565b0390f35b5f80fd5b156100d457565b636dd3b1dd60e11b5f5260045ffd5b91905f198184099202918280821091030390565b909161010383836100e3565b9390928415610161579082910981805f03168092046002816003021880820260020302808202600203028082026002030280820260020302808202600203028091026002030293600183805f03040190848311900302920304170290565b50509150049056fea26469706673582212201978656afa1cacc7bcad84fe94163514d423dce65de7fa36c97b313d6ec4671c64736f6c63430008210033","linkReferences":{}},"methodIdentifiers":{"updateGrowthWrapper(int256,uint256,uint256,int256,int256)":"9472f83d"},"id":17}