{"abi":[{"type":"function","name":"_readAccruedParams","inputs":[{"name":"nofeeswap","type":"address","internalType":"contract IStorageAccess"},{"name":"poolId","type":"uint256","internalType":"uint256"}],"outputs":[{"name":"poolRatio0","type":"uint256","internalType":"X23"},{"name":"poolRatio1","type":"uint256","internalType":"X23"},{"name":"accrued0","type":"uint256","internalType":"uint256"},{"name":"accrued1","type":"uint256","internalType":"uint256"}],"stateMutability":"view"},{"type":"function","name":"_readCurve","inputs":[{"name":"nofeeswap","type":"address","internalType":"contract IStorageAccess"},{"name":"poolId","type":"uint256","internalType":"uint256"},{"name":"logPriceCurrent","type":"int256","internalType":"X59"}],"outputs":[{"name":"","type":"uint256[]","internalType":"uint256[]"}],"stateMutability":"nonpayable"},{"type":"function","name":"_readDoubleBalance","inputs":[{"name":"nofeeswap","type":"address","internalType":"contract IStorageAccess"},{"name":"owner","type":"address","internalType":"address"},{"name":"tag0","type":"uint256","internalType":"Tag"},{"name":"tag1","type":"uint256","internalType":"Tag"}],"outputs":[{"name":"doubleBalance","type":"uint256","internalType":"uint256"}],"stateMutability":"view"},{"type":"function","name":"_readDynamicParams","inputs":[{"name":"nofeeswap","type":"address","internalType":"contract IStorageAccess"},{"name":"poolId","type":"uint256","internalType":"uint256"}],"outputs":[{"name":"staticParamsStoragePointerExtension","type":"uint256","internalType":"uint256"},{"name":"staticParamsStoragePointer","type":"uint16","internalType":"uint16"},{"name":"logPriceCurrent","type":"int256","internalType":"X59"},{"name":"sharesTotal","type":"uint256","internalType":"uint256"},{"name":"growth","type":"int256","internalType":"X111"},{"name":"integral0","type":"int256","internalType":"X216"},{"name":"integral1","type":"int256","internalType":"X216"}],"stateMutability":"view"},{"type":"function","name":"_readGrowthMultiplier","inputs":[{"name":"nofeeswap","type":"address","internalType":"contract IStorageAccess"},{"name":"poolId","type":"uint256","internalType":"uint256"},{"name":"logPrice","type":"int256","internalType":"X59"}],"outputs":[{"name":"growthMultiplier","type":"uint256","internalType":"X208"}],"stateMutability":"view"},{"type":"function","name":"_readKernel","inputs":[{"name":"nofeeswap","type":"address","internalType":"address"},{"name":"poolId","type":"uint256","internalType":"uint256"},{"name":"pointer","type":"uint256","internalType":"uint256"}],"outputs":[{"name":"","type":"uint256[]","internalType":"uint256[]"}],"stateMutability":"view"},{"type":"function","name":"_readPoolOwner","inputs":[{"name":"nofeeswap","type":"address","internalType":"contract IStorageAccess"},{"name":"poolId","type":"uint256","internalType":"uint256"}],"outputs":[{"name":"owner","type":"address","internalType":"address"}],"stateMutability":"view"},{"type":"function","name":"_readProtocol","inputs":[{"name":"nofeeswap","type":"address","internalType":"contract IStorageAccess"}],"outputs":[{"name":"protocol","type":"uint256","internalType":"uint256"}],"stateMutability":"view"},{"type":"function","name":"_readSentinel","inputs":[{"name":"nofeeswap","type":"address","internalType":"contract IStorageAccess"}],"outputs":[{"name":"sentinel","type":"address","internalType":"address"}],"stateMutability":"view"},{"type":"function","name":"_readSharesDelta","inputs":[{"name":"nofeeswap","type":"address","internalType":"contract IStorageAccess"},{"name":"poolId","type":"uint256","internalType":"uint256"},{"name":"logPrice","type":"int256","internalType":"X59"}],"outputs":[{"name":"sharesDelta","type":"int256","internalType":"int256"}],"stateMutability":"view"},{"type":"function","name":"_readSharesGross","inputs":[{"name":"nofeeswap","type":"address","internalType":"contract IStorageAccess"},{"name":"poolId","type":"uint256","internalType":"uint256"}],"outputs":[{"name":"sharesGross","type":"int256","internalType":"int256"}],"stateMutability":"view"},{"type":"function","name":"_readStaticParams0","inputs":[{"name":"nofeeswap","type":"address","internalType":"address"},{"name":"poolId","type":"uint256","internalType":"uint256"},{"name":"pointer","type":"uint256","internalType":"uint256"}],"outputs":[{"name":"tag0","type":"uint256","internalType":"Tag"},{"name":"tag1","type":"uint256","internalType":"Tag"},{"name":"sqrtOffset","type":"int256","internalType":"X127"},{"name":"sqrtInverseOffset","type":"int256","internalType":"X127"},{"name":"sqrtSpacing","type":"int256","internalType":"X216"},{"name":"sqrtInverseSpacing","type":"int256","internalType":"X216"}],"stateMutability":"view"},{"type":"function","name":"_readStaticParams1","inputs":[{"name":"nofeeswap","type":"address","internalType":"address"},{"name":"poolId","type":"uint256","internalType":"uint256"},{"name":"pointer","type":"uint256","internalType":"uint256"}],"outputs":[{"name":"outgoingMax","type":"int256","internalType":"X216"},{"name":"outgoingMaxModularInverse","type":"uint256","internalType":"uint256"},{"name":"incomingMax","type":"int256","internalType":"X216"},{"name":"poolGrowthPortion","type":"uint256","internalType":"X47"},{"name":"maxPoolGrowthPortion","type":"uint256","internalType":"X47"},{"name":"protocolGrowthPortion","type":"uint256","internalType":"X47"},{"name":"pendingKernelLength","type":"uint256","internalType":"Index"}],"stateMutability":"view"}],"bytecode":{"object":"0x60808060405234601557610b3c908161001a8239f35b5f80fdfe60806040526004361015610011575f80fd5b5f3560e01c806304d78e08146100e45780630d030c0d146100df57806320522ac1146100da5780632d34a98d146100d55780633d9dd359146100d05780633f855ef3146100cb57806348afca83146100c65780634b72f01e146100c15780639f9ae942146100bc578063bda7426b146100b7578063c807fe0a146100b2578063d1f01506146100ad5763f625c432146100a8575f80fd5b610991565b610929565b61089a565b6107ff565b6107a2565b610542565b6104bd565b610434565b6103bb565b610333565b610284565b61022d565b6100fe565b6001600160a01b038116036100fa57565b5f80fd5b346100fa5760403660031901126100fa5761015e6020600435610120816100e9565b6024356f5e1c6265e3e30cea650443fb20ef1ef96010525f5260305f20906040518080958194631352ea3560e01b8352600483019190602083019252565b03916001600160a01b03165afa8015610205576101d2915f916101d6575b5060405191816cffffffffffffffffffffffffff849360681c16906cffffffffffffffffffffffffff81169062ffffff8160e81c9160d01c16859094939260609260808301968352602083015260408201520152565b0390f35b6101f8915060203d6020116101fe575b6101f08183610a10565b810190610a46565b5f61017c565b503d6101e6565b610a55565b60609060031901126100fa57600435610222816100e9565b906024359060443590565b346100fa57600161025b6102403661020a565b9192919061012819610253838387610aa3565b3b0193610aa3565b6101296040603f198416923c60205f5260028260fb1b038160051c1660205260061c0160061b5ff35b346100fa5760203660031901126100fa57602460206004356102a5816100e9565b604051631352ea3560e01b81527fd0716769b9821201d69d150facfd6f46f5fd95ac252f6eccb21b7560a01e078b600482015292839182906001600160a01b03165afa8015610205576101d2915f91610314575b506040516001600160a01b0390911681529081906020820190565b61032d915060203d6020116101fe576101f08183610a10565b5f6102f9565b346100fa576103413661020a565b671447e579411c2c936010526008525f52602060305f20602460405180948193631352ea3560e01b8352600483015260018060a01b03165afa8015610205576101d2915f9161039c575b506040519081529081906020820190565b6103b5915060203d6020116101fe576101f08183610a10565b5f61038b565b346100fa5761012860016106e06103da6103d43661020a565b91610aa3565b3c60e061079e5160281c6107b9516107d95160281c6107f45160d01c6107fa5160d01c906108005160d01c926108065160f01c94604051968752602087015260408601526060850152608084015260a083015260c0820152f35b346100fa5760403660031901126100fa57600435610451816100e9565b6024356f68e919334073168f7b6f6d0178986a646010525f52602060305f20602460405180948193631352ea3560e01b8352600483015260018060a01b03165afa8015610205576101d2915f9161031457506040516001600160a01b0390911681529081906020820190565b346100fa5760203660031901126100fa57602460206004356104de816100e9565b604051631352ea3560e01b81527ffb342fa999fea16067b1f01baf96673f31a25f2b1443e6754d93fc40b57e8df1600482015292839182906001600160a01b03165afa8015610205576101d2915f9161039c57506040519081529081906020820190565b346100fa5760403660031901126100fa576105b8600435610562816100e9565b6024359060018060a01b03166020610599610594846f6890d047ad8c870137858a70716b2c6b6010525f5260305f2090565b610a74565b60405180958192631352ea3560e01b8352600483019190602083019252565b0381845afa8015610205576105f6935f91610783575b50610655526020610599836f6890d047ad8c870137858a70716b2c6b6010525f5260305f2090565b0381845afa80156102055761063c935f91610764575b50610675526020610599610637846f6890d047ad8c870137858a70716b2c6b6010525f5260305f2090565b610a87565b0381845afa80156102055761067e602093610683926106a4965f91610747575b50610695526f6890d047ad8c870137858a70716b2c6b6010525f5260305f2090565b610a95565b906040518080958194631352ea3560e01b8352600483019190602083019252565b03915afa908115610205575f91610728575b506106b552610655516106755160f01c906101d26106775160c01c61067f5160801c61068f5160801c61069f5160281c916106ba5160281c936040519788978893909796959261ffff60c0969360e087019a875216602086015260408501526060840152608083015260a08201520152565b610741915060203d6020116101fe576101f08183610a10565b5f6106b6565b61075e9150863d88116101fe576101f08183610a10565b5f61065c565b61077d915060203d6020116101fe576101f08183610a10565b5f61060c565b61079c915060203d6020116101fe576101f08183610a10565b5f6105ce565b346100fa5761012860016106e06107bb6103d43661020a565b3c60c06106e0516107005161072051610740516107685160281c916107835160281c93604051958652602086015260408501526060840152608083015260a0820152f35b346100fa5760803660031901126100fa5760043561081c816100e9565b60206024359161082b836100e9565b604080516bc8f78086c3211e71a328e7f5825260349490945260643583526044355f9081526060902090849052631352ea3560e01b84526004840152829060249082906001600160a01b03165afa8015610205576101d2915f9161039c57506040519081529081906020820190565b346100fa576108a83661020a565b906f3b2d91718dfb37f9969a1b0670a83e706010525f5260305f2090600190604091631352ea355f525b836020526020806024601c5f895af15067ffffffffffffffff602080519485815201931682811461091e571561090e57600193840193016108d2565b92505091505b60205f526020525ff35b509250509150610914565b346100fa576109373661020a565b67d7cb7a927a838d416010526008525f52602060305f20602460405180948193631352ea3560e01b8352600483015260018060a01b03165afa8015610205576101d2915f9161039c57506040519081529081906020820190565b346100fa5760403660031901126100fa576004356109ae816100e9565b6024356fa20d6232b6352d00abc0d966e2bcfb8a6010525f52602060305f20602460405180948193631352ea3560e01b8352600483015260018060a01b03165afa8015610205576101d2915f9161039c57506040519081529081906020820190565b90601f8019910116810190811067ffffffffffffffff821117610a3257604052565b634e487b7160e01b5f52604160045260245ffd5b908160209103126100fa575190565b6040513d5f823e3d90fd5b634e487b7160e01b5f52601160045260245ffd5b5f19810191908211610a8257565b610a60565b9060018201809211610a8257565b9060028201809211610a8257565b91905f5260205260405f20604051915f5260ff600b536020527ff779edcbdc615c777a4cb2bee1bf733055aa41ff7247837d0cd548565f65d0346040526055600b2060145260405261d6945f5260016034536017601e206001600160a01b03169056fea26469706673582212201956aa3deb8b1f10db7fb4504d03dc76c30426763b21766d8f7825d4bef4fa6464736f6c63430008210033","linkReferences":{}},"methodIdentifiers":{"_readAccruedParams(address,uint256)":"04d78e08","_readCurve(address,uint256,int256)":"c807fe0a","_readDoubleBalance(address,address,uint256,uint256)":"bda7426b","_readDynamicParams(address,uint256)":"4b72f01e","_readGrowthMultiplier(address,uint256,int256)":"2d34a98d","_readKernel(address,uint256,uint256)":"0d030c0d","_readPoolOwner(address,uint256)":"3f855ef3","_readProtocol(address)":"48afca83","_readSentinel(address)":"20522ac1","_readSharesDelta(address,uint256,int256)":"d1f01506","_readSharesGross(address,uint256)":"f625c432","_readStaticParams0(address,uint256,uint256)":"9f9ae942","_readStaticParams1(address,uint256,uint256)":"3d9dd359"},"id":91}