{"abi":[{"type":"function","name":"_midBurn","inputs":[],"outputs":[{"name":"","type":"uint256","internalType":"uint256"}],"stateMutability":"view"},{"type":"function","name":"_midDonate","inputs":[],"outputs":[{"name":"","type":"uint256","internalType":"uint256"}],"stateMutability":"view"},{"type":"function","name":"_midMint","inputs":[],"outputs":[{"name":"","type":"uint256","internalType":"uint256"}],"stateMutability":"view"},{"type":"function","name":"_midModifyKernel","inputs":[],"outputs":[{"name":"","type":"uint256","internalType":"uint256"}],"stateMutability":"view"},{"type":"function","name":"_midSwap","inputs":[],"outputs":[{"name":"","type":"uint256","internalType":"uint256"}],"stateMutability":"view"},{"type":"function","name":"_postBurn","inputs":[],"outputs":[{"name":"","type":"uint256","internalType":"uint256"}],"stateMutability":"view"},{"type":"function","name":"_postDonate","inputs":[],"outputs":[{"name":"","type":"uint256","internalType":"uint256"}],"stateMutability":"view"},{"type":"function","name":"_postInitialize","inputs":[],"outputs":[{"name":"","type":"uint256","internalType":"uint256"}],"stateMutability":"view"},{"type":"function","name":"_postMint","inputs":[],"outputs":[{"name":"","type":"uint256","internalType":"uint256"}],"stateMutability":"view"},{"type":"function","name":"_postModifyKernel","inputs":[],"outputs":[{"name":"","type":"uint256","internalType":"uint256"}],"stateMutability":"view"},{"type":"function","name":"_postSwap","inputs":[],"outputs":[{"name":"","type":"uint256","internalType":"uint256"}],"stateMutability":"view"},{"type":"function","name":"_preBurn","inputs":[],"outputs":[{"name":"","type":"uint256","internalType":"uint256"}],"stateMutability":"view"},{"type":"function","name":"_preDonate","inputs":[],"outputs":[{"name":"","type":"uint256","internalType":"uint256"}],"stateMutability":"view"},{"type":"function","name":"_preInitialize","inputs":[],"outputs":[{"name":"","type":"uint256","internalType":"uint256"}],"stateMutability":"view"},{"type":"function","name":"_preMint","inputs":[],"outputs":[{"name":"","type":"uint256","internalType":"uint256"}],"stateMutability":"view"},{"type":"function","name":"_preModifyKernel","inputs":[],"outputs":[{"name":"","type":"uint256","internalType":"uint256"}],"stateMutability":"view"},{"type":"function","name":"_preSwap","inputs":[],"outputs":[{"name":"","type":"uint256","internalType":"uint256"}],"stateMutability":"view"},{"type":"function","name":"midBurn","inputs":[{"name":"hookInput","type":"bytes","internalType":"bytes"}],"outputs":[{"name":"","type":"bytes4","internalType":"bytes4"}],"stateMutability":"nonpayable"},{"type":"function","name":"midBurnData","inputs":[],"outputs":[{"name":"","type":"bytes","internalType":"bytes"}],"stateMutability":"view"},{"type":"function","name":"midDonate","inputs":[{"name":"hookInput","type":"bytes","internalType":"bytes"}],"outputs":[{"name":"","type":"bytes4","internalType":"bytes4"}],"stateMutability":"nonpayable"},{"type":"function","name":"midDonateData","inputs":[],"outputs":[{"name":"","type":"bytes","internalType":"bytes"}],"stateMutability":"view"},{"type":"function","name":"midMint","inputs":[{"name":"hookInput","type":"bytes","internalType":"bytes"}],"outputs":[{"name":"","type":"bytes4","internalType":"bytes4"}],"stateMutability":"nonpayable"},{"type":"function","name":"midMintData","inputs":[],"outputs":[{"name":"","type":"bytes","internalType":"bytes"}],"stateMutability":"view"},{"type":"function","name":"midModifyKernel","inputs":[{"name":"hookInput","type":"bytes","internalType":"bytes"}],"outputs":[{"name":"","type":"bytes4","internalType":"bytes4"}],"stateMutability":"nonpayable"},{"type":"function","name":"midModifyKernelData","inputs":[],"outputs":[{"name":"","type":"bytes","internalType":"bytes"}],"stateMutability":"view"},{"type":"function","name":"midSwap","inputs":[{"name":"hookInput","type":"bytes","internalType":"bytes"}],"outputs":[{"name":"","type":"bytes4","internalType":"bytes4"}],"stateMutability":"nonpayable"},{"type":"function","name":"midSwapData","inputs":[],"outputs":[{"name":"","type":"bytes","internalType":"bytes"}],"stateMutability":"view"},{"type":"function","name":"postBurn","inputs":[{"name":"hookInput","type":"bytes","internalType":"bytes"}],"outputs":[{"name":"","type":"bytes4","internalType":"bytes4"}],"stateMutability":"nonpayable"},{"type":"function","name":"postBurnData","inputs":[],"outputs":[{"name":"","type":"bytes","internalType":"bytes"}],"stateMutability":"view"},{"type":"function","name":"postDonate","inputs":[{"name":"hookInput","type":"bytes","internalType":"bytes"}],"outputs":[{"name":"","type":"bytes4","internalType":"bytes4"}],"stateMutability":"nonpayable"},{"type":"function","name":"postDonateData","inputs":[],"outputs":[{"name":"","type":"bytes","internalType":"bytes"}],"stateMutability":"view"},{"type":"function","name":"postInitialize","inputs":[{"name":"hookInput","type":"bytes","internalType":"bytes"}],"outputs":[{"name":"","type":"bytes4","internalType":"bytes4"}],"stateMutability":"nonpayable"},{"type":"function","name":"postInitializeData","inputs":[],"outputs":[{"name":"","type":"bytes","internalType":"bytes"}],"stateMutability":"view"},{"type":"function","name":"postMint","inputs":[{"name":"hookInput","type":"bytes","internalType":"bytes"}],"outputs":[{"name":"","type":"bytes4","internalType":"bytes4"}],"stateMutability":"nonpayable"},{"type":"function","name":"postMintData","inputs":[],"outputs":[{"name":"","type":"bytes","internalType":"bytes"}],"stateMutability":"view"},{"type":"function","name":"postModifyKernel","inputs":[{"name":"hookInput","type":"bytes","internalType":"bytes"}],"outputs":[{"name":"","type":"bytes4","internalType":"bytes4"}],"stateMutability":"nonpayable"},{"type":"function","name":"postModifyKernelData","inputs":[],"outputs":[{"name":"","type":"bytes","internalType":"bytes"}],"stateMutability":"view"},{"type":"function","name":"postSwap","inputs":[{"name":"hookInput","type":"bytes","internalType":"bytes"}],"outputs":[{"name":"","type":"bytes4","internalType":"bytes4"}],"stateMutability":"nonpayable"},{"type":"function","name":"postSwapData","inputs":[],"outputs":[{"name":"","type":"bytes","internalType":"bytes"}],"stateMutability":"view"},{"type":"function","name":"preBurn","inputs":[{"name":"hookInput","type":"bytes","internalType":"bytes"}],"outputs":[{"name":"","type":"bytes4","internalType":"bytes4"}],"stateMutability":"nonpayable"},{"type":"function","name":"preBurnData","inputs":[],"outputs":[{"name":"","type":"bytes","internalType":"bytes"}],"stateMutability":"view"},{"type":"function","name":"preDonate","inputs":[{"name":"hookInput","type":"bytes","internalType":"bytes"}],"outputs":[{"name":"","type":"bytes4","internalType":"bytes4"}],"stateMutability":"nonpayable"},{"type":"function","name":"preDonateData","inputs":[],"outputs":[{"name":"","type":"bytes","internalType":"bytes"}],"stateMutability":"view"},{"type":"function","name":"preInitialize","inputs":[{"name":"hookInput","type":"bytes","internalType":"bytes"}],"outputs":[{"name":"","type":"bytes4","internalType":"bytes4"}],"stateMutability":"nonpayable"},{"type":"function","name":"preInitializeData","inputs":[],"outputs":[{"name":"","type":"bytes","internalType":"bytes"}],"stateMutability":"view"},{"type":"function","name":"preMint","inputs":[{"name":"hookInput","type":"bytes","internalType":"bytes"}],"outputs":[{"name":"","type":"bytes4","internalType":"bytes4"}],"stateMutability":"nonpayable"},{"type":"function","name":"preMintData","inputs":[],"outputs":[{"name":"","type":"bytes","internalType":"bytes"}],"stateMutability":"view"},{"type":"function","name":"preModifyKernel","inputs":[{"name":"hookInput","type":"bytes","internalType":"bytes"}],"outputs":[{"name":"","type":"bytes4","internalType":"bytes4"}],"stateMutability":"nonpayable"},{"type":"function","name":"preModifyKernelData","inputs":[],"outputs":[{"name":"","type":"bytes","internalType":"bytes"}],"stateMutability":"view"},{"type":"function","name":"preSwap","inputs":[{"name":"hookInput","type":"bytes","internalType":"bytes"}],"outputs":[{"name":"","type":"bytes4","internalType":"bytes4"}],"stateMutability":"nonpayable"},{"type":"function","name":"preSwapData","inputs":[],"outputs":[{"name":"","type":"bytes","internalType":"bytes"}],"stateMutability":"view"},{"type":"error","name":"InvalidHook","inputs":[]}],"bytecode":{"object":"0x60808060405234601557612ad3908161001a8239f35b5f80fdfe60806040526004361015610011575f80fd5b5f3560e01c806301b6f3801461290c57806313a6d3411461279957806314ea355b146126265780631da0c40d146124b357806322d2b363146123f55780633385ea72146123375780633a70355414612279578063411bc2d41461225c5780635279ad9d146120e95780635413dc711461202b57806359350e8a14611eb85780635c94787e14611e9b5780635e2b908e14611d285780635eac6a2d14611bb55780635ef4fd3214611af7578063639f893414611ada5780636bbda61314611abd5780636f7e311414611aa1578063716a5da41461192e5780637ec4a7fc146117bb57806380114eae1461179e578063801b2eba1461162b578063843343a61461156d57806384c305f0146115505780638652cc3914611533578063886d1a5b1461147557806391a288cd146113b7578063921fc60d146112f95780639663232b146112dc5780639c8d29751461121e5780639fc41e54146110ab578063a033cb121461108e578063a048233f14610f1b578063a38f588e14610efe578063bbe0860314610ee1578063bf0e78db14610d6e578063c0208dc514610d51578063c25be08514610c93578063c408311014610bd5578063c5e24e9914610bb8578063cae7264614610afa578063cb5e731814610987578063cb832cc71461096a578063d243037e146107f7578063d2aeca82146107da578063d54742bf146107bd578063d8eea910146106ff578063df97e5a714610625578063f16c1940146104b4578063f3a79207146103415763f6ea3b621461024a575f80fd5b3461033d575f36600319011261033d576040515f60185461026a816129ca565b808452906001811690811561032157506001146102cb575b50819003601f01601f19168101906001600160401b038211818310176102b757604082905281906102b39082612a02565b0390f35b634e487b7160e01b5f52604160045260245ffd5b60185f9081529091507fb13d2d76d1f4b7be834882e410b3e3a8afaf69f83600ae24db354391d2378d2e5b82821061030b5750602091508201015f610282565b60018160209254838588010152019101906102f6565b90506020925060ff191682840152151560051b8201015f610282565b5f80fd5b3461033d5761034f36612a2c565b61035a600454612a7b565b6004556001600160401b0381116102b757610376601d546129ca565b601f8111610446575b505f601f82116001146103c75781925f926103bc575b50508160011b915f199060031b1c191617601d555b60405163f3a7920760e01b8152602090f35b013590508280610395565b601f19821692601d5f527f6d4407e7be21f808e6509aa9fa9143369579dd7d760fe20a2c09680fc146134f915f5b85811061042e57508360019510610415575b505050811b01601d556103aa565b01355f19600384901b60f8161c19169055828080610407565b909260206001819286860135815501940191016103f5565b8181111561037f57601d5f52601f820160051c90602083106104ac575b601f82910160051c03905f5b82811061047d57505061037f565b5f8282017f6d4407e7be21f808e6509aa9fa9143369579dd7d760fe20a2c09680fc146134f015560010161046f565b5f9150610463565b3461033d576104c236612a2c565b6104cc5f54612a7b565b5f556001600160401b0381116102b7576104e76011546129ca565b601f81116105b7575b505f601f82116001146105385781925f9261052d575b50508160011b915f199060031b1c1916176011555b6040516303c5b06560e61b8152602090f35b013590508280610506565b601f1982169260115f527f31ecc21a745e3968a04e9570e4425bc18fa8019c68028196b546d1669c200c68915f5b85811061059f57508360019510610586575b505050811b0160115561051b565b01355f19600384901b60f8161c19169055828080610578565b90926020600181928686013581550194019101610566565b818111156104f05760115f52601f820160051c906020831061061d575b601f82910160051c03905f5b8281106105ee5750506104f0565b5f8282017f31ecc21a745e3968a04e9570e4425bc18fa8019c68028196b546d1669c200c6801556001016105e0565b5f91506105d4565b3461033d575f36600319011261033d576040515f602154610645816129ca565b80845290600181169081156106e3575060011461068d5750819003601f01601f19168101906001600160401b038211818310176102b757604082905281906102b39082612a02565b60215f9081529091507f3a6357012c1a3ae0a17d304c9920310382d968ebcc4b1771f41c6b304205b5705b8282106106cd57506020915082010182610282565b60018160209254838588010152019101906106b8565b90506020925060ff191682840152151560051b82010182610282565b3461033d575f36600319011261033d576040515f601e5461071f816129ca565b80845290600181169081156106e357506001146107675750819003601f01601f19168101906001600160401b038211818310176102b757604082905281906102b39082612a02565b601e5f9081529091507f50bb669a95c7b50b7e8a6f09454034b2b14cf2b85c730dca9a539ca82cb6e3505b8282106107a757506020915082010182610282565b6001816020925483858801015201910190610792565b3461033d575f36600319011261033d576020601054604051908152f35b3461033d575f36600319011261033d576020600754604051908152f35b3461033d5761080536612a2c565b610810600a54612a7b565b600a556001600160401b0381116102b75761082c601f546129ca565b601f81116108fc575b505f601f821160011461087d5781925f92610872575b50508160011b915f199060031b1c191617601f555b60405163692181bf60e11b8152602090f35b01359050828061084b565b601f19821692601f5f527fa03837a25210ee280c2113ff4b77ca23440b19d4866cca721c801278fd08d807915f5b8581106108e4575083600195106108cb575b505050811b01601f55610860565b01355f19600384901b60f8161c191690558280806108bd565b909260206001819286860135815501940191016108ab565b8181111561083557601f5f52601f820160051c9060208310610962575b601f82910160051c03905f5b828110610933575050610835565b5f8282017fa03837a25210ee280c2113ff4b77ca23440b19d4866cca721c801278fd08d8070155600101610925565b5f9150610919565b3461033d575f36600319011261033d576020600254604051908152f35b3461033d5761099536612a2c565b6109a0600754612a7b565b6007556001600160401b0381116102b7576109bc601e546129ca565b601f8111610a8c575b505f601f8211600114610a0d5781925f92610a02575b50508160011b915f199060031b1c191617601e555b60405163196bce6360e31b8152602090f35b0135905082806109db565b601f19821692601e5f527f50bb669a95c7b50b7e8a6f09454034b2b14cf2b85c730dca9a539ca82cb6e350915f5b858110610a7457508360019510610a5b575b505050811b01601e556109f0565b01355f19600384901b60f8161c19169055828080610a4d565b90926020600181928686013581550194019101610a3b565b818111156109c557601e5f52601f820160051c9060208310610af2575b601f82910160051c03905f5b828110610ac35750506109c5565b5f8282017f50bb669a95c7b50b7e8a6f09454034b2b14cf2b85c730dca9a539ca82cb6e3500155600101610ab5565b5f9150610aa9565b3461033d575f36600319011261033d576040515f602054610b1a816129ca565b80845290600181169081156106e35750600114610b625750819003601f01601f19168101906001600160401b038211818310176102b757604082905281906102b39082612a02565b60205f9081529091507fc97bfaf2f8ee708c303a06d134f5ecd8389ae0432af62dc132a24118292866bb5b828210610ba257506020915082010182610282565b6001816020925483858801015201910190610b8d565b3461033d575f36600319011261033d576020600554604051908152f35b3461033d575f36600319011261033d576040515f601754610bf5816129ca565b80845290600181169081156106e35750600114610c3d5750819003601f01601f19168101906001600160401b038211818310176102b757604082905281906102b39082612a02565b60175f9081529091507fc624b66cc0138b8fabc209247f72d758e1cf3343756d543badbf24212bed8c155b828210610c7d57506020915082010182610282565b6001816020925483858801015201910190610c68565b3461033d575f36600319011261033d576040515f601c54610cb3816129ca565b80845290600181169081156106e35750600114610cfb5750819003601f01601f19168101906001600160401b038211818310176102b757604082905281906102b39082612a02565b601c5f9081529091507f0e4562a10381dec21b205ed72637e6b1b523bdd0e4d4d50af5cd23dd4500a2115b828210610d3b57506020915082010182610282565b6001816020925483858801015201910190610d26565b3461033d575f36600319011261033d576020600b54604051908152f35b3461033d57610d7c36612a2c565b610d87600c54612a7b565b600c556001600160401b0381116102b757610da3601a546129ca565b601f8111610e73575b505f601f8211600114610df45781925f92610de9575b50508160011b915f199060031b1c191617601a555b60405163bf0e78db60e01b8152602090f35b013590508280610dc2565b601f19821692601a5f527f057c384a7d1c54f3a1b2e5e67b2617b8224fdfd1ea7234eea573a6ff665ff63e915f5b858110610e5b57508360019510610e42575b505050811b01601a55610dd7565b01355f19600384901b60f8161c19169055828080610e34565b90926020600181928686013581550194019101610e22565b81811115610dac57601a5f52601f820160051c9060208310610ed9575b601f82910160051c03905f5b828110610eaa575050610dac565b5f8282017f057c384a7d1c54f3a1b2e5e67b2617b8224fdfd1ea7234eea573a6ff665ff63e0155600101610e9c565b5f9150610e90565b3461033d575f36600319011261033d576020600f54604051908152f35b3461033d575f36600319011261033d576020600154604051908152f35b3461033d57610f2936612a2c565b610f34600b54612a7b565b600b556001600160401b0381116102b757610f506015546129ca565b601f8111611020575b505f601f8211600114610fa15781925f92610f96575b50508160011b915f199060031b1c1916176015555b60405163a048233f60e01b8152602090f35b013590508280610f6f565b601f1982169260155f527f55f448fdea98c4d29eb340757ef0a66cd03dbb9538908a6a81d96026b71ec475915f5b85811061100857508360019510610fef575b505050811b01601555610f84565b01355f19600384901b60f8161c19169055828080610fe1565b90926020600181928686013581550194019101610fcf565b81811115610f595760155f52601f820160051c9060208310611086575b601f82910160051c03905f5b828110611057575050610f59565b5f8282017f55f448fdea98c4d29eb340757ef0a66cd03dbb9538908a6a81d96026b71ec4750155600101611049565b5f915061103d565b3461033d575f36600319011261033d576020600c54604051908152f35b3461033d576110b936612a2c565b6110c4600554612a7b565b6005556001600160401b0381116102b7576110e06013546129ca565b601f81116111b0575b505f601f82116001146111315781925f92611126575b50508160011b915f199060031b1c1916176013555b6040516327f1079560e21b8152602090f35b0135905082806110ff565b601f1982169260135f527f66de8ffda797e3de9c05e8fc57b3bf0ec28a930d40b0d285d93c06501cf6a090915f5b8581106111985750836001951061117f575b505050811b01601355611114565b01355f19600384901b60f8161c19169055828080611171565b9092602060018192868601358155019401910161115f565b818111156110e95760135f52601f820160051c9060208310611216575b601f82910160051c03905f5b8281106111e75750506110e9565b5f8282017f66de8ffda797e3de9c05e8fc57b3bf0ec28a930d40b0d285d93c06501cf6a09001556001016111d9565b5f91506111cd565b3461033d575f36600319011261033d576040515f60115461123e816129ca565b80845290600181169081156106e357506001146112865750819003601f01601f19168101906001600160401b038211818310176102b757604082905281906102b39082612a02565b60115f9081529091507f31ecc21a745e3968a04e9570e4425bc18fa8019c68028196b546d1669c200c685b8282106112c657506020915082010182610282565b60018160209254838588010152019101906112b1565b3461033d575f36600319011261033d576020600d54604051908152f35b3461033d575f36600319011261033d576040515f601254611319816129ca565b80845290600181169081156106e357506001146113615750819003601f01601f19168101906001600160401b038211818310176102b757604082905281906102b39082612a02565b60125f9081529091507fbb8a6a4669ba250d26cd7a459eca9d215f8307e33aebe50379bc5a3617ec34445b8282106113a157506020915082010182610282565b600181602092548385880101520191019061138c565b3461033d575f36600319011261033d576040515f601f546113d7816129ca565b80845290600181169081156106e3575060011461141f5750819003601f01601f19168101906001600160401b038211818310176102b757604082905281906102b39082612a02565b601f5f9081529091507fa03837a25210ee280c2113ff4b77ca23440b19d4866cca721c801278fd08d8075b82821061145f57506020915082010182610282565b600181602092548385880101520191019061144a565b3461033d575f36600319011261033d576040515f601454611495816129ca565b80845290600181169081156106e357506001146114dd5750819003601f01601f19168101906001600160401b038211818310176102b757604082905281906102b39082612a02565b60145f9081529091507fce6d7b5282bd9a3661ae061feed1dbda4e52ab073b1f9285be6e155d9c38d4ec5b82821061151d57506020915082010182610282565b6001816020925483858801015201910190611508565b3461033d575f36600319011261033d576020600354604051908152f35b3461033d575f36600319011261033d576020600454604051908152f35b3461033d575f36600319011261033d576040515f60155461158d816129ca565b80845290600181169081156106e357506001146115d55750819003601f01601f19168101906001600160401b038211818310176102b757604082905281906102b39082612a02565b60155f9081529091507f55f448fdea98c4d29eb340757ef0a66cd03dbb9538908a6a81d96026b71ec4755b82821061161557506020915082010182610282565b6001816020925483858801015201910190611600565b3461033d5761163936612a2c565b611644600254612a7b565b6002556001600160401b0381116102b7576116606012546129ca565b601f8111611730575b505f601f82116001146116b15781925f926116a6575b50508160011b915f199060031b1c1916176012555b60405163400d975d60e11b8152602090f35b01359050828061167f565b601f1982169260125f527fbb8a6a4669ba250d26cd7a459eca9d215f8307e33aebe50379bc5a3617ec3444915f5b858110611718575083600195106116ff575b505050811b01601255611694565b01355f19600384901b60f8161c191690558280806116f1565b909260206001819286860135815501940191016116df565b818111156116695760125f52601f820160051c9060208310611796575b601f82910160051c03905f5b828110611767575050611669565b5f8282017fbb8a6a4669ba250d26cd7a459eca9d215f8307e33aebe50379bc5a3617ec34440155600101611759565b5f915061174d565b3461033d575f36600319011261033d576020600a54604051908152f35b3461033d576117c936612a2c565b6117d4600f54612a7b565b600f556001600160401b0381116102b7576117f0601b546129ca565b601f81116118c0575b505f601f82116001146118415781925f92611836575b50508160011b915f199060031b1c191617601b555b604051631fb129ff60e21b8152602090f35b01359050828061180f565b601f19821692601b5f527f3ad8aa4f87544323a9d1e5dd902f40c356527a7955687113db5f9a85ad579dc1915f5b8581106118a85750836001951061188f575b505050811b01601b55611824565b01355f19600384901b60f8161c19169055828080611881565b9092602060018192868601358155019401910161186f565b818111156117f957601b5f52601f820160051c9060208310611926575b601f82910160051c03905f5b8281106118f75750506117f9565b5f8282017f3ad8aa4f87544323a9d1e5dd902f40c356527a7955687113db5f9a85ad579dc101556001016118e9565b5f91506118dd565b3461033d5761193c36612a2c565b611947600954612a7b565b6009556001600160401b0381116102b7576119636019546129ca565b601f8111611a33575b505f601f82116001146119b45781925f926119a9575b50508160011b915f199060031b1c1916176019555b604051631c5a976960e21b8152602090f35b013590508280611982565b601f1982169260195f527f944998273e477b495144fb8794c914197f3ccb46be2900f4698fd0ef743c9695915f5b858110611a1b57508360019510611a02575b505050811b01601955611997565b01355f19600384901b60f8161c191690558280806119f4565b909260206001819286860135815501940191016119e2565b8181111561196c5760195f52601f820160051c9060208310611a99575b601f82910160051c03905f5b828110611a6a57505061196c565b5f8282017f944998273e477b495144fb8794c914197f3ccb46be2900f4698fd0ef743c96950155600101611a5c565b5f9150611a50565b3461033d575f36600319011261033d5760205f54604051908152f35b3461033d575f36600319011261033d576020600e54604051908152f35b3461033d575f36600319011261033d576020600954604051908152f35b3461033d575f36600319011261033d576040515f601954611b17816129ca565b80845290600181169081156106e35750600114611b5f5750819003601f01601f19168101906001600160401b038211818310176102b757604082905281906102b39082612a02565b60195f9081529091507f944998273e477b495144fb8794c914197f3ccb46be2900f4698fd0ef743c96955b828210611b9f57506020915082010182610282565b6001816020925483858801015201910190611b8a565b3461033d57611bc336612a2c565b611bce600154612a7b565b6001556001600160401b0381116102b757611bea601c546129ca565b601f8111611cba575b505f601f8211600114611c3b5781925f92611c30575b50508160011b915f199060031b1c191617601c555b604051635eac6a2d60e01b8152602090f35b013590508280611c09565b601f19821692601c5f527f0e4562a10381dec21b205ed72637e6b1b523bdd0e4d4d50af5cd23dd4500a211915f5b858110611ca257508360019510611c89575b505050811b01601c55611c1e565b01355f19600384901b60f8161c19169055828080611c7b565b90926020600181928686013581550194019101611c69565b81811115611bf357601c5f52601f820160051c9060208310611d20575b601f82910160051c03905f5b828110611cf1575050611bf3565b5f8282017f0e4562a10381dec21b205ed72637e6b1b523bdd0e4d4d50af5cd23dd4500a2110155600101611ce3565b5f9150611cd7565b3461033d57611d3636612a2c565b611d41600d54612a7b565b600d556001600160401b0381116102b757611d5d6020546129ca565b601f8111611e2d575b505f601f8211600114611dae5781925f92611da3575b50508160011b915f199060031b1c1916176020555b604051632f15c84760e11b8152602090f35b013590508280611d7c565b601f1982169260205f527fc97bfaf2f8ee708c303a06d134f5ecd8389ae0432af62dc132a24118292866bb915f5b858110611e1557508360019510611dfc575b505050811b01602055611d91565b01355f19600384901b60f8161c19169055828080611dee565b90926020600181928686013581550194019101611ddc565b81811115611d665760205f52601f820160051c9060208310611e93575b601f82910160051c03905f5b828110611e64575050611d66565b5f8282017fc97bfaf2f8ee708c303a06d134f5ecd8389ae0432af62dc132a24118292866bb0155600101611e56565b5f9150611e4a565b3461033d575f36600319011261033d576020600654604051908152f35b3461033d57611ec636612a2c565b611ed1600854612a7b565b6008556001600160401b0381116102b757611eed6014546129ca565b601f8111611fbd575b505f601f8211600114611f3e5781925f92611f33575b50508160011b915f199060031b1c1916176014555b604051632c9a874560e11b8152602090f35b013590508280611f0c565b601f1982169260145f527fce6d7b5282bd9a3661ae061feed1dbda4e52ab073b1f9285be6e155d9c38d4ec915f5b858110611fa557508360019510611f8c575b505050811b01601455611f21565b01355f19600384901b60f8161c19169055828080611f7e565b90926020600181928686013581550194019101611f6c565b81811115611ef65760145f52601f820160051c9060208310612023575b601f82910160051c03905f5b828110611ff4575050611ef6565b5f8282017fce6d7b5282bd9a3661ae061feed1dbda4e52ab073b1f9285be6e155d9c38d4ec0155600101611fe6565b5f9150611fda565b3461033d575f36600319011261033d576040515f60165461204b816129ca565b80845290600181169081156106e357506001146120935750819003601f01601f19168101906001600160401b038211818310176102b757604082905281906102b39082612a02565b60165f9081529091507fd833147d7dc355ba459fc788f669e58cfaf9dc25ddcd0702e87d69c7b51242895b8282106120d357506020915082010182610282565b60018160209254838588010152019101906120be565b3461033d576120f736612a2c565b612102601054612a7b565b6010556001600160401b0381116102b75761211e6021546129ca565b601f81116121ee575b505f601f821160011461216f5781925f92612164575b50508160011b915f199060031b1c1916176021555b604051635279ad9d60e01b8152602090f35b01359050828061213d565b601f1982169260215f527f3a6357012c1a3ae0a17d304c9920310382d968ebcc4b1771f41c6b304205b570915f5b8581106121d6575083600195106121bd575b505050811b01602155612152565b01355f19600384901b60f8161c191690558280806121af565b9092602060018192868601358155019401910161219d565b818111156121275760215f52601f820160051c9060208310612254575b601f82910160051c03905f5b828110612225575050612127565b5f8282017f3a6357012c1a3ae0a17d304c9920310382d968ebcc4b1771f41c6b304205b5700155600101612217565b5f915061220b565b3461033d575f36600319011261033d576020600854604051908152f35b3461033d575f36600319011261033d576040515f601354612299816129ca565b80845290600181169081156106e357506001146122e15750819003601f01601f19168101906001600160401b038211818310176102b757604082905281906102b39082612a02565b60135f9081529091507f66de8ffda797e3de9c05e8fc57b3bf0ec28a930d40b0d285d93c06501cf6a0905b82821061232157506020915082010182610282565b600181602092548385880101520191019061230c565b3461033d575f36600319011261033d576040515f601d54612357816129ca565b80845290600181169081156106e3575060011461239f5750819003601f01601f19168101906001600160401b038211818310176102b757604082905281906102b39082612a02565b601d5f9081529091507f6d4407e7be21f808e6509aa9fa9143369579dd7d760fe20a2c09680fc146134f5b8282106123df57506020915082010182610282565b60018160209254838588010152019101906123ca565b3461033d575f36600319011261033d576040515f601a54612415816129ca565b80845290600181169081156106e3575060011461245d5750819003601f01601f19168101906001600160401b038211818310176102b757604082905281906102b39082612a02565b601a5f9081529091507f057c384a7d1c54f3a1b2e5e67b2617b8224fdfd1ea7234eea573a6ff665ff63e5b82821061249d57506020915082010182610282565b6001816020925483858801015201910190612488565b3461033d576124c136612a2c565b6124cc600e54612a7b565b600e556001600160401b0381116102b7576124e86016546129ca565b601f81116125b8575b505f601f82116001146125395781925f9261252e575b50508160011b915f199060031b1c1916176016555b604051631da0c40d60e01b8152602090f35b013590508280612507565b601f1982169260165f527fd833147d7dc355ba459fc788f669e58cfaf9dc25ddcd0702e87d69c7b5124289915f5b8581106125a057508360019510612587575b505050811b0160165561251c565b01355f19600384901b60f8161c19169055828080612579565b90926020600181928686013581550194019101612567565b818111156124f15760165f52601f820160051c906020831061261e575b601f82910160051c03905f5b8281106125ef5750506124f1565b5f8282017fd833147d7dc355ba459fc788f669e58cfaf9dc25ddcd0702e87d69c7b512428901556001016125e1565b5f91506125d5565b3461033d5761263436612a2c565b61263f600354612a7b565b6003556001600160401b0381116102b75761265b6017546129ca565b601f811161272b575b505f601f82116001146126ac5781925f926126a1575b50508160011b915f199060031b1c1916176017555b6040516314ea355b60e01b8152602090f35b01359050828061267a565b601f1982169260175f527fc624b66cc0138b8fabc209247f72d758e1cf3343756d543badbf24212bed8c15915f5b858110612713575083600195106126fa575b505050811b0160175561268f565b01355f19600384901b60f8161c191690558280806126ec565b909260206001819286860135815501940191016126da565b818111156126645760175f52601f820160051c9060208310612791575b601f82910160051c03905f5b828110612762575050612664565b5f8282017fc624b66cc0138b8fabc209247f72d758e1cf3343756d543badbf24212bed8c150155600101612754565b5f9150612748565b3461033d576127a736612a2c565b6127b2600654612a7b565b6006556001600160401b0381116102b7576127ce6018546129ca565b601f811161289e575b505f601f821160011461281f5781925f92612814575b50508160011b915f199060031b1c1916176018555b6040516313a6d34160e01b8152602090f35b0135905082806127ed565b601f1982169260185f527fb13d2d76d1f4b7be834882e410b3e3a8afaf69f83600ae24db354391d2378d2e915f5b8581106128865750836001951061286d575b505050811b01601855612802565b01355f19600384901b60f8161c1916905582808061285f565b9092602060018192868601358155019401910161284d565b818111156127d75760185f52601f820160051c9060208310612904575b601f82910160051c03905f5b8281106128d55750506127d7565b5f8282017fb13d2d76d1f4b7be834882e410b3e3a8afaf69f83600ae24db354391d2378d2e01556001016128c7565b5f91506128bb565b3461033d575f36600319011261033d576040515f601b5461292c816129ca565b80845290600181169081156106e357506001146129745750819003601f01601f19168101906001600160401b038211818310176102b757604082905281906102b39082612a02565b601b5f9081529091507f3ad8aa4f87544323a9d1e5dd902f40c356527a7955687113db5f9a85ad579dc15b8282106129b457506020915082010182610282565b600181602092548385880101520191019061299f565b90600182811c921680156129f8575b60208310146129e457565b634e487b7160e01b5f52602260045260245ffd5b91607f16916129d9565b602060409281835280519182918282860152018484015e5f828201840152601f01601f1916010190565b90602060031983011261033d576004356001600160401b03811161033d578260238201121561033d578060040135926001600160401b03841161033d576024848301011161033d576024019190565b5f198114612a895760010190565b634e487b7160e01b5f52601160045260245ffdfea2646970667358221220c1b36c620613fc0a23fcca2e2a7e8354525e6ffbdb7412d46a09bd214973ba8864736f6c63430008210033","linkReferences":{}},"methodIdentifiers":{"_midBurn()":"5c94787e","_midDonate()":"a033cb12","_midMint()":"8652cc39","_midModifyKernel()":"bbe08603","_midSwap()":"639f8934","_postBurn()":"d2aeca82","_postDonate()":"9663232b","_postInitialize()":"a38f588e","_postMint()":"84c305f0","_postModifyKernel()":"d54742bf","_postSwap()":"80114eae","_preBurn()":"c5e24e99","_preDonate()":"c0208dc5","_preInitialize()":"6f7e3114","_preMint()":"cb832cc7","_preModifyKernel()":"6bbda613","_preSwap()":"411bc2d4","midBurn(bytes)":"13a6d341","midBurnData()":"f6ea3b62","midDonate(bytes)":"bf0e78db","midDonateData()":"22d2b363","midMint(bytes)":"14ea355b","midMintData()":"c4083110","midModifyKernel(bytes)":"7ec4a7fc","midModifyKernelData()":"01b6f380","midSwap(bytes)":"716a5da4","midSwapData()":"5ef4fd32","postBurn(bytes)":"cb5e7318","postBurnData()":"d8eea910","postDonate(bytes)":"5e2b908e","postDonateData()":"cae72646","postInitialize(bytes)":"5eac6a2d","postInitializeData()":"c25be085","postMint(bytes)":"f3a79207","postMintData()":"3385ea72","postModifyKernel(bytes)":"5279ad9d","postModifyKernelData()":"df97e5a7","postSwap(bytes)":"d243037e","postSwapData()":"91a288cd","preBurn(bytes)":"9fc41e54","preBurnData()":"3a703554","preDonate(bytes)":"a048233f","preDonateData()":"843343a6","preInitialize(bytes)":"f16c1940","preInitializeData()":"9c8d2975","preMint(bytes)":"801b2eba","preMintData()":"921fc60d","preModifyKernel(bytes)":"1da0c40d","preModifyKernelData()":"5413dc71","preSwap(bytes)":"59350e8a","preSwapData()":"886d1a5b"},"id":91}