{"abi":[{"type":"function","name":"__isMidBurn","inputs":[{"name":"poolId","type":"uint256","internalType":"uint256"}],"outputs":[],"stateMutability":"nonpayable"},{"type":"function","name":"__isMidDonate","inputs":[{"name":"poolId","type":"uint256","internalType":"uint256"}],"outputs":[],"stateMutability":"nonpayable"},{"type":"function","name":"__isMidMint","inputs":[{"name":"poolId","type":"uint256","internalType":"uint256"}],"outputs":[],"stateMutability":"nonpayable"},{"type":"function","name":"__isMidModifyKernel","inputs":[{"name":"poolId","type":"uint256","internalType":"uint256"}],"outputs":[],"stateMutability":"nonpayable"},{"type":"function","name":"__isMidSwap","inputs":[{"name":"poolId","type":"uint256","internalType":"uint256"}],"outputs":[],"stateMutability":"nonpayable"},{"type":"function","name":"__isPostBurn","inputs":[{"name":"poolId","type":"uint256","internalType":"uint256"}],"outputs":[],"stateMutability":"nonpayable"},{"type":"function","name":"__isPostDonate","inputs":[{"name":"poolId","type":"uint256","internalType":"uint256"}],"outputs":[],"stateMutability":"nonpayable"},{"type":"function","name":"__isPostInitialize","inputs":[{"name":"poolId","type":"uint256","internalType":"uint256"}],"outputs":[],"stateMutability":"nonpayable"},{"type":"function","name":"__isPostMint","inputs":[{"name":"poolId","type":"uint256","internalType":"uint256"}],"outputs":[],"stateMutability":"nonpayable"},{"type":"function","name":"__isPostModifyKernel","inputs":[{"name":"poolId","type":"uint256","internalType":"uint256"}],"outputs":[],"stateMutability":"nonpayable"},{"type":"function","name":"__isPostSwap","inputs":[{"name":"poolId","type":"uint256","internalType":"uint256"}],"outputs":[],"stateMutability":"nonpayable"},{"type":"function","name":"__isPreBurn","inputs":[{"name":"poolId","type":"uint256","internalType":"uint256"}],"outputs":[],"stateMutability":"nonpayable"},{"type":"function","name":"__isPreDonate","inputs":[{"name":"poolId","type":"uint256","internalType":"uint256"}],"outputs":[],"stateMutability":"nonpayable"},{"type":"function","name":"__isPreInitialize","inputs":[{"name":"poolId","type":"uint256","internalType":"uint256"}],"outputs":[],"stateMutability":"nonpayable"},{"type":"function","name":"__isPreMint","inputs":[{"name":"poolId","type":"uint256","internalType":"uint256"}],"outputs":[],"stateMutability":"nonpayable"},{"type":"function","name":"__isPreModifyKernel","inputs":[{"name":"poolId","type":"uint256","internalType":"uint256"}],"outputs":[],"stateMutability":"nonpayable"},{"type":"function","name":"__isPreSwap","inputs":[{"name":"poolId","type":"uint256","internalType":"uint256"}],"outputs":[],"stateMutability":"nonpayable"},{"type":"function","name":"_getHook","inputs":[{"name":"poolId","type":"uint256","internalType":"uint256"}],"outputs":[{"name":"hookAddress","type":"address","internalType":"contract IHook"}],"stateMutability":"nonpayable"},{"type":"function","name":"_invokeHook","inputs":[{"name":"poolId","type":"uint256","internalType":"uint256"},{"name":"selector","type":"bytes4","internalType":"bytes4"},{"name":"content","type":"bytes","internalType":"bytes"}],"outputs":[],"stateMutability":"nonpayable"},{"type":"function","name":"_isDonateAllowed","inputs":[{"name":"poolId","type":"uint256","internalType":"uint256"}],"outputs":[{"name":"flag","type":"bool","internalType":"bool"}],"stateMutability":"nonpayable"},{"type":"function","name":"_isMidBurn","inputs":[{"name":"poolId","type":"uint256","internalType":"uint256"}],"outputs":[{"name":"flag","type":"bool","internalType":"bool"}],"stateMutability":"nonpayable"},{"type":"function","name":"_isMidDonate","inputs":[{"name":"poolId","type":"uint256","internalType":"uint256"}],"outputs":[{"name":"flag","type":"bool","internalType":"bool"}],"stateMutability":"nonpayable"},{"type":"function","name":"_isMidMint","inputs":[{"name":"poolId","type":"uint256","internalType":"uint256"}],"outputs":[{"name":"flag","type":"bool","internalType":"bool"}],"stateMutability":"nonpayable"},{"type":"function","name":"_isMidModifyKernel","inputs":[{"name":"poolId","type":"uint256","internalType":"uint256"}],"outputs":[{"name":"flag","type":"bool","internalType":"bool"}],"stateMutability":"nonpayable"},{"type":"function","name":"_isMidSwap","inputs":[{"name":"poolId","type":"uint256","internalType":"uint256"}],"outputs":[{"name":"flag","type":"bool","internalType":"bool"}],"stateMutability":"nonpayable"},{"type":"function","name":"_isMutableKernel","inputs":[{"name":"poolId","type":"uint256","internalType":"uint256"}],"outputs":[{"name":"flag","type":"bool","internalType":"bool"}],"stateMutability":"nonpayable"},{"type":"function","name":"_isMutablePoolGrowthPortion","inputs":[{"name":"poolId","type":"uint256","internalType":"uint256"}],"outputs":[{"name":"flag","type":"bool","internalType":"bool"}],"stateMutability":"nonpayable"},{"type":"function","name":"_isPostBurn","inputs":[{"name":"poolId","type":"uint256","internalType":"uint256"}],"outputs":[{"name":"flag","type":"bool","internalType":"bool"}],"stateMutability":"nonpayable"},{"type":"function","name":"_isPostDonate","inputs":[{"name":"poolId","type":"uint256","internalType":"uint256"}],"outputs":[{"name":"flag","type":"bool","internalType":"bool"}],"stateMutability":"nonpayable"},{"type":"function","name":"_isPostInitialize","inputs":[{"name":"poolId","type":"uint256","internalType":"uint256"}],"outputs":[{"name":"flag","type":"bool","internalType":"bool"}],"stateMutability":"nonpayable"},{"type":"function","name":"_isPostMint","inputs":[{"name":"poolId","type":"uint256","internalType":"uint256"}],"outputs":[{"name":"flag","type":"bool","internalType":"bool"}],"stateMutability":"nonpayable"},{"type":"function","name":"_isPostModifyKernel","inputs":[{"name":"poolId","type":"uint256","internalType":"uint256"}],"outputs":[{"name":"flag","type":"bool","internalType":"bool"}],"stateMutability":"nonpayable"},{"type":"function","name":"_isPostSwap","inputs":[{"name":"poolId","type":"uint256","internalType":"uint256"}],"outputs":[{"name":"flag","type":"bool","internalType":"bool"}],"stateMutability":"nonpayable"},{"type":"function","name":"_isPreBurn","inputs":[{"name":"poolId","type":"uint256","internalType":"uint256"}],"outputs":[{"name":"flag","type":"bool","internalType":"bool"}],"stateMutability":"nonpayable"},{"type":"function","name":"_isPreDonate","inputs":[{"name":"poolId","type":"uint256","internalType":"uint256"}],"outputs":[{"name":"flag","type":"bool","internalType":"bool"}],"stateMutability":"nonpayable"},{"type":"function","name":"_isPreInitialize","inputs":[{"name":"poolId","type":"uint256","internalType":"uint256"}],"outputs":[{"name":"flag","type":"bool","internalType":"bool"}],"stateMutability":"nonpayable"},{"type":"function","name":"_isPreMint","inputs":[{"name":"poolId","type":"uint256","internalType":"uint256"}],"outputs":[{"name":"flag","type":"bool","internalType":"bool"}],"stateMutability":"nonpayable"},{"type":"function","name":"_isPreModifyKernel","inputs":[{"name":"poolId","type":"uint256","internalType":"uint256"}],"outputs":[{"name":"flag","type":"bool","internalType":"bool"}],"stateMutability":"nonpayable"},{"type":"function","name":"_isPreSwap","inputs":[{"name":"poolId","type":"uint256","internalType":"uint256"}],"outputs":[{"name":"flag","type":"bool","internalType":"bool"}],"stateMutability":"nonpayable"},{"type":"function","name":"_validateFlags","inputs":[{"name":"poolId","type":"uint256","internalType":"uint256"}],"outputs":[],"stateMutability":"nonpayable"},{"type":"error","name":"InvalidFlags","inputs":[{"name":"","type":"uint256","internalType":"uint256"}]}],"bytecode":{"object":"0x60808060405234601557610f80908161001a8239f35b5f80fdfe60806040526004361015610011575f80fd5b5f3560e01c80630683280d1461029457806307f343ee1461028f5780630b529aba1461028a578063115bd27414610285578063132ac9b9146102805780631d10eed71461027b57806320810a141461027657806321624fa814610271578063235620441461026c578063255f10a91461026757806326ff957c146102625780632fe985e11461025d57806332620118146102585780633607f2d4146102535780633cd1db951461024e578063454efc0f1461024957806347e90d84146102445780634874ffd11461023f5780634a1a15b71461023a5780634b8be1981461023557806351ca441614610230578063565046721461022b5780635ad9c91c146102265780635d1303c8146102215780635f429af21461021c578063615587de146102175780637749b7dc146102125780637d8015871461020d5780637d8fd2f31461020857806385a4ce0814610203578063897be9c1146101fe57806389b74391146101f9578063a46f3429146101f4578063ab00c7f8146101ef578063abec8d52146101ea578063ba51bbf4146101e5578063c3678dbf146101e0578063cc83b287146101db578063ce0d55e0146101d65763fc8d9f5a146101d1575f80fd5b610e6e565b610e0c565b610daa565b610d7e565b610d53565b610d28565b610cff565b610cd5565b610c73565b610c11565b610be7565b610bbb565b610b90565b610b65565b610b39565b610b0f565b610aad565b610a4b565b610a1d565b6109bb565b610959565b6108f7565b610895565b61086c565b610841565b610817565b6107ed565b61078b565b610761565b6106ff565b610541565b610516565b6104b4565b610488565b610426565b6103c4565b61038f565b61032d565b610302565b346102fe5760203660031901126102fe5760043560d881905260848051632c9a874560e11b602091821c1760805290819052905f906001600160a01b0316608082604460a45101925af15f51632c9a874560e11b143d6020141616156102f657005b3d5f803e3d5ffd5b5f80fd5b346102fe5760203660031901126102fe5760206004358060d8526101006040519160a01c1615158152f35b346102fe5760203660031901126102fe5760043560d881905260848051631da0c40d60e01b602091821c1760805290819052905f906001600160a01b0316608082604460a45101925af15f51631da0c40d60e01b143d6020141616156102f657005b346102fe5760203660031901126102fe5760043560d85260206103ba61080060d85160a01c16151590565b6040519015158152f35b346102fe5760203660031901126102fe5760043560d88190526084805163bf0e78db60e01b602091821c1760805290819052905f906001600160a01b0316608082604460a45101925af15f5163bf0e78db60e01b143d6020141616156102f657005b346102fe5760203660031901126102fe5760043560d88190526084805163f3a7920760e01b602091821c1760805290819052905f906001600160a01b0316608082604460a45101925af15f5163f3a7920760e01b143d6020141616156102f657005b346102fe5760203660031901126102fe5760206004358060d852620400006040519160a01c1615158152f35b346102fe5760203660031901126102fe5760043560d88190526084805163692181bf60e11b602091821c1760805290819052905f906001600160a01b0316608082604460a45101925af15f5163692181bf60e11b143d6020141616156102f657005b346102fe5760203660031901126102fe5760206004358060d8526102006040519160a01c1615158152f35b346102fe5760203660031901126102fe576105bb6004358060d85261056f6202000060d85160a01c16151590565b80156106e4575b806106b6575b80610687575b80610659575b8061062b575b806105f9575b806105bd575b60d8516001600160a01b03166201ffff8360a01c1615159015151416610f30565b005b5060d8516001600160a01b03161580156105e8575b8061059a575060d85160a01c600216151561059a565b5060d85160a01c60011615156105d2565b5060d85160a01c6208000016151580610594575061062661062261200060d85160a01c16151590565b1590565b610594565b5060d85160a01c620800001615158061058e575061065461062261100060d85160a01c16151590565b61058e565b5060d85160a01c6208000016151580610588575061068261062261080060d85160a01c16151590565b610588565b5060d85160a01c620200001615158061058257506106b16106226201000060d85160a01c16151590565b610582565b5060d85160a01c620200001615158061057c57506106df61062261800060d85160a01c16151590565b61057c565b506106fa61062261400060d85160a01c16151590565b610576565b346102fe5760203660031901126102fe5760043560d881905260848051632f15c84760e11b602091821c1760805290819052905f906001600160a01b0316608082604460a45101925af15f51632f15c84760e11b143d6020141616156102f657005b346102fe5760203660031901126102fe5760043560d85260206103ba600260d85160a01c16151590565b346102fe5760203660031901126102fe5760043560d8819052608480516314ea355b60e01b602091821c1760805290819052905f906001600160a01b0316608082604460a45101925af15f516314ea355b60e01b143d6020141616156102f657005b346102fe5760203660031901126102fe5760206004358060d85260106040519160a01c1615158152f35b346102fe5760203660031901126102fe5760206004358060d85260046040519160a01c1615158152f35b346102fe5760203660031901126102fe5760043560d85260206103ba61200060d85160a01c16151590565b346102fe5760203660031901126102fe5760206004358060d852604080519160a01c1615158152f35b346102fe5760203660031901126102fe5760043560d8819052608480516327f1079560e21b602091821c1760805290819052905f906001600160a01b0316608082604460a45101925af15f516327f1079560e21b143d6020141616156102f657005b346102fe5760203660031901126102fe5760043560d881905260848051631fb129ff60e21b602091821c1760805290819052905f906001600160a01b0316608082604460a45101925af15f51631fb129ff60e21b143d6020141616156102f657005b346102fe5760203660031901126102fe5760043560d881905260848051631c5a976960e21b602091821c1760805290819052905f906001600160a01b0316608082604460a45101925af15f51631c5a976960e21b143d6020141616156102f657005b346102fe5760203660031901126102fe5760043560d881905260848051635279ad9d60e01b602091821c1760805290819052905f906001600160a01b0316608082604460a45101925af15f51635279ad9d60e01b143d6020141616156102f657005b346102fe5760203660031901126102fe5760043560d88190526040516001600160a01b039091168152602090f35b346102fe5760203660031901126102fe5760043560d8819052608480516313a6d34160e01b602091821c1760805290819052905f906001600160a01b0316608082604460a45101925af15f516313a6d34160e01b143d6020141616156102f657005b346102fe5760203660031901126102fe5760043560d8819052608480516303c5b06560e61b602091821c1760805290819052905f906001600160a01b0316608082604460a45101925af15f516303c5b06560e61b143d6020141616156102f657005b346102fe5760203660031901126102fe5760043560d85260206103ba600160d85160a01c16151590565b346102fe5760203660031901126102fe5760043560d85260206103ba6201000060d85160a01c16151590565b346102fe5760203660031901126102fe5760043560d85260206103ba61800060d85160a01c16151590565b346102fe5760203660031901126102fe5760043560d85260206103ba61100060d85160a01c16151590565b346102fe5760203660031901126102fe5760043560d85260206103ba6202000060d85160a01c16151590565b346102fe5760203660031901126102fe5760206004358060d85260806040519160a01c1615158152f35b346102fe5760203660031901126102fe5760043560d88190526084805163a048233f60e01b602091821c1760805290819052905f906001600160a01b0316608082604460a45101925af15f5163a048233f60e01b143d6020141616156102f657005b346102fe5760203660031901126102fe5760043560d881905260848051635eac6a2d60e01b602091821c1760805290819052905f906001600160a01b0316608082604460a45101925af15f51635eac6a2d60e01b143d6020141616156102f657005b346102fe5760203660031901126102fe5760206004358060d85260086040519160a01c1615158152f35b346102fe5760203660031901126102fe5760206004358060d852816040519160a01c1615158152f35b346102fe5760203660031901126102fe5760206004358060d8526104006040519160a01c1615158152f35b346102fe5760203660031901126102fe5760043560d85260206103ba61400060d85160a01c16151590565b346102fe5760203660031901126102fe5760043560d85260206103ba6208000060d85160a01c16151590565b346102fe5760203660031901126102fe5760043560d88190526084805163196bce6360e31b602091821c1760805290819052905f906001600160a01b0316608082604460a45101925af15f5163196bce6360e31b143d6020141616156102f657005b346102fe5760203660031901126102fe5760043560d88190526084805163400d975d60e11b602091821c1760805290819052905f906001600160a01b0316608082604460a45101925af15f5163400d975d60e11b143d6020141616156102f657005b346102fe5760603660031901126102fe576004356024356001600160e01b0319811681036102fe5760443567ffffffffffffffff81116102fe57366023820112156102fe57806004013567ffffffffffffffff81116102fe57369101602401116102fe576105bb9160443560040180356020019060a43760d8819052608480516001600160e01b03198416602091821c1760805290819052905f906001600160a01b0316608082604460a45101925af19060203d14905f51141616156102f657565b15610f385750565b635c31d35560e11b5f5260045260245ffdfea26469706673582212206b1e6e1b67238c18ef1e80559f7033a4771ab727bfefdb4973d0efade9bcb34a64736f6c63430008210033","linkReferences":{}},"methodIdentifiers":{"__isMidBurn(uint256)":"5ad9c91c","__isMidDonate(uint256)":"132ac9b9","__isMidMint(uint256)":"32620118","__isMidModifyKernel(uint256)":"4a1a15b7","__isMidSwap(uint256)":"4b8be198","__isPostBurn(uint256)":"cc83b287","__isPostDonate(uint256)":"26ff957c","__isPostInitialize(uint256)":"89b74391","__isPostMint(uint256)":"1d10eed7","__isPostModifyKernel(uint256)":"51ca4416","__isPostSwap(uint256)":"21624fa8","__isPreBurn(uint256)":"4874ffd1","__isPreDonate(uint256)":"897be9c1","__isPreInitialize(uint256)":"5d1303c8","__isPreMint(uint256)":"ce0d55e0","__isPreModifyKernel(uint256)":"0b529aba","__isPreSwap(uint256)":"0683280d","_getHook(uint256)":"56504672","_invokeHook(uint256,bytes4,bytes)":"fc8d9f5a","_isDonateAllowed(uint256)":"c3678dbf","_isMidBurn(uint256)":"47e90d84","_isMidDonate(uint256)":"7d801587","_isMidMint(uint256)":"a46f3429","_isMidModifyKernel(uint256)":"7749b7dc","_isMidSwap(uint256)":"23562044","_isMutableKernel(uint256)":"7d8fd2f3","_isMutablePoolGrowthPortion(uint256)":"20810a14","_isPostBurn(uint256)":"85a4ce08","_isPostDonate(uint256)":"454efc0f","_isPostInitialize(uint256)":"2fe985e1","_isPostMint(uint256)":"3607f2d4","_isPostModifyKernel(uint256)":"615587de","_isPostSwap(uint256)":"abec8d52","_isPreBurn(uint256)":"ab00c7f8","_isPreDonate(uint256)":"115bd274","_isPreInitialize(uint256)":"5f429af2","_isPreMint(uint256)":"3cd1db95","_isPreModifyKernel(uint256)":"ba51bbf4","_isPreSwap(uint256)":"07f343ee","_validateFlags(uint256)":"255f10a9"},"id":18}