{"abi":[{"type":"function","name":"arbitrary","inputs":[{"name":"hookInput","type":"bytes","internalType":"bytes"}],"outputs":[{"name":"","type":"bytes4","internalType":"bytes4"}],"stateMutability":"nonpayable"},{"type":"function","name":"message","inputs":[],"outputs":[{"name":"","type":"bytes","internalType":"bytes"}],"stateMutability":"view"},{"type":"function","name":"midBurn","inputs":[{"name":"hookInput","type":"bytes","internalType":"bytes"}],"outputs":[{"name":"","type":"bytes4","internalType":"bytes4"}],"stateMutability":"nonpayable"},{"type":"function","name":"midDonate","inputs":[{"name":"hookInput","type":"bytes","internalType":"bytes"}],"outputs":[{"name":"","type":"bytes4","internalType":"bytes4"}],"stateMutability":"nonpayable"},{"type":"function","name":"midMint","inputs":[{"name":"hookInput","type":"bytes","internalType":"bytes"}],"outputs":[{"name":"","type":"bytes4","internalType":"bytes4"}],"stateMutability":"nonpayable"},{"type":"function","name":"midModifyKernel","inputs":[{"name":"hookInput","type":"bytes","internalType":"bytes"}],"outputs":[{"name":"","type":"bytes4","internalType":"bytes4"}],"stateMutability":"nonpayable"},{"type":"function","name":"midSwap","inputs":[{"name":"hookInput","type":"bytes","internalType":"bytes"}],"outputs":[{"name":"","type":"bytes4","internalType":"bytes4"}],"stateMutability":"nonpayable"},{"type":"function","name":"postBurn","inputs":[{"name":"hookInput","type":"bytes","internalType":"bytes"}],"outputs":[{"name":"","type":"bytes4","internalType":"bytes4"}],"stateMutability":"nonpayable"},{"type":"function","name":"postDonate","inputs":[{"name":"hookInput","type":"bytes","internalType":"bytes"}],"outputs":[{"name":"","type":"bytes4","internalType":"bytes4"}],"stateMutability":"nonpayable"},{"type":"function","name":"postInitialize","inputs":[{"name":"hookInput","type":"bytes","internalType":"bytes"}],"outputs":[{"name":"","type":"bytes4","internalType":"bytes4"}],"stateMutability":"nonpayable"},{"type":"function","name":"postMint","inputs":[{"name":"hookInput","type":"bytes","internalType":"bytes"}],"outputs":[{"name":"","type":"bytes4","internalType":"bytes4"}],"stateMutability":"nonpayable"},{"type":"function","name":"postModifyKernel","inputs":[{"name":"hookInput","type":"bytes","internalType":"bytes"}],"outputs":[{"name":"","type":"bytes4","internalType":"bytes4"}],"stateMutability":"nonpayable"},{"type":"function","name":"postSwap","inputs":[{"name":"hookInput","type":"bytes","internalType":"bytes"}],"outputs":[{"name":"","type":"bytes4","internalType":"bytes4"}],"stateMutability":"nonpayable"},{"type":"function","name":"preBurn","inputs":[{"name":"hookInput","type":"bytes","internalType":"bytes"}],"outputs":[{"name":"","type":"bytes4","internalType":"bytes4"}],"stateMutability":"nonpayable"},{"type":"function","name":"preDonate","inputs":[{"name":"hookInput","type":"bytes","internalType":"bytes"}],"outputs":[{"name":"","type":"bytes4","internalType":"bytes4"}],"stateMutability":"nonpayable"},{"type":"function","name":"preInitialize","inputs":[{"name":"hookInput","type":"bytes","internalType":"bytes"}],"outputs":[{"name":"","type":"bytes4","internalType":"bytes4"}],"stateMutability":"nonpayable"},{"type":"function","name":"preMint","inputs":[{"name":"hookInput","type":"bytes","internalType":"bytes"}],"outputs":[{"name":"","type":"bytes4","internalType":"bytes4"}],"stateMutability":"nonpayable"},{"type":"function","name":"preModifyKernel","inputs":[{"name":"hookInput","type":"bytes","internalType":"bytes"}],"outputs":[{"name":"","type":"bytes4","internalType":"bytes4"}],"stateMutability":"nonpayable"},{"type":"function","name":"preSwap","inputs":[{"name":"hookInput","type":"bytes","internalType":"bytes"}],"outputs":[{"name":"","type":"bytes4","internalType":"bytes4"}],"stateMutability":"nonpayable"},{"type":"function","name":"returnSelector","inputs":[],"outputs":[{"name":"","type":"bool","internalType":"bool"}],"stateMutability":"view"},{"type":"function","name":"reverting","inputs":[],"outputs":[{"name":"","type":"bool","internalType":"bool"}],"stateMutability":"view"},{"type":"function","name":"selector","inputs":[],"outputs":[{"name":"","type":"bytes4","internalType":"bytes4"}],"stateMutability":"view"},{"type":"function","name":"setValues","inputs":[{"name":"_selector","type":"bytes4","internalType":"bytes4"},{"name":"_reverting","type":"bool","internalType":"bool"},{"name":"_returnSelector","type":"bool","internalType":"bool"},{"name":"_message","type":"bytes","internalType":"bytes"}],"outputs":[],"stateMutability":"nonpayable"},{"type":"error","name":"InvalidHook","inputs":[]}],"bytecode":{"object":"0x608080604052346015576108d8908161001a8239f35b5f80fdfe60806040526004361015610011575f80fd5b5f3560e01c806305d42a271461018457806313a6d3411461017f57806314ea355b1461017a5780631da0c40d1461017557806325d9185c14610170578063274c45841461016b5780635279ad9d1461016657806359350e8a146101615780635e2b908e1461015c5780635eac6a2d14610157578063716a5da4146101525780637de294fd1461014d5780637ec4a7fc14610148578063801b2eba146101435780639fc41e541461013e578063a048233f14610139578063bf0e78db14610134578063cb5e73181461012f578063d243037e1461012a578063e21f37ce14610125578063ea3d508a14610120578063f16c19401461011b5763f3a7920714610116575f80fd5b610796565b610774565b61074c565b610704565b6105bd565b61059b565b610579565b610557565b610535565b610513565b6104f1565b6104c5565b6104a3565b610481565b61045f565b61043d565b61041b565b6102b0565b61026f565b61024d565b61022b565b610209565b346101a8575f3660031901126101a857602060ff5f5460281c166040519015158152f35b5f80fd5b9181601f840112156101a85782359167ffffffffffffffff83116101a857602083818601950101116101a857565b60206003198201126101a8576004359067ffffffffffffffff82116101a857610205916004016101ac565b9091565b346101a857610217366101da565b50506040516313a6d34160e01b8152602090f35b346101a857610239366101da565b50506040516314ea355b60e01b8152602090f35b346101a85761025b366101da565b5050604051631da0c40d60e01b8152602090f35b346101a8575f3660031901126101a857602060ff5f54821c166040519015158152f35b6024359081151582036101a857565b6044359081151582036101a857565b346101a85760803660031901126101a8576004356001600160e01b0319811681036101a8576102dd610292565b6102e56102a1565b916064359167ffffffffffffffff83116101a85761030d64ff000000009336906004016101ac565b93909465ff00000000005f5491151560281b169360e01c9065ffffffffffff19161791151560201b1617175f5567ffffffffffffffff81116104165761035d816103586001546105df565b6107b8565b5f601f821160011461039a57819061038a935f9261038f575b50508160011b915f199060031b1c19161790565b600155005b013590505f80610376565b60015f52601f198216927fb10e2d527612073b26eecdfd717e6a320cf44b4afac2b0732d9fcbe2b7fa0cf6915f5b8581106103fe575083600195106103e5575b505050811b01600155005b01355f19600384901b60f8161c191690555f80806103da565b909260206001819286860135815501940191016103c8565b610617565b346101a857610429366101da565b5050604051635279ad9d60e01b8152602090f35b346101a85761044b366101da565b5050604051632c9a874560e11b8152602090f35b346101a85761046d366101da565b5050604051632f15c84760e11b8152602090f35b346101a85761048f366101da565b5050604051635eac6a2d60e01b8152602090f35b346101a8576104b1366101da565b5050604051631c5a976960e21b8152602090f35b346101a85760206104de6104d8366101da565b90610817565b6040516001600160e01b03199091168152f35b346101a8576104ff366101da565b5050604051631fb129ff60e21b8152602090f35b346101a857610521366101da565b505060405163400d975d60e11b8152602090f35b346101a857610543366101da565b50506040516327f1079560e21b8152602090f35b346101a857610565366101da565b505060405163a048233f60e01b8152602090f35b346101a857610587366101da565b505060405163bf0e78db60e01b8152602090f35b346101a8576105a9366101da565b505060405163196bce6360e31b8152602090f35b346101a8576105cb366101da565b505060405163692181bf60e11b8152602090f35b90600182811c9216801561060d575b60208310146105f957565b634e487b7160e01b5f52602260045260245ffd5b91607f16916105ee565b634e487b7160e01b5f52604160045260245ffd5b90601f8019910116810190811067ffffffffffffffff82111761041657604052565b604051905f8260015491610660836105df565b80835292600181169081156106e55750600114610686575b6106849250038361062b565b565b5060015f90815290917fb10e2d527612073b26eecdfd717e6a320cf44b4afac2b0732d9fcbe2b7fa0cf65b8183106106c957505090602061068492820101610678565b60209193508060019154838589010152019101909184926106b1565b6020925061068494915060ff191682840152151560051b820101610678565b346101a8575f3660031901126101a8576020604061072061064d565b815192839181835280519182918282860152018484015e5f828201840152601f01601f19168101030190f35b346101a8575f3660031901126101a85760205f5460e01b6040519063ffffffff60e01b168152f35b346101a857610782366101da565b50506040516303c5b06560e61b8152602090f35b346101a8576107a4366101da565b505060405163f3a7920760e01b8152602090f35b90601f82116107c5575050565b8082116107d0575050565b60015f5260205f206020601f830160051c921061080f575b81601f9101920160051c03905f5b82811061080257505050565b5f828201556001016107f6565b5f91506107e8565b5f549160ff8360201c165f146108375761082f61064d565b602081519101fd5b67ffffffffffffffff81116104165760405161085d601f8301601f19166020018261062b565b818152602081019136818501116101a8576020815f959286938637830101525190a1602881901c60ff16156108925760e01b90565b61089a61064d565b602081519101f3fea2646970667358221220cde260be4f87ff6588fc82875ea46a6b5dc529ad288b4b2b136c9e39ff551fc564736f6c63430008210033","linkReferences":{}},"methodIdentifiers":{"arbitrary(bytes)":"7de294fd","message()":"e21f37ce","midBurn(bytes)":"13a6d341","midDonate(bytes)":"bf0e78db","midMint(bytes)":"14ea355b","midModifyKernel(bytes)":"7ec4a7fc","midSwap(bytes)":"716a5da4","postBurn(bytes)":"cb5e7318","postDonate(bytes)":"5e2b908e","postInitialize(bytes)":"5eac6a2d","postMint(bytes)":"f3a79207","postModifyKernel(bytes)":"5279ad9d","postSwap(bytes)":"d243037e","preBurn(bytes)":"9fc41e54","preDonate(bytes)":"a048233f","preInitialize(bytes)":"f16c1940","preMint(bytes)":"801b2eba","preModifyKernel(bytes)":"1da0c40d","preSwap(bytes)":"59350e8a","returnSelector()":"05d42a27","reverting()":"25d9185c","selector()":"ea3d508a","setValues(bytes4,bool,bool,bytes)":"274c4584"},"id":18}