{"abi":[{"type":"function","name":"_burntPositionSlot","inputs":[],"outputs":[{"name":"transientSlot","type":"uint256","internalType":"uint256"}],"stateMutability":"nonpayable"},{"type":"function","name":"_callerSlot","inputs":[],"outputs":[{"name":"transientSlot","type":"uint256","internalType":"uint256"}],"stateMutability":"nonpayable"},{"type":"function","name":"_checkBurntPosition","inputs":[{"name":"poolId","type":"uint256","internalType":"uint256"},{"name":"qMin","type":"int256","internalType":"X59"},{"name":"qMax","type":"int256","internalType":"X59"},{"name":"shares","type":"int256","internalType":"int256"},{"name":"transientSlot","type":"uint256","internalType":"uint256"}],"outputs":[{"name":"content","type":"uint256","internalType":"uint256"}],"stateMutability":"nonpayable"},{"type":"function","name":"_checkBurntPositionBurnMint","inputs":[{"name":"poolId","type":"uint256","internalType":"uint256"},{"name":"qMin","type":"int256","internalType":"X59"},{"name":"qMax","type":"int256","internalType":"X59"},{"name":"shares","type":"int256","internalType":"int256"},{"name":"transientSlot","type":"uint256","internalType":"uint256"}],"outputs":[{"name":"content","type":"uint256","internalType":"uint256"}],"stateMutability":"nonpayable"},{"type":"function","name":"_clearRedeployStaticParamsAndKernel","inputs":[{"name":"poolId","type":"uint256","internalType":"uint256"},{"name":"sourcePointer","type":"uint256","internalType":"uint256"},{"name":"targetPointer","type":"uint256","internalType":"uint256"},{"name":"poolGrowthPortion","type":"uint256","internalType":"X47"},{"name":"maxPoolGrowthPortion","type":"uint256","internalType":"X47"},{"name":"protocolGrowthPortion","type":"uint256","internalType":"X47"},{"name":"pendingKernelLength","type":"uint256","internalType":"Index"}],"outputs":[{"name":"poolIdResult","type":"uint256","internalType":"uint256"},{"name":"sourcePointerResult","type":"uint256","internalType":"uint256"},{"name":"targetPointerResult","type":"uint256","internalType":"uint256"},{"name":"poolGrowthPortionResult","type":"uint256","internalType":"X47"},{"name":"maxPoolGrowthPortionResult","type":"uint256","internalType":"X47"},{"name":"protocolGrowthPortionResult","type":"uint256","internalType":"X47"},{"name":"pendingKernelLengthResult","type":"uint256","internalType":"Index"},{"name":"testValue","type":"bool","internalType":"bool"}],"stateMutability":"nonpayable"},{"type":"function","name":"_getPoolLockSlot","inputs":[{"name":"poolId","type":"uint256","internalType":"uint256"}],"outputs":[{"name":"transientSlot","type":"uint256","internalType":"uint256"}],"stateMutability":"nonpayable"},{"type":"function","name":"_getTransientBalanceSlot","inputs":[{"name":"owner","type":"address","internalType":"address"},{"name":"tag","type":"uint256","internalType":"Tag"}],"outputs":[{"name":"transientSlot","type":"uint256","internalType":"uint256"}],"stateMutability":"nonpayable"},{"type":"function","name":"_isProtocolUnlocked","inputs":[{"name":"unlockTarget","type":"address","internalType":"address"},{"name":"caller","type":"address","internalType":"address"}],"outputs":[],"stateMutability":"nonpayable"},{"type":"function","name":"_lockPoolRevert","inputs":[{"name":"poolId","type":"uint256","internalType":"uint256"}],"outputs":[],"stateMutability":"nonpayable"},{"type":"function","name":"_lockUnlockPool","inputs":[{"name":"poolId","type":"uint256","internalType":"uint256"}],"outputs":[{"name":"content0","type":"uint256","internalType":"uint256"},{"name":"content1","type":"uint256","internalType":"uint256"}],"stateMutability":"nonpayable"},{"type":"function","name":"_lockUnlockProtocol","inputs":[{"name":"unlockTarget","type":"address","internalType":"address"},{"name":"caller","type":"address","internalType":"address"}],"outputs":[{"name":"unlockTargetResult0","type":"address","internalType":"address"},{"name":"callerResult0","type":"address","internalType":"address"},{"name":"unlockTargetResult1","type":"address","internalType":"address"},{"name":"callerResult1","type":"address","internalType":"address"}],"stateMutability":"nonpayable"},{"type":"function","name":"_nonzeroAmountsSlot","inputs":[],"outputs":[{"name":"transientSlot","type":"uint256","internalType":"uint256"}],"stateMutability":"nonpayable"},{"type":"function","name":"_readNonzeroAmounts","inputs":[{"name":"increment","type":"uint256","internalType":"uint256"},{"name":"decrement","type":"uint256","internalType":"uint256"}],"outputs":[{"name":"nonzeroAmounts","type":"uint256","internalType":"uint256"}],"stateMutability":"nonpayable"},{"type":"function","name":"_redeployStaticParamsAndKernel","inputs":[{"name":"poolId","type":"uint256","internalType":"uint256"},{"name":"sourcePointer","type":"uint256","internalType":"uint256"},{"name":"targetPointer","type":"uint256","internalType":"uint256"},{"name":"poolGrowthPortion","type":"uint256","internalType":"X47"},{"name":"maxPoolGrowthPortion","type":"uint256","internalType":"X47"},{"name":"protocolGrowthPortion","type":"uint256","internalType":"X47"},{"name":"pendingKernelLength","type":"uint256","internalType":"Index"}],"outputs":[{"name":"poolIdResult","type":"uint256","internalType":"uint256"},{"name":"sourcePointerResult","type":"uint256","internalType":"uint256"},{"name":"targetPointerResult","type":"uint256","internalType":"uint256"},{"name":"poolGrowthPortionResult","type":"uint256","internalType":"X47"},{"name":"maxPoolGrowthPortionResult","type":"uint256","internalType":"X47"},{"name":"protocolGrowthPortionResult","type":"uint256","internalType":"X47"},{"name":"pendingKernelLengthResult","type":"uint256","internalType":"Index"},{"name":"testValue","type":"bool","internalType":"bool"}],"stateMutability":"nonpayable"},{"type":"function","name":"_redeployStaticParamsAndKernelReverts","inputs":[],"outputs":[],"stateMutability":"nonpayable"},{"type":"function","name":"_redeployStaticParamsAndKernelSlot","inputs":[],"outputs":[{"name":"transientSlot","type":"uint256","internalType":"uint256"}],"stateMutability":"nonpayable"},{"type":"function","name":"_reserveSlot","inputs":[],"outputs":[{"name":"transientSlot","type":"uint256","internalType":"uint256"}],"stateMutability":"nonpayable"},{"type":"function","name":"_tokenIdSlot","inputs":[],"outputs":[{"name":"transientSlot","type":"uint256","internalType":"uint256"}],"stateMutability":"nonpayable"},{"type":"function","name":"_tokenSlot","inputs":[],"outputs":[{"name":"transientSlot","type":"uint256","internalType":"uint256"}],"stateMutability":"nonpayable"},{"type":"function","name":"_transientBalanceSlot","inputs":[],"outputs":[{"name":"transientSlot","type":"uint256","internalType":"uint256"}],"stateMutability":"nonpayable"},{"type":"function","name":"_unlockTargetSlot","inputs":[],"outputs":[{"name":"transientSlot","type":"uint256","internalType":"uint256"}],"stateMutability":"nonpayable"},{"type":"function","name":"_updateGetTransientBalance","inputs":[{"name":"owners","type":"address[]","internalType":"address[]"},{"name":"tags","type":"uint256[]","internalType":"Tag[]"},{"name":"amounts","type":"int256[]","internalType":"int256[]"}],"outputs":[{"name":"","type":"int256[]","internalType":"int256[]"},{"name":"","type":"uint256","internalType":"uint256"}],"stateMutability":"nonpayable"},{"type":"function","name":"_writeReadReserve","inputs":[{"name":"token","type":"address","internalType":"address"},{"name":"tokenId","type":"uint256","internalType":"uint256"},{"name":"reserve","type":"uint256","internalType":"uint256"},{"name":"multiToken","type":"bool","internalType":"bool"}],"outputs":[{"name":"tokenResult","type":"address","internalType":"address"},{"name":"tokenIdResult","type":"uint256","internalType":"uint256"},{"name":"reserveResult","type":"uint256","internalType":"uint256"},{"name":"multiTokenResult","type":"bool","internalType":"bool"}],"stateMutability":"nonpayable"},{"type":"function","name":"dispatch","inputs":[{"name":"input","type":"bytes","internalType":"bytes"}],"outputs":[{"name":"output0","type":"int256","internalType":"int256"},{"name":"output1","type":"int256","internalType":"int256"}],"stateMutability":"nonpayable"},{"type":"function","name":"redeployStaticParamsAndKernel","inputs":[],"outputs":[],"stateMutability":"nonpayable"},{"type":"error","name":"AlreadyUnlocked","inputs":[{"name":"currentCaller","type":"address","internalType":"address"}]},{"type":"error","name":"CannotMintAfterBurning","inputs":[{"name":"poolId","type":"uint256","internalType":"uint256"},{"name":"qMin","type":"int256","internalType":"X59"},{"name":"qMax","type":"int256","internalType":"X59"}]},{"type":"error","name":"CannotRedeployStaticParamsAndKernelExternally","inputs":[]},{"type":"error","name":"DeploymentFailed","inputs":[]},{"type":"error","name":"NativeTokenCannotBeSynced","inputs":[]},{"type":"error","name":"PoolIsLocked","inputs":[{"name":"poolId","type":"uint256","internalType":"uint256"}]},{"type":"error","name":"ProtocolIsLocked","inputs":[]}],"bytecode":{"object":"0x60808060405234601557611172908161001a8239f35b5f80fdfe60806040526004361015610011575f80fd5b5f3560e01c80630130623b146101a457806308503b761461019f5780630bfbb0a71461019a57806314640252146101955780631ff10a48146101905780632571ca221461018b5780632d0cb2e5146101865780633024c5e514610181578063346a31701461017c57806335a90862146101775780633b5102dc1461017257806345d9bd3c1461016d57806345e42c7e146101685780634808125f146101635780635ffea0e01461015e57806360987cc31461015957806368ce75b01461015457806379d19b651461014f5780638e40a2541461014a5780639ae31fca14610145578063ab7fff1814610140578063b5b6bbbc1461013b578063ce460ff214610136578063e1cfef2b146101315763f7446bce1461012c575f80fd5b610b4e565b610b24565b610afd565b610a65565b6109f7565b6109d1565b6109a8565b61096e565b610956565b610912565b6108eb565b6108b1565b61086c565b610700565b610664565b61063d565b6105d8565b61059e565b61056c565b61054f565b610502565b6104c2565b610458565b610380565b6101be565b6001600160a01b038116036101ba57565b5f80fd5b346101ba5760803660031901126101ba576004356101db816101a9565b602435604435916064359081151582036101ba576001600160a01b03169081156103475715610340576001600160a01b0319905b177f9b9b0454cadcb5884dd3faa6ba975da4d2459aa3f11d31291a25a8358f84946c5d7f53dc9bf46bebdca9be947ee80674b58899973aac1948a8396714431da6d4f1665d7ff712c2fa585715e22c7fcc833629ce4482ad96496ecd08f3a14847183c4ef4ed5d5f7f9b9b0454cadcb5884dd3faa6ba975da4d2459aa3f11d31291a25a8358f84946c5c6001600160a01b038116908280836102df575b604080516001600160a01b03909516855260208501959095529383019390935250901515606082015280608081015b0390f35b505060a01c151580610317575b6102db907ff712c2fa585715e22c7fcc833629ce4482ad96496ecd08f3a14847183c4ef4ed5c6102ac565b7f53dc9bf46bebdca9be947ee80674b58899973aac1948a8396714431da6d4f1665c92506102ec565b5f9061020f565b63c0a7e46960e01b5f5260045ffd5b60e09060031901126101ba57600435906024359060443590606435906084359060a4359060c43590565b346101ba5761039d61039136610356565b95949094939193610c64565b60ff5f54166103aa610d1f565b50505f805460ff191690555050604080515f5160206110dd5f395f51905f525c81525f516020610fdd5f395f51905f525c60208201525f51602061107d5f395f51905f525c918101919091525f51602061105d5f395f51905f525c60608201525f51602061103d5f395f51905f525c60808201525f51602061109d5f395f51905f525c60a08201525f51602061101d5f395f51905f525c60c082015293151560e08501525061010092915050f35b346101ba5761046961039136610356565b6102db60ff5f5416610479610d1f565b5f805460ff19169055604080519788526020880196909652948601939093526060850191909152608084015260a083015260c082015290151560e0820152908190610100820190565b346101ba575f3660031901126101ba575f805460ff19166001179055005b60a09060031901126101ba576004359060243590604435906064359060843590565b346101ba57610510366104e0565b9291815f03925f83125f85128116905f86139015161761054a578561053c61054195848460209a610e34565b610e34565b5c604051908152f35b610b90565b346101ba576020610541610562366104e0565b9493929092610e34565b346101ba5760203660031901126101ba5760043560d85261059c61058e610e8f565b61059781610eac565b610eac565b005b346101ba575f3660031901126101ba5760206040517f53dc9bf46bebdca9be947ee80674b58899973aac1948a8396714431da6d4f1668152f35b346101ba5760403660031901126101ba576024356004355f5b81811061062c57825f5b81811061061b576040515f516020610ffd5f395f51905f525c8152602090f35b600190610626610ef1565b016105fb565b600190610637610ece565b016105f1565b346101ba575f3660031901126101ba5760206040515f51602061111d5f395f51905f528152f35b346101ba575f3660031901126101ba5760206040515f516020610ffd5f395f51905f528152f35b9181601f840112156101ba5782359167ffffffffffffffff83116101ba576020808501948460051b0101116101ba57565b92919060408401906040855280518092526020606086019101915f5b8181106106ea57505060209150930152565b83518352602093840193909201916001016106d8565b346101ba5760603660031901126101ba5760043567ffffffffffffffff81116101ba5761073190369060040161068b565b9060243567ffffffffffffffff81116101ba5761075290369060040161068b565b60443567ffffffffffffffff81116101ba5761077290369060040161068b565b905f5b8681106108055750505061078884610c08565b935f5b8181106107af57604051806102db5f516020610ffd5f395f51905f525c89836106bc565b806107f46107c86107c3600194868a610bb8565b610bcd565b6107d3838789610bb8565b35906bdc0da6920d198e2eedf81ef66020526014525f908152604090205c90565b6107fe8289610c50565b520161078b565b8061083e6108166001938a8a610bb8565b35610820816101a9565b61082b83888a610bb8565b35610837848888610bb8565b3591610f14565b01610775565b60409060031901126101ba5760043561085c816101a9565b90602435610869816101a9565b90565b346101ba5761088361087d36610844565b90610f7a565b5f5160206110fd5f395f51905f525c6001600160a01b0316156108a257005b63892e4e5760e01b5f5260045ffd5b346101ba575f3660031901126101ba5760206040517f9b9b0454cadcb5884dd3faa6ba975da4d2459aa3f11d31291a25a8358f84946c8152f35b346101ba575f3660031901126101ba5760206040515f5160206110bd5f395f51905f528152f35b346101ba5760203660031901126101ba5760043560d8526040610933610e8f565b61093c81610eac565b610944610e8f565b5f815c925d5c82519182526020820152f35b346101ba575f3660031901126101ba5761059c610d1f565b346101ba575f3660031901126101ba5760206040517ff712c2fa585715e22c7fcc833629ce4482ad96496ecd08f3a14847183c4ef4ed8152f35b346101ba5760203660031901126101ba5760043560d85260206109c9610e8f565b604051908152f35b346101ba575f3660031901126101ba5760206040516bdc0da6920d198e2eedf81ef68152f35b346101ba5760203660031901126101ba5760043567ffffffffffffffff81116101ba57366023820112156101ba57806004013567ffffffffffffffff81116101ba57369101602401116101ba5760405f602435806044833781305af415610a5d5760405ff35b3d5f803e3d5ffd5b346101ba57610a7661087d36610844565b60805f5160206110bd5f395f51905f525c5f5160206110fd5f395f51905f525c5f5f5160206110bd5f395f51905f525d5f5f5160206110fd5f395f51905f525d604080516001600160a01b03938416815291831660208301525f5160206110bd5f395f51905f525c8316908201525f5160206110fd5f395f51905f525c9091166060820152f35b346101ba575f3660031901126101ba5760206040515f5160206110fd5f395f51905f528152f35b346101ba575f3660031901126101ba5760206040516f1605fc00905adeb7c36aafa65ecdd6bd8152f35b346101ba5760403660031901126101ba5760206109c9600435610b70816101a9565b602435906bdc0da6920d198e2eedf81ef66020526014525f5260405f2090565b634e487b7160e01b5f52601160045260245ffd5b634e487b7160e01b5f52603260045260245ffd5b9190811015610bc85760051b0190565b610ba4565b35610869816101a9565b634e487b7160e01b5f52604160045260245ffd5b67ffffffffffffffff8111610c035760051b60200190565b610bd7565b90610c1282610beb565b60405190601f01601f1916810167ffffffffffffffff811182821017610c03576040528281528092610c46601f1991610beb565b0190602036910137565b8051821015610bc85760209160051b010190565b5f195f51602061111d5f395f51905f525d5f5160206110dd5f395f51905f525d5f516020610fdd5f395f51905f525d5f51602061107d5f395f51905f525d5f51602061105d5f395f51905f525d5f51602061103d5f395f51905f525d5f51602061109d5f395f51905f525d5f51602061101d5f395f51905f525d60405163146402526028526004602452602060045263156fffe360e31b5f525f80604881305af49060405215610d1057565b633011642560e01b5f5260045ffd5b5f51602061111d5f395f51905f525c15610e25575f5160206110dd5f395f51905f525c905f516020610fdd5f395f51905f525c905f51602061107d5f395f51905f525c905f51602061105d5f395f51905f525c905f51602061103d5f395f51905f525c905f51602061109d5f395f51905f525c905f51602061101d5f395f51905f525c905f5f51602061111d5f395f51905f525d5f5f5160206110dd5f395f51905f525d5f5f516020610fdd5f395f51905f525d5f5f51602061107d5f395f51905f525d5f5f51602061105d5f395f51905f525d5f5f51602061103d5f395f51905f525d5f5f51602061109d5f395f51905f525d5f5f51602061101d5f395f51905f525d565b637275462b60e01b5f5260045ffd5b9091926f1605fc00905adeb7c36aafa65ecdd6bd6020528360105282600852815f525f6040812091135f14610e85575c610e6d57505050565b630ef5859f60e31b5f5260045260245260445260645ffd5b5f1993509150505d565b60d8515f5160206110bd5f395f51905f526020525f5260405f2090565b60d851815c610ebc57505f19905d565b6376f8d70760e01b5f5260045260245ffd5b60015f516020610ffd5f395f51905f525c015f516020610ffd5f395f51905f525d565b5f195f516020610ffd5f395f51905f525c015f516020610ffd5f395f51905f525d565b908215610f7557610f3b916bdc0da6920d198e2eedf81ef66020526014525f5260405f2090565b805c8281019283125f821290801582169115161761054a5782610f645750610f61610ef1565b5d565b610f6157610f70610ece565b610f61565b505050565b5f5160206110fd5f395f51905f525c6001600160a01b031680610fca57506001600160a01b03165f5160206110bd5f395f51905f525d6001600160a01b03165f5160206110fd5f395f51905f525d565b632ab8097760e01b5f5260045260245ffdfea16a3cb3a8861ad97eb93808d8efbb8a4a4b6ec0c8563d6da823a8190f8645e95d43e4cd1a16168a103e08dc189528d374b6e2bd5c612e94553d728c80030103a16a3cb3a8861ad97eb93808d8efbb8a4a4b6ec0c8563d6da823a8190f8645e4a16a3cb3a8861ad97eb93808d8efbb8a4a4b6ec0c8563d6da823a8190f8645e6a16a3cb3a8861ad97eb93808d8efbb8a4a4b6ec0c8563d6da823a8190f8645e7a16a3cb3a8861ad97eb93808d8efbb8a4a4b6ec0c8563d6da823a8190f8645e8a16a3cb3a8861ad97eb93808d8efbb8a4a4b6ec0c8563d6da823a8190f8645e508afe526398486e38896d620563771687e7d20a3b0d01f72483eeb2e7d93a48ea16a3cb3a8861ad97eb93808d8efbb8a4a4b6ec0c8563d6da823a8190f8645ead71f1cf4f9d9f82ef0f0a7247563f6632677ada0e0f8f0d8734b4d2327da39e9a16a3cb3a8861ad97eb93808d8efbb8a4a4b6ec0c8563d6da823a8190f8645eba2646970667358221220e6eb7329ddaae3f76457a1cacd2cc0c077632f0c63c83e18d4894e34be5f116b64736f6c63430008210033","linkReferences":{}},"methodIdentifiers":{"_burntPositionSlot()":"e1cfef2b","_callerSlot()":"ce460ff2","_checkBurntPosition(uint256,int256,int256,int256,uint256)":"2571ca22","_checkBurntPositionBurnMint(uint256,int256,int256,int256,uint256)":"1ff10a48","_clearRedeployStaticParamsAndKernel(uint256,uint256,uint256,uint256,uint256,uint256,uint256)":"08503b76","_getPoolLockSlot(uint256)":"8e40a254","_getTransientBalanceSlot(address,uint256)":"f7446bce","_isProtocolUnlocked(address,address)":"45e42c7e","_lockPoolRevert(uint256)":"2d0cb2e5","_lockUnlockPool(uint256)":"60987cc3","_lockUnlockProtocol(address,address)":"b5b6bbbc","_nonzeroAmountsSlot()":"3b5102dc","_readNonzeroAmounts(uint256,uint256)":"346a3170","_redeployStaticParamsAndKernel(uint256,uint256,uint256,uint256,uint256,uint256,uint256)":"0bfbb0a7","_redeployStaticParamsAndKernelReverts()":"68ce75b0","_redeployStaticParamsAndKernelSlot()":"35a90862","_reserveSlot()":"79d19b65","_tokenIdSlot()":"3024c5e5","_tokenSlot()":"4808125f","_transientBalanceSlot()":"9ae31fca","_unlockTargetSlot()":"5ffea0e0","_updateGetTransientBalance(address[],uint256[],int256[])":"45d9bd3c","_writeReadReserve(address,uint256,uint256,bool)":"0130623b","dispatch(bytes)":"ab7fff18","redeployStaticParamsAndKernel()":"14640252"},"id":33}