{"abi":[{"type":"function","name":"add","inputs":[{"name":"value0","type":"uint256","internalType":"X208"},{"name":"value1","type":"uint256","internalType":"X208"}],"outputs":[{"name":"result","type":"uint256","internalType":"X208"}],"stateMutability":"nonpayable"},{"type":"function","name":"equals","inputs":[{"name":"value0","type":"uint256","internalType":"X208"},{"name":"value1","type":"uint256","internalType":"X208"}],"outputs":[{"name":"result","type":"bool","internalType":"bool"}],"stateMutability":"nonpayable"},{"type":"function","name":"greaterThan","inputs":[{"name":"value0","type":"uint256","internalType":"X208"},{"name":"value1","type":"uint256","internalType":"X208"}],"outputs":[{"name":"result","type":"bool","internalType":"bool"}],"stateMutability":"nonpayable"},{"type":"function","name":"greaterThanOrEqualTo","inputs":[{"name":"value0","type":"uint256","internalType":"X208"},{"name":"value1","type":"uint256","internalType":"X208"}],"outputs":[{"name":"result","type":"bool","internalType":"bool"}],"stateMutability":"nonpayable"},{"type":"function","name":"lessThan","inputs":[{"name":"value0","type":"uint256","internalType":"X208"},{"name":"value1","type":"uint256","internalType":"X208"}],"outputs":[{"name":"result","type":"bool","internalType":"bool"}],"stateMutability":"nonpayable"},{"type":"function","name":"lessThanOrEqualTo","inputs":[{"name":"value0","type":"uint256","internalType":"X208"},{"name":"value1","type":"uint256","internalType":"X208"}],"outputs":[{"name":"result","type":"bool","internalType":"bool"}],"stateMutability":"nonpayable"},{"type":"function","name":"mulDiv","inputs":[{"name":"value","type":"uint256","internalType":"X208"},{"name":"numerator","type":"int256","internalType":"X216"},{"name":"denominator","type":"int256","internalType":"X216"}],"outputs":[{"name":"result","type":"uint256","internalType":"X208"}],"stateMutability":"nonpayable"},{"type":"function","name":"mulDivByExpInv8","inputs":[{"name":"value","type":"uint256","internalType":"X208"},{"name":"multiplier","type":"int256","internalType":"X216"}],"outputs":[{"name":"product","type":"int256","internalType":"X111"}],"stateMutability":"nonpayable"},{"type":"function","name":"notEqual","inputs":[{"name":"value0","type":"uint256","internalType":"X208"},{"name":"value1","type":"uint256","internalType":"X208"}],"outputs":[{"name":"result","type":"bool","internalType":"bool"}],"stateMutability":"nonpayable"},{"type":"function","name":"sub","inputs":[{"name":"value0","type":"uint256","internalType":"X208"},{"name":"value1","type":"uint256","internalType":"X208"}],"outputs":[{"name":"result","type":"uint256","internalType":"X208"}],"stateMutability":"nonpayable"}],"bytecode":{"object":"0x608080604052346015576102e1908161001a8239f35b5f80fdfe6080806040526004361015610012575f80fd5b5f3560e01c9081632215ea7c14610207575080632797970b1461016c57806347b5cd811461015357806348f24ceb1461013a5780636d42a2421461010e578063771602f7146100f5578063b67d77c5146100dc578063ca4e89bf146100c2578063d73492a1146100a85763fb1dd0e51461008a575f80fd5b346100a457602061009a3661021d565b6040519111158152f35b5f80fd5b346100a45760206100b83661021d565b6040519110158152f35b346100a45760206100d23661021d565b6040519114158152f35b346100a45760206100ec3661021d565b60405191038152f35b346100a45760206101053661021d565b60405191018152f35b346100a45760603660031901126100a4576020610132604435602435600435610233565b604051908152f35b346100a457602061014a3661021d565b60405191118152f35b346100a45760206101633661021d565b60405191148152f35b346100a45760403660031901126100a45760206024356004355f19817fba4f53ea38636f85f007042540ae8ef33225e9a7ab4f4473a86d4a8fdd1a5b8209907fba4f53ea38636f85f007042540ae8ef33225e9a7ab4f4473a86d4a8fdd1a5b82818102928380821091030393805f19818709950293815f1991099202028082109103039160405192808301109180821091030301602d1c8152f35b346100a4576020906102183661021d565b118152f35b60409060031901126100a4576004359060243590565b915f1982840982840292838083109203948286146102a257908391099082805f03168093046002816003021880820260020302808202600203028082026002030280820260020302808202600203028091026002030294600184805f0304019185841191030302920304170290565b5050509150049056fea26469706673582212203048821c8e27338767ab9e6183cd9ee778a93173a8b072956e7fbb44f4854d8a64736f6c63430008210033","linkReferences":{}},"methodIdentifiers":{"add(uint256,uint256)":"771602f7","equals(uint256,uint256)":"47b5cd81","greaterThan(uint256,uint256)":"48f24ceb","greaterThanOrEqualTo(uint256,uint256)":"d73492a1","lessThan(uint256,uint256)":"2215ea7c","lessThanOrEqualTo(uint256,uint256)":"fb1dd0e5","mulDiv(uint256,int256,int256)":"6d42a242","mulDivByExpInv8(uint256,int256)":"2797970b","notEqual(uint256,uint256)":"ca4e89bf","sub(uint256,uint256)":"b67d77c5"},"id":37}