{"abi":[{"type":"constructor","inputs":[{"name":"_admin","type":"address","internalType":"address"}],"stateMutability":"nonpayable"},{"type":"function","name":"addressOf","inputs":[{"name":"_salt","type":"bytes32","internalType":"bytes32"}],"outputs":[{"name":"","type":"address","internalType":"address"}],"stateMutability":"view"},{"type":"function","name":"admin","inputs":[],"outputs":[{"name":"","type":"address","internalType":"address"}],"stateMutability":"view"},{"type":"function","name":"create3","inputs":[{"name":"_salt","type":"bytes32","internalType":"bytes32"},{"name":"_creationCode","type":"bytes","internalType":"bytes"}],"outputs":[{"name":"addr","type":"address","internalType":"address"}],"stateMutability":"nonpayable"},{"type":"function","name":"create3","inputs":[{"name":"_salt","type":"bytes32","internalType":"bytes32"},{"name":"_creationCode","type":"bytes","internalType":"bytes"},{"name":"_value","type":"uint256","internalType":"uint256"}],"outputs":[{"name":"addr","type":"address","internalType":"address"}],"stateMutability":"nonpayable"}],"bytecode":{"object":"0x60a034607357601f6103d238819003918201601f19168301916001600160401b03831184841017607757808492602094604052833981010312607357516001600160a01b0381168103607357608052604051610346908161008c8239608051818181605a0152818161013501526102060152f35b5f80fd5b634e487b7160e01b5f52604160045260245ffdfe60806040526004361015610011575f80fd5b5f3560e01c80632af25238146101d35780634ffbf66414610102578063bb34534c1461008d5763f851a44014610045575f80fd5b34610089575f366003190112610089576040517f00000000000000000000000000000000000000000000000000000000000000006001600160a01b03168152602090f35b5f80fd5b3461008957602036600319011261008957604051305f5260ff600b536004356020527f21c35dbe1b344a2488cf3321d6ce542f8e9f305544ff09e4993a62319a497c1f6040526055600b2060145260405261d6945f5260016034536017601e206040516001600160a01b039091168152602090f35b346100895760603660031901126100895760243567ffffffffffffffff811161008957610133903690600401610294565b7f00000000000000000000000000000000000000000000000000000000000000006001600160a01b03163303610089576f67363d3d37363d34f03d5260086018f35f526004356010805ff59081156101c6575f80918360145261d694825260016034536017601e209360208251920190604435905af1813b02156101c6576040516001600160a01b039091168152602090f35b63301164255f526004601cfd5b346100895760403660031901126100895760243567ffffffffffffffff811161008957610204903690600401610294565b7f00000000000000000000000000000000000000000000000000000000000000006001600160a01b03163303610089576f67363d3d37363d34f03d5260086018f35f526004356010805ff59081156101c6575f80918360145261d694825260016034536017601e209382602083519301915af1813b02156101c6576040516001600160a01b039091168152602090f35b81601f820112156100895780359067ffffffffffffffff82116102fc5760405192601f8301601f19908116603f0116840167ffffffffffffffff8111858210176102fc576040528284526020838301011161008957815f926020809301838601378301015290565b634e487b7160e01b5f52604160045260245ffdfea2646970667358221220939477a6391c81429e284676f06d6939b9d322885bec65fa85e7721d8f4473db64736f6c63430008210033","linkReferences":{}},"methodIdentifiers":{"addressOf(bytes32)":"bb34534c","admin()":"f851a440","create3(bytes32,bytes)":"2af25238","create3(bytes32,bytes,uint256)":"4ffbf664"},"id":111}