{"abi":[{"type":"function","name":"storageAccess","inputs":[{"name":"slot","type":"bytes32","internalType":"bytes32"}],"outputs":[{"name":"","type":"bytes32","internalType":"bytes32"}],"stateMutability":"view"},{"type":"function","name":"storageAccess","inputs":[{"name":"startSlot","type":"bytes32","internalType":"bytes32"},{"name":"nSlots","type":"uint256","internalType":"uint256"}],"outputs":[{"name":"","type":"bytes32[]","internalType":"bytes32[]"}],"stateMutability":"view"},{"type":"function","name":"storageAccess","inputs":[{"name":"slots","type":"bytes32[]","internalType":"bytes32[]"}],"outputs":[{"name":"","type":"bytes32[]","internalType":"bytes32[]"}],"stateMutability":"view"}],"bytecode":{"object":"0x608060405234601c57600e6020565b6102b361002b82396102b390f35b6026565b60405190565b5f80fdfe60806040526004361015610013575b6101c6565b61001d5f3561004c565b80631352ea3514610047578063745fa65214610042576389c59eb90361000e576101ab565b61010f565b6100a2565b60e01c90565b5f80fd5b5f80fd5b5f80fd5b90565b61006a8161005e565b0361007157565b5f80fd5b9050359061008282610061565b565b9060208282031261009d5761009a915f01610075565b90565b610056565b346100b7576100b2366004610084565b6101ce565b610052565b90565b6100c8816100bc565b036100cf57565b5f80fd5b905035906100e0826100bf565b565b919060408382031261010a57806100fe610107925f8601610075565b936020016100d3565b90565b610056565b346101255761011f3660046100e2565b906101e4565b610052565b5f80fd5b5f80fd5b5f80fd5b909182601f830112156101705781359167ffffffffffffffff831161016b57602001926020830284011161016657565b610132565b61012e565b61012a565b906020828203126101a6575f82013567ffffffffffffffff81116101a15761019d9201610136565b9091565b61005a565b610056565b346101c1576101bb366004610175565b90610231565b610052565b5f80fd5b5f90565b6101d66101ca565b50545f5260205ff35b606090565b6101ec6101df565b5060405191600160206040858460051b948382528382015201928301925b84548152019201838284101561022b5750600160208394909192945061020a565b80830390f35b9061023a6101df565b50604051916020806040858281528583820152019360051b840192935b843554815201920183828410156102775750602080839490929450610257565b80830390f3fea2646970667358221220586fe9df45e4fb41325ef4561d3c35dec1a8bb3b2f2df810608e2bd1662a5fda64736f6c63430008210033","linkReferences":{}},"methodIdentifiers":{"storageAccess(bytes32)":"1352ea35","storageAccess(bytes32,uint256)":"745fa652","storageAccess(bytes32[])":"89c59eb9"},"id":4}