{"abi":[{"type":"function","name":"add","inputs":[{"name":"index0","type":"uint256","internalType":"Index"},{"name":"index1","type":"uint256","internalType":"Index"}],"outputs":[{"name":"result","type":"uint256","internalType":"Index"}],"stateMutability":"nonpayable"},{"type":"function","name":"decrementIndex","inputs":[{"name":"index","type":"uint256","internalType":"Index"}],"outputs":[{"name":"result","type":"uint256","internalType":"Index"}],"stateMutability":"nonpayable"},{"type":"function","name":"equals","inputs":[{"name":"index0","type":"uint256","internalType":"Index"},{"name":"index1","type":"uint256","internalType":"Index"}],"outputs":[{"name":"result","type":"bool","internalType":"bool"}],"stateMutability":"nonpayable"},{"type":"function","name":"getIndex","inputs":[{"name":"index","type":"uint256","internalType":"Index"}],"outputs":[{"name":"result","type":"uint256","internalType":"Index"}],"stateMutability":"nonpayable"},{"type":"function","name":"greaterThan","inputs":[{"name":"index0","type":"uint256","internalType":"Index"},{"name":"index1","type":"uint256","internalType":"Index"}],"outputs":[{"name":"result","type":"bool","internalType":"bool"}],"stateMutability":"nonpayable"},{"type":"function","name":"greaterThanOrEqualTo","inputs":[{"name":"index0","type":"uint256","internalType":"Index"},{"name":"index1","type":"uint256","internalType":"Index"}],"outputs":[{"name":"result","type":"bool","internalType":"bool"}],"stateMutability":"nonpayable"},{"type":"function","name":"incrementIndex","inputs":[{"name":"index","type":"uint256","internalType":"Index"}],"outputs":[{"name":"result","type":"uint256","internalType":"Index"}],"stateMutability":"nonpayable"},{"type":"function","name":"lessThan","inputs":[{"name":"index0","type":"uint256","internalType":"Index"},{"name":"index1","type":"uint256","internalType":"Index"}],"outputs":[{"name":"result","type":"bool","internalType":"bool"}],"stateMutability":"nonpayable"},{"type":"function","name":"lessThanOrEqualTo","inputs":[{"name":"index0","type":"uint256","internalType":"Index"},{"name":"index1","type":"uint256","internalType":"Index"}],"outputs":[{"name":"result","type":"bool","internalType":"bool"}],"stateMutability":"nonpayable"},{"type":"function","name":"maxIndex","inputs":[{"name":"value0","type":"uint256","internalType":"Index"},{"name":"value1","type":"uint256","internalType":"Index"}],"outputs":[{"name":"result","type":"uint256","internalType":"Index"}],"stateMutability":"nonpayable"},{"type":"function","name":"minIndex","inputs":[{"name":"value0","type":"uint256","internalType":"Index"},{"name":"value1","type":"uint256","internalType":"Index"}],"outputs":[{"name":"result","type":"uint256","internalType":"Index"}],"stateMutability":"nonpayable"},{"type":"function","name":"notEqual","inputs":[{"name":"index0","type":"uint256","internalType":"Index"},{"name":"index1","type":"uint256","internalType":"Index"}],"outputs":[{"name":"result","type":"bool","internalType":"bool"}],"stateMutability":"nonpayable"},{"type":"function","name":"sub","inputs":[{"name":"index0","type":"uint256","internalType":"Index"},{"name":"index1","type":"uint256","internalType":"Index"}],"outputs":[{"name":"result","type":"uint256","internalType":"Index"}],"stateMutability":"nonpayable"}],"bytecode":{"object":"0x6080806040523460155761032f908161001a8239f35b5f80fdfe60806040526004361015610011575f80fd5b5f3560e01c806311aa36a0146100e45780632215ea7c146100df57806347b5cd81146100da57806348f24ceb146100d5578063771602f7146100d05780638938ce5c146100cb5780638e7cb6e1146100c6578063b67d77c5146100c1578063ca4e89bf146100bc578063d73492a1146100b7578063dca3bb07146100b2578063ef8e0b63146100ad5763fb1dd0e5146100a8575f80fd5b6102d6565b61029d565b610273565b610250565b61022d565b61020b565b6101da565b6101a8565b610186565b610164565b610142565b610120565b3461011c57602036600319011261011c57602060043560405190828201604052600160f01b9060f01b018091526040519060f01c8152f35b5f80fd5b3461011c57604036600319011261011c57602060043560243560405191108152f35b3461011c57604036600319011261011c57602060043560243560405191148152f35b3461011c57604036600319011261011c57602060043560243560405191118152f35b3461011c57604036600319011261011c57602060043560243560405191018152f35b3461011c57604036600319011261011c576020600435602435808210156101d357505b604051908152f35b90506101cb565b3461011c57602036600319011261011c5760206004356040518281016040528160f01b905261ffff60405191168152f35b3461011c57604036600319011261011c57602060043560243560405191038152f35b3461011c57604036600319011261011c5760206004356024356040519114158152f35b3461011c57604036600319011261011c5760206004356024356040519110158152f35b3461011c57604036600319011261011c576020602435600435818110156101d35750604051908152f35b3461011c57602036600319011261011c5760206004356040519082820160405261ffff60f01b9060f01b018091526040519060f01c8152f35b3461011c57604036600319011261011c5760206004356024356040519111158152f3fea26469706673582212207703c90f3e270018d80f268db4c13472a63d9de14e6f1109eae4db1735fa8eb764736f6c63430008210033","linkReferences":{}},"methodIdentifiers":{"add(uint256,uint256)":"771602f7","decrementIndex(uint256)":"ef8e0b63","equals(uint256,uint256)":"47b5cd81","getIndex(uint256)":"8e7cb6e1","greaterThan(uint256,uint256)":"48f24ceb","greaterThanOrEqualTo(uint256,uint256)":"d73492a1","incrementIndex(uint256)":"11aa36a0","lessThan(uint256,uint256)":"2215ea7c","lessThanOrEqualTo(uint256,uint256)":"fb1dd0e5","maxIndex(uint256,uint256)":"dca3bb07","minIndex(uint256,uint256)":"8938ce5c","notEqual(uint256,uint256)":"ca4e89bf","sub(uint256,uint256)":"b67d77c5"},"id":19}