{"abi":[{"type":"function","name":"_expand","inputs":[{"name":"kernelCompact","type":"uint256","internalType":"KernelCompact"},{"name":"kernelCompactLength","type":"uint256","internalType":"uint256"},{"name":"kernelCompactArray","type":"uint256[]","internalType":"uint256[]"}],"outputs":[],"stateMutability":"nonpayable"},{"type":"function","name":"_member","inputs":[{"name":"kernelCompact","type":"uint256","internalType":"KernelCompact"},{"name":"kernelCompactLength","type":"uint256","internalType":"uint256"},{"name":"kernelCompactArray","type":"uint256[]","internalType":"uint256[]"}],"outputs":[],"stateMutability":"nonpayable"},{"type":"function","name":"_validate","inputs":[{"name":"kernelCompact","type":"uint256","internalType":"KernelCompact"},{"name":"qSpacing","type":"int256","internalType":"X59"},{"name":"kernelCompactArray","type":"uint256[]","internalType":"uint256[]"}],"outputs":[{"name":"kernelCompactLength","type":"uint256","internalType":"Index"}],"stateMutability":"nonpayable"},{"type":"error","name":"HorizontalCoordinatesMayNotExceedLogSpacing","inputs":[{"name":"q_j","type":"int256","internalType":"X59"},{"name":"qSpacing","type":"int256","internalType":"X59"}]},{"type":"error","name":"KernelIndexOutOfRange","inputs":[{"name":"length","type":"uint256","internalType":"Index"}]},{"type":"error","name":"LastVerticalCoordinateMismatch","inputs":[{"name":"c_j","type":"uint256","internalType":"X15"}]},{"type":"error","name":"NonMonotonicHorizontalCoordinates","inputs":[{"name":"q_i","type":"int256","internalType":"X59"},{"name":"q_j","type":"int256","internalType":"X59"}]},{"type":"error","name":"NonMonotonicVerticalCoordinates","inputs":[{"name":"c_i","type":"uint256","internalType":"X15"},{"name":"c_j","type":"uint256","internalType":"X15"}]},{"type":"error","name":"RepetitiveHorizontalCoordinates","inputs":[{"name":"q_i","type":"int256","internalType":"X59"}]},{"type":"error","name":"RepetitiveKernelPoints","inputs":[{"name":"c_i","type":"uint256","internalType":"X15"},{"name":"q_i","type":"int256","internalType":"X59"}]},{"type":"error","name":"RepetitiveVerticalCoordinates","inputs":[{"name":"c_i","type":"uint256","internalType":"X15"}]},{"type":"error","name":"SecondHorizontalCoordinateIsZero","inputs":[]},{"type":"error","name":"SlopeTooHigh","inputs":[{"name":"q_i","type":"int256","internalType":"X59"},{"name":"q_j","type":"int256","internalType":"X59"}]}],"bytecode":{"object":"0x60808060405234601557610761908161001a8239f35b5f80fdfe60806040526004361015610011575f80fd5b5f3560e01c80634504c9d3146100445780639d9a004d1461003f5763af206f2d1461003a575f80fd5b61034a565b610298565b3461022c57606036600319011261022c5760043560243560443567ffffffffffffffff811161022c578060040161007b3682610230565b50503560051b80916024018437820160405261009681610535565b9190610740519261077e526107635261074852610740526107605160c01c906100fc60025f935f916100d385906002825160f01c92015160c01c90565b93909684916101016100f38990600c600a83015160f01c92015160c01c90565b90989097151590565b6103f4565b61010f83828181131561040a565b61011d898381811115610428565b8281148015816101368486848f85610221575b50610446565b8015610218575b85848215610206575b61014f92610464565b61015d878681811315610482565b8685146101ce5761018a9260019b949261017b92906101c4576104a0565b8083141580156101ba576104ba565b949691909101938693916101a3866103fc8111156104d4565b6101ad8688610508565b9590969392919050610101565b50828814156104ba565b50858914156104a0565b6101f2866101e08d61800081146104ee565b6106515160101c9060f01b1761064f52565b61064f5160405160f09190911c8152602090f35b64010000000081830312159250610146565b508a841461013d565b82141590508f610130565b5f80fd5b9181601f8401121561022c5782359167ffffffffffffffff831161022c576020808501948460051b01011161022c57565b606060031982011261022c5760043591602435916044359067ffffffffffffffff821161022c5761029491600401610230565b9091565b3461022c576102a636610261565b5050604435806004013560051b809160240184378201906102e55f19820160061b91828401604052836105ef526106515160101c9060f01b1761064f52565b600190603d196105ef51019061064f5160f01c925b82848210156103445790604060019201936103158289610508565b90602061032183610535565b949093601e820194855196605e84015260438301526028820152015252016102fa565b5f8387a1005b3461022c57600161035a36610261565b505090604435806004013560051b8091602401833781019183810160051b918284019282855282845283016040525f5b8281106103a45785600584901b6020865f838a8401a101a1005b806103b0879284610508565b6103ba83886103cc565b526103c582886103cc565b520161038a565b80518210156103e05760209160051b010190565b634e487b7160e01b5f52603260045260245ffd5b156103fb57565b639d6f849760e01b5f5260045ffd5b15610413575050565b632ecb8af760e11b5f5260045260245260445ffd5b15610431575050565b636d01227360e01b5f5260045260245260445ffd5b1561044f575050565b639743dfb160e01b5f5260045260245260445ffd5b1561046d575050565b631a16c05960e11b5f5260045260245260445ffd5b1561048b575050565b630f8c0ef360e01b5f5260045260245260445ffd5b156104a85750565b637c242c4360e11b5f5260045260245ffd5b156104c25750565b636860171d60e11b5f5260045260245ffd5b156104dc5750565b63cae6a1e160e01b5f5260045260245ffd5b156104f65750565b63d6622c3160e01b5f5260045260245ffd5b915f925f9280610516575050565b9193509150600a02019060091982015160f01c91600719015160c01c90565b61060c9061060690808002908180025f19600160801b808386095f198487090309906105b96105ab6105a4600f600760681b8802046609c0000000000085040169c918000000000000000086040161059c8580025f19878009621eee11605a1b9190030490565b0196606a1b90565b600f900490565b916624900000000000900490565b5f1993600160b41b936a06df92000000000000000090049190920101600160ff1b01906910000000000000000000828209915f1991090309600160fe1b81830181019291909103016106ae565b60021b90565b808002905f1990800903808002905f1990800903808002905f1990800903808002905f1990800903808002905f1990800903808002905f1990800903808002905f1990800903808002905f1990800903808002905f1990800903808002905f1990800903808002905f1990800903808002905f1990800903808002905f1990800903808002905f19908009036106ab6106a4826106ce565b9160281c90565b91565b5f198281019283919080600160fe1b850990030191600160fe1b90090890565b5f198181019180600160c11b7ff1aaddd7742e56d32fb9f997447d9e6314db84884fabab26bf059af9bc20b6090990030181600160c11b7ff1aaddd7742e56d32fb9f997447d9e6314db84884fabab26bf059af9bc20b60909089056fea2646970667358221220b8f99d0cce844958bc3e5efbaecab78f8ce35265483a574a195f1ce1b0d1a70364736f6c63430008210033","linkReferences":{}},"methodIdentifiers":{"_expand(uint256,uint256,uint256[])":"9d9a004d","_member(uint256,uint256,uint256[])":"af206f2d","_validate(uint256,int256,uint256[])":"4504c9d3"},"id":22}