{"abi":[{"type":"function","name":"transientAccess","inputs":[{"name":"slot","type":"bytes32","internalType":"bytes32"}],"outputs":[{"name":"","type":"bytes32","internalType":"bytes32"}],"stateMutability":"view"},{"type":"function","name":"transientAccess","inputs":[{"name":"slots","type":"bytes32[]","internalType":"bytes32[]"}],"outputs":[{"name":"","type":"bytes32[]","internalType":"bytes32[]"}],"stateMutability":"view"},{"type":"function","name":"transientAccess","inputs":[{"name":"startSlot","type":"bytes32","internalType":"bytes32"},{"name":"nSlots","type":"uint256","internalType":"uint256"}],"outputs":[{"name":"","type":"bytes32[]","internalType":"bytes32[]"}],"stateMutability":"view"}],"bytecode":{"object":"0x608060405234601c57600e6020565b6102b361002b82396102b390f35b6026565b60405190565b5f80fdfe60806040526004361015610013575b6101c6565b61001d5f3561004c565b8063834178fe14610047578063b84a0dd2146100425763d02bdb620361000e576101ab565b61013d565b6100a2565b60e01c90565b5f80fd5b5f80fd5b5f80fd5b90565b61006a8161005e565b0361007157565b5f80fd5b9050359061008282610061565b565b9060208282031261009d5761009a915f01610075565b90565b610056565b346100b7576100b2366004610084565b6101ce565b610052565b5f80fd5b5f80fd5b5f80fd5b909182601f830112156101025781359167ffffffffffffffff83116100fd5760200192602083028401116100f857565b6100c4565b6100c0565b6100bc565b90602082820312610138575f82013567ffffffffffffffff81116101335761012f92016100c8565b9091565b61005a565b610056565b346101535761014d366004610107565b906101e4565b610052565b90565b61016481610158565b0361016b57565b5f80fd5b9050359061017c8261015b565b565b91906040838203126101a6578061019a6101a3925f8601610075565b9360200161016f565b90565b610056565b346101c1576101bb36600461017e565b90610230565b610052565b5f80fd5b5f90565b6101d66101ca565b505c5f5260205ff35b606090565b906101ed6101df565b50604051916020806040858281528583820152019360051b840192935b84355c8152019201838284101561022a575060208083949092945061020a565b80830390f35b6102386101df565b5060405191600160206040858460051b948382528382015201928301925b845c8152019201838284101561027757506001602083949091929450610256565b80830390f3fea26469706673582212205d83a7fbde609fb0c3316a2403c8ff644702828c43a25e9a6a00cdbb6f81d7b364736f6c63430008210033","linkReferences":{}},"methodIdentifiers":{"transientAccess(bytes32)":"834178fe","transientAccess(bytes32,uint256)":"d02bdb62","transientAccess(bytes32[])":"b84a0dd2"},"id":5}