{"abi":[{"type":"constructor","inputs":[{"name":"_delegatee","type":"address","internalType":"address"},{"name":"admin","type":"address","internalType":"address"}],"stateMutability":"nonpayable"},{"type":"function","name":"allowance","inputs":[{"name":"owner","type":"address","internalType":"address"},{"name":"spender","type":"address","internalType":"address"},{"name":"tag","type":"uint256","internalType":"Tag"}],"outputs":[{"name":"amount","type":"uint256","internalType":"uint256"}],"stateMutability":"view"},{"type":"function","name":"approve","inputs":[{"name":"spender","type":"address","internalType":"address"},{"name":"tag","type":"uint256","internalType":"Tag"},{"name":"amount","type":"uint256","internalType":"uint256"}],"outputs":[{"name":"success","type":"bool","internalType":"bool"}],"stateMutability":"nonpayable"},{"type":"function","name":"balanceOf","inputs":[{"name":"owner","type":"address","internalType":"address"},{"name":"tag","type":"uint256","internalType":"Tag"}],"outputs":[{"name":"amount","type":"uint256","internalType":"uint256"}],"stateMutability":"view"},{"type":"function","name":"clear","inputs":[{"name":"tag","type":"uint256","internalType":"Tag"},{"name":"amount","type":"uint256","internalType":"uint256"}],"outputs":[],"stateMutability":"nonpayable"},{"type":"function","name":"dispatch","inputs":[{"name":"input","type":"bytes","internalType":"bytes"}],"outputs":[{"name":"output0","type":"int256","internalType":"int256"},{"name":"output1","type":"int256","internalType":"int256"}],"stateMutability":"nonpayable"},{"type":"function","name":"isOperator","inputs":[{"name":"owner","type":"address","internalType":"address"},{"name":"spender","type":"address","internalType":"address"}],"outputs":[{"name":"status","type":"bool","internalType":"bool"}],"stateMutability":"view"},{"type":"function","name":"modifyBalance","inputs":[{"name":"owner","type":"address","internalType":"address"},{"name":"tag0","type":"uint256","internalType":"Tag"},{"name":"tag1","type":"uint256","internalType":"Tag"},{"name":"amount0","type":"int256","internalType":"int256"},{"name":"amount1","type":"int256","internalType":"int256"}],"outputs":[],"stateMutability":"nonpayable"},{"type":"function","name":"modifyBalance","inputs":[{"name":"owner","type":"address","internalType":"address"},{"name":"tag","type":"uint256","internalType":"Tag"},{"name":"amount","type":"int256","internalType":"int256"}],"outputs":[],"stateMutability":"nonpayable"},{"type":"function","name":"onERC1155BatchReceived","inputs":[{"name":"","type":"address","internalType":"address"},{"name":"","type":"address","internalType":"address"},{"name":"","type":"uint256[]","internalType":"uint256[]"},{"name":"","type":"uint256[]","internalType":"uint256[]"},{"name":"","type":"bytes","internalType":"bytes"}],"outputs":[{"name":"","type":"bytes4","internalType":"bytes4"}],"stateMutability":"pure"},{"type":"function","name":"onERC1155Received","inputs":[{"name":"","type":"address","internalType":"address"},{"name":"","type":"address","internalType":"address"},{"name":"","type":"uint256","internalType":"uint256"},{"name":"","type":"uint256","internalType":"uint256"},{"name":"","type":"bytes","internalType":"bytes"}],"outputs":[{"name":"","type":"bytes4","internalType":"bytes4"}],"stateMutability":"pure"},{"type":"function","name":"setOperator","inputs":[{"name":"spender","type":"address","internalType":"address"},{"name":"approved","type":"bool","internalType":"bool"}],"outputs":[{"name":"success","type":"bool","internalType":"bool"}],"stateMutability":"nonpayable"},{"type":"function","name":"settle","inputs":[],"outputs":[{"name":"paid","type":"uint256","internalType":"uint256"}],"stateMutability":"payable"},{"type":"function","name":"storageAccess","inputs":[{"name":"slot","type":"bytes32","internalType":"bytes32"}],"outputs":[{"name":"","type":"bytes32","internalType":"bytes32"}],"stateMutability":"view"},{"type":"function","name":"storageAccess","inputs":[{"name":"startSlot","type":"bytes32","internalType":"bytes32"},{"name":"nSlots","type":"uint256","internalType":"uint256"}],"outputs":[{"name":"","type":"bytes32[]","internalType":"bytes32[]"}],"stateMutability":"view"},{"type":"function","name":"storageAccess","inputs":[{"name":"slots","type":"bytes32[]","internalType":"bytes32[]"}],"outputs":[{"name":"","type":"bytes32[]","internalType":"bytes32[]"}],"stateMutability":"view"},{"type":"function","name":"supportsInterface","inputs":[{"name":"interfaceId","type":"bytes4","internalType":"bytes4"}],"outputs":[{"name":"","type":"bool","internalType":"bool"}],"stateMutability":"pure"},{"type":"function","name":"swap","inputs":[{"name":"poolId","type":"uint256","internalType":"uint256"},{"name":"amountSpecified","type":"int256","internalType":"int256"},{"name":"logPriceLimit","type":"int256","internalType":"X59"},{"name":"zeroForOne","type":"uint256","internalType":"uint256"},{"name":"hookData","type":"bytes","internalType":"bytes"}],"outputs":[{"name":"amount0","type":"int256","internalType":"int256"},{"name":"amount1","type":"int256","internalType":"int256"}],"stateMutability":"nonpayable"},{"type":"function","name":"sync","inputs":[{"name":"token","type":"address","internalType":"address"}],"outputs":[],"stateMutability":"nonpayable"},{"type":"function","name":"sync","inputs":[{"name":"token","type":"address","internalType":"address"},{"name":"tokenId","type":"uint256","internalType":"uint256"}],"outputs":[],"stateMutability":"nonpayable"},{"type":"function","name":"take","inputs":[{"name":"token","type":"address","internalType":"address"},{"name":"tokenId","type":"uint256","internalType":"uint256"},{"name":"to","type":"address","internalType":"address"},{"name":"amount","type":"uint256","internalType":"uint256"}],"outputs":[],"stateMutability":"nonpayable"},{"type":"function","name":"take","inputs":[{"name":"token","type":"address","internalType":"address"},{"name":"to","type":"address","internalType":"address"},{"name":"amount","type":"uint256","internalType":"uint256"}],"outputs":[],"stateMutability":"nonpayable"},{"type":"function","name":"take","inputs":[{"name":"token","type":"address","internalType":"address"},{"name":"tokenId","type":"uint256","internalType":"uint256"},{"name":"to","type":"address","internalType":"address"},{"name":"amount","type":"uint256","internalType":"uint256"},{"name":"transferData","type":"bytes","internalType":"bytes"}],"outputs":[],"stateMutability":"nonpayable"},{"type":"function","name":"transfer","inputs":[{"name":"receiver","type":"address","internalType":"address"},{"name":"tag","type":"uint256","internalType":"Tag"},{"name":"amount","type":"uint256","internalType":"uint256"}],"outputs":[{"name":"success","type":"bool","internalType":"bool"}],"stateMutability":"nonpayable"},{"type":"function","name":"transferFrom","inputs":[{"name":"sender","type":"address","internalType":"address"},{"name":"receiver","type":"address","internalType":"address"},{"name":"tag","type":"uint256","internalType":"Tag"},{"name":"amount","type":"uint256","internalType":"uint256"}],"outputs":[{"name":"success","type":"bool","internalType":"bool"}],"stateMutability":"nonpayable"},{"type":"function","name":"transferTransientBalanceFrom","inputs":[{"name":"sender","type":"address","internalType":"address"},{"name":"receiver","type":"address","internalType":"address"},{"name":"tag","type":"uint256","internalType":"Tag"},{"name":"amount","type":"uint256","internalType":"uint256"}],"outputs":[],"stateMutability":"nonpayable"},{"type":"function","name":"transientAccess","inputs":[{"name":"slot","type":"bytes32","internalType":"bytes32"}],"outputs":[{"name":"","type":"bytes32","internalType":"bytes32"}],"stateMutability":"view"},{"type":"function","name":"transientAccess","inputs":[{"name":"slots","type":"bytes32[]","internalType":"bytes32[]"}],"outputs":[{"name":"","type":"bytes32[]","internalType":"bytes32[]"}],"stateMutability":"view"},{"type":"function","name":"transientAccess","inputs":[{"name":"startSlot","type":"bytes32","internalType":"bytes32"},{"name":"nSlots","type":"uint256","internalType":"uint256"}],"outputs":[{"name":"","type":"bytes32[]","internalType":"bytes32[]"}],"stateMutability":"view"},{"type":"function","name":"unlock","inputs":[{"name":"unlockTarget","type":"address","internalType":"address"},{"name":"data","type":"bytes","internalType":"bytes"}],"outputs":[{"name":"result","type":"bytes","internalType":"bytes"}],"stateMutability":"payable"},{"type":"event","name":"Approval","inputs":[{"name":"owner","type":"address","indexed":true,"internalType":"address"},{"name":"spender","type":"address","indexed":true,"internalType":"address"},{"name":"tag","type":"uint256","indexed":true,"internalType":"Tag"},{"name":"amount","type":"uint256","indexed":false,"internalType":"uint256"}],"anonymous":false},{"type":"event","name":"Donate","inputs":[{"name":"poolId","type":"uint256","indexed":true,"internalType":"uint256"},{"name":"caller","type":"address","indexed":true,"internalType":"address"},{"name":"data","type":"bytes32","indexed":false,"internalType":"bytes32"}],"anonymous":false},{"type":"event","name":"Initialize","inputs":[{"name":"poolId","type":"uint256","indexed":true,"internalType":"uint256"},{"name":"tag0","type":"uint256","indexed":true,"internalType":"Tag"},{"name":"tag1","type":"uint256","indexed":true,"internalType":"Tag"},{"name":"data","type":"bytes","indexed":false,"internalType":"bytes"}],"anonymous":false},{"type":"event","name":"ModifyDoubleBalanceEvent","inputs":[{"name":"caller","type":"address","indexed":true,"internalType":"address"},{"name":"owner","type":"address","indexed":true,"internalType":"address"},{"name":"tag","type":"uint256","indexed":true,"internalType":"Tag"},{"name":"increment","type":"int256","indexed":false,"internalType":"int256"},{"name":"balance","type":"uint256","indexed":false,"internalType":"uint256"}],"anonymous":false},{"type":"event","name":"ModifyKernel","inputs":[{"name":"poolId","type":"uint256","indexed":true,"internalType":"uint256"},{"name":"caller","type":"address","indexed":true,"internalType":"address"},{"name":"data","type":"bytes","indexed":false,"internalType":"bytes"}],"anonymous":false},{"type":"event","name":"ModifyPoolGrowthPortion","inputs":[{"name":"poolId","type":"uint256","indexed":true,"internalType":"uint256"},{"name":"caller","type":"address","indexed":true,"internalType":"address"},{"name":"data","type":"bytes32","indexed":false,"internalType":"bytes32"}],"anonymous":false},{"type":"event","name":"ModifyPoolOwner","inputs":[{"name":"poolId","type":"uint256","indexed":true,"internalType":"uint256"},{"name":"oldOwner","type":"address","indexed":true,"internalType":"address"},{"name":"newOwner","type":"address","indexed":true,"internalType":"address"}],"anonymous":false},{"type":"event","name":"ModifyPosition","inputs":[{"name":"poolId","type":"uint256","indexed":true,"internalType":"uint256"},{"name":"caller","type":"address","indexed":true,"internalType":"address"},{"name":"data","type":"bytes32[6]","indexed":false,"internalType":"bytes32[6]"}],"anonymous":false},{"type":"event","name":"ModifyProtocol","inputs":[{"name":"newOwner","type":"address","indexed":true,"internalType":"address"},{"name":"newProtocol","type":"uint256","indexed":false,"internalType":"uint256"}],"anonymous":false},{"type":"event","name":"ModifySentinel","inputs":[{"name":"oldSentinel","type":"address","indexed":false,"internalType":"contract ISentinel"},{"name":"newSentinel","type":"address","indexed":false,"internalType":"contract ISentinel"}],"anonymous":false},{"type":"event","name":"OperatorSet","inputs":[{"name":"owner","type":"address","indexed":true,"internalType":"address"},{"name":"operator","type":"address","indexed":true,"internalType":"address"},{"name":"approved","type":"bool","indexed":false,"internalType":"bool"}],"anonymous":false},{"type":"event","name":"PoolCollection","inputs":[{"name":"poolId","type":"uint256","indexed":true,"internalType":"uint256"},{"name":"owner","type":"address","indexed":true,"internalType":"address"},{"name":"amount0","type":"uint256","indexed":false,"internalType":"uint256"},{"name":"amount1","type":"uint256","indexed":false,"internalType":"uint256"}],"anonymous":false},{"type":"event","name":"ProtocolCollection","inputs":[{"name":"poolId","type":"uint256","indexed":true,"internalType":"uint256"},{"name":"amount0","type":"uint256","indexed":false,"internalType":"uint256"},{"name":"amount1","type":"uint256","indexed":false,"internalType":"uint256"}],"anonymous":false},{"type":"event","name":"Swap","inputs":[{"name":"poolId","type":"uint256","indexed":true,"internalType":"uint256"},{"name":"caller","type":"address","indexed":true,"internalType":"address"},{"name":"data","type":"bytes32","indexed":false,"internalType":"bytes32"}],"anonymous":false},{"type":"event","name":"Transfer","inputs":[{"name":"caller","type":"address","indexed":false,"internalType":"address"},{"name":"from","type":"address","indexed":true,"internalType":"address"},{"name":"to","type":"address","indexed":true,"internalType":"address"},{"name":"tag","type":"uint256","indexed":true,"internalType":"Tag"},{"name":"amount","type":"uint256","indexed":false,"internalType":"uint256"}],"anonymous":false},{"type":"event","name":"UpdateGrowthPortions","inputs":[{"name":"poolId","type":"uint256","indexed":true,"internalType":"uint256"},{"name":"caller","type":"address","indexed":true,"internalType":"address"},{"name":"data","type":"bytes32","indexed":false,"internalType":"bytes32"}],"anonymous":false},{"type":"error","name":"AccruedGrowthPortionOverflow","inputs":[{"name":"accruedValue","type":"int256","internalType":"X127"}]},{"type":"error","name":"AlreadyUnlocked","inputs":[{"name":"currentCaller","type":"address","internalType":"address"}]},{"type":"error","name":"BalanceOverflow","inputs":[{"name":"balance","type":"uint256","internalType":"uint256"}]},{"type":"error","name":"CannotTransferToAddressZero","inputs":[]},{"type":"error","name":"CurveIndexOutOfRange","inputs":[{"name":"length","type":"uint256","internalType":"Index"}]},{"type":"error","name":"GrowthOverflow","inputs":[]},{"type":"error","name":"HookDataTooLong","inputs":[{"name":"hookDataByteCount","type":"uint256","internalType":"uint256"}]},{"type":"error","name":"InsufficientBalance","inputs":[{"name":"owner","type":"address","internalType":"address"},{"name":"tag","type":"uint256","internalType":"Tag"}]},{"type":"error","name":"InsufficientPermission","inputs":[{"name":"spender","type":"address","internalType":"address"},{"name":"tag","type":"uint256","internalType":"Tag"}]},{"type":"error","name":"InvalidDirection","inputs":[{"name":"current","type":"int256","internalType":"X59"},{"name":"limit","type":"int256","internalType":"X59"}]},{"type":"error","name":"MsgValueIsNonZero","inputs":[{"name":"msgValue","type":"uint256","internalType":"uint256"}]},{"type":"error","name":"NativeTokenCannotBeSynced","inputs":[]},{"type":"error","name":"NoDelegateCall","inputs":[{"name":"context","type":"address","internalType":"address"}]},{"type":"error","name":"NotEqualToTransientBalance","inputs":[{"name":"currentBalance","type":"int256","internalType":"int256"}]},{"type":"error","name":"OutstandingAmount","inputs":[]},{"type":"error","name":"PoolDoesNotExist","inputs":[{"name":"poolId","type":"uint256","internalType":"uint256"}]},{"type":"error","name":"PoolIsLocked","inputs":[{"name":"poolId","type":"uint256","internalType":"uint256"}]},{"type":"error","name":"ProtocolIsLocked","inputs":[]},{"type":"error","name":"SafeAddFailed","inputs":[{"name":"a","type":"int256","internalType":"X127"},{"name":"b","type":"int256","internalType":"X127"}]},{"type":"error","name":"SafeCastOverflow","inputs":[{"name":"value","type":"uint256","internalType":"uint256"}]},{"type":"error","name":"SafeInRangeAmountOverflow","inputs":[{"name":"sqrtOffsetOrSqrtInverseOffset","type":"int256","internalType":"X127"},{"name":"integral","type":"int256","internalType":"X216"},{"name":"liquidity","type":"int256","internalType":"X111"},{"name":"outgoingMax","type":"int256","internalType":"X216"},{"name":"outgoingMaxModularInverse","type":"uint256","internalType":"uint256"}]},{"type":"error","name":"SearchingForIncomingTargetFailed","inputs":[]},{"type":"error","name":"SearchingForOutgoingTargetFailed","inputs":[]},{"type":"error","name":"SearchingForOvershootFailed","inputs":[]},{"type":"error","name":"TagsOutOfOrder","inputs":[{"name":"tag0","type":"uint256","internalType":"Tag"},{"name":"tag1","type":"uint256","internalType":"Tag"}]}],"bytecode":{"object":"0x60c0604052346100425761001a610014610116565b9061019a565b610022610047565b61ae066102378239608051816114ff015260a05181611ea0015261ae0690f35b61004d565b60405190565b5f80fd5b601f801991011690565b634e487b7160e01b5f52604160045260245ffd5b9061007990610051565b810190811060018060401b0382111761009157604052565b61005b565b906100a96100a2610047565b928361006f565b565b5f80fd5b60018060a01b031690565b6100c3906100af565b90565b6100cf816100ba565b036100d657565b5f80fd5b905051906100e7826100c6565b565b9190604083820312610111578061010561010e925f86016100da565b936020016100da565b90565b6100ab565b61013461b03d8038038061012981610096565b9283398101906100e9565b9091565b90565b61014f61014a610154926100af565b610138565b6100af565b90565b6101609061013b565b90565b61016c90610157565b90565b6101789061013b565b90565b90565b61019261018d610197926100af565b610138565b61017b565b90565b6101b96101d3926101be926101ae30610163565b60805260a05261016f565b61017e565b6101cd60018060a01b0361017e565b16610220565b565b90565b6101ec6101e76101f1926101d5565b610138565b61017b565b90565b61021d7ffb342fa999fea16067b1f01baf96673f31a25f2b1443e6754d93fc40b57e8df16101d8565b90565b6102319061022c6101f4565b610233565b565b5556fe60806040526004361015610013575b610fd8565b61001d5f356101eb565b8062fdd58e146101e657806301ffc9a7146101e15780630720b584146101dc578063095bcdb6146101d75780630b0d9c09146101d257806311da60b4146101cd5780631352ea35146101c85780632b7f670f146101c357806332269698146101be57806341ee903e146101b9578063426a8493146101b457806349dff3ab146101af578063558a7297146101aa578063598af9e7146101a5578063738c440a146101a0578063745fa6521461019b578063834178fe1461019657806389c59eb914610191578063a58411941461018c578063ab7fff1814610187578063b6363cf214610182578063b84a0dd21461017d578063bc197c8114610178578063bea556c914610173578063d02bdb621461016e578063da95455914610169578063ef4fcafa14610164578063f23a6e611461015f5763fe99049a0361000e57610f9f565b610f63565b610ebf565b610e5b565b610dfa565b610dc6565b610d4d565b610c2f565b610bf9565b610bb1565b610b48565b610b0f565b610a80565b610a65565b610a27565b6109ab565b61093b565b6108b4565b610828565b6107f4565b61078a565b610667565b610592565b610523565b6104e0565b610470565b6103ff565b61035c565b6102b2565b60e01c90565b60405190565b5f80fd5b5f80fd5b5f80fd5b60018060a01b031690565b61021790610203565b90565b6102238161020e565b0361022a57565b5f80fd5b9050359061023b8261021a565b565b90565b6102498161023d565b0361025057565b5f80fd5b9050359061026182610240565b565b919060408382031261028b578061027f610288925f860161022e565b93602001610254565b90565b6101fb565b6102999061023d565b9052565b91906102b0905f60208501940190610290565b565b346102e3576102df6102ce6102c8366004610263565b90610fe0565b6102d66101f1565b9182918261029d565b0390f35b6101f7565b63ffffffff60e01b1690565b6102fd816102e8565b0361030457565b5f80fd5b90503590610315826102f4565b565b906020828203126103305761032d915f01610308565b90565b6101fb565b151590565b61034390610335565b9052565b919061035a905f6020850194019061033a565b565b3461038c57610388610377610372366004610317565b611046565b61037f6101f1565b91829182610347565b0390f35b6101f7565b61039a8161023d565b036103a157565b5f80fd5b905035906103b282610391565b565b6080818303126103f5576103ca825f830161022e565b926103f26103db84602085016103a5565b936103e9816040860161022e565b936060016103a5565b90565b6101fb565b5f0190565b346104315761041b6104123660046103b4565b92919091611092565b6104236101f1565b8061042d816103fa565b0390f35b6101f7565b909160608284031261046b57610468610451845f850161022e565b9361045f8160208601610254565b936040016103a5565b90565b6101fb565b346104a15761049d61048c610486366004610436565b916110ca565b6104946101f1565b91829182610347565b0390f35b6101f7565b90916060828403126104db576104d86104c1845f850161022e565b936104cf816020860161022e565b936040016103a5565b90565b6101fb565b3461050f576104f96104f33660046104a6565b916110e8565b6105016101f1565b8061050b816103fa565b0390f35b6101f7565b5f91031261051e57565b6101fb565b61052e366004610514565b61054a61053961125a565b6105416101f1565b9182918261029d565b0390f35b90565b61055a8161054e565b0361056157565b5f80fd5b9050359061057282610551565b565b9060208282031261058d5761058a915f01610565565b90565b6101fb565b346105a7576105a2366004610574565b611370565b6101f7565b5f80fd5b5f80fd5b5f80fd5b909182601f830112156105f25781359167ffffffffffffffff83116105ed5760200192600183028401116105e857565b6105b4565b6105b0565b6105ac565b91909160a08184031261066257610610835f830161022e565b9261061e81602084016103a5565b9261062c826040850161022e565b9261063a83606083016103a5565b92608082013567ffffffffffffffff811161065d5761065992016105b8565b9091565b6101ff565b6101fb565b3461069c5761068661067a3660046105f7565b94939093929192611381565b61068e6101f1565b80610698816103fa565b0390f35b6101f7565b90565b6106ad816106a1565b036106b457565b5f80fd5b905035906106c5826106a4565b565b6106d0816106a1565b036106d757565b5f80fd5b905035906106e8826106c7565b565b91909160a08184031261075557610703835f83016103a5565b9261071181602084016106b8565b9261071f82604085016106db565b9261072d83606083016103a5565b92608082013567ffffffffffffffff81116107505761074c92016105b8565b9091565b6101ff565b6101fb565b610763906106a1565b9052565b91602061078892949361078160408201965f83019061075a565b019061075a565b565b346107c2576107a961079d3660046106ea565b949390939291926114d3565b906107be6107b56101f1565b92839283610767565b0390f35b6101f7565b91906040838203126107ef57806107e36107ec925f8601610254565b936020016103a5565b90565b6101fb565b346108235761080d6108073660046107c7565b90611917565b6108156101f1565b8061081f816103fa565b0390f35b6101f7565b346108595761085561084461083e366004610436565b91611967565b61084c6101f1565b91829182610347565b0390f35b6101f7565b919060a0838203126108af57610876815f850161022e565b926108848260208301610254565b926108ac6108958460408501610254565b936108a381606086016106b8565b936080016106b8565b90565b6101fb565b346108e6576108d06108c736600461085e565b93929092611a74565b6108d86101f1565b806108e2816103fa565b0390f35b6101f7565b6108f481610335565b036108fb57565b5f80fd5b9050359061090c826108eb565b565b9190604083820312610936578061092a610933925f860161022e565b936020016108ff565b90565b6101fb565b3461096c5761096861095761095136600461090e565b90611c8a565b61095f6101f1565b91829182610347565b0390f35b6101f7565b90916060828403126109a6576109a361098c845f850161022e565b9361099a816020860161022e565b93604001610254565b90565b6101fb565b346109dc576109d86109c76109c1366004610971565b91611ce4565b6109cf6101f1565b9182918261029d565b0390f35b6101f7565b919091604081840312610a22576109fa835f830161022e565b92602082013567ffffffffffffffff8111610a1d57610a1992016105b8565b9091565b6101ff565b6101fb565b610a323660046109e1565b91611d2d565b9190604083820312610a605780610a54610a5d925f8601610565565b936020016103a5565b90565b6101fb565b34610a7b57610a75366004610a38565b90611dbb565b6101f7565b34610a9557610a90366004610574565b611e08565b6101f7565b909182601f83011215610ad45781359167ffffffffffffffff8311610acf576020019260208302840111610aca57565b6105b4565b6105b0565b6105ac565b90602082820312610b0a575f82013567ffffffffffffffff8111610b0557610b019201610a9a565b9091565b6101ff565b6101fb565b34610b2557610b1f366004610ad9565b90611e19565b6101f7565b90602082820312610b4357610b40915f0161022e565b90565b6101fb565b34610b7657610b60610b5b366004610b2a565b611e65565b610b686101f1565b80610b72816103fa565b0390f35b6101f7565b90602082820312610bac575f82013567ffffffffffffffff8111610ba757610ba392016105b8565b9091565b6101ff565b6101fb565b34610bc757610bc1366004610b7b565b90611e83565b6101f7565b9190604083820312610bf45780610be8610bf1925f860161022e565b9360200161022e565b90565b6101fb565b34610c2a57610c26610c15610c0f366004610bcc565b90611ee0565b610c1d6101f1565b91829182610347565b0390f35b6101f7565b34610c4557610c3f366004610ad9565b90611f11565b6101f7565b909182601f83011215610c845781359167ffffffffffffffff8311610c7f576020019260208302840111610c7a57565b6105b4565b6105b0565b6105ac565b9160a083830312610d2657610ca0825f850161022e565b92610cae836020830161022e565b92604082013567ffffffffffffffff8111610d215781610ccf918401610c4a565b929093606082013567ffffffffffffffff8111610d1c5783610cf2918401610c4a565b929093608082013567ffffffffffffffff8111610d1757610d1392016105b8565b9091565b6101ff565b6101ff565b6101ff565b6101fb565b610d34906102e8565b9052565b9190610d4b905f60208501940190610d2b565b565b34610d8757610d83610d72610d63366004610c89565b96959095949194939293611f61565b610d7a6101f1565b91829182610d38565b0390f35b6101f7565b9091606082840312610dc157610dbe610da7845f850161022e565b93610db58160208601610254565b936040016106b8565b90565b6101fb565b34610df557610ddf610dd9366004610d8c565b91611f7d565b610de76101f1565b80610df1816103fa565b0390f35b6101f7565b34610e1057610e0a366004610a38565b90611fe2565b6101f7565b608081830312610e5657610e2b825f830161022e565b92610e53610e3c846020850161022e565b93610e4a8160408601610254565b936060016103a5565b90565b6101fb565b34610e8d57610e77610e6e366004610e15565b9291909161203d565b610e7f6101f1565b80610e89816103fa565b0390f35b6101f7565b9190604083820312610eba5780610eae610eb7925f860161022e565b936020016103a5565b90565b6101fb565b34610eee57610ed8610ed2366004610e92565b90612086565b610ee06101f1565b80610eea816103fa565b0390f35b6101f7565b91909160a081840312610f5e57610f0c835f830161022e565b92610f1a816020840161022e565b92610f2882604085016103a5565b92610f3683606083016103a5565b92608082013567ffffffffffffffff8111610f5957610f5592016105b8565b9091565b6101ff565b6101fb565b34610f9a57610f96610f85610f79366004610ef3565b949390939291926120af565b610f8d6101f1565b91829182610d38565b0390f35b6101f7565b34610fd357610fcf610fbe610fb5366004610e15565b929190916120c9565b610fc66101f1565b91829182610347565b0390f35b6101f7565b5f80fd5b5f90565b610ffb91610ff691610ff0610fdc565b506120f3565b612118565b90565b5f90565b90565b60e01b90565b61101f61101a61102492611002565b611005565b6102e8565b90565b90565b61103e61103961104392611027565b611005565b6102e8565b90565b61104e610ffe565b50806110666110606301ffc9a761100b565b916102e8565b14908115611073575b5090565b905061108b611085630f632fb361102a565b916102e8565b145f61106f565b916110c89391926110a1612193565b6110bf336110b08387906121c9565b6110b986612221565b91612298565b9290919261232e565b565b90916110e3926110d8610ffe565b5033929091926123ed565b600190565b91611119926110f5612193565b61111133611102836124e2565b61110b85612221565b91612298565b9190916124f6565b565b5f90565b90565b90565b61113961113461113e9261111f565b611122565b610203565b90565b61114a90611125565b90565b61116161115c6111669261111f565b611122565b61023d565b90565b156111715750565b61118c905f91829163833bded760e01b83526004830161029d565b0390fd5b6111a461119f6111a99261023d565b611122565b61023d565b90565b6111bb6111c191939293611190565b92611190565b90565b634e487b7160e01b5f52601160045260245ffd5b6111e76111ed9193929361023d565b9261023d565b82039182116111f857565b6111c4565b6112065f61114d565b90565b61121d6112186112229261111f565b611122565b6106a1565b90565b61123461123a919392936106a1565b926106a1565b91828103925f82851281831216928513911215161761125557565b6111c4565b611262610fdc565b5061126b612193565b6112736126dc565b91939293909161128161111b565b508461129d6112976112925f611141565b61020e565b9161020e565b145f146112dd5750505090506112b16111fd565b906112db34925b33906112d55f6112d06112ca88612221565b91611209565b611225565b91612298565b565b6112fb346112f36112ed5f61114d565b9161023d565b143490611169565b611303610fdc565b505f1461133d57906113386113326113296112db946113238882906121c9565b9761281b565b5b9592866111d8565b9461288c565b6112b8565b506112db906113386113648561135e611358611332986124e2565b916127b4565b906111ac565b95909561132a565b5f90565b61137861136c565b50545f5260205ff35b916113bb9593919492611392612193565b6113b0336113a18389906121c9565b6113aa86612221565b91612298565b94909192939461289f565b565b5f90565b6113d56113d06113da92610203565b611122565b610203565b90565b6113e6906113c1565b90565b6113f2906113dd565b90565b6113fe9061020e565b9052565b9190611415905f602085019401906113f5565b565b1561141f5750565b61143a905f918291631569cf5360e01b835260048301611402565b0390fd5b6114475f611209565b90565b90565b61ffff1690565b61146861146361146d9261144a565b611122565b61144d565b90565b61147b610206611454565b90565b61149261148d6114979261144d565b611122565b61023d565b90565b6114a35f61114d565b90565b90565b6114bd6114b86114c2926114a6565b611122565b61144d565b90565b6114d06101c86114a9565b90565b5050505050506114e16113bd565b506114ea6113bd565b506115396114f7306113e9565b6115296115237f000000000000000000000000000000000000000000000000000000000000000061020e565b9161020e565b14611533306113e9565b90611417565b611541612193565b611549612947565b611551612aed565b6118c0575b61155e612b1c565b61156781612b81565b61156f612bc0565b611577612ca7565b6118b3575b611584612f08565b61158c613206565b6118a6575b6115aa61159c613235565b6115a4613248565b9061325b565b8015611887575b611866576115bd610ffe565b5b600115611860576115ee6115d0613248565b6115e86115e36115de611470565b61147e565b61329a565b9061325b565b6117a0575b61161c6115fe613248565b61161661161161160c6114c5565b61147e565b61329a565b9061396a565b8015611781575b8015611737575b5f1461172457611638613e92565b61171e575b611656611648613248565b611650613235565b9061325b565b61171857611673611665613268565b61166d61143e565b90613278565b156115be57505b611682614597565b61168a612ca7565b61170b575b611697614766565b6116a76116a26147b4565b6147c4565b916116e76116bb6116b66147d7565b6147c4565b926116cf336116c86147e7565b8791612298565b6116e2336116db6147f7565b8691612298565b613285565b6116ef614807565b6116f761485d565b6116fe575b565b61170661487a565b6116fc565b61171361469a565b61168f565b5061167a565b5061167a565b61172c6139f2565b1561163d575061167a565b506117406139c0565b61177a61177461176f611751613235565b61176961176461175f611470565b61147e565b61329a565b906139d3565b610335565b91610335565b141561162a565b5061179b61178d61398d565b6117956139a0565b906139b3565b611623565b6117c8906117bd6117af6132ae565b6117b761149a565b906132c1565b611853575b15610335565b6117dc575b6117d5613488565b60016115f3565b61181561181061180b6117ed61335c565b6118056118006117fb6114c5565b61147e565b61329a565b9061336b565b613391565b61339e565b61184e61184961184461182661335c565b61183e611839611834611470565b61147e565b61329a565b9061336b565b613391565b6133a4565b6117cd565b61185b6132e0565b6117c2565b5061167a565b61186f90613285565b5f9061188461187e5f93611209565b92611209565b90565b506118a1611893613268565b61189b61143e565b90613278565b6115b1565b6118ae613223565b611591565b6118bb612cf6565b61157c565b6118c8612b0a565b611556565b906118d891016106a1565b90565b91906118ee905f6020850194019061075a565b565b156118f85750565b611913905f918291633733429b60e21b8352600483016118db565b0390fd5b61192b61196592611926612193565b612221565b61195c61193933849061488c565b6119448382906118cd565b6119566119505f611209565b916106a1565b146118f0565b33919091612298565b565b909161199692611975610ffe565b5061198c611985338584916148aa565b83906148dc565b33929091926148eb565b600190565b6119a490611190565b9052565b9160206119c99294936119c260408201965f83019061199b565b019061199b565b565b156119d4575050565b6119ee5f928392633fa491e760e21b8452600484016119a8565b0390fd5b916020611a13929493611a0c60408201965f8301906113f5565b019061199b565b565b15611a1e575050565b611a385f928392633db7aa8160e21b8452600484016119f2565b0390fd5b90611a47910361023d565b90565b611a5e611a59611a63926106a1565b611122565b61023d565b90565b90611a71910161023d565b90565b9293909193611a81612193565b611a97611a8f868590614941565b8487916119cb565b611aa38484879161494e565b92611b1a611ab08561497f565b919084611ac5611abf5f611209565b916106a1565b12155f14611be557611ae090611ada86611a4a565b90611a66565b915b85611af5611aef5f611209565b916106a1565b12155f14611b9d57611b1090611b0a87611a4a565b90611a66565b955b828791614ae6565b611b2633838591612298565b611b3233888691612298565b82611b45611b3f5f611209565b916106a1565b03611b85575b50505080611b61611b5b5f611209565b916106a1565b03611b6d575b50505050565b611b7c93339390919293614b8a565b5f808080611b67565b611b959233928790919293614b8a565b5f8080611b4b565b611bdf90611ba9610fdc565b50865f03611bb98a8c83916149dc565b611bd982611bcf611bc98461023d565b9161023d565b10158b8d91611a15565b90611a3c565b95611b12565b611c2790611bf1610fdc565b50855f03611c018a8783916149dc565b611c2182611c17611c118461023d565b9161023d565b10158b8891611a15565b90611a3c565b91611ae2565b60ff1690565b611c47611c42611c4c9261111f565b611122565b611c2d565b90565b90565b611c66611c61611c6b92611c4f565b611122565b611c2d565b90565b611c82611c7d611c8792611c2d565b611122565b61023d565b90565b611cce91611c96610ffe565b50611cc5611ca5338490614be4565b825f14611cd357611cbf611cb96001611c52565b5b611c6e565b906148dc565b33919091614c0a565b600190565b611cbf611cdf5f611c33565b611cba565b90611d0392611cfe92611cf5610fdc565b509190916148aa565b612118565b90565b606090565b15611d1257565b5f62ef38f560e61b815280611d29600482016103fa565b0390fd5b9050611d449150611d3c611d06565b503390614cc9565b63d4e27d3b60e01b60805233608452604060a4525f806064600460243501803590602082019060c437016080346004355af115611dae57611d9e611d86614d6c565b611d98611d925f61114d565b9161023d565b14611d0b565b611da6614d88565b3d5f803e3d5ff35b3d5f803e3d5ffd5b606090565b611dc3611db6565b5060405191600160206040858460051b948382528382015201928301925b845481520192018382841015611e0257506001602083949091929450611de1565b80830390f35b611e1061136c565b505c5f5260205ff35b90611e22611db6565b50604051916020806040858281528583820152019360051b840192935b84355481520192018382841015611e5f5750602080839490929450611e3f565b80830390f35b611e7c611e8191611e77815f90614e1a565b6127b4565b61288c565b565b5050611e8d6113bd565b50611e966113bd565b5060405f602060807f0000000000000000000000000000000000000000000000000000000000000000600480350180359384910183375af415611ed85760405ff35b3d5f803e3d5ffd5b611efb91611ef691611ef0610ffe565b50614be4565b612118565b611f0d611f075f61114d565b9161023d565b1190565b90611f1a611db6565b50604051916020806040858281528583820152019360051b840192935b84355c81520192018382841015611f575750602080839490929450611f37565b80830390f35b5f90565b5050505050505050611f71611f5d565b5063bc197c8160e01b90565b91611fc392611f8a612193565b81611f9d611f975f611209565b916106a1565b12155f14611fc557611fb99083611fb384611a4a565b91614f23565b5b33919091612298565b565b611fdd90611fd1610fdc565b50825f03849091614eb3565b611fba565b611fea611db6565b5060405191600160206040858460051b948382528382015201928301925b845c8152019201838284101561202957506001602083949091929450612008565b80830390f35b9061203a91036106a1565b90565b9061207e9061206e61206561208496612054612193565b612060868883916149dc565b612221565b93858591612298565b92916120795f611209565b61202f565b91612298565b565b6120ad916120a89161209a81600190614e1a565b6120a382614f95565b61281b565b61288c565b565b5050505050506120bd611f5d565b5063f23a6e6160e01b90565b916120ee9391926120d8610ffe565b506120e5818385916149dc565b929091926123ed565b600190565b6120fb610fdc565b506b3c244899b5fa3e971383ac4b6020526014525f5260405f2090565b612120610fdc565b505490565b90565b61213c61213761214192612125565b611122565b61023d565b90565b61216d7fd71f1cf4f9d9f82ef0f0a7247563f6632677ada0e0f8f0d8734b4d2327da39e9612128565b90565b1561217757565b5f63892e4e5760e01b81528061218f600482016103fa565b0390fd5b6121c76121a66121a1612144565b614fa8565b6121c06121ba6121b55f611141565b61020e565b9161020e565b1415612170565b565b6121d161111b565b506014525f5260345f2090565b156121e65750565b612201905f918291630d643c8160e21b83526004830161029d565b0390fd5b61221961221461221e9261023d565b611122565b6106a1565b90565b6122609061222d6113bd565b5061225b8161225261224c61224760018060ff1b03611a4a565b61023d565b9161023d565b111582906121de565b612205565b90565b612272612278919392936106a1565b926106a1565b808301925f8285121581831216928512911215161761229357565b6111c4565b919091816122ae6122a85f611209565b916106a1565b14612329576122fd926122c091614fb5565b6122d36122cc82614fda565b9283612263565b91826122e76122e15f611209565b916106a1565b145f146122ff57506122f7615015565b5b615043565b565b61231161230b5f611209565b916106a1565b1461231c575b6122f8565b612324614fe7565b612317565b505050565b915f80936020956064946304ade6db60e11b946040519586526004860152602485015260448401525af160203d1460015f511416161561236a57565b3d5f803e3d5ffd5b1561237957565b5f63a7cd662f60e01b815280612391600482016103fa565b0390fd5b6fffffffffffffffffffffffffffffffff1690565b6123be6123b96123c392612395565b611122565b61023d565b90565b156123ce5750565b6123e9905f918291630610d90760e11b83526004830161029d565b0390fd5b916124e093916124188161241161240b6124065f611141565b61020e565b9161020e565b1415612372565b6124616124268584906120f3565b61245b61243282612118565b91612453836124496124438a61023d565b9161023d565b1015898891611a15565b918690611a3c565b906148dc565b6124d561246f8284906120f3565b6124cf61247b82612118565b916124c7836124b46124ae6124a96fffffffffffffffffffffffffffffffff6124a48d916123aa565b611a3c565b61023d565b9161023d565b11156124c1858a90611a66565b906123c6565b918690611a66565b906148dc565b339390919293615069565b565b6124ea61111b565b5060018060a01b031690565b8061251161250b6125065f611141565b61020e565b9161020e565b145f1461253157505f80809381935af115612529575b565b3d5f803e3d5ffd5b60445f8080936020959663a9059cbb60e01b976040519884526004526024525af1601f3d1160015f5114163d1517161561256d57604052612527565b3d5f803e3d5ffd5b5f90565b90565b61259061258b61259592612579565b611122565b61023d565b90565b6125c17f9b9b0454cadcb5884dd3faa6ba975da4d2459aa3f11d31291a25a8358f84946c61257c565b90565b6125d86125d36125dd92610203565b611122565b61023d565b90565b6125f46125ef6125f99261023d565b611122565b610203565b90565b90565b61261361260e612618926125fc565b611122565b611c2d565b90565b1c90565b61263e9061263861263261264394611c2d565b9161023d565b9061261b565b61023d565b90565b90565b61265d61265861266292612646565b611122565b61023d565b90565b61268e7f53dc9bf46bebdca9be947ee80674b58899973aac1948a8396714431da6d4f166612649565b90565b90565b6126a86126a36126ad92612691565b611122565b61023d565b90565b6126d97ff712c2fa585715e22c7fcc833629ce4482ad96496ecd08f3a14847183c4ef4ed612694565b90565b6126e4612575565b506126ed610fdc565b6126f5610fdc565b6126fd610ffe565b61270d612708612598565b6150c0565b9361272f61272a8661272460018060a01b036125c4565b166125e0565b6113dd565b948561274b6127456127405f611141565b61020e565b9161020e565b03612754575b50565b90925061276c915061276660a06125ff565b9061261f565b61277e6127785f61114d565b9161023d565b118061279c575b6127956127906126b0565b6150c0565b915f612751565b91506127ae6127a9612665565b6150c0565b91612785565b5f602481806020946127c4610fdc565b506370a0823160e01b8252306004525af160203d141615612813575f5190612811826128086128026fffffffffffffffffffffffffffffffff6123aa565b9161023d565b111583906123c6565b565b3d5f803e3d5ffd5b5f6044818060209461282b610fdc565b50627eeac760e11b96604051978352306004526024525af160203d141615612884576040525f5190612882826128796128736fffffffffffffffffffffffffffffffff6123aa565b9161023d565b111583906123c6565b565b3d5f803e3d5ffd5b61289d906128986126b0565b6150cd565b565b925f955085946020918693637921219560e11b9560405196875230600488015260248701526044860152606485015260a0608485015203803590816020019060a485013760c401925af1156128f057565b3d5f803e3d5ffd5b5f90565b5f90565b5f90565b1561290c5750565b612927905f91829163805cfd4b60e01b83526004830161029d565b0390fd5b61293f61293a6129449261023d565b611122565b61144d565b90565b612950336150d0565b612958610fdc565b506129646004356150e3565b61296c6128f8565b506024356f7fffffffffffffffffffffffffffffff5f038112612ad4575b6f7fffffffffffffffffffffffffffffff8113612ab8575b6129b1906001607f1b026150e8565b6129b96128fc565b506129c56044356150ee565b6129cd610fdc565b5060643560801c6f7fffffffffffffffffffffffffffffff8111612a9c575b6129f5906150f4565b60743560801c60028111612a94575b61015053612a10612900565b50612a19610fdc565b50612a22610fdc565b50612a2b610fdc565b50612a92608435600401612a8d61080891612a88612a838235612a5d818701968260208060a48b030397018237615107565b612a7e81612a75612a6f61ffff61147e565b9161023d565b11158290612904565b61292b565b61510d565b615122565b615127565b565b506002612a04565b506129f56f7fffffffffffffffffffffffffffffff90506129ec565b506129b16f7fffffffffffffffffffffffffffffff90506129a2565b506f7fffffffffffffffffffffffffffffff5f0361298a565b612af5610ffe565b505f610100612b0261335c565b60a01c161190565b612b1a632c9a874560e11b615185565b565b612b24610fdc565b50612b2d61335c565b7f08afe526398486e38896d620563771687e7d20a3b0d01f72483eeb2e7d93a48e6020525f5260405f2090565b15612b625750565b612b7d905f9182916376f8d70760e01b83526004830161029d565b0390fd5b612bba90612bb2612b91826150c0565b612ba3612b9d5f61114d565b9161023d565b14612bac61335c565b90612b5a565b5f19906150cd565b565b5f90565b612bc8615211565b612c99602060a4612bdf612bda6152b5565b6152c5565b612be8816152ef565b612c09612c04612bf6615301565b612bfe615314565b90615327565b61534e565b6001612c43612c1783615363565b612c2081615382565b612c35612c2b615397565b94859083916153a7565b612c3d6132ae565b906153be565b612c4b612bbc565b500360061b01612c5a816153e4565b60026001612c666153ea565b612c6f816154c0565b612c77610fdc565b5003811c0160051b01612c89816154d5565b612c91610fdc565b500303615122565b565b612ca45f61114d565b90565b612caf610ffe565b50612cc9612cbb615301565b612cc3612c9b565b906154da565b8015612cd3575b90565b50612ced612cdf6154e7565b612ce7612c9b565b906154da565b612cd0565b5f90565b612cfe612cf2565b50612d07612cf2565b50612d106128f8565b50612d196128f8565b50612d8a612d35612d30612d2b61335c565b6154fa565b612118565b612d8562ffffff8260d01c1691612d808160e81c612d7b6cffffffffffffffffffffffffff8416607f1b936cffffffffffffffffffffffffff60681b1660171b95615520565b615535565b61554a565b615550565b565b90565b612da3612d9e612da892612d8c565b611122565b61144d565b90565b612db6610760612d8f565b90565b612dcd612dc8612dd292611c4f565b611122565b6106a1565b90565b612ddf6001612db9565b90565b90565b612df9612df4612dfe92612de2565b611122565b6106a1565b90565b612e1368010000000000000000612de5565b90565b90565b612e2d612e28612e3292612e16565b611122565b6106a1565b90565b612e46678000000000000000612e19565b90565b612e5d612e58612e6292611c4f565b611122565b61023d565b90565b612e79612e74612e7e926106a1565b611122565b6106a1565b90565b612e8a90612e65565b9052565b916020612eaf929493612ea860408201965f830190612e81565b0190612e81565b565b15612eba575050565b612ed45f9283926316b77c3360e31b845260048401612e8e565b0390fd5b612ee7612eed91939293612e65565b92612e65565b90565b612eff612f0591939293612e65565b92612e65565b90565b61310e612f1b612f16615556565b615573565b612fde612fd9612f39612f34612f2f612dab565b61147e565b61329a565b612fd3612f4e82612f48612dd5565b906155ce565b612fcd612fbc612f84612f69612f62612e01565b85906155db565b93612f7e612f77828c6155db565b88906155e8565b906155ce565b612fb6612fa0612f92612e35565b612f9a6155f5565b906155ce565b612fb0612fab61335c565b615605565b906155db565b9061561c565b93612fc8838a906155db565b6155e8565b906155db565b90615642565b615669565b612ff7612fe9613235565b612ff1613248565b906139d3565b90613000610fdc565b506101505160f81c8061301c6130166001612e49565b9161023d565b11156131c0575b5061302d8261567e565b61304e61304961303b613268565b61304361143e565b90615687565b6156a6565b815f146131ab5761307190925b9261306c6130676114c5565b61147e565b6156af565b5f14613120576130b561309461308d6130886114c5565b61147e565b5f906156c9565b6130af6130a76130a2612dab565b61147e565b6001906156c9565b90615712565b6130f36130d36130cb6130c66114c5565b61147e565b6001906156c9565b6130ed6130e66130e1612dab565b61147e565b5f906156c9565b906156e2565b905b613105613100611470565b61147e565b92909192615777565b613116615791565b61311e615916565b565b6131a56131606131406131396131346114c5565b61147e565b5f906156c9565b61315a61315361314e612dab565b61147e565b5f906156c9565b906156e2565b61319f61317e6131766131716114c5565b61147e565b6001906156c9565b61319961319161318c612dab565b61147e565b6001906156c9565b90615712565b90612ef0565b906130f5565b6131b89061307193612ed8565b92909261305b565b613200906131d66131d05f61114d565b9161023d565b116131e96131e385610335565b91610335565b146131f2613248565b6131fa613235565b91612eb1565b5f613023565b61320e610ffe565b505f61020061321b61335c565b60a01c161190565b613233631c5a976960e21b615185565b565b61323d6128fc565b506101485160c01c90565b6132506128fc565b506106775160c01c90565b613263610ffe565b501490565b6132706128f8565b506101085190565b613280610ffe565b501490565b613298906132925f61114d565b906150cd565b565b6132a26128fc565b505160c01c90565b5f90565b6132b66132aa565b506108065160f01c90565b6132dd916132d7916132d1610ffe565b506159a4565b15610335565b90565b61335a6132fe6132ee6152b5565b6132f86001612e49565b90611a66565b613307816159b1565b61335561331b6133156132ae565b926152c5565b613324816152ef565b613345613340613332615301565b61333a615314565b90615327565b61534e565b61334d615397565b9083916153a7565b615382565b565b613364610fdc565b5060d85190565b90613374610fdc565b50671447e579411c2c936010526008525f5260305f2090565b5f90565b61339961338d565b505490565b61024452565b61026452565b6133b35f611209565b90565b6133ce6133c86133d492959395612e65565b94612e65565b92612e65565b90565b6133e05f61114d565b90565b90565b6133fa6133f56133ff926133e3565b611122565b61023d565b90565b6134277b0ba4f53ea38636f85f007042540ae8ef33225e9a7ab4f4473a86d4a86133e6565b90565b90565b61344161343c6134469261342a565b611122565b6106a1565b90565b613456600160d81b61342d565b90565b90565b61347061346b61347592613459565b611122565b6106a1565b90565b6134856001606f1b61345c565b90565b6137776134936139c0565b805f14613921576134e06134a56133aa565b6134db6134d46134c66134be6134b9611470565b61147e565b6001906156c9565b6134ce6159b7565b906159ca565b915b615a28565b615a3d565b6135096134f36134ee6114c5565b61147e565b6135036134fe611470565b61147e565b90615a52565b805f14613859576135e761354c61352e613529613524611470565b61147e565b61329a565b61354661354161353c612dab565b61147e565b61329a565b906155db565b61358a61356961356261355d611470565b61147e565b5f906156c9565b61358461357c613577612dab565b61147e565b6001906156c9565b90615712565b6135c86135a86135a061359b611470565b61147e565b6001906156c9565b6135c26135bb6135b6612dab565b61147e565b5f906156c9565b906156e2565b919091905b916135de6135d9611470565b61147e565b92909192615777565b6137186137136135f5615a59565b61364861362161360361335c565b61361b613616613611611470565b61147e565b61329a565b9061336b565b61362a81613391565b9061363d826136376133d7565b90615a69565b6137f0575b506133a4565b6136c7613690613656615ad0565b61368a613661615ae4565b61368461367461366f6114c5565b61147e565b61367e8b15610335565b906156c9565b90615b54565b90615be7565b6136998161339e565b6136c26136a461335c565b6136bc6136b76136b26114c5565b61147e565b61329a565b9061336b565b615acd565b61370d6136e46136d5613478565b926136de615a59565b90615bf4565b6137076136f76136f26114c5565b61147e565b6137018815610335565b906156c9565b90615c20565b90615ca0565b615cc6565b61374961374461372661335c565b61373e6137396137346114c5565b61147e565b61329a565b90615cdb565b615cfd565b905f146137ca5761376c61377191613767613762615d0a565b612205565b61202f565b611a4a565b5b615d1d565b6137b8613782615556565b61379a6137956137906114c5565b61147e565b61329a565b6137b26137ad6137a8611470565b61147e565b61329a565b91615d5e565b6137c0615791565b6137c8615916565b565b6137e66137eb916137e16137dc615d0a565b612205565b6118cd565b611a4a565b613772565b905061385361384b613800613402565b61381a61381361380e611470565b61147e565b8a906156c9565b613845613825613449565b61383f613838613833612dab565b61147e565b5f906156c9565b90615a76565b91615a83565b918290615acd565b5f613642565b6135e761391a61389861387a613875613870611470565b61147e565b61329a565b61389261388d613888612dab565b61147e565b61329a565b906155ce565b6138d56138b56138ae6138a9611470565b61147e565b5f906156c9565b6138cf6138c86138c3612dab565b61147e565b5f906156c9565b906156e2565b6139146138f36138eb6138e6611470565b61147e565b6001906156c9565b61390e613906613901612dab565b61147e565b6001906156c9565b90615712565b916133b6565b90916135cd565b6134e06134db61396361395561394761394061393b611470565b61147e565b5f906156c9565b61394f6159b7565b906159ca565b61395d6133aa565b90612ef0565b91906134d6565b613986916139809161397a610ffe565b5061325b565b15610335565b90565b5f90565b613995613989565b506101525160281c90565b6139a8613989565b5061016d5160281c90565b6139bb610ffe565b501290565b6139c8610ffe565b506101505160ff1c90565b6139ef916139e9916139e3610ffe565b50615d7c565b15610335565b90565b6139fa610ffe565b90613a03615d0a565b613a1c613a16613a11615d89565b61023d565b9161023d565b10613d1757613a41613a3c613a37613a32611470565b61147e565b61329a565b615d9b565b613a82613a4c615556565b613a64613a5f613a5a611470565b61147e565b61329a565b613a7c613a77613a726114c5565b61147e565b61329a565b91615d5e565b613a9b613a8d615ae4565b613a95615d0a565b90615db0565b613aa36128f8565b50613aac6128f8565b50613ab56139c0565b5f14613cc057613b0b613ad4613ac9615eef565b836001905f92615e71565b91613b00613af2613aeb613ae6611470565b61147e565b5f906156c9565b613afa615edc565b906159ca565b905f90600192615e71565b905b613b156139c0565b5f14613c7657613b60613b49613b3b613b34613b2f611470565b61147e565b5f906156c9565b613b436159b7565b906159ca565b613b5b613b546133aa565b915b615a28565b615a3d565b613b9a613b95613b6e615ae4565b613b87613b79615edc565b613b816159b7565b90615a76565b613b8f6159b7565b91615f02565b615cc6565b613ba2615d0a565b613bb4613bae5f61114d565b9161023d565b14613c6e5790613bd091613bc6612ca7565b613bd2575b6160ca565b565b613bfd82613bef613be1615edc565b613be96159b7565b90615a76565b613bf7615edc565b91615f33565b613c056139c0565b5f14613c3d57613c32613c2b613c3792613c1d61608f565b613c2561609f565b91615fb0565b919061554a565b615520565b5b613bcb565b613c64613c5d613c6992613c4f615f8d565b613c57615f9d565b91615fb0565b9190615550565b615535565b613c38565b505090505f90565b613b60613b5b613cb9613c876133aa565b613cb3613ca5613c9d613c98611470565b61147e565b6001906156c9565b613cad6159b7565b906159ca565b90612ef0565b9190613b56565b613d11613cd8613cce615dbd565b835f905f92615e71565b91613d05613cf7613cef613cea611470565b61147e565b6001906156c9565b613cff615edc565b906159ca565b90600190600192615e71565b90613b0d565b9050600190565b90565b613d35613d30613d3a92613d1e565b611122565b61144d565b90565b613d4861038b613d21565b90565b90565b613d62613d5d613d6792613d4b565b611122565b61144d565b90565b613d75610522613d4e565b90565b90565b613d8f613d8a613d9492613d78565b611122565b61144d565b90565b613da26103c9613d7b565b90565b90565b613dbc613db7613dc192613da5565b611122565b61144d565b90565b613dcf610558613da8565b90565b90565b613de9613de4613dee92613dd2565b611122565b61144d565b90565b613dfc6104c9613dd5565b90565b90565b613e16613e11613e1b92613dff565b611122565b61144d565b90565b613e29610507613e02565b90565b90565b613e43613e3e613e4892613e2c565b611122565b61144d565b90565b613e56610449613e2f565b90565b613e625f61114d565b90565b90565b613e7c613e77613e8192613e65565b611122565b61144d565b90565b613e8f610293613e68565b90565b613e9a610ffe565b613ea2615d0a565b613ebb613eb5613eb0615d89565b61023d565b9161023d565b1061459157613ec8616268565b613ed0616409565b905b613ef4613eed613ee8613ee3613d3d565b61147e565b61329a565b839061396a565b1561458a5750613f02616476565b9081613f1457613ef490919050613ed2565b505b613f1e6139c0565b613f68613f31613f2c613d6a565b61147e565b613f62613f4c613f47613f42613d6a565b61147e565b61686e565b845f1461457c57613f5b615eef565b905b61687e565b906168a5565b613f91613f7b613f76613d97565b61147e565b613f8b613f86613d3d565b61147e565b90615a52565b613fc2613fa4613f9f613dc4565b61147e565b613fbc613fb7613fb2613d6a565b61147e565b61686e565b906168a5565b613feb613fd5613fd0613df1565b61147e565b613fe5613fe0613d3d565b61147e565b90615a52565b614004613ff6615ae4565b613ffe615d0a565b90615db0565b61400c613989565b50614015613989565b5061401e6128f8565b506140276128f8565b5061404061403b614036613d6a565b61147e565b61686e565b61405861405361404e613e1e565b61147e565b61686e565b90835f14614540576140728261406c615dbd565b906168b5565b926140ad61409861408b614084615eef565b8590615a76565b5b95938388905f92615e71565b93826140a48815610335565b90600192615e71565b938293816140b9613449565b976140c2613449565b6140fb6140dd6140d86140d3613d3d565b61147e565b61329a565b6140f56140f06140eb611470565b61147e565b61329a565b9061325b565b5f1461432a575061420a98505f146142b8575091614164614133614205959361412d6142009691856001905f92615e71565b9061764b565b9561415f61415161414a614145611470565b61147e565b5f906156c9565b6141596159b7565b906159ca565b61687e565b61416c6133aa565b6141746133aa565b8483945b5b61418285615a28565b61418b84615a3d565b6141ab6141a66141a161419c613d3d565b61147e565b61329a565b615d9b565b6141d46141b6615556565b6141ce6141c96141c4613d3d565b61147e565b61329a565b90617251565b6141dc612ca7565b614229575b50505050506141f96141f1615ae4565b928290615a76565b9091615f02565b615cc6565b6160ca565b6142148115610335565b61421c575b90565b6142246176a0565b614219565b6142816142a9946142a29461427c61427761427061425a6142506142ae9c61428c9a615a76565b885f905f92615e71565b61426261608f565b61426a61609f565b91615fb0565b919061554a565b615520565b615a76565b906001905f92615e71565b614294615f8d565b61429c615f9d565b91615fb0565b9190615550565b615535565b5f808080806141e1565b94509161430f6142dd614205956142d76142009691855f905f92615e71565b9061764b565b9561430a6142fc6142f46142ef611470565b61147e565b6001906156c9565b6143046159b7565b906159ca565b61687e565b6143176133aa565b906143206133aa565b9380948294614178565b9591939296949061435a61434c614347614342613e4b565b61147e565b6168c6565b614354613e59565b906168da565b80614501575b61437b575b50926142059592614200959261420a9a95614179565b939850969450925b61438e818990616953565b6143835761420a9761439f91616eca565b9190926143cb6143ad615556565b6143c56143c06143bb613d97565b61147e565b61329a565b90617251565b6143d3610ffe565b506143e2858584908692617406565b9791969096975f1461447157614412614408614400888b8b9161754e565b928390615a76565b8b5f905f92615e71565b90925f1461445357916144426142059896949261443c61420099979561443661143e565b926175ce565b906175db565b995b5b92959a509295509295614365565b9161446b614200979593614205999795939b9a61764b565b98614444565b91929098976144ac6144a161449361448b888c8c9161754e565b948590615a76565b61449b6133aa565b906175a8565b8a6001905f92615e71565b91935f146144d157916144ca6142059896949261420098969461764b565b985b614445565b9798916144fb6142009795936144f56142059a9896946144ef61143e565b926175ce565b906175db565b996144cc565b5061453b61451d614518614513613d3d565b61147e565b61329a565b61453561453061452b613e84565b61147e565b61329a565b9061396a565b614360565b614098926140ad61457461455c614555615dbd565b8590615a76565b61456e86614568615eef565b906168b5565b90612ef0565b95909561408c565b614584615dbd565b90613f5d565b9050613f16565b50600190565b6145a76145a261335c565b6176b6565b6145af6152b5565b6145c36145bd61ffff61147e565b9161023d565b10155f14614603576106555160018203556145df61ffff6176dc565b5b602061065501518155604061065501516001820155600260606106550151910155565b61461b6146166146116152b5565b61292b565b6176dc565b6145e0565b61462990612e65565b9052565b9190614640905f60208501940190614620565b565b1561464a5750565b614665905f918291631718db0760e31b83526004830161462d565b0390fd5b90565b61468061467b61468592614669565b611122565b6106a1565b90565b61469760018060e71b0361466c565b90565b6147646146a561608f565b6146c16146ba826146b461143e565b90615687565b8290614642565b6146dd6146d6826146d0614688565b906176f1565b8290614642565b6146e5615f8d565b6147016146fa826146f461143e565b90615687565b8290614642565b61471d61471682614710614688565b906176f1565b8290614642565b61472561609f565b9061472e615f9d565b9061473f61473a61335c565b6154fa565b93614748610fdc565b50607f1c90607f1c60681b179160d01b9060e81b1717906148dc565b565b61477661477161335c565b617710565b61477e615556565b6001614788617736565b0360021c820191815181555b8281106147a057505050565b600160209101910191825182559190614794565b6147bc6128f8565b506101885190565b6147cc6113bd565b505f03607f1d5f0390565b6147df6128f8565b506101a85190565b6147ef61111b565b506106e05190565b6147ff61111b565b506107005190565b61480f61335c565b614817615556565b61481f617736565b907f7b1b2e572a782739fc5ac300a50ada6a682434d210dee70c511533a0c8782ed69160031b0190815192601061068f845e3391602060108503a352565b614865610ffe565b505f61040061487261335c565b60a01c161190565b61488a63692181bf60e11b615185565b565b6148a7916148a29161489c6113bd565b50614fb5565b614fda565b90565b9291906148b5610fdc565b50604051936b034105b980ba117bd0c29fe06034526028526014525f5260545f2091604052565b55565b6148e8906113dd565b90565b61493c61492a61492461491e7fb3fd5071835887567a0671151121894ddccc2842f1d10bedad13e0d17cace9a7946148df565b946148df565b94611190565b946149336101f1565b9182918261029d565b0390a4565b614949610ffe565b501190565b9291614958610fdc565b50604051936bc8f78086c3211e71a328e7f56040526034526020525f5260605f2091604052565b61499a9061498b610fdc565b50614994610fdc565b50612118565b906fffffffffffffffffffffffffffffffff82169160801c90565b156149be575050565b6149d85f92839263731555bd60e01b8452600484016119f2565b0390fd5b806149ef6149e93361020e565b9161020e565b036149fa575b505050565b614a0d614a08823390614be4565b612118565b614a1f614a195f61114d565b9161023d565b14614a2a575b6149f5565b614a36903383916148aa565b614a61614a4282612118565b9283614a56614a508761023d565b9161023d565b1015903390916149b5565b81614a75614a6f5f1961023d565b9161023d565b03614a80575b614a25565b614a9492614a8e9192611a3c565b906148dc565b5f8080614a7b565b90565b614ab3614aae614ab892614a9c565b611122565b611c2d565b90565b1b90565b614ade90614ad8614ad2614ae394611c2d565b9161023d565b90614abb565b61023d565b90565b90614b5e614b659392614b1e83614b15614b0f6fffffffffffffffffffffffffffffffff6123aa565b9161023d565b111584906123c6565b614b4d84614b44614b3e6fffffffffffffffffffffffffffffffff6123aa565b9161023d565b111585906123c6565b92614b586080614a9f565b90614abf565b17906148dc565b565b916020614b88929493614b8160408201965f83019061075a565b0190610290565b565b90919293614bca614bc4614bbe7f56a6ca58daf8ecd992baa77cfb74dc2a696e42aa279cf8fbbc55bf3081f18d51946148df565b946148df565b94611190565b94614bdf614bd66101f1565b92839283614b67565b0390a4565b614bec610fdc565b506be442b523d9447037e4923f5b6020526014525f526034600c2090565b614c52614c40614c3a7fceb576d9f15e4e200fdb5096d64d5dfd667e16def20c1eefd14256d8e3faa267936148df565b936148df565b93614c496101f1565b91829182610347565b0390a3565b15614c5f5750565b614c7a905f918291632ab8097760e01b835260048301611402565b0390fd5b90565b614c95614c90614c9a92614c7e565b611122565b61023d565b90565b614cc67f08afe526398486e38896d620563771687e7d20a3b0d01f72483eeb2e7d93a48e614c81565b90565b90614d12614d1f92614d05614ce4614cdf612144565b614fa8565b80614cff614cf9614cf45f611141565b61020e565b9161020e565b14614c57565b614d0d614c9d565b617749565b614d1a612144565b617749565b565b90565b614d38614d33614d3d92614d21565b611122565b61023d565b90565b614d697f5d43e4cd1a16168a103e08dc189528d374b6e2bd5c612e94553d728c80030103614d24565b90565b614d74610fdc565b50614d85614d80614d40565b6150c0565b90565b614da2614d93614c9d565b614d9c5f611141565b90617749565b614dbc614dad612144565b614db65f611141565b90617749565b565b15614dc557565b5f63c0a7e46960e01b815280614ddd600482016103fa565b0390fd5b614dea906113c1565b90565b6bffffffffffffffffffffffff1690565b614e12614e0d614e1792614ded565b611122565b61023d565b90565b614ea391614e4382614e3c614e36614e315f611141565b61020e565b9161020e565b1415614dbe565b614e5c614e57614e51612598565b93614de1565b6125c4565b614e6b60018060a01b036125c4565b16905f14614ea557614e9b614e8b6bffffffffffffffffffffffff614dfe565b614e9560a06125ff565b90614abf565b5b17906150cd565b565b614eae5f61114d565b614e9c565b9091614f2192614f0e614ec78483906120f3565b614f08614ed382612118565b91614ee0878688916149dc565b614f0083614ef6614ef08961023d565b9161023d565b1015888791611a15565b918590611a3c565b906148dc565b3392614f195f611141565b919293615069565b565b9091614f9392614f7f614f378483906120f3565b614f4a614f4382612118565b8590611a66565b90614f7a82614f71614f6b6fffffffffffffffffffffffffffffffff6123aa565b9161023d565b111583906123c6565b6148dc565b3392614f8a5f611141565b90919293615069565b565b614fa690614fa1612665565b6150cd565b565b614fb0612575565b505c90565b614fbd610fdc565b506bdc0da6920d198e2eedf81ef66020526014525f5260405f2090565b614fe26113bd565b505c90565b615013614ff2614d40565b61500d614ffd614d6c565b6150076001612e49565b90611a66565b906150cd565b565b615041615020614d40565b61503b61502b614d6c565b6150356001612e49565b90611a3c565b906150cd565b565b5d565b91602061506792949361506060408201965f8301906113f5565b0190610290565b565b936150a66150a061509a7f1b3d7edb2e9c0b0e7c525b20aaaef0f5940d2ed71663c7d39266ecafac728859946148df565b946148df565b94611190565b946150bb6150b26101f1565b92839283615046565b0390a4565b6150c8610fdc565b505c90565b5d565b601460c4015160a01c9060601b1760c452565b60d852565b61010852565b61012852565b601060f8015160801c9060801b1760f852565b61062f52565b6002610653015160101c9060f01b1761065352565b60a452565b6105ef52565b63ffffffff1690565b61514a61514561514f9261512d565b611122565b61512d565b90565b61515e615163916101eb565b615136565b90565b90565b61517d61517861518292615166565b611122565b61023d565b90565b61519661519182615152565b617756565b6151a86151a36020615169565b617769565b60205f6151b361778a565b60808260446151c06177c6565b01925af19060203d14905f51141616156151d657565b3d5f803e3d5ffd5b6151e75f611209565b90565b156151f25750565b61520d905f918291631e657b1d60e01b83526004830161029d565b0390fd5b61522161521c61335c565b6176b6565b80546020610655015260018101546040610655015260028101546060610655015261526c61525e615250615ae4565b6152586151de565b906177d5565b61526661335c565b906151ea565b6152746177f8565b908161528a61528461ffff61144d565b9161144d565b145f1461529e57600191500354610655525b565b506152ab6152b09161147e565b6159b1565b61529c565b6152bd610fdc565b506106555190565b6152ec906152d1612575565b506152da612575565b5030906152e561335c565b909161780b565b90565b60016106e08061080803923c565b5f90565b6153096152fd565b506107f45160d01c90565b61531c6152fd565b506107fa5160d01c90565b906153306152fd565b5061533c828290617874565b5f1461534757505b90565b9050615344565b60066107f4015160301c9060d01b176107f452565b60019061536e6132aa565b50816106e061080803913b030360061c0190565b600261064f015160101c9060f01b1761064f52565b61539f612900565b506105ef5190565b916001900360061b916106e061080803600101913c565b6153c66132aa565b506153d2818390617881565b5f146153dd57505b90565b90506153da565b61060f52565b6153f26132aa565b6154026153fd61335c565b617710565b9061540b615556565b91615414613248565b905b8054928360c01c8381146154ab57508360801c8367ffffffffffffffff82161461549657508360401c8367ffffffffffffffff8216146154815750600401928267ffffffffffffffff82161461547757602091600191865201930192615416565b9294939150505b52565b95949350905060039150019260401b9061547e565b95949350905060029150019260801b9061547e565b95949350905060019150019260c01b9061547e565b6002610651015160101c9060f01b1761065152565b604052565b6154e2610ffe565b501190565b6154ef6152fd565b506108005160d01c90565b615502610fdc565b506f5e1c6265e3e30cea650443fb20ef1ef96010525f5260305f2090565b60036105e9015160181c9060e81b176105e952565b60036105ec015160181c9060e81b176105ec52565b6105a952565b6105c952565b61555e612bbc565b5061060f5190565b6155706001612e49565b90565b61557b6128fc565b506155846128fc565b506155a961559a8261559461149a565b9061788e565b916155a3615566565b9061788e565b6155b48183906139d3565b5f146155c057905b9091565b6155c991612ed8565b6155bc565b6155d66128fc565b500190565b6155e36128fc565b500390565b6155f06128fc565b500690565b6155fd6128fc565b506101285190565b61560d6128fc565b5060b41c5f0b6001603b1b0290565b6156246128fc565b506156308183906178a3565b5f1461563b57505b90565b9050615638565b9061564b6128fc565b506156578282906178a3565b5f1461566257505b90565b905061565f565b6008610148015160401c9060c01b1761014852565b60ff0261015053565b6156a39161569d91615697610ffe565b506178b0565b15610335565b90565b60ff0261015153565b906156c7916156bd8261791a565b9192909192615777565b565b906156d2613989565b5015601b02602303015160281c90565b906156eb613989565b5060018060d81b0391600160d81b82820960018060d81b03039160018060d81b0391090890565b90632ec3a85664027d117d7b7f7f6af8233bada11dd406b4458454ed9904d7af796be7aa4885b23e25b6985d4993615748613989565b500291027fdbb82f7041b890fe67970a62a3568cc34df9dcb17cc3a2a6a027850e7e3724f98183099102030290565b6018906020810393845195601e8301526003820152035252565b6157996179ae565b5f146158585761584361583e6158396158336157c36157be6157b96159b7565b612e65565b611a4a565b6157cb6139c0565b5f14615845576157ea6157e56157df6179c1565b5b612e65565b611a4a565b6158026157fd6157f8613268565b612e65565b611a4a565b61582b615826615821615813615ae4565b61581b615d0a565b90615db0565b612e65565b611a4a565b915f93617ab5565b5b612205565b612e65565b617c8a565b565b6157ea6157e56158536179d1565b6157e0565b61584361583e6158396158fe61587c6158776158726159b7565b612e65565b611a4a565b6158846139c0565b5f14615903576158a361589e6158986179d1565b5b612e65565b611a4a565b6158cc6158c76158c26158b461143e565b6158bc613268565b906175ce565b612e65565b611a4a565b6158f56158f06158eb6158dd615ae4565b6158e5615d0a565b90615db0565b612e65565b611a4a565b91600193617ab5565b615834565b6158a361589e6159116179c1565b615899565b61591e6179ae565b5f1461596a57615968615962615932615edc565b61595c615945615940611470565b61147e565b6159566159506139c0565b15610335565b906156c9565b906159ca565b5b617c9f565b565b61596861599f6159786159b7565b61599961598b6159866114c5565b61147e565b6159936139c0565b906156c9565b906159ca565b615963565b6159ac610ffe565b501490565b61065552565b6159bf613989565b5061079e5160281c90565b9064f8f6376c447f28256938c4923ff15ab260970aa81f81c15e6f5ef3af38dc210569e77db19359926159fb613989565b5002907e1561650620dabb6a84b684e2a7e5a47caa0a0905210083f0e3b551aabf84e98183099102030290565b601b61069f015160d81c9060281b1761069f52565b601b6106ba015160d81c9060281b176106ba52565b90603e915e565b615a6161338d565b506102645190565b615a71610ffe565b501490565b615a7e613989565b500390565b90615aca92615abf615aba615ab4615aaf615aa9615ac597615aa361338d565b50611190565b95612e65565b611a4a565b92612e65565b611a4a565b91617cb4565b611190565b90565b55565b615ad861338d565b506102445190565b5f90565b615aec615ae0565b5061068f5160801c90565b90565b615b0e615b09615b1392615af7565b611122565b611c2d565b90565b90565b615b2d615b28615b3292615b16565b611122565b611c2d565b90565b90565b615b4c615b47615b5192615b35565b611122565b61023d565b90565b615bdc90615be492615b6461338d565b50615bd7615bd1615bc1615bbc615bb6615ba6615ba17fba4f53ea38636f85f007042540ae8ef33225e9a7ab4f4473a86d4a8fdd1a5b8298612e65565b611a4a565b615bb0606e615afa565b90614abf565b94612e65565b611a4a565b615bcb6027615b19565b90614abf565b92615b38565b617d45565b915050611190565b90565b615bef61338d565b500190565b615bfc61338d565b500390565b90565b615c18615c13615c1d92615c01565b611122565b611c2d565b90565b615c93615c80615c9892615c9d94615c36615ae0565b50615c7b615c75615c70615c6a7fba4f53ea38636f85f007042540ae8ef33225e9a7ab4f4473a86d4a8fdd1a5b8295611190565b93612e65565b611a4a565b92615b38565b617d45565b915050615c8d602d615c04565b9061261f565b612205565b612e65565b90565b615ca8615ae0565b50615cb4818390617d9a565b5f14615cbf57505b90565b9050615cbc565b601061068f015160801c9060801b1761068f52565b90615ce4610fdc565b5067d7cb7a927a838d416010526008525f5260305f2090565b615d056113bd565b505490565b615d12610fdc565b5061067f5160801c90565b601061067f015160801c9060801b1761067f52565b90565b615d49615d44615d4e92615d32565b611122565b61023d565b90565b615d5b6002615d35565b90565b919060801b9060c01b179052615d7a615d75615d51565b6154c0565b565b615d84610ffe565b501390565b615d91610fdc565b5060f85160801c90565b6008610677015160401c9060c01b1761067752565b615db8615ae0565b500290565b615dc5613989565b5061069f5160281c90565b615dd990612e65565b9052565b615de690612e65565b9052565b90959492615e3594615e24615e2e92615e1a608096615e1060a088019c5f890190614620565b6020870190615dd0565b6040850190615ddd565b6060830190615dd0565b0190610290565b565b94929093919415615e49575050505050565b90615e6d9291615e576101f1565b95869563059cafa160e51b875260048701615dea565b0390fd5b615ecc9291615e9b615ea49695615e866128f8565b50615e8f610ffe565b50839083869192617da7565b96909615610335565b925f14615ece57615eb36179c1565b915b615ebd6159b7565b92615ec6617ee9565b94615e37565b565b615ed66179d1565b91615eb5565b615ee4613989565b506107d95160281c90565b615ef7613989565b506106ba5160281c90565b91615f2a615f25615f1f615f3095615f18615ae0565b5094612e65565b92612e65565b611a4a565b91617f6a565b90565b615f8591615f8a93615f7a615f75615f6f615f6a615f64615f5f615f8098615f596128f8565b50612e65565b611a4a565b95612e65565b611a4a565b92612e65565b611a4a565b91617cb4565b612205565b612e65565b90565b615f956128f8565b506105c95190565b615fa5612cf2565b506105ec5160e81c90565b929092615fbb6128f8565b50615fc4612cf2565b92615fcd6154e7565b91615fd6615301565b615fde6128f8565b50836001602f1b03025f19600160a21b5f196001605e1b8486095f19035f19858709080993602f1b015f1991600160a21b915f19916001605e1b8282095f1903915f1991090809850194859261603f616038858490615687565b8590614642565b61605b6160548561604e614688565b906176f1565b8590614642565b61606d8461606761143e565b90618026565b616078575b50505050565b90919293945060171b9102010490825f8080616072565b6160976128f8565b506105a95190565b6160a7612cf2565b506105e95160e81c90565b6160c16160c791939293612e65565b92612e65565b90565b9061615a916160d76139c0565b5f146161855761612261611d8361611061610b6160fc6160f561143e565b87906175ce565b925b6161066147b4565b61764b565b618033565b6161186147d7565b61764b565b618039565b61612a6179ae565b5f1461615c57506161549061614e61614061143e565b91616149613268565b6175ce565b906175db565b5b6150e8565b565b616180915061617a61616c61143e565b91616175613268565b61803f565b9061804c565b616155565b61612261611d61610b6161106161ad6161a661619f61143e565b87906175ce565b87906160b2565b92906160fe565b90565b6161cb6161c66161d0926161b4565b611122565b61144d565b90565b6161de6102d16161b7565b90565b90565b6161f86161f36161fd926161e1565b611122565b61144d565b90565b61620b61030f6161e4565b90565b90565b61622561622061622a9261620e565b611122565b61144d565b90565b61623861034d616211565b90565b90565b61625261624d6162579261623b565b611122565b61144d565b90565b61626561040961623e565b90565b616311616273615556565b61629f61629a61629561628584615573565b919061628f613235565b9061561c565b615642565b618073565b6162fc6162f76162be6162b0617736565b6162b8615566565b90618088565b926162c884618095565b6162f16162d682869061788e565b946162eb8693916162e5615566565b90618088565b9061788e565b906178a3565b6180aa565b61630c616307613e84565b61147e565b6156af565b61633a61632461631f6161d3565b61147e565b61633461632f613e84565b61147e565b90615a52565b61636361634d616348616200565b61147e565b61635d616358613e84565b61147e565b90615a52565b61638c61637661637161622d565b61147e565b616386616381613e84565b61147e565b90615a52565b6163b561639f61639a613d3d565b61147e565b6163af6163aa613e84565b61147e565b90615a52565b6163de6163c86163c361625a565b61147e565b6163d86163d3613e84565b61147e565b90615a52565b6164076163f16163ec613e4b565b61147e565b6164016163fc613e84565b61147e565b90615a52565b565b6164116128fc565b5061028b5160c01c90565b90565b61643361642e6164389261641c565b611122565b61144d565b90565b61644661058e61641f565b90565b90565b61646061645b61646592616449565b611122565b61144d565b90565b61647361053d61644c565b90565b61647e610ffe565b906164b861649a616495616490613d3d565b61147e565b61329a565b6164b26164ad6164a8613e4b565b61147e565b61329a565b9061325b565b616861575b6164c5618161565b6164fe6164e06164db6164d6613d3d565b61147e565b61329a565b6164f86164f36164ee61622d565b61147e565b61329a565b9061325b565b6167f4575b8061654e61654861654361652561652061651b616200565b61147e565b61329a565b61653d61653861653361625a565b61147e565b61329a565b906178a3565b610335565b91610335565b036167c6575b6165d0616567616562613d3d565b61147e565b826165b26165ac6165a761658961658461657f61622d565b61147e565b61329a565b6165a161659c616597613e4b565b61147e565b61329a565b906139d3565b610335565b91610335565b145f146167b6576165ca6165c4613e4b565b5b61147e565b90615a52565b6165d8613989565b50806165f36165ed6165e86139c0565b610335565b91610335565b145f14616758576166e99250616607616409565b9061663b6166356166308461662a616625616620613d3d565b61147e565b61329a565b906178a3565b610335565b91610335565b03616739575b5061664a613989565b506166536179ae565b5f146166eb57616661618e81565b9290926166d36166a261667a61667561625a565b61147e565b616682616200565b61669c616696616690613d3d565b9261147e565b9161147e565b916183d7565b915b6166be6166b76166b2613d6a565b61147e565b8490618629565b6166ce6166c9613e1e565b61147e565b618629565b5b6166e46166df61643b565b61147e565b618629565b565b6166f3618676565b9290926166d361673461670c61670761625a565b61147e565b616714616200565b61672e616728616722613d3d565b9261147e565b9161147e565b91618c05565b6166a4565b6167529061674d616748613d3d565b61147e565b6156af565b5f616641565b506166e961679761676f61676a61625a565b61147e565b616777616200565b61679161678b616785613d3d565b9261147e565b9161147e565b916183d7565b6167b16167aa6167a5616468565b61147e565b8290618629565b6166d4565b6165ca6167c161622d565b6165c5565b6167ef6167d96167d4616200565b61147e565b6167e96167e461625a565b61147e565b90615a52565b616554565b6168549061684e61680b61680661643b565b61147e565b9161682461681f61681a61643b565b61147e565b61686e565b61682c613d3d565b9161684861684261683b6161d3565b929461147e565b9161147e565b91618174565b906168a5565b61685c618236565b616503565b6168696180e0565b6164bd565b616876613989565b505160281c90565b90616887613989565b506168938282906139b3565b5f1461689e57505b90565b905061689b565b9060208203906005825193035252565b6168bd613989565b500190565b5f90565b6002906168d16168c2565b50035160f01c90565b6168f6916168f0916168ea610ffe565b50619472565b15610335565b90565b90565b61691061690b616915926168f9565b611122565b61144d565b90565b6169236104896168fc565b90565b90565b61693d61693861694292616926565b611122565b61144d565b90565b616950610573616929565b90565b9061695c610ffe565b5061699661697861697361696e613d97565b61147e565b61329a565b61699061698b616986613df1565b61147e565b61329a565b9061325b565b616eb1575b6169d46169b66169b16169ac613d97565b61147e565b61329a565b6169ce6169c96169c4613e4b565b61147e565b61329a565b9061325b565b616ea4575b6169e1618161565b90616a1b6169fd6169f86169f3613d97565b61147e565b61329a565b616a15616a10616a0b61622d565b61147e565b61329a565b9061325b565b616e35575b81616a6b616a65616a60616a42616a3d616a38616200565b61147e565b61329a565b616a5a616a55616a5061625a565b61147e565b61329a565b906178a3565b610335565b91610335565b03616e07575b616aed616a84616a7f613d97565b61147e565b83616acf616ac9616ac4616aa6616aa1616a9c61622d565b61147e565b61329a565b616abe616ab9616ab4613e4b565b61147e565b61329a565b906178a3565b610335565b91610335565b145f14616df757616ae7616ae1613e4b565b5b61147e565b90615a52565b81616b07616b01616afc6139c0565b610335565b91610335565b14616cf4575b616b48616b20616b1b61625a565b61147e565b616b28616200565b616b42616b3c616b36613d97565b9261147e565b9161147e565b916183d7565b91616b62616b5c616b576139c0565b610335565b91610335565b145f14616cba57616bff616c0d91616bab616b83616b7e616918565b61147e565b616b8b616200565b616ba5616b9f616b99613d97565b9261147e565b9161147e565b916183d7565b94616bc6616bbf616bba613dc4565b61147e565b8690618629565b616be0616bd9616bd4616945565b61147e565b8790618629565b616bfa616bf3616bee61643b565b61147e565b8690618629565b61952d565b616c076133aa565b906196b8565b616c195750505b600190565b616c78616c8d92616c49616c33616c2e61622d565b61147e565b616c43616c3e613d97565b61147e565b90615a52565b616c63616c5c616c57613dc4565b61147e565b84906196c5565b616c73616c6e616945565b61147e565b6196c5565b616c88616c8361643b565b61147e565b6196c5565b616cb6616ca0616c9b613d97565b61147e565b616cb0616cab616200565b61147e565b90615a52565b5f90565b50616cef9150616cda616cd3616cce616468565b61147e565b8290618629565b616cea616ce561643b565b61147e565b618629565b616c14565b81616d3f616d39616d34616d16616d11616d0c616200565b61147e565b61329a565b616d2e616d29616d24616918565b61147e565b61329a565b906178a3565b610335565b91610335565b03616dc9575b81616d90616d8a616d85616d67616d62616d5d613d97565b61147e565b61329a565b616d7f616d7a616d75613df1565b61147e565b61329a565b906178a3565b610335565b91610335565b14616d9b575b616b0d565b616dc4616dae616da9613d97565b61147e565b616dbe616db9613df1565b61147e565b90615a52565b616d96565b616df2616ddc616dd7616200565b61147e565b616dec616de7616918565b61147e565b90615a52565b616d45565b616ae7616e0261622d565b616ae2565b616e30616e1a616e15616200565b61147e565b616e2a616e2561625a565b61147e565b90615a52565b616a71565b90616e9690616e90616e4d616e4861643b565b61147e565b91616e66616e61616e5c61643b565b61147e565b61686e565b616e6e613d97565b91616e8a616e84616e7d6161d3565b929461147e565b9161147e565b91618174565b906168a5565b616e9e618236565b90616a20565b616eac6180e0565b6169d9565b616eb96194ac565b61699b565b616ec75f611209565b90565b919091616ed5613989565b91616ede613989565b616ee66139c0565b93616eef6128fc565b50616ef8610ffe565b5b6001156171ee57505050616f0e828590619714565b929091616f2381616f1d616ebe565b9061325b565b61701d57616fae90616f3b616f36613d97565b61147e565b90885f14616fb357616f89616fa791616f83616f65616f60616f5b61622d565b61147e565b61329a565b91616f7e616f79616f74613d97565b61147e565b61329a565b6155ce565b9061561c565b616fa1616f9c616f97616200565b61147e565b61329a565b90615642565b905b6156af565b616ef9565b616ff961701791616ff3616fd5616fd0616fcb616200565b61147e565b61329a565b91616fee616fe9616fe4613d97565b61147e565b61329a565b6155ce565b9061561c565b61701161700c61700761622d565b61147e565b61329a565b90615642565b90616fa9565b50946170e99493955b6170456170348686906156e2565b61703f8a86906156e2565b906175a8565b9161707f61706161705c617057613d97565b61147e565b61329a565b61707961707461706f61622d565b61147e565b61329a565b9061396a565b806171d4575b916170bf6170a161709c617097613d97565b61147e565b61329a565b6170b96170b46170af616200565b61147e565b61329a565b9061396a565b90816171b8575b50829081156171b0575b506170ec575b5050506170e3919261687e565b9361687e565b90565b61713a9061713461712e61716c97949596949561712861711261710d61622d565b61147e565b61712261711d613d97565b61147e565b90615a52565b92610335565b91610335565b14619ba5565b617145858990619cc3565b9490936171676171568888906156e2565b6171618c88906156e2565b906175a8565b619f26565b617177575b806170d6565b9091506170e392506171a861719261718d613d97565b61147e565b6171a261719d61622d565b61147e565b90615a52565b90915f617171565b90505f6170d0565b90506171cc6171c683610335565b91610335565b14155f6170c6565b50816171e86171e283610335565b91610335565b14617085565b946170e9949395617026565b61720561ffff61147e565b90565b61721190611190565b9052565b9190617228905f60208501940190617208565b565b156172325750565b61724d905f91829163855b486b60e01b835260048301617215565b0390fd5b6172638161725d61149a565b9061788e565b9161727682617270615566565b9061788e565b9261728c82617286838790615642565b906139d3565b6173b7576172a561729e82869061561c565b83906139d3565b617395576172b1617736565b906172ba615566565b905b600115617383576172ce9086906178a3565b5f14617373576172df8386906178a3565b5b5f14617362576172f8906172f2615566565b90619f45565b617303818390617881565b5f1461731a5761731484829061788e565b946172bc565b91617360945061735b9391505b60c01b908260031b015261734d617346826173406171fa565b90617881565b829061722a565b617355615566565b90619f45565b6154c0565b565b91617360945061735b939150617327565b61737e8584906178a3565b6172e0565b5091617360945061735b939150617327565b90506173af6173b5936173a983829061561c565b92615642565b91615d5e565b565b90506173d16173d7936173cb838290615642565b9261561c565b91615d5e565b565b6173e290610335565b90565b6173fd6173f761740392959395612e65565b94612e65565b926173d9565b90565b91929092617412613989565b5061741b613989565b50617424610ffe565b50617437836174316133aa565b90619f52565b617529575b61746761745061744b85612e65565b611a4a565b61746161745c85612e65565b611a4a565b90619f5f565b9061749361747c61747785612e65565b611a4a565b61748d61748889612e65565b611a4a565b90619f5f565b91909192836174aa6174a48361023d565b9161023d565b119384156174df575b505050505f146174c95750505f9091905b909192565b9091506174da9250906001916173e5565b6174c4565b6174f791929394506174f1909261023d565b9161023d565b14918261750a575b50505f8080806174b3565b61752091925061751a909261023d565b9161023d565b10155f806174ff565b61753b846175356133aa565b90619f52565b1561743c57915091509091600191929190565b6175a0916175a59361759561759061758a61758561757f61757a61759b98617574613989565b50612e65565b611a4a565b95612e65565b611a4a565b92612e65565b611a4a565b91617cb4565b612205565b612e65565b90565b6175b0613989565b506175bc8183906139b3565b5f146175c757505b90565b90506175c4565b6175d66128f8565b500390565b6175e36128f8565b506175ef8183906178b0565b5f146175fa57505b90565b90506175f7565b91602061762292949361761b60408201965f830190614620565b0190614620565b565b1561762d575050565b6176475f928392639389559160e01b845260048401617601565b0390fd5b61769e9092919261765a6128f8565b5061766681859061803f565b936176798161767361143e565b90615687565b61769561768f61768a888690615687565b610335565b91610335565b14919091617624565b565b6102846105a9036102846105a9035f0361028439565b6176be610fdc565b506f6890d047ad8c870137858a70716b2c6b6010525f5260305f2090565b6002610675015160101c9060f01b1761067552565b61770d9161770791617701610ffe565b50618026565b15610335565b90565b617718610fdc565b506f3b2d91718dfb37f9969a1b0670a83e706010525f5260305f2090565b61773e6132aa565b506106515160f01c90565b9060018060a01b0316905d565b60046080015160201c9060e01b17608052565b608452565b5f90565b61777b906113c1565b90565b61778790617772565b90565b61779261776e565b506177c36177be6177b96177a461335c565b6177b360018060a01b036125c4565b166125e0565b6113dd565b61777e565b90565b6177ce610fdc565b5060a45190565b6177f1916177eb916177e5610ffe565b50619f85565b15610335565b90565b5f90565b6178006177f4565b506106755160f01c90565b9190617815612575565b505f5260205260405f20604051915f5260ff600b536020527ff779edcbdc615c777a4cb2bee1bf733055aa41ff7247837d0cd548565f65d0346040526055600b2060145260405261d6945f5260016034535f1960601c6017601e201690565b61787c610ffe565b501090565b617889610ffe565b501090565b906178976128fc565b5060031b015160c01c90565b6178ab610ffe565b501290565b6178b8610ffe565b501290565b90565b6178d46178cf6178d9926178bd565b611122565b61023d565b90565b90565b6178f36178ee6178f8926178dc565b611122565b61023d565b90565b90565b61791261790d617917926178fb565b611122565b611c2d565b90565b61793590617926613989565b5061792f613989565b5061a0fb565b6179ab6179a66179a161799061798b6179867ff1aaddd7742e56d32fb9f997447d9e6314db84884fabab26bf059af9bc20b609600160c11b61798061797a8a936178c0565b916178df565b9061a378565b612205565b612e65565b9361799b60286178fe565b9061261f565b612205565b612e65565b91565b6179b6610ffe565b506101515160ff1c90565b6179c96128f8565b506107205190565b6179d96128f8565b506107405190565b90565b6179f86179f36179fd926179e1565b611122565b61023d565b90565b90565b617a17617a12617a1c92617a00565b611122565b61023d565b90565b90565b617a36617a31617a3b92617a1f565b611122565b611c2d565b90565b90565b617a55617a50617a5a92617a3e565b611122565b611c2d565b90565b90617a68910261023d565b90565b90565b617a82617a7d617a8792617a6b565b611122565b61023d565b90565b6001617a96910161023d565b90565b617aad617aa8617ab29261342a565b611122565b61023d565b90565b91617ace92959495617ac5610fdc565b50919091617d45565b80617ae5617adf600160671b6179e4565b9161023d565b1015617c7257617b02617b2891617afc6071617a22565b90614abf565b617b1683617b10608f617a41565b9061261f565b1791617b226071617a22565b90614abf565b617b3c83617b36608f617a41565b9061261f565b179092617b47610fdc565b5080805f19860981868508088094818410900392039082617b70617b6a8361023d565b9161023d565b1015617c5957617baf9291617baa91617b925f617b8d839161114d565b611a3c565b811680910493600182805f030401029104179161a3b4565b617a5d565b93617bea575b505081617bce617bc8600160d81b617a99565b9161023d565b1015617bd657565b9050617be760018060d81b03617a03565b90565b617c05717fffffffffffffffffffffffffffffffffff617a6e565b16617c18617c125f61114d565b9161023d565b11908115617c3e575b50617c2e575b5f80617bb5565b90617c3890617a8a565b90617c27565b9050617c52617c4c5f61114d565b9161023d565b115f617c21565b50505050509050617c6f60018060d81b03617a03565b90565b505050509050617c8760018060d81b03617a03565b90565b601b610152015160d81c9060281b1761015252565b601b61016d015160d81c9060281b1761016d52565b617cbc610fdc565b50617cc8818390619f5f565b9290929182617cdf617cd95f61114d565b9161023d565b14617d3e57617d359285617d3b9693617d2e93617cfa610fdc565b50099085821190039403936001617d1a5f617d15869161114d565b611a3c565b841680809504960493805f03040190617a5d565b179161a3b4565b90617a5d565b90565b5050500490565b617d7a617d849492617d8c92617d59610fdc565b50617d62610fdc565b50617d6b610fdc565b50617d74610fdc565b50619f5f565b9490948490619f5f565b939094619f5f565b929092809394019283100190565b617da2610ffe565b501290565b617e89617e9591617e9095617ea49495617dbf6128f8565b50617dc8610ffe565b50617dd1610fdc565b505f14617ed057617e02617dfd617df7617df2617dec6179c1565b5b612e65565b611a4a565b93612e65565b611a4a565b617e1487617e0e6151de565b90617d9a565b5f14617ec457617e3d617e38617e32617e2b6151de565b8a9061a4cb565b5b612e65565b611a4a565b617e55617e50617e4b6159b7565b612e65565b611a4a565b91617e5e617ee9565b93617e82617e7c617e778c617e716151de565b9061a4d8565b610335565b91610335565b149461a570565b9490612205565b612e65565b91617e9e6151de565b90617d9a565b5f14617ebf57617ebb90617eb661143e565b6175ce565b5b91565b617ebc565b617e3d617e3888617e33565b617e02617dfd617df7617df2617ee46179d1565b617ded565b617ef1610fdc565b506107b95190565b15617f0057565b5f636dd3b1dd60e11b815280617f18600482016103fa565b0390fd5b90565b617f33617f2e617f3892617f1c565b611122565b611c2d565b90565b90565b617f52617f4d617f5792617f3b565b611122565b6106a1565b90565b617f676001607f1b617f3e565b90565b90617ffe617ff9617fe961800995617f8d61800395617f87615ae0565b50611a4a565b90617f966154e7565b87617f9f615301565b91617fa8610fdc565b500288602f1b0380910290602f1b0396617fe0617fc6898590619f5f565b9050617fda617fd48561023d565b9161023d565b10617ef9565b96919091617cb4565b617ff3605e617f1f565b9061261f565b612205565b612e65565b9061a746565b9061802461801f83618019617f5a565b9061a753565b617ef9565b565b61802e610ffe565b501390565b61018852565b6101a852565b6180476128f8565b500190565b906180556128f8565b506180618282906178b0565b5f1461806c57505b90565b9050618069565b600861028b015160401c9060c01b1761028b52565b6180906132aa565b500390565b6002610285015160101c9060f01b1761028552565b60ff0261028453565b90565b6180ca6180c56180cf926180b3565b611122565b61144d565b90565b6180dd6102876180b6565b90565b6181096180f36180ee61625a565b61147e565b6181036180fe613e4b565b61147e565b9061a772565b61815f618114615397565b61811c613e4b565b906181256161d3565b9061813e6181396181346180d2565b61147e565b61a77e565b9161815961815361814d618161565b9561147e565b9161147e565b9161a798565b565b618169610ffe565b506102845160ff1c90565b906181bf906181b96181b17f7082326d62b7ef4d06861f13c21dd192c8044b19a121205b7dc63c2642b5a80595966181aa613989565b5015610335565b9182906156c9565b946156c9565b90634bc3287b029264cef6ae8685029063cb21e499027f5bc2a24e50a66d39c35a9132c33f2fc50a1b99389d5455e78a7cf7ef8894e4cd81830991020302818102915f1991090390565b90565b61822061821b61822592618209565b611122565b61144d565b90565b61823361028561820c565b90565b61823e610ffe565b5061826861825261824d616200565b61147e565b61826261825d6161d3565b61147e565b90615a52565b61829161827b6182766161d3565b61147e565b61828b61828661622d565b61147e565b90615a52565b6182d36182a461829f61622d565b61147e565b6182cd6182af615556565b6182c76182c26182bd618228565b61147e565b61a851565b9061788e565b906156af565b6182e46182de618161565b15610335565b906182ee826180aa565b61837f6182f9615397565b61831161830c6183076180d2565b61147e565b61a86b565b906183548161831e61625a565b906183276161d3565b9061833a86618334615566565b90618088565b9161834e6183488b9561147e565b9161147e565b9161a798565b9061835d613e4b565b916183666161d3565b618379618373889561147e565b9161147e565b9161a798565b565b5f90565b90565b61839c6183976183a192618385565b611122565b61023d565b90565b90565b6183bb6183b66183c0926183a4565b611122565b6106a1565b90565b6183d46710000000000000006183a7565b90565b6183df613989565b506183e86168c2565b506183f1613989565b506183fa613989565b506184036128fc565b5061840c618381565b50618415618381565b5061841f8261329a565b916184298461329a565b61843484829061325b565b61861957618440610fdc565b506184558361844f6040618388565b90611a66565b61845e846168c6565b94618468826168c6565b61847a81618474613e59565b90619472565b6186065761848990879061a87b565b906184ab6184a361849b8684906178a3565b9687906156c9565b9886906156c9565b956184be836184b8613e59565b90619472565b6185f6576184cb9061329a565b91855f146185a7576185166185086185016184fa6184ec61851b96886155db565b6184f46183c3565b906155ce565b849061a888565b96856155db565b6185106183c3565b906155ce565b61a888565b5b92935f146185915790618532618538929161329a565b906155db565b5b8091600160c01b87850993600160c01b868309600160c01b81600160c01b03870895818110938860018060c01b03910901918960018060c01b0391090103039281840660c01b0104910460c01b0192030201600f1c90565b61859d6185a29261329a565b6155db565b618539565b6185ec6185de6185d66185cf6185c16185f19688906155db565b6185c96183c3565b906155ce565b849061a888565b9685906155db565b6185e66183c3565b906155ce565b61a888565b61851c565b50505050505090910302600f1c90565b50505050505050506186166133aa565b90565b50505050506186266133aa565b90565b9060281b8151019052565b90565b61864b61864661865092618634565b611122565b61023d565b90565b1561865a57565b5f630f975a0160e11b815280618672600482016103fa565b0390fd5b61867e610ffe565b50618687613989565b506186b161869361398d565b6186ab6186a66186a1613d6a565b61147e565b61686e565b90615a76565b6186ec6186c46186bf61625a565b61147e565b6186cc616200565b6186e66186e06186da613d3d565b9261147e565b9161147e565b916183d7565b906186f882829061a895565b618bfe576187046139c0565b90815f14618bc05761874561872761872261871d61625a565b61147e565b61329a565b61873f61873a618735613e4b565b61147e565b61329a565b906155db565b5b9161878061876261875d618758613e4b565b61147e565b6168c6565b61877a61877561877061625a565b61147e565b6168c6565b9061a87b565b9461879361878c6183c3565b879061a888565b61885e6188586187c5836187bf896187b96187b46187af61625a565b61147e565b6168c6565b9061a888565b9061a8b4565b855f14618b6e576188199061881361880c6187ee6187e96187e461625a565b61147e565b61329a565b6188066188016187fc616200565b61147e565b61329a565b906155db565b8c9061a888565b9061a8b4565b5b966188526188278961a8c1565b9161884b61883b618836616200565b61147e565b6188458a15610335565b906156c9565b899161a8d3565b90615a76565b806168b5565b90835f14618b2d576188c06188a261888461887f61887a616200565b61147e565b61329a565b61889c618897618892613d3d565b61147e565b61329a565b906155db565b5b976188ba6188af612dd5565b918a9089909161a92f565b9061561c565b5b600115618b1f576188dd6188d6828b9061a888565b889061a8b4565b61891c6189146188ec8361a8c1565b61890e87600160ff1b906189086189028961a0fb565b92618637565b9061a989565b90615a76565b91849061a9c3565b80916189266128fc565b5061892f610fdc565b5005908a82020581603c1d03600160531b0381819201059061895982618953616ebe565b9061325b565b61898957506189849161897761897d92618971612dd5565b926155ce565b9061561c565b8890615642565b6188c1565b9497505094975050506189b19194506189aa6189a45f61114d565b9161023d565b1415618653565b5b825f14618af9576189da906189d56189d06189cb616200565b61147e565b61329a565b6155db565b5b6189f56189ee6189e9613d97565b61147e565b82906156af565b618a30618a08618a0361625a565b61147e565b618a10616200565b618a2a618a24618a1e613d97565b9261147e565b9161147e565b916183d7565b5b618a3c8186906139b3565b15618ac55750825f14618aae57618a5b90618a55612dd5565b906155db565b5b90618a6683619ba5565b618a3c618aa4618a7c618a7761625a565b61147e565b618a84616200565b618a9e618a98618a92613d97565b9261147e565b9161147e565b916183d7565b9050919091618a31565b618ac090618aba612dd5565b906155ce565b618a5c565b9350509050618af3618add618ad8613d3d565b61147e565b618aed618ae8613d97565b61147e565b90615a52565b60019190565b618b1a90618b15618b10618b0b616200565b61147e565b61329a565b6155ce565b6189db565b9497505050925092506189b2565b6188c0618b69618b4b618b46618b41613d3d565b61147e565b61329a565b618b63618b5e618b59616200565b61147e565b61329a565b906155db565b6188a3565b618bbb90618bb5618bae618b90618b8b618b86616200565b61147e565b61329a565b618ba8618ba3618b9e61625a565b61147e565b61329a565b906155db565b8c9061a888565b9061a8b4565b61881a565b618bf9618bdb618bd6618bd1613e4b565b61147e565b61329a565b618bf3618bee618be961625a565b61147e565b61329a565b906155db565b618746565b50905f9190565b9091618c0f613989565b91618c186168c2565b50618c21613989565b50618c2a613989565b50618c336128fc565b50618c3c618381565b50618c45618381565b50618c4f8461329a565b93618c598361329a565b91618c6586849061325b565b618e4d57618c71610fdc565b50618c8681618c806040618388565b90611a66565b618c8f816168c6565b95618ca287618c9c613e59565b90619472565b618e425750618cb09061329a565b90618ce4618cd3618cc2868a906178a3565b94618ccd8615610335565b906156c9565b95618cde8515610335565b906156c9565b96618cee826168c6565b618cf9888290619472565b618e3257618d07908861a87b565b845f14618de557618d53618d45618d3d618d36618d28618d589689906155db565b618d306183c3565b906155ce565b849061a888565b9786906155db565b618d4d6183c3565b906155ce565b61a888565b5b93925f14618dcd5790618d6e618d739261329a565b6155db565b5b8091600160c01b85820993600160c01b88820994600160c01b81600160c01b03870895818110938860018060c01b03910901918960018060c01b0391090103039281840660c01b0104910460c01b0192030203600f1c90565b618dda618de0929161329a565b906155db565b618d74565b618e28618e1a618e13618e0c618dfe618e2d96896155db565b618e066183c3565b906155ce565b849061a888565b97866155db565b618e226183c3565b906155ce565b61a888565b618d59565b50505050505090910302600f1c90565b965050505050505090565b505050505050618e5b6133aa565b90565b15618e6557565b5f637fbbcd6760e01b815280618e7d600482016103fa565b0390fd5b618e89610ffe565b50618e92613989565b50618ebc618e9e61398d565b618eb6618eb1618eac613e1e565b61147e565b61686e565b90615a76565b618ef7618ecf618eca61625a565b61147e565b618ed7616200565b618ef1618eeb618ee5613d3d565b9261147e565b9161147e565b91618c05565b618f0281839061a895565b61946a57618f0e6139c0565b91825f1461942c57618f4f618f31618f2c618f2761625a565b61147e565b61329a565b618f49618f44618f3f613e4b565b61147e565b61329a565b906155db565b5b92618f8a618f6c618f67618f62613e4b565b61147e565b6168c6565b618f84618f7f618f7a61625a565b61147e565b6168c6565b9061a87b565b94618f9d618f966183c3565b879061a888565b619056618fcc82618fc689618fc0618fbb618fb6613e4b565b61147e565b6168c6565b9061a888565b9061a9c3565b845f146193da576190209061901a619013618ff5618ff0618feb616200565b61147e565b61329a565b61900d619008619003613e4b565b61147e565b61329a565b906155db565b8b9061a888565b9061a8b4565b5b9661905061902e8961a8c1565b9161904961904261903d616200565b61147e565b88906156c9565b889161a8d3565b90615a76565b90835f1461939c5761909761907961907461906f616200565b61147e565b61329a565b61909161908c619087613d3d565b61147e565b61329a565b906155db565b5b9687966190a489612e65565b6190be6190b86190b384612e65565b6106a1565b916106a1565b1315619373575b50955b60011561935d576190e46190dd828b9061a888565b889061a9c3565b61913761912f6190f38361a8c1565b6191298761912361911e6191196191098a61a0fb565b61911360286178fe565b9061261f565b612205565b612e65565b9061a9d0565b906168b5565b91849061a8b4565b80916191416128fc565b5061914a610fdc565b5005908a82020581603c1d01600160531b038181920105906191748261916e616ebe565b9061325b565b6191a4575061919f916191926191989261918c612dd5565b926155db565b9061561c565b8890615642565b6190c8565b919350506191e393979498506191e89596506191d491506191cd6191c75f61114d565b9161023d565b1415618e5e565b5b6191dd612dd5565b906155ce565b615642565b835f14619337576192109061920b619206619201616200565b61147e565b61329a565b6155db565b5b61922b61922461921f613d97565b61147e565b82906156af565b61926661923e61923961625a565b61147e565b619246616200565b61926061925a619254613d97565b9261147e565b9161147e565b91618c05565b5b6192728184906196b8565b156193045750835f146192ed576192919061928b612dd5565b906155ce565b5b916192a56192a08515610335565b619ba5565b6192726192e36192bb6192b661625a565b61147e565b6192c3616200565b6192dd6192d76192d1613d97565b9261147e565b9161147e565b91618c05565b9050929092619267565b6192ff906192f9612dd5565b906155db565b619292565b9350505061933161931b619316613d3d565b61147e565b61932b619326613d97565b61147e565b90615a52565b60019190565b6193589061935361934e619349616200565b61147e565b61329a565b6155ce565b619211565b9150506191e391959296506191e89394506191d5565b61939591975061938f619384612dd5565b918a9089909161a92f565b9061561c565b955f6190c5565b6193d56193b76193b26193ad613d3d565b61147e565b61329a565b6193cf6193ca6193c5616200565b61147e565b61329a565b906155db565b619098565b6194279061942161941a6193fc6193f76193f2613e4b565b61147e565b61329a565b61941461940f61940a616200565b61147e565b61329a565b906155db565b8b9061a888565b9061a8b4565b619021565b61946561944761944261943d613e4b565b61147e565b61329a565b61945f61945a61945561625a565b61147e565b61329a565b906155db565b618f50565b9190505f9190565b61947a610ffe565b501490565b90565b61949661949161949b9261947f565b611122565b61144d565b90565b6194a9610289619482565b90565b6194d56194bf6194ba616918565b61147e565b6194cf6194ca613df1565b61147e565b9061a772565b61952b6194e0615397565b6194e8613df1565b906194f1613d3d565b9061950a61950561950061949e565b61147e565b61a77e565b9161952561951f6195196139c0565b9561147e565b9161147e565b9161a798565b565b619535613989565b5061953e6139c0565b906196146195f66195d861958d61956361955e61955961643b565b61147e565b61686e565b61956b613d97565b906195746161d3565b6195876195818a9461147e565b9161147e565b91618174565b6195d26195a86195a361959e616945565b61147e565b61686e565b6195b0613d97565b906195b9613d3d565b6195cc6195c68b9461147e565b9161147e565b91618174565b90615a76565b6195f06195eb6195e6616468565b61147e565b61686e565b90615a76565b61960e619609619604613e1e565b61147e565b61686e565b90615a76565b9261966f61965161963361962e619629613d6a565b61147e565b61686e565b61964b619646619641616945565b61147e565b61686e565b906168b5565b61966961966461965f613dc4565b61147e565b61686e565b90615a76565b925f14619697579061968761968d926196939561a9d0565b9261a9d0565b90615a76565b5b90565b6196a76196ad926196b39561a9d0565b9261a9d0565b90615a76565b619694565b6196c0610ffe565b501390565b9060281b8151039052565b6196e86196e26196ee92959395612e65565b94612e65565b92612e65565b90565b156196f857565b5f6327177a2d60e11b815280619710600482016103fa565b0390fd5b91909161971f610ffe565b506197286128fc565b50619731613989565b5061973a613989565b506197436139c0565b92835f14619b9757905b9092619757613989565b5061979361976b61976661625a565b61147e565b619773616200565b61978d619787619781613d97565b9261147e565b9161147e565b916183d7565b916198fd856198f76198cd6198af61988561986761985961983161980a6197eb6197c36197be616918565b61147e565b6197cb616200565b6197e56197df6197d9613d97565b9261147e565b9161147e565b916183d7565b986198046197ff6197fa613d6a565b61147e565b61686e565b906168b5565b61982b8d61982661982161981c613dc4565b61147e565b61686e565b6168b5565b90615a76565b61985361984c619847619842616945565b61147e565b61686e565b89906168b5565b906168b5565b6198616133aa565b906175a8565b9861988061987b61987661643b565b61147e565b61686e565b6168b5565b61988d613d97565b906198966161d3565b6198a96198a38b9461147e565b9161147e565b91618174565b926198c86198c36198be616945565b61147e565b61686e565b6168b5565b6198d5613d97565b906198de613d3d565b6198f16198eb899461147e565b9161147e565b91618174565b90615a76565b9161995c61994e6199306199128587906168b5565b61992a619925619920616468565b61147e565b61686e565b90615a76565b61994861994361993e613e1e565b61147e565b61686e565b90615a76565b6199566133aa565b906175a8565b92619a5d619a5761998c61997661997161625a565b61147e565b619986619981613d97565b61147e565b9061aa05565b619a51619a306199bb6199a56199a0616918565b61147e565b6199b56199b0613d97565b61147e565b9061aa05565b95619a2b619a236199ef6199e86199d86199d36161d3565b61147e565b6199e28d15610335565b906156c9565b87906159ca565b619a1d619a168c619a10619a09619a04613d3d565b61147e565b9115610335565b906156c9565b8b906159ca565b90615a76565b9182906168b5565b6168b5565b94619a4b619a44619a3f613d97565b61147e565b88906156c9565b92615a76565b906159ca565b806168b5565b91619a66613989565b505f14619b5457619ab29291619aa6619aac92619a98619a878b89906156e2565b619a92878b906156e2565b90615a76565b96979697965b96979961a9d0565b9261a9d0565b906168b5565b92619ac585619abf6133aa565b906196b8565b619ae8619ae2619add87619ad76133aa565b906196b8565b610335565b91610335565b1415948460161d81600160261b020594619b0a86619b04616ebe565b9061325b565b619b13575b5050565b619b299060161d91619b236133aa565b9061ab93565b619b34575b80619b0f565b619b49619b4e91619b436133aa565b9061ab93565b6196f1565b5f619b2e565b928291619b8c619aa696619aac93619b84619b73619ab29884906156e2565b619b7e8d84906156e2565b90615a76565b9190916196d0565b979197969096619a9e565b619ba091612ef0565b61974d565b5f14619c3657619c33619bbe619bb9613d97565b61147e565b619be7619bd9619bd4619bcf613d97565b61147e565b61329a565b619be1612dd5565b906155db565b619c09619c04619bfd619bf8613d97565b61147e565b5f906156c9565b61abfd565b90619c2d619c28619c20619c1b613d97565b61147e565b6001906156c9565b61abb2565b92615777565b5b565b619cbe619c49619c44613d97565b61147e565b619c72619c64619c5f619c5a613d97565b61147e565b61329a565b619c6c612dd5565b906155ce565b619c94619c8f619c88619c83613d97565b61147e565b5f906156c9565b61abb2565b90619cb8619cb3619cab619ca6613d97565b61147e565b6001906156c9565b61abfd565b92615777565b619c34565b90619ccc613989565b50619cd5613989565b50619cde6139c0565b90815f14619f0857619edf619ec1619ea3619eed93955b95619e9d619e8f87619e89619e6b619d3e619d16619d1161625a565b61147e565b619d1e616200565b619d38619d32619d2c613d97565b9261147e565b9161147e565b916183d7565b619e65619e47619e28619d82619d5a619d55616918565b61147e565b619d62616200565b619d7c619d76619d70613d97565b9261147e565b9161147e565b916183d7565b96619e22619dd5619dab619da4619d9f619d9a61643b565b61147e565b61686e565b88906168b5565b619db3613d97565b90619dbc6161d3565b619dcf619dc9879461147e565b9161147e565b91618174565b91619df8619df1619dec619de7616945565b61147e565b61686e565b8b906168b5565b619e00613d97565b91619e1c619e16619e0f613d3d565b929461147e565b9161147e565b91618174565b90615a76565b98619e41619e3c619e37613d6a565b61147e565b61686e565b906168b5565b91619e60619e5b619e56613dc4565b61147e565b61686e565b6168b5565b90615a76565b91619e84619e7f619e7a616945565b61147e565b61686e565b6168b5565b906168b5565b619e976133aa565b906175a8565b966168b5565b619ebb619eb6619eb1616468565b61147e565b61686e565b90615a76565b619ed9619ed4619ecf613e1e565b61147e565b61686e565b90615a76565b619ee76133aa565b906175a8565b905f14619efa57905b9091565b619f0391612ef0565b619ef6565b619edf619ec1619f1e619eed93619ea396612ef0565b959095619cf5565b619f4291619f3c91619f36610ffe565b506139b3565b15610335565b90565b619f4d6132aa565b500190565b619f5a610ffe565b501490565b9190619f69610fdc565b50619f72610fdc565b505f198184099202918280821091030390565b619f8d610ffe565b501490565b90565b619fa9619fa4619fae92619f92565b611122565b61023d565b90565b90565b619fc8619fc3619fcd92619fb1565b611122565b61023d565b90565b634e487b7160e01b5f52601260045260245ffd5b619ff0619ff69161023d565b9161023d565b90811561a001570490565b619fd0565b90565b61a01d61a01861a0229261a006565b611122565b61023d565b90565b90565b61a03c61a03761a0419261a025565b611122565b61023d565b90565b90565b61a05b61a05661a0609261a044565b611122565b61023d565b90565b90565b61a07a61a07561a07f9261a063565b611122565b61023d565b90565b90565b61a09961a09461a09e9261a082565b611122565b611c2d565b90565b90565b61a0b861a0b361a0bd9261a0a1565b611122565b61023d565b90565b90565b61a0d761a0d261a0dc9261a0c0565b611122565b61023d565b90565b61a0f361a0ee61a0f892615d32565b611122565b611c2d565b90565b61a2d961a11b61a11661a2e99361a110610fdc565b50612e65565b611a4a565b61a126818290617a5d565b9061a29761a28461a138848590617a5d565b61a140610fdc565b5061a27e61a2635f19600160801b600160801b858a095f19868b0903099261a166610fdc565b5061a25d61a24661a23661a22561a2128c61a20c61a1f661a1d361a1b361a1a38b80025f198d8009039561a19d600760681b619f95565b90617a5d565b61a1ad600f619fb4565b90619fe4565b61a1cd8b61a1c76609c0000000000061a009565b90619fe4565b90611a66565b61a1f08d61a1ea69c918000000000000000061a028565b90619fe4565b90611a66565b9161a206621eee11605a1b61a047565b90619fe4565b90611a66565b61a21f600160fe1b61a066565b90611a66565b9a61a230606a61a085565b90614abf565b61a240600f619fb4565b90619fe4565b9161a257662490000000000061a0a4565b90619fe4565b90611a66565b9161a2786a06df92000000000000000061a0c3565b90619fe4565b90611a66565b61a291600160ff1b618637565b90611a66565b905f1991600160b41b916001604c1b828209915f199109030961a2d361a2cd61a2c1848490611a3c565b92600160fe1b94611a66565b9261a066565b9061a378565b61a2e3600261a0df565b90614abf565b808002905f1990800903808002905f1990800903808002905f1990800903808002905f1990800903808002905f1990800903808002905f1990800903808002905f1990800903808002905f1990800903808002905f1990800903808002905f1990800903808002905f1990800903808002905f1990800903808002905f1990800903808002905f199080090390565b909161a382610fdc565b5060018103928391818409820392090890565b90565b61a3ac61a3a761a3b19261a395565b611122565b61023d565b90565b61a4c89061a3c0610fdc565b5061a4c261a4a661a48261a45e61a43a61a41661a3e7600361a3e2899161a398565b617a5d565b61a3f16002615d35565b1861a410600261a40b61a4058b8590617a5d565b91615d35565b611a3c565b90617a5d565b61a434600261a42f61a4298a8590617a5d565b91615d35565b611a3c565b90617a5d565b61a458600261a45361a44d898590617a5d565b91615d35565b611a3c565b90617a5d565b61a47c600261a47761a471888590617a5d565b91615d35565b611a3c565b90617a5d565b61a4a0600261a49b61a495878590617a5d565b91615d35565b611a3c565b90617a5d565b9161a4bd61a4b76002928590617a5d565b91615d35565b611a3c565b90617a5d565b90565b61a4d3615ae0565b500390565b61a4f49161a4ee9161a4e8610ffe565b50617d9a565b15610335565b90565b61a50b61a50661a51092613459565b611122565b61023d565b90565b90565b61a52a61a52561a52f9261a513565b611122565b611c2d565b90565b90565b61a54961a54461a54e9261a532565b611122565b611c2d565b90565b90565b61a56861a56361a56d9261a551565b611122565b61023d565b90565b94959392919061a5949161a582610fdc565b5061a58b610ffe565b96919091617d45565b93919290938061a5b061a5aa6001606f1b61a4f7565b9161023d565b101561a72d5761a5cd61a5f39161a5c7609161a516565b90614abf565b61a5e18661a5db606f61a535565b9061261f565b179461a5ed609161a516565b90614abf565b61a6078461a601606f61a535565b9061261f565b1761a610610fdc565b5081805f1987098187840808809581831090039103918161a63961a6338361023d565b9161023d565b101561a713579061a66d93929161a6595f61a654839161114d565b611a3c565b1690600182805f0304010291041790617a5d565b9461a6a8575b50508261a68c61a686600160ff1b618637565b9161023d565b101561a69457565b9150505f9061a6a460019261114d565b9190565b61a6bf6d7fffffffffffffffffffffffffff61a554565b1661a6d261a6cc5f61114d565b9161023d565b1190811561a6f8575b5061a6e8575b5f8061a673565b9161a6f290617a8a565b9161a6e1565b905061a70c61a7065f61114d565b9161023d565b115f61a6db565b5050505050509150505f9061a72960019261114d565b9190565b50505050509150505f9061a74260019261114d565b9190565b61a74e615ae0565b500190565b61a76f9161a7699161a763610ffe565b5061ac63565b15610335565b90565b6002806040930391035e565b61a7866132aa565b50600160f01b81510180915260f01c90565b61a803949361a7a99193929361ac8f565b919592959091925f1461a805579061a7ec61a7e361a7d261a7f19461a7cd8861329a565b6155db565b9461a7de875f906156c9565b615712565b946001906156c9565b61a9d0565b909190915b909192939091929361ad43565b565b83919261a84061a83761a82661a8459461a82161a84b9961329a565b6155ce565b9561a832865f906156c9565b61a9d0565b936001906156c9565b615712565b916133b6565b9161a7f6565b61a8596132aa565b50600160f01b81510380915260f01c90565b61a8736132aa565b505160f01c90565b61a8836168c2565b500390565b61a890618381565b500290565b61a8b19161a8ab9161a8a5610ffe565b506196b8565b15610335565b90565b61a8bc618381565b500190565b61a8c9613989565b506001608e1b0290565b90917fd49c04af80af1ea5f98f85886b450a4b264fc14874f9f64143836145a37dd8a19261a8ff613989565b507f0f1aaddd7742e56d32fb9f997447d9e6314db84884fabab26bf059af9bc20b61828183860909920202030290565b61a9819161a9869361a97661a97161a96b61a96661a96061a95b61a97c9861a9556128fc565b50612e65565b611a4a565b95612e65565b611a4a565b92612e65565b611a4a565b9161a378565b612205565b612e65565b90565b61a9bb9161a9c09361a9ae61a9a961a9b69461a9a3613989565b50612e65565b611a4a565b91909161a378565b612205565b612e65565b90565b61a9cb618381565b500390565b61a9d8613989565b505f1991600160281b915f1991600160d81b8183095f1903915f19915f81129003905f8112900309080990565b9061aa1761aa11613989565b9261ad63565b93929190939461aa2f8661aa29613e59565b90619472565b61ab8a575061aa3f858590619472565b61ab605761aa568161aa508561329a565b9061325b565b61ab3757938461aa867c15fc21041027acbbfcd46780fee71ead23fbcb7f4a81e58767ef801a32959684906178a3565b5f1461ab005761aab1839461aaab61aaa461aab99461aabf976155db565b969161329a565b906155db565b91869061a87b565b9061a888565b905b80600160c01b8385099260018060c01b03908460018060c01b03039060018060c01b03908709089281840660c01b0104910460c01b0191020160281c90565b61ab2361ab319361ab1e61ab1861ab2b9483906155db565b9661329a565b6155db565b91869061a87b565b9061a888565b9061aac1565b505050507c15fc21041027acbbfcd46780fee71ead23fbcb7f4a81e58767ef801a320260281c90565b5050507c15fc21041027acbbfcd46780fee71ead23fbcb7f4a81e58767ef801a3291500260281c90565b94505050505090565b61abaf9161aba99161aba3610ffe565b50619f52565b15610335565b90565b61abba613989565b50780fffffffffffffff8000000000000002aaaaaaaaaaaaaaa001198102905f1990780fffffffffffffff8000000000000002aaaaaaaaaaaaaaa0011990090390565b7faa3ed2381a8b1241d16168fd77ef989ed2b13be12b716aa23f35ed0e395560019061ac27613989565b50780fffffffffffffff8000000000000002aaaaaaaaaaaaaaa001780fffffffffffffff8000000000000002aaaaaaaaaaaaaaa0001991090290565b61ac6b610ffe565b501390565b90565b61ac8761ac8261ac8c9261ac70565b611122565b6106a1565b90565b9061ac986168c2565b61aca06128fc565b61aca8613989565b5061acb1613989565b5061acc48361acbe61149a565b9061adc3565b5f1461ad0d575050603e9061acd7610fdc565b5060061b03019061ace7826168c6565b9161acf18161329a565b9161ad0961ad00835f906156c9565b926001906156c9565b905b565b925092905061ad1a613449565b9061ad3d7801e355bbaee85cada65f73f32e88fb3cc629b709109f57564d61ac73565b9061ad0b565b602091926022820394855196601e84015260038301526018820352035252565b9061ad6c6128fc565b5061ad756128fc565b5061ad7e6168c2565b5061ad876168c2565b5061ad91826168c6565b61adae61ad9d8461329a565b9361ada86040618388565b90611a66565b61adc061adba826168c6565b9161329a565b92565b61adcb610ffe565b50119056fea264697066735822122046d4958d2ca3b09ade976b405004066f043f165870e7a6f7db7ec09e44da3f2564736f6c63430008210033","linkReferences":{}},"methodIdentifiers":{"allowance(address,address,uint256)":"598af9e7","approve(address,uint256,uint256)":"426a8493","balanceOf(address,uint256)":"00fdd58e","clear(uint256,uint256)":"41ee903e","dispatch(bytes)":"ab7fff18","isOperator(address,address)":"b6363cf2","modifyBalance(address,uint256,int256)":"bea556c9","modifyBalance(address,uint256,uint256,int256,int256)":"49dff3ab","onERC1155BatchReceived(address,address,uint256[],uint256[],bytes)":"bc197c81","onERC1155Received(address,address,uint256,uint256,bytes)":"f23a6e61","setOperator(address,bool)":"558a7297","settle()":"11da60b4","storageAccess(bytes32)":"1352ea35","storageAccess(bytes32,uint256)":"745fa652","storageAccess(bytes32[])":"89c59eb9","supportsInterface(bytes4)":"01ffc9a7","swap(uint256,int256,int256,uint256,bytes)":"32269698","sync(address)":"a5841194","sync(address,uint256)":"ef4fcafa","take(address,address,uint256)":"0b0d9c09","take(address,uint256,address,uint256)":"0720b584","take(address,uint256,address,uint256,bytes)":"2b7f670f","transfer(address,uint256,uint256)":"095bcdb6","transferFrom(address,address,uint256,uint256)":"fe99049a","transferTransientBalanceFrom(address,address,uint256,uint256)":"da954559","transientAccess(bytes32)":"834178fe","transientAccess(bytes32,uint256)":"d02bdb62","transientAccess(bytes32[])":"b84a0dd2","unlock(address,bytes)":"738c440a"},"id":2}