{"abi":[{"type":"function","name":"equals","inputs":[{"name":"value0","type":"uint256","internalType":"Tag"},{"name":"value1","type":"uint256","internalType":"Tag"}],"outputs":[{"name":"result","type":"bool","internalType":"bool"}],"stateMutability":"nonpayable"},{"type":"function","name":"greaterThan","inputs":[{"name":"value0","type":"uint256","internalType":"Tag"},{"name":"value1","type":"uint256","internalType":"Tag"}],"outputs":[{"name":"result","type":"bool","internalType":"bool"}],"stateMutability":"nonpayable"},{"type":"function","name":"greaterThanOrEqualTo","inputs":[{"name":"value0","type":"uint256","internalType":"Tag"},{"name":"value1","type":"uint256","internalType":"Tag"}],"outputs":[{"name":"result","type":"bool","internalType":"bool"}],"stateMutability":"nonpayable"},{"type":"function","name":"lessThan","inputs":[{"name":"value0","type":"uint256","internalType":"Tag"},{"name":"value1","type":"uint256","internalType":"Tag"}],"outputs":[{"name":"result","type":"bool","internalType":"bool"}],"stateMutability":"nonpayable"},{"type":"function","name":"lessThanOrEqualTo","inputs":[{"name":"value0","type":"uint256","internalType":"Tag"},{"name":"value1","type":"uint256","internalType":"Tag"}],"outputs":[{"name":"result","type":"bool","internalType":"bool"}],"stateMutability":"nonpayable"},{"type":"function","name":"notEqual","inputs":[{"name":"value0","type":"uint256","internalType":"Tag"},{"name":"value1","type":"uint256","internalType":"Tag"}],"outputs":[{"name":"result","type":"bool","internalType":"bool"}],"stateMutability":"nonpayable"},{"type":"function","name":"tag","inputs":[{"name":"poolId","type":"uint256","internalType":"uint256"},{"name":"logPriceMinOffsetted","type":"int256","internalType":"X59"},{"name":"logPriceMaxOffsetted","type":"int256","internalType":"X59"}],"outputs":[{"name":"tokenTag","type":"uint256","internalType":"Tag"}],"stateMutability":"nonpayable"},{"type":"function","name":"tag","inputs":[{"name":"tokenAddress","type":"address","internalType":"address"},{"name":"tokenId","type":"uint256","internalType":"uint256"}],"outputs":[{"name":"tokenTag","type":"uint256","internalType":"Tag"}],"stateMutability":"nonpayable"},{"type":"function","name":"tag","inputs":[{"name":"tokenAddress","type":"address","internalType":"address"}],"outputs":[{"name":"tokenTag","type":"uint256","internalType":"Tag"}],"stateMutability":"nonpayable"}],"bytecode":{"object":"0x60808060405234601557610253908161001a8239f35b5f80fdfe60806040526004361015610011575f80fd5b5f3560e01c80632215ea7c146100a457806347b5cd811461009f57806348f24ceb1461009a578063827b9d3914610095578063ca4e89bf14610090578063d42d8eed1461008b578063d73492a114610086578063ea045c43146100815763fb1dd0e51461007c575f80fd5b6101fa565b6101ce565b6101ab565b61017b565b610142565b61010d565b6100eb565b6100c9565b346100c55760403660031901126100c5576004356024351160805260206080f35b5f80fd5b346100c55760403660031901126100c557602060043560243560405191148152f35b346100c55760403660031901126100c557602060043560243560405191118152f35b346100c55760603660031901126100c557602060043560243590604435916040519260405283525f5260605f20816040528152f35b346100c55760403660031901126100c55760206004356024356040519114158152f35b600435906001600160a01b03821682036100c557565b346100c55760403660031901126100c557610194610165565b602435906014525f52602060345f20604051908152f35b346100c55760403660031901126100c55760206004356024356040519110158152f35b346100c55760203660031901126100c55760206001600160a01b036101f1610165565b16604051908152f35b346100c55760403660031901126100c55760206004356024356040519111158152f3fea26469706673582212203bf6e69c684fbd3f87b5124b57c59a86224bb8293fd1f693161f907585ab8b3364736f6c63430008210033","linkReferences":{}},"methodIdentifiers":{"equals(uint256,uint256)":"47b5cd81","greaterThan(uint256,uint256)":"48f24ceb","greaterThanOrEqualTo(uint256,uint256)":"d73492a1","lessThan(uint256,uint256)":"2215ea7c","lessThanOrEqualTo(uint256,uint256)":"fb1dd0e5","notEqual(uint256,uint256)":"ca4e89bf","tag(address)":"ea045c43","tag(address,uint256)":"d42d8eed","tag(uint256,int256,int256)":"827b9d39"},"id":31}