{"abi":[{"type":"constructor","inputs":[{"name":"_name","type":"string","internalType":"string"},{"name":"_symbol","type":"string","internalType":"string"}],"stateMutability":"nonpayable"},{"type":"function","name":"balanceOf","inputs":[{"name":"","type":"address","internalType":"address"}],"outputs":[{"name":"","type":"uint256","internalType":"uint256"}],"stateMutability":"view"},{"type":"function","name":"decimals","inputs":[],"outputs":[{"name":"","type":"uint8","internalType":"uint8"}],"stateMutability":"view"},{"type":"function","name":"name","inputs":[],"outputs":[{"name":"","type":"string","internalType":"string"}],"stateMutability":"view"},{"type":"function","name":"symbol","inputs":[],"outputs":[{"name":"","type":"string","internalType":"string"}],"stateMutability":"view"},{"type":"function","name":"transfer","inputs":[{"name":"to","type":"address","internalType":"address"},{"name":"amount","type":"uint256","internalType":"uint256"}],"outputs":[{"name":"","type":"bool","internalType":"bool"}],"stateMutability":"nonpayable"}],"bytecode":{"object":"0x6080604052346100305761001a610014610187565b90610519565b610022610035565b6106f761056482396106f790f35b61003b565b60405190565b5f80fd5b601f801991011690565b634e487b7160e01b5f52604160045260245ffd5b906100679061003f565b810190811060018060401b0382111761007f57604052565b610049565b90610097610090610035565b928361005d565b565b5f80fd5b5f80fd5b5f80fd5b5f80fd5b60018060401b0381116100c5576100c160209161003f565b0190565b610049565b90825f9392825e0152565b909291926100ea6100e5826100a9565b610084565b9381855260208501908284011161010657610104926100ca565b565b6100a5565b9080601f8301121561012957816020610126935191016100d5565b90565b6100a1565b919091604081840312610182575f81015160018060401b03811161017d578361015891830161010b565b92602082015160018060401b03811161017857610175920161010b565b90565b61009d565b61009d565b610099565b6101a5610c5b8038038061019a81610084565b92833981019061012e565b9091565b5f1b90565b906101ba60ff916101a9565b9181191691161790565b90565b60ff1690565b90565b6101e46101df6101e9926101c4565b6101cd565b6101c7565b90565b90565b906102046101ff61020b926101d0565b6101ec565b82546101ae565b9055565b5190565b634e487b7160e01b5f52602260045260245ffd5b9060016002830492168015610247575b602083101461024257565b610213565b91607f1691610237565b5f5260205f2090565b601f602091010490565b1b90565b9190600861028391029161027d5f1984610264565b92610264565b9181191691161790565b90565b6102a461029f6102a99261028d565b6101cd565b61028d565b90565b90565b91906102c56102c06102cd93610290565b6102ac565b908354610268565b9055565b5f90565b6102e7916102e16102d1565b916102af565b565b5f5b8281106102f757505050565b806103065f60019385016102d5565b016102eb565b9190601f811161031c575b505050565b818111610329575b610317565b61033e61033861035c94610251565b9161025a565b91602061034a8261025a565b9110610364575b8091019103906102e9565b5f8080610324565b505f610351565b1c90565b9061037f905f199060080261036b565b191690565b8161038e9161036f565b906002021790565b906103a08161020f565b9060018060401b03821161045e576103c2826103bc8554610227565b8561030c565b602090601f83116001146103f6579180916103e5935f926103ea575b5050610384565b90555b565b90915001515f806103de565b601f1983169161040585610251565b925f5b8181106104465750916002939185600196941061042c575b505050020190556103e8565b61043c910151601f84169061036f565b90555f8080610420565b91936020600181928787015181550195019201610408565b610049565b9061046d91610396565b565b90565b61048661048161048b9261046f565b6101cd565b61028d565b90565b60018060a01b031690565b6104ad6104a86104b29261048e565b6101cd565b61048e565b90565b6104be90610499565b90565b6104ca906104b5565b90565b906104d7906104c1565b5f5260205260405f2090565b906104ef5f19916101a9565b9181191691161790565b9061050e61050961051592610290565b6102ac565b82546104e3565b9055565b9061053361053a9261052d601260026101ef565b5f610463565b6001610463565b61056161055069d3c21bcecceda1000000610472565b61055c600333906104cd565b6104f9565b56fe60806040526004361015610013575b61057e565b61001d5f3561006c565b806306fdde0314610067578063313ce5671461006257806370a082311461005d57806395d89b41146100585763a9059cbb0361000e57610548565b61049c565b610458565b610317565b61027b565b60e01c90565b60405190565b5f80fd5b5f80fd5b5f91031261008a57565b61007c565b634e487b7160e01b5f525f60045260245ffd5b634e487b7160e01b5f52602260045260245ffd5b90600160028304921680156100d6575b60208310146100d157565b6100a2565b91607f16916100c6565b60209181520190565b5f5260205f2090565b905f929180549061010c610105836100b6565b80946100e0565b916001811690815f146101635750600114610127575b505050565b61013491929394506100e9565b915f925b81841061014b57505001905f8080610122565b60018160209295939554848601520191019290610138565b92949550505060ff19168252151560200201905f8080610122565b90610188916100f2565b90565b601f801991011690565b634e487b7160e01b5f52604160045260245ffd5b906101b39061018b565b810190811067ffffffffffffffff8211176101cd57604052565b610195565b906101f26101eb926101e2610072565b9384809261017e565b03836101a9565b565b905f1061020757610204906101d2565b90565b61008f565b6102175f5f906101f4565b90565b5190565b60209181520190565b90825f9392825e0152565b61025161025a60209361025f936102488161021a565b9384809361021e565b95869101610227565b61018b565b0190565b6102789160208201915f818403910152610232565b90565b346102ab5761028b366004610080565b6102a761029661020c565b61029e610072565b91829182610263565b0390f35b610078565b1c90565b60ff1690565b6102ca9060086102cf93026102b0565b6102b4565b90565b906102dd91546102ba565b90565b6102ec60025f906102d2565b90565b60ff1690565b6102fe906102ef565b9052565b9190610315905f602085019401906102f5565b565b3461034757610327366004610080565b6103436103326102e0565b61033a610072565b91829182610302565b0390f35b610078565b60018060a01b031690565b6103609061034c565b90565b61036c81610357565b0361037357565b5f80fd5b9050359061038482610363565b565b9060208282031261039f5761039c915f01610377565b90565b61007c565b90565b6103bb6103b66103c09261034c565b6103a4565b61034c565b90565b6103cc906103a7565b90565b6103d8906103c3565b90565b906103e5906103cf565b5f5260205260405f2090565b90565b61040490600861040993026102b0565b6103f1565b90565b9061041791546103f4565b90565b6104309061042b6003915f926103db565b61040c565b90565b90565b61043f90610433565b9052565b9190610456905f60208501940190610436565b565b346104885761048461047361046e366004610386565b61041a565b61047b610072565b91829182610443565b0390f35b610078565b61049960015f906101f4565b90565b346104cc576104ac366004610080565b6104c86104b761048d565b6104bf610072565b91829182610263565b0390f35b610078565b6104da81610433565b036104e157565b5f80fd5b905035906104f2826104d1565b565b919060408382031261051c5780610510610519925f8601610377565b936020016104e5565b90565b61007c565b151590565b61052f90610521565b9052565b9190610546905f60208501940190610526565b565b346105795761057561056461055e3660046104f4565b90610664565b61056c610072565b91829182610533565b0390f35b610078565b5f80fd5b5f90565b5f1c90565b61059761059c91610586565b6103f1565b90565b6105a9905461058b565b90565b634e487b7160e01b5f52601160045260245ffd5b6105cf6105d591939293610433565b92610433565b82039182116105e057565b6105ac565b5f1b90565b906105f65f19916105e5565b9181191691161790565b61061461060f61061992610433565b6103a4565b610433565b90565b90565b9061063461062f61063b92610600565b61061c565b82546105ea565b9055565b61064e61065491939293610433565b92610433565b820180921161065f57565b6105ac565b6106b66106a76106bc93610676610582565b5061069f8161069961068a600333906103db565b916106948361059f565b6105c0565b9061061f565b9260036103db565b916106b18361059f565b61063f565b9061061f565b60019056fea2646970667358221220717913b273dc4c701bfb4053391e07806b47643573440396764cc1dceb2aabd364736f6c63430008210033","linkReferences":{}},"methodIdentifiers":{"balanceOf(address)":"70a08231","decimals()":"313ce567","name()":"06fdde03","symbol()":"95d89b41","transfer(address,uint256)":"a9059cbb"},"id":0}