{"abi":[{"type":"function","name":"add","inputs":[{"name":"value0","type":"int256","internalType":"X59"},{"name":"value1","type":"int256","internalType":"X59"}],"outputs":[{"name":"result","type":"int256","internalType":"X59"}],"stateMutability":"nonpayable"},{"type":"function","name":"cheapMulDiv","inputs":[{"name":"value","type":"int256","internalType":"X59"},{"name":"numerator","type":"int256","internalType":"X216"},{"name":"denominator","type":"int256","internalType":"X216"}],"outputs":[{"name":"result","type":"int256","internalType":"X59"}],"stateMutability":"nonpayable"},{"type":"function","name":"equals","inputs":[{"name":"value0","type":"int256","internalType":"X59"},{"name":"value1","type":"int256","internalType":"X59"}],"outputs":[{"name":"result","type":"bool","internalType":"bool"}],"stateMutability":"nonpayable"},{"type":"function","name":"exp","inputs":[{"name":"value","type":"int256","internalType":"X59"}],"outputs":[{"name":"exponentialInverse","type":"int256","internalType":"X216"},{"name":"exponentialOverExp16","type":"int256","internalType":"X216"}],"stateMutability":"nonpayable"},{"type":"function","name":"expOffset","inputs":[{"name":"value","type":"int256","internalType":"X59"}],"outputs":[{"name":"exponentialInverse","type":"uint256","internalType":"uint256"}],"stateMutability":"nonpayable"},{"type":"function","name":"greaterThan","inputs":[{"name":"value0","type":"int256","internalType":"X59"},{"name":"value1","type":"int256","internalType":"X59"}],"outputs":[{"name":"result","type":"bool","internalType":"bool"}],"stateMutability":"nonpayable"},{"type":"function","name":"greaterThanOrEqualTo","inputs":[{"name":"value0","type":"int256","internalType":"X59"},{"name":"value1","type":"int256","internalType":"X59"}],"outputs":[{"name":"result","type":"bool","internalType":"bool"}],"stateMutability":"nonpayable"},{"type":"function","name":"lessThan","inputs":[{"name":"value0","type":"int256","internalType":"X59"},{"name":"value1","type":"int256","internalType":"X59"}],"outputs":[{"name":"result","type":"bool","internalType":"bool"}],"stateMutability":"nonpayable"},{"type":"function","name":"lessThanOrEqualTo","inputs":[{"name":"value0","type":"int256","internalType":"X59"},{"name":"value1","type":"int256","internalType":"X59"}],"outputs":[{"name":"result","type":"bool","internalType":"bool"}],"stateMutability":"nonpayable"},{"type":"function","name":"logToSqrtOffset","inputs":[{"name":"value","type":"int256","internalType":"X59"}],"outputs":[{"name":"sqrtOffset","type":"int256","internalType":"X127"}],"stateMutability":"nonpayable"},{"type":"function","name":"maxX59","inputs":[{"name":"value0","type":"int256","internalType":"X59"},{"name":"value1","type":"int256","internalType":"X59"}],"outputs":[{"name":"result","type":"int256","internalType":"X59"}],"stateMutability":"nonpayable"},{"type":"function","name":"minX59","inputs":[{"name":"value0","type":"int256","internalType":"X59"},{"name":"value1","type":"int256","internalType":"X59"}],"outputs":[{"name":"result","type":"int256","internalType":"X59"}],"stateMutability":"nonpayable"},{"type":"function","name":"mod","inputs":[{"name":"value0","type":"int256","internalType":"X59"},{"name":"value1","type":"int256","internalType":"X59"}],"outputs":[{"name":"result","type":"int256","internalType":"X59"}],"stateMutability":"nonpayable"},{"type":"function","name":"mulDivByExpInv16","inputs":[{"name":"value","type":"int256","internalType":"X59"},{"name":"multiplier0","type":"int256","internalType":"X216"},{"name":"multiplier1","type":"int256","internalType":"X216"}],"outputs":[{"name":"product","type":"int256","internalType":"X216"}],"stateMutability":"nonpayable"},{"type":"function","name":"notEqual","inputs":[{"name":"value0","type":"int256","internalType":"X59"},{"name":"value1","type":"int256","internalType":"X59"}],"outputs":[{"name":"result","type":"bool","internalType":"bool"}],"stateMutability":"nonpayable"},{"type":"function","name":"sub","inputs":[{"name":"value0","type":"int256","internalType":"X59"},{"name":"value1","type":"int256","internalType":"X59"}],"outputs":[{"name":"result","type":"int256","internalType":"X59"}],"stateMutability":"nonpayable"},{"type":"function","name":"times","inputs":[{"name":"value0","type":"int256","internalType":"X59"},{"name":"value1","type":"uint256","internalType":"X15"}],"outputs":[{"name":"result","type":"int256","internalType":"X74"}],"stateMutability":"nonpayable"}],"bytecode":{"object":"0x608080604052346015576107c4908161001a8239f35b5f80fdfe6080806040526004361015610012575f80fd5b5f3560e01c908163230ebba11461051c5750806324e28928146105035780634525d8fd1461049c57806370be203d14610482578063a5f3c23b14610469578063adefc37b14610450578063b4a480ad14610437578063ba2cbd1d14610419578063babdd838146103ff578063bfb0f6bf146103e6578063da72bf8f146103ba578063e1272d7e14610399578063e46751e3146101c0578063e650ab3d14610196578063e91812b314610115578063fd70d9c3146100fc5763ffe4b656146100d7575f80fd5b346100f85760403660031901126100f8576020604051602435600435028152f35b5f80fd5b346100f857602061010c36610533565b60405191128152f35b346100f85760203660031901126100f857602061013e6004356802d00000000000000003610563565b604051907fcf8e41e6c4d4aa5e9cc597c10cd32eacd30c44f750a8ffdb1a8863dd8f72f0a5907f872db9e8ffa9e7d41f2aaf39897b91e4002e70fceed391471fad73d51503772d600160bf1b82099060bf1b03028152f35b346100f85760206101a636610533565b90818112156101b957505b604051908152f35b90506101b1565b346100f85760203660031901126100f8576040600435808002908180025f19600160801b808386095f19848709030990621eee11605a1b8180025f19838009030469c918000000000000000083046609c000000000008304600f600760681b88020401010193600f66249000000000006a06df920000000000000000600160ff1b9504930491606a1b04010101905f1991600160b41b916910000000000000000000828209915f19910903098082016001600160fe1b03810192600160fe1b92900382019183915f1991908181018286099003010191600160fe1b90090860021b808002905f1990800903808002905f1990800903808002905f1990800903808002905f1990800903808002905f1990800903808002905f1990800903808002905f1990800903808002905f1990800903808002905f1990800903808002905f1990800903808002905f1990800903808002905f1990800903808002905f1990800903808002905f199080098251919003602881901c82525f198082019180600160c11b7ff1aaddd7742e56d32fb9f997447d9e6314db84884fabab26bf059af9bc20b6090990030181600160c11b7ff1aaddd7742e56d32fb9f997447d9e6314db84884fabab26bf059af9bc20b60909086020820152f35b346100f85760206103a936610533565b808212156101b95750604051908152f35b346100f85760206103ca36610549565b915f1983018092604051945f1990808386099003019209088152f35b346100f85760206103f636610533565b60405191148152f35b346100f857602061040f36610533565b6040519113158152f35b346100f85760203660031901126100f85760206101b1600435610563565b346100f857602061044736610533565b60405191138152f35b346100f857602061046036610533565b60405191038152f35b346100f857602061047936610533565b60405191018152f35b346100f857602061049236610533565b6040519112158152f35b346100f85760207fd49c04af80af1ea5f98f85886b450a4b264fc14874f9f64143836145a37dd8a16104cd36610549565b6040519392917f0f1aaddd7742e56d32fb9f997447d9e6314db84884fabab26bf059af9bc20b6182818386090992020203028152f35b346100f857602061051336610533565b60405191068152f35b346100f85760209061052d36610533565b14158152f35b60409060031901126100f8576004359060243590565b60609060031901126100f857600435906024359060443590565b600381800260251b0460929190911b8181016001600160ff1b03810192600160ff1b92900382019183915f199190818101600160fe1b86099003010191600160fe1b90090860021b808002905f1990800903808002905f1990800903808002905f1990800903808002905f1990800903808002905f1990800903808002905f1990800903808002905f1990800903808002905f1990800903808002905f1990800903808002905f1990800903808002905f1990800903808002905f1990800903808002905f1990800903808002905f1990800903808002905f1990800903808002905f1990800903808002905f1990800903808002905f1990800903808002905f1990800903808002905f1990800903808002905f1990800903808002905f1990800903808002905f1990800903808002905f1990800903808002905f1990800903808002905f1990800903808002905f1990800903808002905f1990800903808002905f1990800903808002905f1990800903808002905f1990800903808002905f1990800903808002905f1990800903808002905f1990800903808002905f1990800903808002905f1990800903808002905f1990800903808002905f1990800903808002905f1990800903808002905f1990800903808002905f1990800903808002905f1990800903808002905f1990800903808002905f1990800903808002905f1990800903808002905f1990800903808002905f1990800903808002905f19908009039056fea264697066735822122006b3b0a2714534bf7ec3744dd4aaf0f25dd1cae6dc27de53d57d8803cdd6377864736f6c63430008210033","linkReferences":{}},"methodIdentifiers":{"add(int256,int256)":"a5f3c23b","cheapMulDiv(int256,int256,int256)":"da72bf8f","equals(int256,int256)":"bfb0f6bf","exp(int256)":"e46751e3","expOffset(int256)":"ba2cbd1d","greaterThan(int256,int256)":"b4a480ad","greaterThanOrEqualTo(int256,int256)":"70be203d","lessThan(int256,int256)":"fd70d9c3","lessThanOrEqualTo(int256,int256)":"babdd838","logToSqrtOffset(int256)":"e91812b3","maxX59(int256,int256)":"e650ab3d","minX59(int256,int256)":"e1272d7e","mod(int256,int256)":"24e28928","mulDivByExpInv16(int256,int256,int256)":"4525d8fd","notEqual(int256,int256)":"230ebba1","sub(int256,int256)":"adefc37b","times(int256,uint256)":"ffe4b656"},"id":41}