{"abi":[{"type":"function","name":"evaluate_test","inputs":[{"name":"seed_c0","type":"uint16","internalType":"uint16"},{"name":"seed_c1","type":"uint16","internalType":"uint16"},{"name":"seed_b0","type":"uint64","internalType":"uint64"},{"name":"seed_b1","type":"uint64","internalType":"uint64"},{"name":"left","type":"bool","internalType":"bool"},{"name":"seed_q","type":"uint64","internalType":"uint64"}],"outputs":[],"stateMutability":"pure"},{"type":"function","name":"integral_increment_decrement_test","inputs":[{"name":"seed0","type":"uint216","internalType":"uint216"},{"name":"seed1","type":"uint216","internalType":"uint216"}],"outputs":[],"stateMutability":"pure"},{"type":"function","name":"integral_setter_getter_test","inputs":[{"name":"seed","type":"uint216","internalType":"uint216"}],"outputs":[],"stateMutability":"pure"},{"type":"function","name":"outgoing_incoming_test","inputs":[{"name":"seed_c0","type":"uint16","internalType":"uint16"},{"name":"seed_c1","type":"uint16","internalType":"uint16"},{"name":"seed_b0","type":"uint64","internalType":"uint64"},{"name":"seed_b1","type":"uint64","internalType":"uint64"},{"name":"direction","type":"bool","internalType":"bool"},{"name":"seed_from","type":"uint64","internalType":"uint64"},{"name":"seed_to","type":"uint64","internalType":"uint64"}],"outputs":[],"stateMutability":"pure"},{"type":"function","name":"shift_test","inputs":[{"name":"seed_integral","type":"uint256","internalType":"uint256"},{"name":"seed_price0","type":"uint64","internalType":"uint64"},{"name":"seed_price1","type":"uint64","internalType":"uint64"}],"outputs":[],"stateMutability":"pure"}],"bytecode":{"object":"0x60808060405234601557611316908161001a8239f35b5f80fdfe60806040526004361015610011575f80fd5b5f3560e01c806319bb97bb146100645780633a49a9781461005f57806344a99d6b1461005a578063cffce27a146100555763ec60fcc714610050575f80fd5b61058b565b610342565b6102c8565b610170565b346100e85760403660031901126100e8576100e06100806100ec565b610088610102565b6001600160d81b0390811691168181136100e2575b609b6040526100b28260605190607b52606052565b6100cf8160281b9182608051038060805260281c90840314610753565b608051018060805260281c14610753565b005b9061009d565b5f80fd5b600435906001600160d81b03821682036100e857565b602435906001600160d81b03821682036100e857565b604435906001600160401b03821682036100e857565b606435906001600160401b03821682036100e857565b60a435906001600160401b03821682036100e857565b60c435906001600160401b03821682036100e857565b346100e85760603660031901126100e8576024356001600160401b03811681036100e8576102bd6101e36102b76102406100e0946102b16101af610118565b917801e355bbaee85cada65f73f32e88fb3cc629b709109f57564d600435069586916001600160401b038091160660010190565b6102ab6401000000006101f58361083e565b97909661022e8989610211604051906040600283019201604052565b9788601f19810192835194601e8301526003820152601719015252565b6001600160401b038091160660010190565b96610299846102926102518b61083e565b92819c919961028d8561026e604051906040600283019201604052565b9c8d9586601f19810192835194601e8301526003820152601719015252565b6109b7565b928c610b09565b90818113156102c2575b031115610753565b86610a60565b93610b09565b90610b27565b610753565b906102a3565b346100e85760203660031901126100e8576100e06001600160d81b036102ec6100ec565b16604051601b8101604052601f19810180519083600419840152525160281c14610753565b6004359061ffff821682036100e857565b6024359061ffff821682036100e857565b6084359081151582036100e857565b346100e85760e03660031901126100e8576100e06102bd610361610311565b610369610322565b90610372610118565b9061037b61012e565b90610384610333565b9061038d610144565b926103c26103b761039c61015a565b966001600160401b0367fffffffffffffffe91160660010190565b9160018301906107a4565b90831561057d576103e36103f09192935b6103ea6103e36180018093610b56565b61ffff1690565b98610b56565b94610405604051906080600283019201604052565b9461041a604051906040600283019201604052565b610444858561043e8282610438604051906040600283019201604052565b976107fe565b956107fe565b888a10156105725761054f98935b8181121561056c5790965b15610560579061055a929196975b6104db868c6104ad61047c8361083e565b906104868d61083e565b959094889091602119820193845195601e8401526003830152601719820152601f19015252565b89886104b886610796565b9091602119820193845195601e8401526003830152601719820152601f19015252565b6105056104e78961083e565b908a85601f19810192835194601e8301526003820152601719015252565b61052f6105118a61083e565b908b86601f19810192835194601e8301526003820152601719015252565b6105556102bd8c61054f8c8c8c8c8c6105498c8c8c610b6a565b96610c8a565b90610b44565b610d54565b96610e62565b9661055a92919061046b565b9661045d565b61054f989993610452565b916103f0906103e3906103d3565b346100e85760c03660031901126100e8576105a4610311565b6105ac610322565b6105b4610118565b916105bd61012e565b6105c5610333565b9061ffff6105f3816105e56105d8610144565b9661ffff61800191160690565b169561ffff61800191160690565b169384811015610730576103b76106209195966001600160401b0367fffffffffffffffe91160660010190565b91156107225761063390928383916107fe565b9061063d8361083e565b93909561068a61064c8461083e565b919096610663604051906080600283019201604052565b99858a8c9091602119820193845195601e8401526003830152601719820152601f19015252565b604088019586891161071d576100e0986106ce6107119361070c9388876107179c9091602119820193845195601e8401526003830152601719820152601f19015252565b6106d78761083e565b6106ee939193604051906040600283019201604052565b938985601f19810192835194601e8301526003820152601719015252565b610f18565b95611008565b14610753565b610782565b9061063390928383916107fe565b94610620906103b7906001600160401b0367fffffffffffffffe91160660010190565b1561075a57565b634e487b7160e01b5f52600160045260245ffd5b634e487b7160e01b5f52601260045260245ffd5b634e487b7160e01b5f52601160045260245ffd5b906040820180921161071d57565b6001600160401b0382129182156107ef578080935b156107e757600191506001600160401b035b03019081156107e2576001600160401b0316060190565b61076e565b6001916107cb565b6001600160401b0380936107b9565b9091600190808412908115610835578485925b1561082e575003019081156107e2576001600160401b0316060190565b90506107cb565b80948592610811565b6109159061090f90808002908180025f19600160801b808386095f198487090309906108c26108b46108ad600f600760681b8802046609c0000000000085040169c91800000000000000008604016108a58580025f19878009621eee11605a1b9190030490565b0196606a1b90565b600f900490565b916624900000000000900490565b5f1993600160b41b936a06df92000000000000000090049190920101600160ff1b01906910000000000000000000828209915f1991090309600160fe1b8183018101929190910301611059565b60021b90565b808002905f1990800903808002905f1990800903808002905f1990800903808002905f1990800903808002905f1990800903808002905f1990800903808002905f1990800903808002905f1990800903808002905f1990800903808002905f1990800903808002905f1990800903808002905f1990800903808002905f1990800903808002905f19908009036109b46109ad82611079565b9160281c90565b91565b919068a43903008fac41d97d906023015160281c916023015160281c7f5bc2a24e50a66d39c35a9132c33f2fc50a1b99389d5455e78a7cf7ef8894e4cd8163cb21e499028464cef6ae8685020992020203907fdbad67320459464b8d379def907a3e0c7c8687340b82b93b6e54e966e257826781830202917f7082326d62b7ef4d06861f13c21dd192c8044b19a121205b7dc63c2642b5a8055f1992634bc3287b029102090390565b919068a43903008fac41d97d906008015160281c916008015160281c7f5bc2a24e50a66d39c35a9132c33f2fc50a1b99389d5455e78a7cf7ef8894e4cd8163cb21e499028464cef6ae8685020992020203907fdbad67320459464b8d379def907a3e0c7c8687340b82b93b6e54e966e257826781830202917f7082326d62b7ef4d06861f13c21dd192c8044b19a121205b7dc63c2642b5a8055f1992634bc3287b029102090390565b90610b1e90610b249360141b9060141b6110d6565b90611113565b90565b640100000000919081811315610b3e575b03111590565b90610b38565b6010919081811315610b3e5703111590565b9061ffff169081156107e25761ffff160690565b9091825160c01c90805160c01c808314610c8157604084019360011981015160f01c94603e82015160f01c948515610c75578686039287828612968715601b026023039a8b015160281c9a015160281c9714610c655783916001603c1b915160c01c948591885f14610c55578391920301029484030102935b15610c49575160c01c900380915b600160c01b87820993600160c01b86820991828610916001600160c01b03908890098601906001600160c01b03908a90098301030393600160c01b918203900881840660c01b0104910460c01b0192030201600f1c90565b5160c01c038091610bf1565b8284910301029503010293610be3565b50505050505090910302600f1c90565b50505050505050505f90565b50505050505f90565b610b24955f9594909392818403610ca8575b505050505050600f1c90565b909192938581969750125f14610d0e578385846001603c1b93610cf28a8686610cde610cd7610d009e9f61083e565b509761083e565b509a8b950399039a8b920301880285611248565b920302019603010290611248565b90035b5f8080808080610c9c565b91610d4d9486826001603c1b969893610cf2610d2a899661083e565b949050610d368661083e565b998a94915003978c03998a918d0301880285611248565b9003610d03565b91905f91815160c01c93815160c01c90818614610e5857603e81015160f01c948515610e4e5750604081015160c01c908683129384601b026023039586015160281c95015160281c9660011982015160f01c808814610c6557836001603c1b9189038093885f14610e3d5782849103010295030102935b15610e30575160c01c0380915b600160c01b85820990600160c01b88860994828610916001600160c01b03908890098601906001600160c01b03908a90098301030393600160c01b918203900881840660c01b0104910460c01b0192030203600f1c90565b5160c01c90038091610dd8565b839192030102948403010293610dcb565b9550505050505090565b5050505050505f90565b610b24955f95919392909190858403610e8157505050505050600f1c90565b909180939495965082125f14610edd57610d009492826001603c1b959392610ece610eac889561083e565b939050610eb88561083e565b9890508303968b039889918c0301870284611248565b91860302019603010290611248565b85826001603c1b92610ece610ef8610d4d99979a989661083e565b50928585610f058d61083e565b509985039803998a920301870284611248565b610f3d60011982015160f01c825160c01c926040603e82015160f01c91015160c01c92565b91938293919315610c8157838314610fdb575160c01c808514610fc157835f5160206112c15f395f51905f5294958381125f14610fb15783039303910302905b80600160c01b838509926001600160c01b03908482039082908709089281840660c01b0104910460c01b0191020160281c90565b9280929303930391030290610f7d565b50505f5160206112c15f395f51905f520260281c92915050565b5050505f5160206112c15f395f51905f5291500260281c90565b8181029291811591840414171561071d57565b92939284831215611047578261102f93949503936110268583610ff5565b95039103610ff5565b820180921161071d57611041916111a9565b60281d90565b829461102f9303936110268583610ff5565b5f198281019283919080600160fe1b850990030191600160fe1b90090890565b5f198181019180600160c11b7ff1aaddd7742e56d32fb9f997447d9e6314db84884fabab26bf059af9bc20b6090990030181600160c11b7ff1aaddd7742e56d32fb9f997447d9e6314db84884fabab26bf059af9bc20b609090890565b905f1981830990808302928380841093039183831461110957600160d81b91099183831191030360281b910360d81c1790565b5050505060d81c90565b5f198282098282029182808310920390828214611181577f63ec2e6b12c6ff2c574d740af1a87fd0add5371fadaf668d5dfa7b416bee608f947d01e355bbaee85cada65f73f32e88fb3cc629b709109f57564d7e0b35f37891099183831191030360fd1b910360031c170290565b5050507d01e355bbaee85cada65f73f32e88fb3cc629b709109f57564d7e0b35f37891500490565b905f19825f5160206112c15f395f51905f520990825f5160206112c15f395f51905f520291828082109103938185146112405782905f5160206112c15f395f51905f52099082805f03168093046002816003021880820260020302808202600203028082026002030280820260020302808202600203028091026002030294600184805f0304019185841191030302920304170290565b505091500490565b915f1982840982840292838083109203948286146112b757908391099082805f03168093046002816003021880820260020302808202600203028082026002030280820260020302808202600203028091026002030294600184805f0304019185841191030302920304170290565b5050509150049056fe00000015fc21041027acbbfcd46780fee71ead23fbcb7f4a81e58767ef801a32a264697066735822122029d09ff415ccb680d6699d16c8564d86040770f1fb40b4f5651e6301a364905e64736f6c63430008210033","linkReferences":{}},"methodIdentifiers":{"evaluate_test(uint16,uint16,uint64,uint64,bool,uint64)":"ec60fcc7","integral_increment_decrement_test(uint216,uint216)":"19bb97bb","integral_setter_getter_test(uint216)":"44a99d6b","outgoing_incoming_test(uint16,uint16,uint64,uint64,bool,uint64,uint64)":"cffce27a","shift_test(uint256,uint64,uint64)":"3a49a978"},"id":86}