{"abi":[{"type":"function","name":"_emitDonateEvent","inputs":[{"name":"content","type":"bytes","internalType":"bytes"}],"outputs":[],"stateMutability":"nonpayable"},{"type":"function","name":"_emitInitializeEvent","inputs":[{"name":"content","type":"bytes","internalType":"bytes"}],"outputs":[],"stateMutability":"nonpayable"},{"type":"function","name":"_emitModifyKernelEvent","inputs":[{"name":"content","type":"bytes","internalType":"bytes"}],"outputs":[],"stateMutability":"nonpayable"},{"type":"function","name":"_emitModifyPoolGrowthPortionEvent","inputs":[{"name":"content","type":"bytes","internalType":"bytes"}],"outputs":[],"stateMutability":"nonpayable"},{"type":"function","name":"_emitModifyPositionEvent","inputs":[{"name":"content","type":"bytes","internalType":"bytes"}],"outputs":[],"stateMutability":"nonpayable"},{"type":"function","name":"_emitSwapEvent","inputs":[{"name":"content","type":"bytes","internalType":"bytes"}],"outputs":[],"stateMutability":"nonpayable"},{"type":"function","name":"_emitUpdateGrowthPortionsEvent","inputs":[{"name":"content","type":"bytes","internalType":"bytes"}],"outputs":[],"stateMutability":"nonpayable"},{"type":"function","name":"allowance","inputs":[{"name":"owner","type":"address","internalType":"address"},{"name":"spender","type":"address","internalType":"address"},{"name":"tag","type":"uint256","internalType":"Tag"}],"outputs":[{"name":"amount","type":"uint256","internalType":"uint256"}],"stateMutability":"view"},{"type":"function","name":"approve","inputs":[{"name":"spender","type":"address","internalType":"address"},{"name":"tag","type":"uint256","internalType":"Tag"},{"name":"amount","type":"uint256","internalType":"uint256"}],"outputs":[{"name":"success","type":"bool","internalType":"bool"}],"stateMutability":"nonpayable"},{"type":"function","name":"balanceOf","inputs":[{"name":"owner","type":"address","internalType":"address"},{"name":"tag","type":"uint256","internalType":"Tag"}],"outputs":[{"name":"amount","type":"uint256","internalType":"uint256"}],"stateMutability":"view"},{"type":"function","name":"clear","inputs":[{"name":"tag","type":"uint256","internalType":"Tag"},{"name":"amount","type":"uint256","internalType":"uint256"}],"outputs":[],"stateMutability":"nonpayable"},{"type":"function","name":"dispatch","inputs":[{"name":"input","type":"bytes","internalType":"bytes"}],"outputs":[{"name":"output0","type":"int256","internalType":"int256"},{"name":"output1","type":"int256","internalType":"int256"}],"stateMutability":"nonpayable"},{"type":"function","name":"isOperator","inputs":[{"name":"owner","type":"address","internalType":"address"},{"name":"spender","type":"address","internalType":"address"}],"outputs":[{"name":"status","type":"bool","internalType":"bool"}],"stateMutability":"view"},{"type":"function","name":"modifyBalance","inputs":[{"name":"owner","type":"address","internalType":"address"},{"name":"tag0","type":"uint256","internalType":"Tag"},{"name":"tag1","type":"uint256","internalType":"Tag"},{"name":"amount0","type":"int256","internalType":"int256"},{"name":"amount1","type":"int256","internalType":"int256"}],"outputs":[],"stateMutability":"nonpayable"},{"type":"function","name":"modifyBalance","inputs":[{"name":"owner","type":"address","internalType":"address"},{"name":"tag","type":"uint256","internalType":"Tag"},{"name":"amount","type":"int256","internalType":"int256"}],"outputs":[],"stateMutability":"nonpayable"},{"type":"function","name":"setOperator","inputs":[{"name":"spender","type":"address","internalType":"address"},{"name":"approved","type":"bool","internalType":"bool"}],"outputs":[{"name":"success","type":"bool","internalType":"bool"}],"stateMutability":"nonpayable"},{"type":"function","name":"settle","inputs":[],"outputs":[{"name":"paid","type":"uint256","internalType":"uint256"}],"stateMutability":"payable"},{"type":"function","name":"storageAccess","inputs":[{"name":"slot","type":"bytes32","internalType":"bytes32"}],"outputs":[{"name":"","type":"bytes32","internalType":"bytes32"}],"stateMutability":"view"},{"type":"function","name":"storageAccess","inputs":[{"name":"startSlot","type":"bytes32","internalType":"bytes32"},{"name":"nSlots","type":"uint256","internalType":"uint256"}],"outputs":[{"name":"","type":"bytes32[]","internalType":"bytes32[]"}],"stateMutability":"view"},{"type":"function","name":"storageAccess","inputs":[{"name":"slots","type":"bytes32[]","internalType":"bytes32[]"}],"outputs":[{"name":"","type":"bytes32[]","internalType":"bytes32[]"}],"stateMutability":"view"},{"type":"function","name":"supportsInterface","inputs":[{"name":"interfaceId","type":"bytes4","internalType":"bytes4"}],"outputs":[{"name":"","type":"bool","internalType":"bool"}],"stateMutability":"pure"},{"type":"function","name":"swap","inputs":[{"name":"poolId","type":"uint256","internalType":"uint256"},{"name":"amountSpecified","type":"int256","internalType":"int256"},{"name":"logPriceLimit","type":"int256","internalType":"X59"},{"name":"zeroForOne","type":"uint256","internalType":"uint256"},{"name":"hookData","type":"bytes","internalType":"bytes"}],"outputs":[{"name":"amount0","type":"int256","internalType":"int256"},{"name":"amount1","type":"int256","internalType":"int256"}],"stateMutability":"nonpayable"},{"type":"function","name":"sync","inputs":[{"name":"token","type":"address","internalType":"address"}],"outputs":[],"stateMutability":"nonpayable"},{"type":"function","name":"sync","inputs":[{"name":"token","type":"address","internalType":"address"},{"name":"tokenId","type":"uint256","internalType":"uint256"}],"outputs":[],"stateMutability":"nonpayable"},{"type":"function","name":"take","inputs":[{"name":"token","type":"address","internalType":"address"},{"name":"tokenId","type":"uint256","internalType":"uint256"},{"name":"to","type":"address","internalType":"address"},{"name":"amount","type":"uint256","internalType":"uint256"}],"outputs":[],"stateMutability":"nonpayable"},{"type":"function","name":"take","inputs":[{"name":"token","type":"address","internalType":"address"},{"name":"to","type":"address","internalType":"address"},{"name":"amount","type":"uint256","internalType":"uint256"}],"outputs":[],"stateMutability":"nonpayable"},{"type":"function","name":"take","inputs":[{"name":"token","type":"address","internalType":"address"},{"name":"tokenId","type":"uint256","internalType":"uint256"},{"name":"to","type":"address","internalType":"address"},{"name":"amount","type":"uint256","internalType":"uint256"},{"name":"transferData","type":"bytes","internalType":"bytes"}],"outputs":[],"stateMutability":"nonpayable"},{"type":"function","name":"transfer","inputs":[{"name":"receiver","type":"address","internalType":"address"},{"name":"tag","type":"uint256","internalType":"Tag"},{"name":"amount","type":"uint256","internalType":"uint256"}],"outputs":[{"name":"success","type":"bool","internalType":"bool"}],"stateMutability":"nonpayable"},{"type":"function","name":"transferFrom","inputs":[{"name":"sender","type":"address","internalType":"address"},{"name":"receiver","type":"address","internalType":"address"},{"name":"tag","type":"uint256","internalType":"Tag"},{"name":"amount","type":"uint256","internalType":"uint256"}],"outputs":[{"name":"success","type":"bool","internalType":"bool"}],"stateMutability":"nonpayable"},{"type":"function","name":"transferTransientBalanceFrom","inputs":[{"name":"sender","type":"address","internalType":"address"},{"name":"receiver","type":"address","internalType":"address"},{"name":"tag","type":"uint256","internalType":"Tag"},{"name":"amount","type":"uint256","internalType":"uint256"}],"outputs":[],"stateMutability":"nonpayable"},{"type":"function","name":"transientAccess","inputs":[{"name":"slot","type":"bytes32","internalType":"bytes32"}],"outputs":[{"name":"","type":"bytes32","internalType":"bytes32"}],"stateMutability":"view"},{"type":"function","name":"transientAccess","inputs":[{"name":"slots","type":"bytes32[]","internalType":"bytes32[]"}],"outputs":[{"name":"","type":"bytes32[]","internalType":"bytes32[]"}],"stateMutability":"view"},{"type":"function","name":"transientAccess","inputs":[{"name":"startSlot","type":"bytes32","internalType":"bytes32"},{"name":"nSlots","type":"uint256","internalType":"uint256"}],"outputs":[{"name":"","type":"bytes32[]","internalType":"bytes32[]"}],"stateMutability":"view"},{"type":"function","name":"unlock","inputs":[{"name":"unlockTarget","type":"address","internalType":"address"},{"name":"data","type":"bytes","internalType":"bytes"}],"outputs":[{"name":"result","type":"bytes","internalType":"bytes"}],"stateMutability":"payable"},{"type":"event","name":"Approval","inputs":[{"name":"owner","type":"address","indexed":true,"internalType":"address"},{"name":"spender","type":"address","indexed":true,"internalType":"address"},{"name":"tag","type":"uint256","indexed":true,"internalType":"Tag"},{"name":"amount","type":"uint256","indexed":false,"internalType":"uint256"}],"anonymous":false},{"type":"event","name":"Donate","inputs":[{"name":"poolId","type":"uint256","indexed":true,"internalType":"uint256"},{"name":"caller","type":"address","indexed":true,"internalType":"address"},{"name":"data","type":"bytes32","indexed":false,"internalType":"bytes32"}],"anonymous":false},{"type":"event","name":"Initialize","inputs":[{"name":"poolId","type":"uint256","indexed":true,"internalType":"uint256"},{"name":"tag0","type":"uint256","indexed":true,"internalType":"Tag"},{"name":"tag1","type":"uint256","indexed":true,"internalType":"Tag"},{"name":"data","type":"bytes","indexed":false,"internalType":"bytes"}],"anonymous":false},{"type":"event","name":"ModifyDoubleBalanceEvent","inputs":[{"name":"caller","type":"address","indexed":true,"internalType":"address"},{"name":"owner","type":"address","indexed":true,"internalType":"address"},{"name":"tag","type":"uint256","indexed":true,"internalType":"Tag"},{"name":"increment","type":"int256","indexed":false,"internalType":"int256"},{"name":"balance","type":"uint256","indexed":false,"internalType":"uint256"}],"anonymous":false},{"type":"event","name":"ModifyKernel","inputs":[{"name":"poolId","type":"uint256","indexed":true,"internalType":"uint256"},{"name":"caller","type":"address","indexed":true,"internalType":"address"},{"name":"data","type":"bytes","indexed":false,"internalType":"bytes"}],"anonymous":false},{"type":"event","name":"ModifyPoolGrowthPortion","inputs":[{"name":"poolId","type":"uint256","indexed":true,"internalType":"uint256"},{"name":"caller","type":"address","indexed":true,"internalType":"address"},{"name":"data","type":"bytes32","indexed":false,"internalType":"bytes32"}],"anonymous":false},{"type":"event","name":"ModifyPoolOwner","inputs":[{"name":"poolId","type":"uint256","indexed":true,"internalType":"uint256"},{"name":"oldOwner","type":"address","indexed":true,"internalType":"address"},{"name":"newOwner","type":"address","indexed":true,"internalType":"address"}],"anonymous":false},{"type":"event","name":"ModifyPosition","inputs":[{"name":"poolId","type":"uint256","indexed":true,"internalType":"uint256"},{"name":"caller","type":"address","indexed":true,"internalType":"address"},{"name":"data","type":"bytes32[6]","indexed":false,"internalType":"bytes32[6]"}],"anonymous":false},{"type":"event","name":"ModifyProtocol","inputs":[{"name":"newOwner","type":"address","indexed":true,"internalType":"address"},{"name":"newProtocol","type":"uint256","indexed":false,"internalType":"uint256"}],"anonymous":false},{"type":"event","name":"ModifySentinel","inputs":[{"name":"oldSentinel","type":"address","indexed":false,"internalType":"contract ISentinel"},{"name":"newSentinel","type":"address","indexed":false,"internalType":"contract ISentinel"}],"anonymous":false},{"type":"event","name":"OperatorSet","inputs":[{"name":"owner","type":"address","indexed":true,"internalType":"address"},{"name":"operator","type":"address","indexed":true,"internalType":"address"},{"name":"approved","type":"bool","indexed":false,"internalType":"bool"}],"anonymous":false},{"type":"event","name":"PoolCollection","inputs":[{"name":"poolId","type":"uint256","indexed":true,"internalType":"uint256"},{"name":"owner","type":"address","indexed":true,"internalType":"address"},{"name":"amount0","type":"uint256","indexed":false,"internalType":"uint256"},{"name":"amount1","type":"uint256","indexed":false,"internalType":"uint256"}],"anonymous":false},{"type":"event","name":"ProtocolCollection","inputs":[{"name":"poolId","type":"uint256","indexed":true,"internalType":"uint256"},{"name":"amount0","type":"uint256","indexed":false,"internalType":"uint256"},{"name":"amount1","type":"uint256","indexed":false,"internalType":"uint256"}],"anonymous":false},{"type":"event","name":"Swap","inputs":[{"name":"poolId","type":"uint256","indexed":true,"internalType":"uint256"},{"name":"caller","type":"address","indexed":true,"internalType":"address"},{"name":"data","type":"bytes32","indexed":false,"internalType":"bytes32"}],"anonymous":false},{"type":"event","name":"Transfer","inputs":[{"name":"caller","type":"address","indexed":false,"internalType":"address"},{"name":"from","type":"address","indexed":true,"internalType":"address"},{"name":"to","type":"address","indexed":true,"internalType":"address"},{"name":"tag","type":"uint256","indexed":true,"internalType":"Tag"},{"name":"amount","type":"uint256","indexed":false,"internalType":"uint256"}],"anonymous":false},{"type":"event","name":"UpdateGrowthPortions","inputs":[{"name":"poolId","type":"uint256","indexed":true,"internalType":"uint256"},{"name":"caller","type":"address","indexed":true,"internalType":"address"},{"name":"data","type":"bytes32","indexed":false,"internalType":"bytes32"}],"anonymous":false}],"bytecode":{"object":"0x60808060405234601557610996908161001a8239f35b5f80fdfe60806040526004361015610011575f80fd5b5f3560e01c8062fdd58e1461021f57806301ffc9a71461021a5780630720b58414610215578063095bcdb6146101ed5780630b0d9c091461021057806311da60b41461020b5780631352ea35146101cf57806315e8d479146102065780632986e920146102015780632b7f670f146101fc57806332269698146101f757806341ee903e146101f2578063426a8493146101ed57806349dff3ab146101e857806350f4d221146101e3578063558a7297146101de578063598af9e7146101d9578063738c440a146101d4578063745fa652146101ac578063834178fe146101cf57806388b2303a146101ca57806389c59eb9146101b6578063a5841194146101c5578063ab7fff18146101c0578063b6363cf2146101bb578063b84a0dd2146101b6578063bea556c9146101b1578063d02bdb62146101ac578063d442faf1146101a7578063da954559146101a2578063de5a24ca1461019d578063ef4fcafa14610198578063fd66097c146101935763fe99049a1461018e575f80fd5b610944565b6108bb565b6108a2565b610821565b610813565b61078b565b61064f565b610772565b6106d1565b610759565b61074b565b610732565b61066d565b610346565b6105ae565b61058c565b61055d565b610512565b6104f9565b6102e0565b6104e6565b610497565b610454565b610409565b6103be565b610331565b61030f565b6102bc565b61028e565b61026a565b600435906001600160a01b038216820361023a57565b5f80fd5b604435906001600160a01b038216820361023a57565b602435906001600160a01b038216820361023a57565b3461023a57604036600319011261023a57610283610224565b5060206040515f8152f35b3461023a57602036600319011261023a576004356001600160e01b031981160361023a5760206040515f8152f35b3461023a57608036600319011261023a576102d5610224565b506102de61023e565b005b3461023a57606036600319011261023a576004356001600160a01b038116810361023a575060206040515f8152f35b3461023a57606036600319011261023a57610328610224565b506102de610254565b5f36600319011261023a5760206040515f8152f35b3461023a57602036600319011261023a5760206040515f8152f35b9181601f8401121561023a5782359167ffffffffffffffff831161023a576020838186019501011161023a57565b602060031982011261023a576004359067ffffffffffffffff821161023a576103ba91600401610361565b9091565b3461023a576103cc3661038f565b5050602435604460803760d8515f61069f5233907f05581d7b0a863ab3ccd5fbadc5fb5f55cd3cd2901be73dd910af4000c4520864602061068fa3005b3461023a576104173661038f565b5050602435604460803760d8515f6107fa5233907f2acc6bc8384d87ac5f72c8f45789cd5cd8e90615e261099383b4bf5c5ee8aa4160206107f4a3005b3461023a5760a036600319011261023a5761046d610224565b5061047661023e565b5060843567ffffffffffffffff811161023a576102de903690600401610361565b3461023a5760a036600319011261023a5760843567ffffffffffffffff811161023a576104c8903690600401610361565b5050604051806104e281905f602060408401938281520152565b0390f35b3461023a57604036600319011261023a57005b3461023a5760a036600319011261023a576102de610224565b3461023a576105203661038f565b5050602435604460803760d8515f6108065233907f7e45b502773d0df12a025b25a368af435357d3235d9dcd3bae60ca3ae6bce8b560206107faa3005b3461023a57604036600319011261023a57610576610224565b506024358015150361023a5760206040515f8152f35b3461023a57606036600319011261023a576105a5610224565b50610283610254565b604036600319011261023a576105c2610224565b5060243567ffffffffffffffff811161023a576105e3903690600401610361565b5050604051602081526040816060518060208301528060808484015e5f828201840152601f01601f19168101030190f35b604060208201916020815260605180935201906080905f5b8181106106395750505090565b825184526020938401939092019160010161062c565b3461023a57604036600319011261023a57604051806104e281610614565b3461023a5761067b3661038f565b5050602435604460803760d85161060f516207fff86106515160ed1c1601805191601061068f835e33907f7b1b2e572a782739fc5ac300a50ada6a682434d210dee70c511533a0c8782ed66020600f198501a352005b3461023a57602036600319011261023a5760043567ffffffffffffffff811161023a573660238201121561023a5780600401359067ffffffffffffffff821161023a573660248360051b8301011161023a575050604051806104e281610614565b3461023a57602036600319011261023a576102de610224565b3461023a576104c83661038f565b3461023a57604036600319011261023a576105a5610224565b3461023a57606036600319011261023a576102de610224565b3461023a576107993661038f565b5050602435604460803760d8515f6101a85233907feef50c47b85ec69dca971f098462811b06c03a692c07d40cb113b6a022f1484f60c060f8a3005b608090600319011261023a576004356001600160a01b038116810361023a57906024356001600160a01b038116810361023a57906044359060643590565b3461023a576102de366107d5565b3461023a5761082f3661038f565b5050602435604460803760d85161062f516106df19810160206106a052806106c0528151925f835260206106df19840880610893575b507f94eaae04beca0748e87fc5d696c5ddf77d74f92fb580e9592b31494c3a25597a60403393016106a0a352005b83036106bf190191505f610865565b3461023a57604036600319011261023a576102de610224565b3461023a576108c93661038f565b5050602435604460803760d8516106e0516107005161062f51916106df1983019360206106a052846106c0527fb4add0d5707804b0e090dcf8df1efa022cb9d69286cbcd113c027c82fefc315c60408551965f875260206106df19880880610935575b50016106a0a452005b87036106bf190190505f61092c565b3461023a57610952366107d5565b5050505060206040515f8152f3fea2646970667358221220b62ca12783a1578a1513f11d24508be83a832c72805256c9f41a5de0d9dde06764736f6c63430008210033","linkReferences":{}},"methodIdentifiers":{"_emitDonateEvent(bytes)":"15e8d479","_emitInitializeEvent(bytes)":"fd66097c","_emitModifyKernelEvent(bytes)":"de5a24ca","_emitModifyPoolGrowthPortionEvent(bytes)":"2986e920","_emitModifyPositionEvent(bytes)":"d442faf1","_emitSwapEvent(bytes)":"88b2303a","_emitUpdateGrowthPortionsEvent(bytes)":"50f4d221","allowance(address,address,uint256)":"598af9e7","approve(address,uint256,uint256)":"426a8493","balanceOf(address,uint256)":"00fdd58e","clear(uint256,uint256)":"41ee903e","dispatch(bytes)":"ab7fff18","isOperator(address,address)":"b6363cf2","modifyBalance(address,uint256,int256)":"bea556c9","modifyBalance(address,uint256,uint256,int256,int256)":"49dff3ab","setOperator(address,bool)":"558a7297","settle()":"11da60b4","storageAccess(bytes32)":"1352ea35","storageAccess(bytes32,uint256)":"745fa652","storageAccess(bytes32[])":"89c59eb9","supportsInterface(bytes4)":"01ffc9a7","swap(uint256,int256,int256,uint256,bytes)":"32269698","sync(address)":"a5841194","sync(address,uint256)":"ef4fcafa","take(address,address,uint256)":"0b0d9c09","take(address,uint256,address,uint256)":"0720b584","take(address,uint256,address,uint256,bytes)":"2b7f670f","transfer(address,uint256,uint256)":"095bcdb6","transferFrom(address,address,uint256,uint256)":"fe99049a","transferTransientBalanceFrom(address,address,uint256,uint256)":"da954559","transientAccess(bytes32)":"834178fe","transientAccess(bytes32,uint256)":"d02bdb62","transientAccess(bytes32[])":"b84a0dd2","unlock(address,bytes)":"738c440a"},"id":14}