{"abi":[{"type":"function","name":"_readCollectInput","inputs":[],"outputs":[],"stateMutability":"nonpayable"},{"type":"function","name":"_readDonateInput","inputs":[],"outputs":[],"stateMutability":"nonpayable"},{"type":"function","name":"_readInitializeInput","inputs":[],"outputs":[{"name":"kernelCompact","type":"uint256","internalType":"KernelCompact"}],"stateMutability":"nonpayable"},{"type":"function","name":"_readModifyKernelInput","inputs":[],"outputs":[{"name":"kernelCompact","type":"uint256","internalType":"KernelCompact"}],"stateMutability":"nonpayable"},{"type":"function","name":"_readModifyPoolGrowthPortionInput","inputs":[],"outputs":[],"stateMutability":"nonpayable"},{"type":"function","name":"_readModifyPositionInput","inputs":[],"outputs":[],"stateMutability":"nonpayable"},{"type":"function","name":"_readSwapInput","inputs":[],"outputs":[],"stateMutability":"nonpayable"},{"type":"function","name":"_readUpdateGrowthPortionsInput","inputs":[],"outputs":[],"stateMutability":"nonpayable"},{"type":"error","name":"CurveLengthIsZero","inputs":[]},{"type":"error","name":"HookDataTooLong","inputs":[{"name":"hookDataByteCount","type":"uint256","internalType":"uint256"}]},{"type":"error","name":"InvalidGrowthPortion","inputs":[{"name":"poolGrowthPortion","type":"uint256","internalType":"X47"}]},{"type":"error","name":"InvalidNumberOfShares","inputs":[{"name":"shares","type":"int256","internalType":"int256"}]},{"type":"error","name":"LogOffsetOutOfRange","inputs":[{"name":"qOffset","type":"int256","internalType":"X59"}]},{"type":"error","name":"LogPriceOutOfRange","inputs":[{"name":"logPrice","type":"int256","internalType":"X59"}]},{"type":"error","name":"PoolExists","inputs":[{"name":"poolId","type":"uint256","internalType":"uint256"}]},{"type":"error","name":"PoolIdCannotBeZero","inputs":[]},{"type":"error","name":"TagsOutOfOrder","inputs":[{"name":"tag0","type":"uint256","internalType":"Tag"},{"name":"tag1","type":"uint256","internalType":"Tag"}]}],"bytecode":{"object":"0x60808060405234601557610ab2908161001a8239f35b5f80fdfe60806040526004361015610011575f80fd5b5f3560e01c806338e59837146100945780636853005d1461008f578063720221f81461008a57806376e9a038146100855780639c3bdba514610080578063d28b2ce71461007b578063e7675635146100765763ed93ed8514610071575f80fd5b6105c1565b610406565b6102c6565b6102a4565b6101e9565b6101bf565b610101565b346100fd575f3660031901126100fd576100b83360d85160a01c9060601b1760c452565b60043560d8526100e96024356100d781658000000000008111156106fc565b6107fa5160301c9060d01b176107f452565b61074460a4526108086040525f61080881a1005b5f80fd5b346100fd575f3660031901126100fd576101253360d85160a01c9060601b1760c452565b60043560d8526101bb6024356101a8610808826004013560051b9261019a61ffff60246005870460051b9687860197866105ef528282604435920191888301938160040135958680950199018c3701823761062f526101878183811115610716565b166106555160101c9060f01b1761065352565b610744810160a45201604052565b6040519182915f8381a182526020820190565b0390f35b346100fd575f3660031901126100fd5760043560d85261074460a4526108086040525f61080881a1005b346100fd575f3660031901126100fd5761020d3360d85160a01c9060601b1760c452565b60043560d85260243561022a8160016001607f1b03811315610730565b610236815f8113610730565b6101085261029c60246044358060040135918291016108283761080861060f5261082861062f5261026c8161ffff811115610716565b61028661ffff82166106555160101c9060f01b1761065352565b610293610764820160a452565b61082801604052565b5f60405181a1005b346100fd575f3660031901126100fd5760043560d85260f86040525f60f881a1005b346100fd575f3660031901126100fd576102ea3360d85160a01c9060601b1760c452565b6102f560043560d852565b60243560026001607f1b031981126103f7575b60016001607f1b0381136103e9575b607f1b6101085261032a60443561012852565b60643560801c60016001607f1b0381116103db575b610354906101085160801c9060801b1760f852565b60743560801c600281116103d3575b610150536103c860246084358060040135918291016108083761038861080861062f52565b6103978161ffff811115610716565b6103b161ffff82166106555160101c9060f01b1761065352565b6103be610744820160a452565b610808016105ef52565b5f60c460a4510181a1005b506002610363565b5060016001607f1b0361033f565b5060016001607f1b03610317565b5060026001607f1b0319610308565b346100fd575f3660031901126100fd5761042a3360d85160a01c9060601b1760c452565b6104d86104d261044b6004353360601b5f528060145260345f2060bc1b0190565b6104548160d852565b61045f81151561074a565b61048b81610484816f6890d047ad8c870137858a70716b2c6b6010525f5260305f2090565b5415610760565b60b41c5f0b603b1b6104a9816802cfffffffffffffff19811361077a565b6104b981602d603c1b811261077a565b6104cb6104c5826107e2565b61072052565b5f036107e2565b61074052565b6104fe6024356104e8816106e052565b604435906104f68261070052565b808211610794565b6105176064356100d781658000000000008111156106fc565b6101bb60246101a860086084356105b361ffff6108086105a6846004013560051b6005810460051b90818401998a926105526108086105ef52565b8260a43591019086820183826004013560051b9261057360208510156107b2565b61057d8361060f52565b8360c4359501966108108801988387600401359c8d809b01019f01903701903701823761062f52565b6101878183811115610716565b60bb19810160a45201604052565b346100fd575f3660031901126100fd576105e53360d85160a01c9060601b1760c452565b61067f6004356105f48160d852565b60b41c5f0b603b1b61064760243561060c8161012852565b6106366001603f1b8483030191610625815f85136107c8565b6801000000000000000083126107c8565b6101005160401c9060c01b1760f852565b61066d6001603f1b6044359261065d8461014852565b83030191610625815f85136107c8565b6101085160401c9060c01b1761010052565b6106c06064356106998160016001607f1b03811315610730565b6106ae8160026001607f1b0319811215610730565b6106ba81801515610730565b61010852565b61029c6024608435806004013591829101610828376106e161080861060f52565b6106ed61082861062f52565b61026c8161ffff811115610716565b156107045750565b631f84bbb360e01b5f5260045260245ffd5b1561071e5750565b63805cfd4b60e01b5f5260045260245ffd5b156107385750565b63c270deb360e01b5f5260045260245ffd5b1561075157565b63273c8bc360e11b5f5260045ffd5b156107685750565b63a3a300c760e01b5f5260045260245ffd5b156107825750565b63a2ff8abd60e01b5f5260045260245ffd5b1561079d575050565b633fa491e760e21b5f5260045260245260445ffd5b156107b957565b630149225b60e31b5f5260045ffd5b156107d05750565b63085a022d60e31b5f5260045260245ffd5b61084b6108457fcf8e41e6c4d4aa5e9cc597c10cd32eacd30c44f750a8ffdb1a8863dd8f72f0a592602d603c1b0361083061082961082283800260251b90565b6003900490565b9160921b90565b600160ff1b8183018101929190910301610a5c565b60021b90565b808002905f1990800903808002905f1990800903808002905f1990800903808002905f1990800903808002905f1990800903808002905f1990800903808002905f1990800903808002905f1990800903808002905f1990800903808002905f1990800903808002905f1990800903808002905f1990800903808002905f1990800903808002905f1990800903808002905f1990800903808002905f1990800903808002905f1990800903808002905f1990800903808002905f1990800903808002905f1990800903808002905f1990800903808002905f1990800903808002905f1990800903808002905f1990800903808002905f1990800903808002905f1990800903808002905f1990800903808002905f1990800903808002905f1990800903808002905f1990800903808002905f1990800903808002905f1990800903808002905f1990800903808002905f1990800903808002905f1990800903808002905f1990800903808002905f1990800903808002905f1990800903808002905f1990800903808002905f1990800903808002905f1990800903808002905f1990800903808002905f1990800903808002905f1990800903808002905f1990800903808002905f1990800903808002905f1990800903808002905f19908009037f872db9e8ffa9e7d41f2aaf39897b91e4002e70fceed391471fad73d51503772d600160bf1b82099060bf1b030290565b5f198281019283919080600160fe1b850990030191600160fe1b9009089056fea264697066735822122063981b180bcb557f11f47c7c32f82014e3346c522cabaea0914af13236655dd964736f6c63430008210033","linkReferences":{}},"methodIdentifiers":{"_readCollectInput()":"9c3bdba5","_readDonateInput()":"76e9a038","_readInitializeInput()":"e7675635","_readModifyKernelInput()":"6853005d","_readModifyPoolGrowthPortionInput()":"38e59837","_readModifyPositionInput()":"ed93ed85","_readSwapInput()":"d28b2ce7","_readUpdateGrowthPortionsInput()":"720221f8"},"id":8}