{"abi":[{"type":"function","name":"authorizeInitialization","inputs":[{"name":"sentinelInput","type":"bytes","internalType":"bytes"}],"outputs":[{"name":"selector","type":"bytes4","internalType":"bytes4"}],"stateMutability":"nonpayable"},{"type":"function","name":"authorizeInitializationSelector","inputs":[],"outputs":[{"name":"","type":"bytes4","internalType":"bytes4"}],"stateMutability":"view"},{"type":"function","name":"authorizeModificationOfPoolGrowthPortion","inputs":[{"name":"sentinelInput","type":"bytes","internalType":"bytes"}],"outputs":[{"name":"selector","type":"bytes4","internalType":"bytes4"}],"stateMutability":"nonpayable"},{"type":"function","name":"authorizeModificationOfPoolGrowthPortionSelector","inputs":[],"outputs":[{"name":"","type":"bytes4","internalType":"bytes4"}],"stateMutability":"view"},{"type":"function","name":"getGrowthPortions","inputs":[{"name":"sentinelInput","type":"bytes","internalType":"bytes"}],"outputs":[{"name":"_maxPoolGrowthPortion","type":"uint256","internalType":"X47"},{"name":"_protocolGrowthPortion","type":"uint256","internalType":"X47"}],"stateMutability":"nonpayable"},{"type":"function","name":"maxPoolGrowthPortion","inputs":[],"outputs":[{"name":"","type":"uint256","internalType":"X47"}],"stateMutability":"view"},{"type":"function","name":"protocolGrowthPortion","inputs":[],"outputs":[{"name":"","type":"uint256","internalType":"X47"}],"stateMutability":"view"},{"type":"function","name":"revertMessage","inputs":[],"outputs":[{"name":"","type":"bytes","internalType":"bytes"}],"stateMutability":"view"},{"type":"function","name":"reverting","inputs":[],"outputs":[{"name":"","type":"bool","internalType":"bool"}],"stateMutability":"view"},{"type":"function","name":"setValues","inputs":[{"name":"_maxPoolGrowthPortion","type":"uint256","internalType":"X47"},{"name":"_protocolGrowthPortion","type":"uint256","internalType":"X47"},{"name":"selector0","type":"bytes4","internalType":"bytes4"},{"name":"selector1","type":"bytes4","internalType":"bytes4"},{"name":"_reverting","type":"bool","internalType":"bool"},{"name":"_revertMessage","type":"bytes","internalType":"bytes"}],"outputs":[],"stateMutability":"nonpayable"}],"bytecode":{"object":"0x608080604052346015576106d6908161001a8239f35b5f80fdfe60806040526004361015610011575f80fd5b5f3560e01c80630c4257de146100b45780631dfa4738146100af57806325d9185c146100aa5780633d5e8937146100a5578063445bebf9146100a057806353c16ec11461009b578063951c05dc146100965780639d667c9914610091578063b8bc61251461008c5763ef0c20a714610087575f80fd5b6103fd565b6103e4565b61039c565b610204565b6101c4565b610198565b61017c565b610157565b61013a565b346100d95760406100cd6100c73661010b565b9061046c565b82519182526020820152f35b5f80fd5b9181601f840112156100d95782359167ffffffffffffffff83116100d957602083818601950101116100d957565b60206003198201126100d9576004359067ffffffffffffffff82116100d957610136916004016100dd565b9091565b346100d9575f3660031901126100d9576020600154604051908152f35b346100d9575f3660031901126100d957602060ff60025460401c166040519015158152f35b346100d9575f3660031901126100d95760205f54604051908152f35b346100d95760206101b16101ab3661010b565b906104a9565b6040516001600160e01b03199091168152f35b346100d9575f3660031901126100d957602060025460e01b6040519063ffffffff60e01b168152f35b606435906001600160e01b0319821682036100d957565b346100d95760c03660031901126100d9576044356024356004356001600160e01b0319831683036100d9576102376101ed565b6084359081151582036100d95760a4359467ffffffffffffffff86116100d9576102686102709636906004016100dd565b95909461053a565b005b90600182811c921680156102a0575b602083101461028c57565b634e487b7160e01b5f52602260045260245ffd5b91607f1691610281565b634e487b7160e01b5f52604160045260245ffd5b90601f8019910116810190811067ffffffffffffffff8211176102e057604052565b6102aa565b604051905f82600354916102f883610272565b808352926001811690811561037d575060011461031e575b61031c925003836102be565b565b5060035f90815290917fc2575a0e9e593c00f959f8c92f12db2869c3395a3b0502d05e2516446f71f85b5b81831061036157505090602061031c92820101610310565b6020919350806001915483858901015201910190918492610349565b6020925061031c94915060ff191682840152151560051b820101610310565b346100d9575f3660031901126100d957602060406103b86102e5565b815192839181835280519182918282860152018484015e5f828201840152601f01601f19168101030190f35b346100d95760206101b16103f73661010b565b90610663565b346100d9575f3660031901126100d957602063ffffffff60e01b60025460c01b16604051908152f35b92919267ffffffffffffffff82116102e05760405191610450601f8201601f1916602001846102be565b8294818452818301116100d9578281602093845f960137010152565b9060ff60025460401c165f1461048c576104846102e5565b602081519101fd5b5f91610499913691610426565b602081519101a15f549060015490565b6002549160ff8360401c165f146104c2576104846102e5565b5f916104cf913691610426565b602081519101a160e01b90565b919091601f83116104ed575b505050565b8183116104f957505050565b5f5260205f206020601f830160051c9210610532575b81601f9101920160051c03905f5b828110156104e8575f8282015560010161051d565b5f915061050f565b9367ffffffff000000009294918392989796985f5560015568ff000000000000000060025491151560401b169460e01c9068ffffffffffffffffff1916179260c01c1616171760025567ffffffffffffffff81116102e0576105a8816105a1600354610272565b60036104dc565b5f601f82116001146105e65781906105d693945f926105db575b50508160011b915f199060031b1c19161790565b600355565b013590505f806105c2565b60035f52601f198216937fc2575a0e9e593c00f959f8c92f12db2869c3395a3b0502d05e2516446f71f85b915f5b86811061064b5750836001959610610632575b505050811b01600355565b01355f19600384901b60f8161c191690555f8080610627565b90926020600181928686013581550194019101610614565b6002549160ff8360401c165f1461067c576104846102e5565b5f91610689913691610426565b602081519101a160c01b6001600160e01b0319169056fea26469706673582212203c0c75d17682e33f923ed1493c9cb0232d81f19d4e97ac3dadea9d49a55546e264736f6c63430008210033","linkReferences":{}},"methodIdentifiers":{"authorizeInitialization(bytes)":"445bebf9","authorizeInitializationSelector()":"53c16ec1","authorizeModificationOfPoolGrowthPortion(bytes)":"b8bc6125","authorizeModificationOfPoolGrowthPortionSelector()":"ef0c20a7","getGrowthPortions(bytes)":"0c4257de","maxPoolGrowthPortion()":"3d5e8937","protocolGrowthPortion()":"1dfa4738","revertMessage()":"9d667c99","reverting()":"25d9185c","setValues(uint256,uint256,bytes4,bytes4,bool,bytes)":"951c05dc"},"id":28}