{"abi":[{"type":"function","name":"_invokeAuthorizeInitialization","inputs":[{"name":"sentinel","type":"address","internalType":"contract ISentinel"},{"name":"content","type":"bytes","internalType":"bytes"}],"outputs":[],"stateMutability":"nonpayable"},{"type":"function","name":"_invokeAuthorizeModificationOfPoolGrowthPortion","inputs":[{"name":"sentinel","type":"address","internalType":"contract ISentinel"},{"name":"content","type":"bytes","internalType":"bytes"}],"outputs":[],"stateMutability":"nonpayable"},{"type":"function","name":"_invokeSentinelGetGrowthPortions","inputs":[{"name":"sentinel","type":"address","internalType":"contract ISentinel"},{"name":"content","type":"bytes","internalType":"bytes"}],"outputs":[{"name":"maxPoolGrowthPortion","type":"uint256","internalType":"X47"},{"name":"protocolGrowthPortion","type":"uint256","internalType":"X47"}],"stateMutability":"nonpayable"},{"type":"error","name":"InvalidSentinelResponse","inputs":[{"name":"response","type":"bytes4","internalType":"bytes4"}]}],"bytecode":{"object":"0x608080604052346015576102fe908161001a8239f35b5f80fdfe60806040526004361015610011575f80fd5b5f3560e01c80638426e71714610044578063ae76e2fa1461003f5763c2dd21461461003a575f80fd5b6101f8565b610157565b346100ef57610052366100f3565b5050807fd0716769b9821201d69d150facfd6f46f5fd95ac252f6eccb21b7560a01e078b5560243560040180356020019060a4376001600160a01b03811661009657005b5f6020916100b160845160201c63b8bc612560e01b17608052565b82608452608082604460a45101925af1156100e7575f516100e5906001600160e01b0319811663b8bc612560e01b146102a5565b005b3d5f803e3d5ffd5b5f80fd5b60406003198201126100ef576004356001600160a01b03811681036100ef579160243567ffffffffffffffff81116100ef57826023820112156100ef5780600401359267ffffffffffffffff84116100ef57602484830101116100ef576024019190565b346100ef57610165366100f3565b5050807fd0716769b9821201d69d150facfd6f46f5fd95ac252f6eccb21b7560a01e078b5560243560040180356020019060a4376001600160a01b0381166101a957005b5f6020916101c460845160201c63445bebf960e01b17608052565b82608452608082604460a45101925af1156100e7575f516100e5906001600160e01b0319811663445bebf960e01b146102a5565b346100ef57610206366100f3565b5050807fd0716769b9821201d69d150facfd6f46f5fd95ac252f6eccb21b7560a01e078b5560243560040180356020019060a43765ffffffffffff9081906001600160a01b038116610265575b50604080519182526020820192909252f35b604092505f915061028360845160201c6306212bef60e11b17608052565b6020608452608082604460a45101925af1156100e7575f51602051905f610253565b156102ad5750565b633438289f60e01b5f5263ffffffff60e01b1660045260245ffdfea2646970667358221220dd5357ea891f56f48febc2c2c782749b61c784641ab85b01c0ca254a221215f564736f6c63430008210033","linkReferences":{}},"methodIdentifiers":{"_invokeAuthorizeInitialization(address,bytes)":"ae76e2fa","_invokeAuthorizeModificationOfPoolGrowthPortion(address,bytes)":"8426e717","_invokeSentinelGetGrowthPortions(address,bytes)":"c2dd2146"},"id":28}