{"abi":[{"type":"function","name":"add","inputs":[{"name":"value0","type":"int256","internalType":"X216"},{"name":"value1","type":"int256","internalType":"X216"}],"outputs":[{"name":"result","type":"int256","internalType":"X216"}],"stateMutability":"nonpayable"},{"type":"function","name":"cheapMul","inputs":[{"name":"value0","type":"int256","internalType":"X216"},{"name":"value1","type":"int256","internalType":"X216"}],"outputs":[{"name":"result","type":"int256","internalType":"X216"}],"stateMutability":"nonpayable"},{"type":"function","name":"cheapMulDiv","inputs":[{"name":"value","type":"int256","internalType":"X216"},{"name":"numerator","type":"uint256","internalType":"uint256"},{"name":"denominator","type":"uint256","internalType":"uint256"}],"outputs":[{"name":"result","type":"int256","internalType":"X216"}],"stateMutability":"nonpayable"},{"type":"function","name":"divideByExpEpsilonX216","inputs":[{"name":"value","type":"int256","internalType":"X216"}],"outputs":[{"name":"product","type":"int256","internalType":"X216"}],"stateMutability":"nonpayable"},{"type":"function","name":"equals","inputs":[{"name":"value0","type":"int256","internalType":"X216"},{"name":"value1","type":"int256","internalType":"X216"}],"outputs":[{"name":"result","type":"bool","internalType":"bool"}],"stateMutability":"nonpayable"},{"type":"function","name":"greaterThan","inputs":[{"name":"value0","type":"int256","internalType":"X216"},{"name":"value1","type":"int256","internalType":"X216"}],"outputs":[{"name":"result","type":"bool","internalType":"bool"}],"stateMutability":"nonpayable"},{"type":"function","name":"greaterThanOrEqualTo","inputs":[{"name":"value0","type":"int256","internalType":"X216"},{"name":"value1","type":"int256","internalType":"X216"}],"outputs":[{"name":"result","type":"bool","internalType":"bool"}],"stateMutability":"nonpayable"},{"type":"function","name":"lessThan","inputs":[{"name":"value0","type":"int256","internalType":"X216"},{"name":"value1","type":"int256","internalType":"X216"}],"outputs":[{"name":"result","type":"bool","internalType":"bool"}],"stateMutability":"nonpayable"},{"type":"function","name":"lessThanOrEqualTo","inputs":[{"name":"value0","type":"int256","internalType":"X216"},{"name":"value1","type":"int256","internalType":"X216"}],"outputs":[{"name":"result","type":"bool","internalType":"bool"}],"stateMutability":"nonpayable"},{"type":"function","name":"maxX216","inputs":[{"name":"value0","type":"int256","internalType":"X216"},{"name":"value1","type":"int256","internalType":"X216"}],"outputs":[{"name":"result","type":"int256","internalType":"X216"}],"stateMutability":"nonpayable"},{"type":"function","name":"minFractionsX216","inputs":[{"name":"numerator0","type":"int256","internalType":"X216"},{"name":"denominator0","type":"int256","internalType":"X216"},{"name":"numerator1","type":"int256","internalType":"X216"},{"name":"denominator1","type":"int256","internalType":"X216"}],"outputs":[{"name":"numerator","type":"int256","internalType":"X216"},{"name":"denominator","type":"int256","internalType":"X216"},{"name":"which","type":"bool","internalType":"bool"}],"stateMutability":"nonpayable"},{"type":"function","name":"minX216","inputs":[{"name":"value0","type":"int256","internalType":"X216"},{"name":"value1","type":"int256","internalType":"X216"}],"outputs":[{"name":"result","type":"int256","internalType":"X216"}],"stateMutability":"nonpayable"},{"type":"function","name":"mul","inputs":[{"name":"value0","type":"int256","internalType":"X216"},{"name":"value1","type":"int256","internalType":"X216"}],"outputs":[{"name":"result","type":"int256","internalType":"X216"}],"stateMutability":"nonpayable"},{"type":"function","name":"mulDiv","inputs":[{"name":"value","type":"int256","internalType":"X216"},{"name":"numerator","type":"int256","internalType":"X216"},{"name":"denominator","type":"int256","internalType":"X216"}],"outputs":[{"name":"result","type":"int256","internalType":"X216"}],"stateMutability":"nonpayable"},{"type":"function","name":"mulDivByExpInv16","inputs":[{"name":"value0","type":"int256","internalType":"X216"},{"name":"value1","type":"int256","internalType":"X216"}],"outputs":[{"name":"result","type":"int256","internalType":"X216"}],"stateMutability":"nonpayable"},{"type":"function","name":"mulDivByExpInv8","inputs":[{"name":"value0","type":"int256","internalType":"X216"},{"name":"value1","type":"int256","internalType":"X216"}],"outputs":[{"name":"result","type":"int256","internalType":"X216"}],"stateMutability":"nonpayable"},{"type":"function","name":"multiplyByExpEpsilonX216","inputs":[{"name":"value","type":"int256","internalType":"X216"}],"outputs":[{"name":"product","type":"int256","internalType":"X216"}],"stateMutability":"nonpayable"},{"type":"function","name":"notEqual","inputs":[{"name":"value0","type":"int256","internalType":"X216"},{"name":"value1","type":"int256","internalType":"X216"}],"outputs":[{"name":"result","type":"bool","internalType":"bool"}],"stateMutability":"nonpayable"},{"type":"function","name":"sub","inputs":[{"name":"value0","type":"int256","internalType":"X216"},{"name":"value1","type":"int256","internalType":"X216"}],"outputs":[{"name":"result","type":"int256","internalType":"X216"}],"stateMutability":"nonpayable"}],"bytecode":{"object":"0x60808060405234601557610606908161001a8239f35b5f80fdfe6080806040526004361015610012575f80fd5b5f3560e01c9081630b2d74d21461049a5750806311f12b73146104205780631cbb5fc9146103b5578063230ebba11461039b57806337c7eea4146103615780634452b7211461032557806345186d23146102fd57806370be203d146102e357806378c99b7a1461026e578063a5f3c23b14610255578063adefc37b1461023c578063b4a480ad14610223578063b8a0be34146101e1578063babdd838146101c7578063bbe93d9114610187578063bfb0f6bf1461016e578063cf0f433d14610136578063cf8281361461010a5763fd70d9c3146100ed575f80fd5b346101065760206100fd366104be565b60405191128152f35b5f80fd5b3461010657606036600319011261010657602061012e604435602435600435610558565b604051908152f35b34610106576060366003190112610106576040516020905f196044358181019160043591839160243591808386099003019209088152f35b3461010657602061017e366104be565b60405191148152f35b34610106576020610197366104be565b604051915f199165010000000000918391600160d81b81830919915f19915f81129003905f811290030908098152f35b346101065760206101d7366104be565b6040519113158152f35b3461010657602036600319011261010657604051602090780fffffffffffffff8000000000000002aaaaaaaaaaaaaaa00119600435818102915f199109038152f35b34610106576020610233366104be565b60405191138152f35b3461010657602061024c366104be565b60405191038152f35b34610106576020610265366104be565b60405191018152f35b346101065760203660031901126101065760206040517faa3ed2381a8b1241d16168fd77ef989ed2b13be12b716aa23f35ed0e39556001780fffffffffffffff8000000000000002aaaaaaaaaaaaaaa00019780fffffffffffffff8000000000000002aaaaaaaaaaaaaaa00160043509028152f35b346101065760206102f3366104be565b6040519112158152f35b3461010657602061030d366104be565b8082121561031e5750604051908152f35b905061012e565b3461010657608036600319011261010657606061034c6064356044356024356004356104d4565b90604051928352602083015215156040820152f35b34610106576020610371366104be565b604051916001600160d81b039190600160d81b8282096001600160d81b0390810392909109088152f35b346101065760206103ab366104be565b6040519114158152f35b346101065760207f28256938c4923ff15ab260970aa81f81c15e6f5ef3af38dc210569e77db193596103e6366104be565b919064f8f6376c44604051937e1561650620dabb6a84b684e2a7e5a47caa0a0905210083f0e3b551aabf84e9818385020992020203028152f35b346101065760207f7f6af8233bada11dd406b4458454ed9904d7af796be7aa4885b23e25b6985d49610451366104be565b91906774600bc82ce9df52604051937fdbb82f7041b890fe67970a62a3568cc34df9dcb17cc3a2a6a027850e7e3724f9632ec3a856820264027d117d7b85020992020203028152f35b34610106576020906104ab366104be565b90818112156104b957508152f35b825250f35b6040906003190112610106576004359060243590565b919290928215610549575b5f198284098284029081808210910303905f1986840990868402918280821091030392808411938415610529575b505050505f1461051f575090925f9150565b9390925060019150565b149250908261053e575b50505f80808061050d565b101590505f80610533565b836104df579390925060019150565b915f1982840982840292838083109203948286146105c757908391099082805f03168093046002816003021880820260020302808202600203028082026002030280820260020302808202600203028091026002030294600184805f0304019185841191030302920304170290565b5050509150049056fea2646970667358221220fded19db5a27956951950e302aa889c85c29c5b2fc717b089297a66a0866389764736f6c63430008210033","linkReferences":{}},"methodIdentifiers":{"add(int256,int256)":"a5f3c23b","cheapMul(int256,int256)":"37c7eea4","cheapMulDiv(int256,uint256,uint256)":"cf0f433d","divideByExpEpsilonX216(int256)":"b8a0be34","equals(int256,int256)":"bfb0f6bf","greaterThan(int256,int256)":"b4a480ad","greaterThanOrEqualTo(int256,int256)":"70be203d","lessThan(int256,int256)":"fd70d9c3","lessThanOrEqualTo(int256,int256)":"babdd838","maxX216(int256,int256)":"0b2d74d2","minFractionsX216(int256,int256,int256,int256)":"4452b721","minX216(int256,int256)":"45186d23","mul(int256,int256)":"bbe93d91","mulDiv(int256,int256,int256)":"cf828136","mulDivByExpInv16(int256,int256)":"11f12b73","mulDivByExpInv8(int256,int256)":"1cbb5fc9","multiplyByExpEpsilonX216(int256)":"78c99b7a","notEqual(int256,int256)":"230ebba1","sub(int256,int256)":"adefc37b"},"id":38}