{"abi":[{"type":"receive","stateMutability":"payable"},{"type":"function","name":"call","inputs":[{"name":"target","type":"address","internalType":"address"},{"name":"value","type":"uint256","internalType":"uint256"},{"name":"operator","type":"address","internalType":"address"},{"name":"transientSlots","type":"uint256[]","internalType":"uint256[]"},{"name":"data","type":"bytes","internalType":"bytes"}],"outputs":[],"stateMutability":"nonpayable"},{"type":"function","name":"onERC1155BatchReceived","inputs":[{"name":"","type":"address","internalType":"address"},{"name":"","type":"address","internalType":"address"},{"name":"","type":"uint256[]","internalType":"uint256[]"},{"name":"","type":"uint256[]","internalType":"uint256[]"},{"name":"","type":"bytes","internalType":"bytes"}],"outputs":[{"name":"","type":"bytes4","internalType":"bytes4"}],"stateMutability":"pure"},{"type":"function","name":"onERC1155Received","inputs":[{"name":"","type":"address","internalType":"address"},{"name":"","type":"address","internalType":"address"},{"name":"","type":"uint256","internalType":"uint256"},{"name":"","type":"uint256","internalType":"uint256"},{"name":"","type":"bytes","internalType":"bytes"}],"outputs":[{"name":"","type":"bytes4","internalType":"bytes4"}],"stateMutability":"pure"},{"type":"function","name":"storageAccess","inputs":[{"name":"slot","type":"uint256","internalType":"uint256"}],"outputs":[{"name":"","type":"uint256","internalType":"uint256"}],"stateMutability":"view"}],"bytecode":{"object":"0x60808060405234601557610310908161001a8239f35b5f80fdfe6080604052600436101561001a575b3615610018575f80fd5b005b5f3560e01c80630e4f36ba14610059578063bc197c8114610054578063c3e869cf1461004f5763f23a6e610361000e57610283565b610267565b6101cc565b346101275760a03660031901126101275761007261012b565b5061007b610141565b5060643567ffffffffffffffff811161012757806004019061009d368361016d565b505060843567ffffffffffffffff8111610127575f60248282936004016100c4368261019e565b5050359182910160803760806024356004355af11561011f57806024809201923560051b0101604435915b8181106100f857005b80602091356341a0bc7f60e11b5f5280600452825f60248180895af1505f519055016100ef565b3d5f803e3d5ffd5b5f80fd5b600435906001600160a01b038216820361012757565b604435906001600160a01b038216820361012757565b602435906001600160a01b038216820361012757565b9181601f840112156101275782359167ffffffffffffffff8311610127576020808501948460051b01011161012757565b9181601f840112156101275782359167ffffffffffffffff8311610127576020838186019501011161012757565b346101275760a0366003190112610127576101e561012b565b506101ee610157565b5060443567ffffffffffffffff81116101275761020f90369060040161016d565b505060643567ffffffffffffffff81116101275761023190369060040161016d565b505060843567ffffffffffffffff81116101275761025390369060040161019e565b505060405163bc197c8160e01b8152602090f35b3461012757602036600319011261012757600435545f5260205ff35b346101275760a03660031901126101275761029c61012b565b506102a5610157565b5060843567ffffffffffffffff8111610127576102c690369060040161019e565b505060405163f23a6e6160e01b8152602090f3fea264697066735822122097e4d2830bf56271209342f6ccba6a852c0f988183f5c1603d949a4bfc2af46364736f6c63430008210033","linkReferences":{}},"methodIdentifiers":{"call(address,uint256,address,uint256[],bytes)":"0e4f36ba","onERC1155BatchReceived(address,address,uint256[],uint256[],bytes)":"bc197c81","onERC1155Received(address,address,uint256,uint256,bytes)":"f23a6e61","storageAccess(uint256)":"c3e869cf"},"id":92}