{"abi":[{"type":"function","name":"copyPrice","inputs":[{"name":"logPrice","type":"int256","internalType":"X59"},{"name":"sqrtPrice","type":"int256","internalType":"X216"},{"name":"sqrtInversePrice","type":"int256","internalType":"X216"}],"outputs":[{"name":"logResult","type":"int256","internalType":"X59"},{"name":"sqrtResult","type":"int256","internalType":"X216"},{"name":"sqrtInverseResult","type":"int256","internalType":"X216"}],"stateMutability":"nonpayable"},{"type":"function","name":"copyPriceWithHeight","inputs":[{"name":"heightPrice","type":"uint256","internalType":"X15"},{"name":"logPrice","type":"int256","internalType":"X59"},{"name":"sqrtPrice","type":"int256","internalType":"X216"},{"name":"sqrtInversePrice","type":"int256","internalType":"X216"}],"outputs":[{"name":"heightResult","type":"uint256","internalType":"X15"},{"name":"logResult","type":"int256","internalType":"X59"},{"name":"sqrtResult","type":"int256","internalType":"X216"},{"name":"sqrtInverseResult","type":"int256","internalType":"X216"}],"stateMutability":"nonpayable"},{"type":"function","name":"height","inputs":[{"name":"value","type":"uint256","internalType":"X15"}],"outputs":[{"name":"result","type":"uint256","internalType":"X15"}],"stateMutability":"nonpayable"},{"type":"function","name":"log","inputs":[{"name":"value","type":"int256","internalType":"X59"}],"outputs":[{"name":"result","type":"int256","internalType":"X59"}],"stateMutability":"nonpayable"},{"type":"function","name":"segment","inputs":[{"name":"b0","type":"int256","internalType":"X59"},{"name":"b1","type":"int256","internalType":"X59"},{"name":"c0","type":"uint256","internalType":"X15"},{"name":"c1","type":"uint256","internalType":"X15"}],"outputs":[{"name":"b0Result","type":"int256","internalType":"X59"},{"name":"b1Result","type":"int256","internalType":"X59"},{"name":"c0Result","type":"uint256","internalType":"X15"},{"name":"c1Result","type":"uint256","internalType":"X15"}],"stateMutability":"nonpayable"},{"type":"function","name":"sqrt","inputs":[{"name":"value","type":"int256","internalType":"X216"},{"name":"inverse","type":"bool","internalType":"bool"}],"outputs":[{"name":"result","type":"int256","internalType":"X216"}],"stateMutability":"nonpayable"},{"type":"function","name":"storePrice","inputs":[{"name":"heightPrice","type":"uint256","internalType":"X15"},{"name":"logPrice","type":"int256","internalType":"X59"},{"name":"sqrtPrice","type":"int256","internalType":"X216"},{"name":"sqrtInversePrice","type":"int256","internalType":"X216"}],"outputs":[{"name":"heightResult","type":"uint256","internalType":"X15"},{"name":"logResult","type":"int256","internalType":"X59"},{"name":"sqrtResult","type":"int256","internalType":"X216"},{"name":"sqrtInverseResult","type":"int256","internalType":"X216"}],"stateMutability":"nonpayable"},{"type":"function","name":"storePrice","inputs":[{"name":"logPrice","type":"int256","internalType":"X59"},{"name":"sqrtPrice","type":"int256","internalType":"X216"},{"name":"sqrtInversePrice","type":"int256","internalType":"X216"}],"outputs":[{"name":"logResult","type":"int256","internalType":"X59"},{"name":"sqrtResult","type":"int256","internalType":"X216"},{"name":"sqrtInverseResult","type":"int256","internalType":"X216"}],"stateMutability":"nonpayable"},{"type":"function","name":"storePrice","inputs":[{"name":"logPrice","type":"int256","internalType":"X59"}],"outputs":[{"name":"logResult","type":"int256","internalType":"X59"},{"name":"sqrtResult","type":"int256","internalType":"X216"},{"name":"sqrtInverseResult","type":"int256","internalType":"X216"}],"stateMutability":"nonpayable"}],"bytecode":{"object":"0x6080806040523460155761067f908161001a8239f35b5f80fdfe60806040526004361015610011575f80fd5b5f3560e01c80630c27dd38146100a45780632d5b6cb91461009f5780632d851c601461009a57806334522288146100955780634ec4b11d146100905780635fb7470f1461008b57806374e18190146100865780639e8d2c63146100815763e54ecaaa1461007c575f80fd5b61041b565b6103c2565b61033e565b6102af565b610236565b6101c5565b610127565b6100d1565b346100cd5760203660031901126100cd5760043560f01b60805260805160f01c60c052602060c0f35b5f80fd5b346100cd5760203660031901126100cd576020600435604051604081016040528160c01b905267ffffffffffffffff60405191168152f35b60809060031901126100cd5760043590602435906044359060643590565b346100cd5761013536610109565b91926040519360428501604052601f1985019283519460208701526005860152601519850152601d1984015252805160f01c6101a7600283015160c01c926025600a82015160281c91015160281c90604051948594859094939260609260808301968352602083015260408201520152565b0390f35b60609060031901126100cd57600435906024359060443590565b346100cd576102016101d6366101ab565b90604093929351936040850160405284601f19810192835194601e8301526003820152601719015252565b805160c01c6101a7826008015160281c926023015160281c604051938493846040919493926060820195825260208201520152565b346100cd57610278603e610249366101ab565b6040949194519460408601936080870160405284601f19810192835194601e8301526003820152601719015252565b825e805160c01c6101a7826008015160281c926023015160281c604051938493846040919493926060820195825260208201520152565b346100cd576102f760406102c236610109565b908495929551958587019460808801875260f01b855260428701601f19810192835194601e8301526003820152601719015252565b825e805160f01c6101a7600283015160c01c926025600a82015160281c91015160281c90604051948594859094939260609260808301968352602083015260408201520152565b346100cd5760803660031901126100cd5760043560243560443560643590604051936080850160405260b01b9060f01b178352604083019160b01b9060f01b1781526101a7825160f01c926042600282015160c01c935160f01c91015160c01c93604051948594859094939260609260808301968352602083015260408201520152565b346100cd5760403660031901126100cd576024356004358115801583036100cd576101a7926008604051936040850160405260281b91601b0284010152601b02602303015160281c604051918291829190602083019252565b346100cd5760203660031901126100cd576040805180820190915261020160043561050f6105098280028080025f19600160801b808385095f198486090309906104bd6104af6104a8600f600760681b8702046609c0000000000085040169c91800000000000000008604016104a08580025f19878009621eee11605a1b9190030490565b0195606a1b90565b600f900490565b916624900000000000900490565b5f1992600160b41b926a06df920000000000000000909104910101600160ff1b016910000000000000000000818809905f199088090309600160fe1b81830181019291909103016105cc565b60021b90565b808002905f1990800903808002905f1990800903808002905f1990800903808002905f1990800903808002905f1990800903808002905f1990800903808002905f1990800903808002905f1990800903808002905f1990800903808002905f1990800903808002905f1990800903808002905f1990800903808002905f1990800903808002905f1990800903906105af6105a8836105ec565b9260281c90565b9084601f19810192835194601e8301526003820152601719015252565b5f198281019283919080600160fe1b850990030191600160fe1b90090890565b5f198181019180600160c11b7ff1aaddd7742e56d32fb9f997447d9e6314db84884fabab26bf059af9bc20b6090990030181600160c11b7ff1aaddd7742e56d32fb9f997447d9e6314db84884fabab26bf059af9bc20b60909089056fea264697066735822122076ebafe705d798ca6b0e03ff5c2611ac060bce68f50fea3108d6d0ba1dd730be64736f6c63430008210033","linkReferences":{}},"methodIdentifiers":{"copyPrice(int256,int256,int256)":"4ec4b11d","copyPriceWithHeight(uint256,int256,int256,int256)":"5fb7470f","height(uint256)":"0c27dd38","log(int256)":"2d5b6cb9","segment(int256,int256,uint256,uint256)":"74e18190","sqrt(int256,bool)":"9e8d2c63","storePrice(int256)":"e54ecaaa","storePrice(int256,int256,int256)":"34522288","storePrice(uint256,int256,int256,int256)":"2d851c60"},"id":27}