{"abi":[{"type":"receive","stateMutability":"payable"},{"type":"function","name":"balanceOfSelf","inputs":[{"name":"tokenAddress","type":"address","internalType":"address"}],"outputs":[{"name":"result","type":"uint256","internalType":"uint256"}],"stateMutability":"nonpayable"},{"type":"function","name":"balanceOfSelf","inputs":[{"name":"tokenAddress","type":"address","internalType":"address"},{"name":"id","type":"uint256","internalType":"uint256"}],"outputs":[{"name":"result","type":"uint256","internalType":"uint256"}],"stateMutability":"nonpayable"},{"type":"function","name":"onERC1155BatchReceived","inputs":[{"name":"","type":"address","internalType":"address"},{"name":"","type":"address","internalType":"address"},{"name":"","type":"uint256[]","internalType":"uint256[]"},{"name":"","type":"uint256[]","internalType":"uint256[]"},{"name":"","type":"bytes","internalType":"bytes"}],"outputs":[{"name":"","type":"bytes4","internalType":"bytes4"}],"stateMutability":"pure"},{"type":"function","name":"onERC1155Received","inputs":[{"name":"","type":"address","internalType":"address"},{"name":"","type":"address","internalType":"address"},{"name":"","type":"uint256","internalType":"uint256"},{"name":"","type":"uint256","internalType":"uint256"},{"name":"data","type":"bytes","internalType":"bytes"}],"outputs":[{"name":"","type":"bytes4","internalType":"bytes4"}],"stateMutability":"nonpayable"},{"type":"function","name":"storedData","inputs":[],"outputs":[{"name":"","type":"bytes","internalType":"bytes"}],"stateMutability":"view"},{"type":"function","name":"transfer","inputs":[{"name":"tokenAddress","type":"address","internalType":"address"},{"name":"id","type":"uint256","internalType":"uint256"},{"name":"to","type":"address","internalType":"address"},{"name":"amount","type":"uint256","internalType":"uint256"}],"outputs":[],"stateMutability":"nonpayable"},{"type":"function","name":"transfer","inputs":[{"name":"tokenAddress","type":"address","internalType":"address"},{"name":"id","type":"uint256","internalType":"uint256"},{"name":"to","type":"address","internalType":"address"},{"name":"amount","type":"uint256","internalType":"uint256"},{"name":"transferData","type":"bytes","internalType":"bytes"}],"outputs":[],"stateMutability":"nonpayable"},{"type":"function","name":"transfer","inputs":[{"name":"tokenAddress","type":"address","internalType":"address"},{"name":"to","type":"address","internalType":"address"},{"name":"amount","type":"uint256","internalType":"uint256"}],"outputs":[],"stateMutability":"nonpayable"},{"type":"error","name":"BalanceOverflow","inputs":[{"name":"balance","type":"uint256","internalType":"uint256"}]},{"type":"error","name":"CannotBe101","inputs":[]}],"bytecode":{"object":"0x60808060405234601557610774908161001a8239f35b5f80fdfe60806040526004361015610022575b3615610018575f80fd5b61002061070b565b005b5f3560e01c80632a1afcd9146100a1578063335a94061461009c578063881efde614610097578063ac4a1c3a14610092578063bc197c811461008d578063beabacc814610088578063ddab9b61146100835763f23a6e610361000e5761057e565b61050e565b610493565b6103f3565b610368565b6102cf565b610238565b3461017c575f36600319011261017c575f5f546100bd81610180565b90816080526001811690815f146101645750600114610115575b50601f1990606019011680608001906080821067ffffffffffffffff8311176101105781604052607f199061010b836101cc565b030190f35b6101b8565b5f80805291507f290decd9548b62a8d60345a988386fc84ba6bc95484008f6362f93160ef3e5635b81831061014f57505060a001816100d7565b6001816020925460a08601520192019161013d565b905060a0925060ff19168252151560051b01816100d7565b5f80fd5b90600182811c921680156101ae575b602083101461019a57565b634e487b7160e01b5f52602260045260245ffd5b91607f169161018f565b634e487b7160e01b5f52604160045260245ffd5b604090602081526080518060208301528060a08484015e5f828201840152601f01601f1916010190565b600435906001600160a01b038216820361017c57565b604435906001600160a01b038216820361017c57565b602435906001600160a01b038216820361017c57565b3461017c57608036600319011261017c5760205f60646102566101f6565b826024359161026361020c565b9260643590604051946304ade6db60e11b86526004860152602485015260448401525af160203d1460015f511416161561029957005b3d5f803e3d5ffd5b9181601f8401121561017c5782359167ffffffffffffffff831161017c576020838186019501011161017c57565b3461017c5760a036600319011261017c576102e86101f6565b602435906102f461020c565b906064359160843567ffffffffffffffff811161017c575f94859461031e869336906004016102a1565b509160405194637921219560e11b865230600487015260248601526044850152606484015260a06084840152601f1901803590816020019060a485013760c401925af11561029957005b3461017c57602036600319011261017c5760205f602481806103886101f6565b6370a0823160e01b8252306004525af160203d1416156102995760205f516103ba816001600160801b03811115610724565b604051908152f35b9181601f8401121561017c5782359167ffffffffffffffff831161017c576020808501948460051b01011161017c57565b3461017c5760a036600319011261017c5761040c6101f6565b50610415610222565b5060443567ffffffffffffffff811161017c576104369036906004016103c2565b505060643567ffffffffffffffff811161017c576104589036906004016103c2565b505060843567ffffffffffffffff811161017c5761047a9036906004016102a1565b505060405163bc197c8160e01b815280602081015b0390f35b3461017c57606036600319011261017c576104ac6101f6565b6104b4610222565b604435916001600160a01b0381166104d657505f80809381935af11561029957005b60445f808093602095966040519763a9059cbb60e01b84526004526024525af1601f3d1160015f5114163d1517161561029957604052005b3461017c57604036600319011261017c576105276101f6565b60205f604481806024359560405196627eeac760e11b8352306004526024525af160203d1416156102995760405261048f5f5161056e816001600160801b03811115610724565b6040519081529081906020820190565b3461017c5760a036600319011261017c576105976101f6565b506105a0610222565b5060843567ffffffffffffffff811161017c576105c19036906004016102a1565b67ffffffffffffffff8111610110576105e3816105de5f54610180565b6106ad565b5f601f8211600114610630578190610610935f92610625575b50508160011b915f199060031b1c19161790565b5f555b60405163f23a6e6160e01b8152602090f35b013590505f806105fc565b5f8052601f198216927f290decd9548b62a8d60345a988386fc84ba6bc95484008f6362f93160ef3e563915f5b8581106106955750836001951061067c575b505050811b015f55610613565b01355f19600384901b60f8161c191690555f808061066f565b9092602060018192868601358155019401910161065d565b90601f82116106ba575050565b8082116106c5575050565b5f805260205f206020601f830160051c9210610703575b81601f9101920160051c03905f5b8281106106f657505050565b5f828201556001016106ea565b5f91506106dc565b6065341461071557565b6398d31d1960e01b5f5260045ffd5b1561072c5750565b630610d90760e11b5f5260045260245ffdfea2646970667358221220d7893593723fc1dccd6e6b40427b91e5478c6c6df6cd9ec896ad4029ebb58fd464736f6c63430008210033","linkReferences":{}},"methodIdentifiers":{"balanceOfSelf(address)":"ac4a1c3a","balanceOfSelf(address,uint256)":"ddab9b61","onERC1155BatchReceived(address,address,uint256[],uint256[],bytes)":"bc197c81","onERC1155Received(address,address,uint256,uint256,bytes)":"f23a6e61","storedData()":"2a1afcd9","transfer(address,address,uint256)":"beabacc8","transfer(address,uint256,address,uint256)":"335a9406","transfer(address,uint256,address,uint256,bytes)":"881efde6"},"id":32}