{"abi":[{"type":"function","name":"searchOutgoingTarget_test","inputs":[{"name":"zeroForOne_seed","type":"bool","internalType":"bool"},{"name":"begin_seed","type":"uint64","internalType":"uint64"},{"name":"target_seed","type":"uint64","internalType":"uint64"},{"name":"total0_seed","type":"uint80","internalType":"uint80"},{"name":"total1_seed","type":"uint80","internalType":"uint80"},{"name":"integral_seed","type":"uint216","internalType":"uint216"}],"outputs":[],"stateMutability":"pure"},{"type":"error","name":"SearchingForOutgoingTargetFailed","inputs":[]}],"bytecode":{"object":"0x60808060405234601557610d13908161001a8239f35b5f80fdfe60806040526004361015610011575f80fd5b5f3560e01c634b397b3114610024575f80fd5b346100835760c036600319011261008357600435801515810361008357610049610087565b61005161009e565b6100596100b5565b6100616100ce565b60a435939092906001600160d81b03851685036100835761008195610179565b005b5f80fd5b6024359067ffffffffffffffff8216820361008357565b6044359067ffffffffffffffff8216820361008357565b6064359069ffffffffffffffffffff8216820361008357565b6084359069ffffffffffffffffffff8216820361008357565b634e487b7160e01b5f52601160045260245ffd5b5f1981019190821161010957565b6100e7565b634e487b7160e01b5f52601260045260245ffd5b6001600160d81b03909116908115610141576001600160d81b03160690565b61010e565b6001600160d81b039081166001019190821161010957565b1561016557565b634e487b7160e01b5f52600160045260245ffd5b93610323956102e261030c946102c06102f5956103079561031e998b6101a867ffffffffffffffff83166103ec565b916101f86101ee6101d96101ce6101e06101d96101ce67ffffffffffffffff8b166103ec565b9660401c61ffff1690565b61ffff1690565b61800161ffff809216061690565b617fff1660010190565b93848110156103dc57946102789161029e95935b1561039d5761023f61022b8261022561024f948961043f565b9761041a565b95866102398282819761044b565b9b61044b565b610249818b61043f565b9961041a565b97955b61025b8261047c565b92906103e751936104275261040c526103f1526103e9526103e752565b6102818261047c565b929061042751936104675261044c52610431526104295261042752565b6102a78161047c565b91906102ef519261032d52610312526102f7526102ef52565b6102c98161047c565b919061036b51926103a95261038e526103735261036b52565b6103016102f56102f06104e6565b6100fb565b6001600160d81b031690565b90610122565b610146565b61016d5160d81c9060281b1761015252565b6106e5565b61032b610704565b90506101525160281c6105225160281c900361035861035361038b5160c01c93831315151590565b61015e565b61030f5160c01c8203610369575050565b610385610393926101505160ff1c5f1461039557600101610915565b61038d6104e6565b1261015e565b565b5f1901610915565b6103c56103b7826103b16103d5948961041a565b9761043f565b866102398282819a9761044b565b6103cf818b61041a565b9961043f565b9795610252565b946102789161029e95969361020c565b67ffffffffffffffff80809216061660010167ffffffffffffffff81116101095767ffffffffffffffff1690565b9080821215610427575090565b905090565b806001125f146104395790565b50600190565b81811215610427575090565b9060019061046461045c858361041a565b94859261043f565b03019081156101415767ffffffffffffffff16060190565b61048590610969565b5f198181019082600160c11b7ff1aaddd7742e56d32fb9f997447d9e6314db84884fabab26bf059af9bc20b6090983030181600160c11b7ff1aaddd7742e56d32fb9f997447d9e6314db84884fabab26bf059af9bc20b60909089060281c91565b61030f5160c01c61038b5160c01c8082146105fe576104075160f01c906104475160f01c9081156105f65782820390848112918215601b02602303958561038b61030f89015160281c98015160281c95146105e8576001603c1b82916104095160c01c938491875f146105d8578391920301029383030102925b156105c9576104495160c01c900380915b600160c01b87820993600160c01b86820991828610916001600160c01b03908890098601906001600160c01b03908a90098301030393600160c01b918203900881840660c01b0104910460c01b0192030201600f1c90565b6104495160c01c038091610571565b8284910301029403010292610560565b5050505090910302600f1c90565b505050505f90565b50505f90565b61030f5160c01c6103c95160c01c8082146105fe576104075160f01c906104475160f01c9081156105f65782820390848112918215601b0260230395856103c961030f89015160281c98015160281c95146105e8576001603c1b82916104095160c01c938491875f146105d857839192030102938303010292156105c9576104495160c01c90038091600160c01b87820993600160c01b86820991828610916001600160c01b03908890098601906001600160c01b03908a90098301030393600160c01b918203900881840660c01b0104910460c01b0192030201600f1c90565b60ff0261015053565b156106f557565b630f975a0160e11b5f5260045ffd5b6101525160281c6105225160281c90039061071d6104e6565b9082821315610910576101505160ff1c9081156108fa576104095160c01c6104495160c01c9003905b6104475160f01c926104075160f01c809403936107998786603c1b9286028301845f146108e157876104095160c01c61030f5160c01c90030201955b61030f851515601b02602303015160281c90610b28565b84608e1b03800190825f146108c25761030f5161038b5160c090811c91901c03966107cf906107ca905b8a8a610b0f565b61042c565b858782020190826107e86107e283610969565b86610acf565b83608e1b039203809205918883020582603c1d039182600160531b039080010591821561082e5750886108226107e893610827930161042c565b61041a565b90506107cf565b9497509550505050610848919450600160531b14156106ee565b81156108b35761030f5160c01c0392905b6108628461093f565b61086a610604565b935b8285126108845750505061087e610caa565b60019190565b9193509081156108ab575f19015b61089b82610b7b565b6108a3610604565b93919061086c565b600101610892565b61030f5160c01c019290610859565b61038b5161030f5160c090811c91901c03966107cf906107ca906107c3565b8761030f5160c01c6104095160c01c9003020195610782565b6104495160c01c6104095160c01c900390610746565b5f9250565b610393906109228161047c565b61036b80516103a99290925261038e929092526103739290925252565b6103939061094c8161047c565b6103a980516103e7929092526103cc929092526103b19290925252565b610a4090610a3a90808002908180025f19600160801b808386095f198487090309906109ed6109df6109d8600f600760681b8802046609c0000000000085040169c91800000000000000008604016109d08580025f19878009621eee11605a1b9190030490565b0196606a1b90565b600f900490565b916624900000000000900490565b5f1993600160b41b936a06df92000000000000000090049190920101600160ff1b01906910000000000000000000828209915f1991090309600160fe1b8183018101929190910301610aef565b60021b90565b808002905f1990800903808002905f1990800903808002905f1990800903808002905f1990800903808002905f1990800903808002905f1990800903808002905f1990800903808002905f1990800903808002905f1990800903808002905f1990800903808002905f1990800903808002905f1990800903808002905f1990800903808002905f199080090390565b5f198281019283919080600160ff1b850990030191600160ff1b90090890565b5f198281019283919080600160fe1b850990030191600160fe1b90090890565b90915f1981019283915f19908083860990030192090890565b90917fd49c04af80af1ea5f98f85886b450a4b264fc14874f9f64143836145a37dd8a1927f0f1aaddd7742e56d32fb9f997447d9e6314db84884fabab26bf059af9bc20b61828183860909920202030290565b15610c15576103935f196103c95160c01c017faa3ed2381a8b1241d16168fd77ef989ed2b13be12b716aa23f35ed0e395560016103d15160281c780fffffffffffffff8000000000000002aaaaaaaaaaaaaaa001780fffffffffffffff8000000000000002aaaaaaaaaaaaaaa00019910902610bfc6103ec5160281c610cb5565b91906103a951926103e7526103cc526103b1526103a952565b61039360016103c95160c01c01610c316103d15160281c610cb5565b7faa3ed2381a8b1241d16168fd77ef989ed2b13be12b716aa23f35ed0e395560016103ec5160281c780fffffffffffffff8000000000000002aaaaaaaaaaaaaaa001780fffffffffffffff8000000000000002aaaaaaaaaaaaaaa0001991090291906103a951926103e7526103cc526103b1526103a952565b603e6103c961038b5e565b780fffffffffffffff8000000000000002aaaaaaaaaaaaaaa00119818102915f19919009039056fea264697066735822122078ad0101e3ab3ac411da963b6fd5b860ab199b064fb9916c9e1cea1ff4fbeb7864736f6c63430008210033","linkReferences":{}},"methodIdentifiers":{"searchOutgoingTarget_test(bool,uint64,uint64,uint80,uint80,uint216)":"4b397b31"},"id":88}