{"abi":[{"type":"function","name":"searchIncomingTarget_test","inputs":[{"name":"zeroForOne_seed","type":"bool","internalType":"bool"},{"name":"begin_seed","type":"uint64","internalType":"uint64"},{"name":"target_seed","type":"uint64","internalType":"uint64"},{"name":"total0_seed","type":"uint80","internalType":"uint80"},{"name":"total1_seed","type":"uint80","internalType":"uint80"},{"name":"integral_seed","type":"uint216","internalType":"uint216"}],"outputs":[],"stateMutability":"pure"},{"type":"error","name":"SearchingForIncomingTargetFailed","inputs":[]}],"bytecode":{"object":"0x60808060405234601557610d47908161001a8239f35b5f80fdfe60806040526004361015610011575f80fd5b5f3560e01c63b4c0b90e14610024575f80fd5b346100835760c036600319011261008357600435801515810361008357610049610087565b61005161009e565b6100596100b5565b6100616100ce565b60a435939092906001600160d81b03851685036100835761008195610179565b005b5f80fd5b6024359067ffffffffffffffff8216820361008357565b6044359067ffffffffffffffff8216820361008357565b6064359069ffffffffffffffffffff8216820361008357565b6084359069ffffffffffffffffffff8216820361008357565b634e487b7160e01b5f52601160045260245ffd5b5f1981019190821161010957565b6100e7565b634e487b7160e01b5f52601260045260245ffd5b6001600160d81b03909116908115610141576001600160d81b03160690565b61010e565b6001600160d81b039081166001019190821161010957565b1561016557565b634e487b7160e01b5f52600160045260245ffd5b93610323956102e261030c946102c06102f5956103079561031e998b6101a867ffffffffffffffff83166103ec565b916101f86101ee6101d96101ce6101e06101d96101ce67ffffffffffffffff8b166103ec565b9660401c61ffff1690565b61ffff1690565b61800161ffff809216061690565b617fff1660010190565b93848110156103dc57946102789161029e95935b1561039d5761023f61022b8261022561024f948961043f565b9761041a565b95866102398282819761044b565b9b61044b565b610249818b61043f565b9961041a565b97955b61025b8261047c565b92906103e751936104275261040c526103f1526103e9526103e752565b6102818261047c565b929061042751936104675261044c52610431526104295261042752565b6102a78161047c565b91906102ef519261032d52610312526102f7526102ef52565b6102c98161047c565b919061036b51926103a95261038e526103735261036b52565b6103016102f56102f06104e6565b6100fb565b6001600160d81b031690565b90610122565b610146565b61016d5160d81c9060281b1761015252565b6106e4565b61032b610703565b90506101525160281c6105075160281c90036103586103538261038b5160c01c941315151590565b61015e565b6104495160c01c8203610369575050565b610385610393926101505160ff1c5f14610395575f190161093e565b61038d6104e6565b1361015e565b565b60010161093e565b6103c56103b7826103b16103d5948961041a565b9761043f565b866102398282819a9761044b565b6103cf818b61041a565b9961043f565b9795610252565b946102789161029e95969361020c565b67ffffffffffffffff80809216061660010167ffffffffffffffff81116101095767ffffffffffffffff1690565b9080821215610427575090565b905090565b806001125f146104395790565b50600190565b81811215610427575090565b9060019061046461045c858361041a565b94859261043f565b03019081156101415767ffffffffffffffff16060190565b61048590610992565b5f198181019082600160c11b7ff1aaddd7742e56d32fb9f997447d9e6314db84884fabab26bf059af9bc20b6090983030181600160c11b7ff1aaddd7742e56d32fb9f997447d9e6314db84884fabab26bf059af9bc20b60909089060281c91565b5f61030f5160c01c9061038b5160c01c8083146105fe576104475160f01c9182156105f757506104495160c01c908381129081601b026023039261038b61030f85015160281c94015160281c956104075160f01c8087146105e857826001603c1b9188038093875f146105d75782849103010294030102925b156105c7576104095160c01c0380915b600160c01b85820990600160c01b88860994828610916001600160c01b03908890098601906001600160c01b03908a90098301030393600160c01b918203900881840660c01b0104910460c01b0192030203600f1c90565b6104095160c01c9003809161056f565b83919203010293830301029261055f565b505050505090910302600f1c90565b9250505090565b5050505f90565b5f61030f5160c01c906103c95160c01c8083146105fe576104475160f01c9182156105f757506104495160c01c908381129081601b02602303926103c961030f85015160281c94015160281c956104075160f01c8087146105e857826001603c1b9188038093875f146105d7578284910301029403010292156105c7576104095160c01c038091600160c01b85820990600160c01b88860994828610916001600160c01b03908890098601906001600160c01b03908a90098301030393600160c01b918203900881840660c01b0104910460c01b0192030203600f1c90565b60ff0261015053565b156106f457565b637fbbcd6760e01b5f5260045ffd5b6101525160281c6105075160281c90039061071c6104e6565b82811315610938576101505160ff1c928315610922576104095160c01c6104495160c01c9003925b6104475160f01c936104075160f01c85039586603c1b9582028603815f14610909578761030f5160c01c6104495160c01c90030201955b6107978583159461030f86601b02602303015160281c90610b31565b87608e1b0390825f146108f35761030f5160c01c61038b5160c01c9003975b8897808a13156108d3575b50965b878a82020390826107e66107e06107da84610992565b60281c90565b86610b84565b83608e1b019201809205918b83020582603c1d019182600160531b039080010591821561082c5750896108206107e693610825930361042c565b61041a565b90506107c4565b9150925060018094979a50610854969995985061084e925060531b14156106ed565b0161041a565b81156108c35761030f5160c01c039391905b61086f85610968565b610877610605565b945b838613610892575050505061088c610cde565b60019190565b929450909181156108bb576001015b906108ab83610baf565b6108b3610605565b949291610879565b5f19016108a1565b61030f5160c01c01939190610866565b6107e69198506108e76108ec91898c610b18565b61042c565b97906107c1565b61038b5160c01c61030f5160c01c9003976107b6565b876104495160c01c61030f5160c01c900302019561077b565b6104495160c01c6104095160c01c900392610744565b5f925090565b6103939061094b8161047c565b61036b80516103a99290925261038e929092526103739290925252565b610393906109758161047c565b6103a980516103e7929092526103cc929092526103b19290925252565b610a6990610a6390808002908180025f19600160801b808386095f19848709030990610a16610a08610a01600f600760681b8802046609c0000000000085040169c91800000000000000008604016109f98580025f19878009621eee11605a1b9190030490565b0196606a1b90565b600f900490565b916624900000000000900490565b5f1993600160b41b936a06df92000000000000000090049190920101600160ff1b01906910000000000000000000828209915f1991090309600160fe1b8183018101929190910301610af8565b60021b90565b808002905f1990800903808002905f1990800903808002905f1990800903808002905f1990800903808002905f1990800903808002905f1990800903808002905f1990800903808002905f1990800903808002905f1990800903808002905f1990800903808002905f1990800903808002905f1990800903808002905f1990800903808002905f199080090390565b5f198281019283919080600160fe1b850990030191600160fe1b90090890565b90915f1981019283915f19908083860990030192090890565b90917fd49c04af80af1ea5f98f85886b450a4b264fc14874f9f64143836145a37dd8a1927f0f1aaddd7742e56d32fb9f997447d9e6314db84884fabab26bf059af9bc20b61828183860909920202030290565b5f199165010000000000918391600160d81b81830919915f19915f81129003905f8112900309080990565b15610c49576103935f196103c95160c01c017faa3ed2381a8b1241d16168fd77ef989ed2b13be12b716aa23f35ed0e395560016103d15160281c780fffffffffffffff8000000000000002aaaaaaaaaaaaaaa001780fffffffffffffff8000000000000002aaaaaaaaaaaaaaa00019910902610c306103ec5160281c610ce9565b91906103a951926103e7526103cc526103b1526103a952565b61039360016103c95160c01c01610c656103d15160281c610ce9565b7faa3ed2381a8b1241d16168fd77ef989ed2b13be12b716aa23f35ed0e395560016103ec5160281c780fffffffffffffff8000000000000002aaaaaaaaaaaaaaa001780fffffffffffffff8000000000000002aaaaaaaaaaaaaaa0001991090291906103a951926103e7526103cc526103b1526103a952565b603e6103c961038b5e565b780fffffffffffffff8000000000000002aaaaaaaaaaaaaaa00119818102915f19919009039056fea2646970667358221220d7f8cf4b1eda95e70cbb6f7e2609b4d83142b3c15777f86d8e21bfa51bf01dd964736f6c63430008210033","linkReferences":{}},"methodIdentifiers":{"searchIncomingTarget_test(bool,uint64,uint64,uint80,uint80,uint216)":"b4c0b90e"},"id":87}