{"abi":[{"type":"function","name":"searchOvershoot_test","inputs":[{"name":"seed_base","type":"bool[3]","internalType":"bool[3]"},{"name":"seed_boundaries","type":"uint64[3]","internalType":"uint64[3]"},{"name":"seed_kernel","type":"uint88[]","internalType":"uint88[]"},{"name":"seed_curve","type":"uint64[]","internalType":"uint64[]"},{"name":"seed_target","type":"uint64","internalType":"uint64"}],"outputs":[],"stateMutability":"nonpayable"},{"type":"error","name":"SearchingForIncomingTargetFailed","inputs":[]},{"type":"error","name":"SearchingForOutgoingTargetFailed","inputs":[]},{"type":"error","name":"SearchingForOvershootFailed","inputs":[]}],"bytecode":{"object":"0x60808060405234601557613915908161001a8239f35b5f80fdfe60806040526004361015610011575f80fd5b5f3560e01c637074a13d14610024575f80fd5b346100ae576101203660031901126100ae5761003f366100b2565b50610049366100bf565b5060c43567ffffffffffffffff81116100ae5761006a9036906004016100cc565b505060e43567ffffffffffffffff81116100ae5761008c9036906004016100cc565b50506101043567ffffffffffffffff811681036100ae576100ac90610174565b005b5f80fd5b906004916064116100ae57565b9060649160c4116100ae57565b9181601f840112156100ae5782359167ffffffffffffffff83116100ae576020808501948460051b0101116100ae57565b634e487b7160e01b5f52604160045260245ffd5b6040513d5f823e3d90fd5b1561012357565b634e487b7160e01b5f52600160045260245ffd5b156100ae57565b90601f8019910116810190811067ffffffffffffffff82111761016057604052565b6100fd565b908160209103126100ae575190565b60405161126e8082019082821067ffffffffffffffff8311176101605782916101ac916126528439600a808252602082015260400190565b03905ff090811561056f576380ac802960e01b608052366003190160046084375f8036608082865af160805b61060f8110610635575061024d916101f861023b923d5f6105ef3e61011c565b61060f51610235610215825160c01c600884015160c01c90610640565b9161022f610224825160c01c90565b916008015160c01c90565b90610675565b91610681565b6101505160401c9060c01b1761014852565b61026561016d5160d81c64ffffffffff191761015252565b61026d6106c6565b6102976101485160c01c6102935160c01c9061029161028c8383141590565b610137565b12610794565b61060f516102a9610224825160c01c90565b13156105965760405163fefcd46760e01b8152906001600160a01b0316602082600481845afa90811561056f576004925f92610574575b50602090604051938480926314dea19560e11b82525afa91821561056f575f9261053e575b505b61031d816106ba5160d81c9060281b1761069f52565b610333826106d55160d81c9060281b176106ba52565b61034961038b5160c01c61028b5160c01c141590565b156105395761035661079d565b15610333575b610364610940565b61037d6105225160281c61053851906105535261053852565b6103916105ef516101505160ff1c906109ec565b6101505160ff1c15610521576105075160281c01906105225160281c9003905b61034d5160c01c61038b5160c01c61060f51906103d86103d2835160c01c90565b82141590565b9182610507575b50816104f0575b816104df575b506103f657505050565b6104008383610ba6565b6103f6576104496104298361022f8661042361041c8285610db2565b9490612211565b92612211565b9161044061030f5160c01c6103c95160c01c141590565b61049e5761110b565b61045f6103c95160c01c61034d5160c01c141590565b61046857505050565b6104926104979261022f61049c956104856101505160ff1c610f41565b61042361041c8285611070565b121590565b61011c565b565b610150516104af9060ff1c15610f41565b6104cb610497846104928761022f8a61042361041c8285611070565b6104da6101505160ff1c610f41565b61110b565b6102935160c01c141590505f6103ec565b90506105016104475160f01c151590565b906103e6565b6008015190915061051a9060c01c6103d2565b905f6103df565b6105225160281c9003906105075160281c01906103b1565b61035c565b61056191925060203d602011610568575b610559818361013e565b810190610165565b905f610305565b503d61054f565b610111565b602091925061058f90823d841161056857610559818361013e565b91906102e0565b6040516314dea19560e11b8152906001600160a01b0316602082600481845afa90811561056f576004925f92610613575b506020906040519384809263fefcd46760e01b82525afa91821561056f575f926105f2575b50610307565b61060c91925060203d60201161056857610559818361013e565b905f6105ec565b602091925061062e90823d841161056857610559818361013e565b91906105c7565b5f81526020016101d8565b908082121561064d575090565b905090565b5f81121561065f57505f90565b90565b806001125f1461066f5790565b50600190565b8181121561064d575090565b9060019061069a6106928583610640565b948592610675565b03019081156106b25767ffffffffffffffff16060190565b634e487b7160e01b5f52601260045260245ffd5b61075a61060f51610713610701825160c01c600884015160c01c818113155f1461078a576106fc905b6101485160c01c90610675565b610640565b6102935160401c9060c01b1761028b52565b6107556106515160f01c915f198301610738816102875160101c9060f01b1761028552565b60031b81015160c01c926001190160031b015160c01c8212611297565b61116e565b61076261094b565b61076a610956565b610772610961565b61077a61096c565b610782610977565b61049c610982565b906106fc906106ef565b60ff0261015053565b5f9061038b5160c01c6104495160c01c14610933575b6102845160ff1c61038b5160c01c61034d5160c01c14610904575b61030f516104095160c091821c911c139015159081036108f7575b61080761080261034d5160c01c6104495160c01c121590565b151590565b81036108e95761081d61ffff6104495b16610998565b6101505160ff1c151581036108c65761028b5161038b5161049c945060c091821c92911c8212036108b7575b506101515160ff1c1561089c5761085e611c8a565b92909261088e61086c611554565b915b6108808360281b610522510161052252565b60281b610507510161050752565b60281b61058e510161058e52565b6108a461186a565b92909261088e6108b2611a76565b61086e565b6108c0906111d1565b5f610849565b5061049c6108d2611554565b6108e48160281b61053d510161053d52565b61088e565b61081d61ffff61034d610817565b6108ff61098d565b6107e9565b6109176109269161058e5160281c6112cf565b61056e51906105895261056e52565b61092e6114e5565b6107ce565b61093b6112a0565b6107b3565b603e61038b6103c95e565b603e6102936102d15e565b603e61029361030f5e565b603e61029361034d5e565b603e61029361038b5e565b603e6102936104095e565b603e6102936104495e565b603e61040961030f5e565b603e9061038b5e565b603e906103c95e565b603e61048961030f5e565b603e6104c96103c95e565b603e6103c961034d5e565b603e61030f6103c95e565b603e61034d6103c95e565b603e6103c961038b5e565b906109fa5f61049c93611eb5565b929390919015610a5357610a20610a2d9161038b5160c01c03936103935160281c611f42565b916103ae5160281c611f17565b919091925b6104a780516104e7959095526104cc939093526104b1919091526104a95252565b610a72610a7f9161038b9493945160c01c01936103935160281c611f17565b916103ae5160281c611f42565b91909192610a32565b61049c9291610a9691611eb5565b929390919015610aef57610abc610ac9916102d15160c01c03936102d95160281c611f42565b916102f45160281c611f17565b919091925b61042780516104679590955261044c93909352610431919091526104295252565b610b0e610b1b916102d19493945160c01c01936102d95160281c611f17565b916102f45160281c611f42565b91909192610ace565b61049c9291610b3291611eb5565b929390919015610b7e57610abc610b58916102d15160c01c03936102d95160281c611f42565b919091925b6103e780516104279590955261040c939093526103f1919091526103e95252565b610b0e610b9d916102d19493945160c01c01936102d95160281c611f17565b91909192610b5d565b906103c95160c01c6104c95160c01c14610da5575b6103c95160c01c6104495160c01c14610d98575b6102845160ff1c906103c95160c01c61034d5160c01c14610d76575b61030f516104095160c091821c911c13911515918203610d69575b61034d516104495160c091821c911c138203610d5b57610c2c61ffff6104495b166109a1565b6101505160ff1c15158214610d14575b610c44611672565b91610c546101505160ff1c151590565b03610cf757610ca25f91610c66611753565b94610c798560281b610558510161055852565b610c8b8660281b610573510161057352565b610c9d8560281b61058e510161058e52565b611fd8565b13610cae575050600190565b610cdd610ceb92610cbd6109c0565b610ccf8360281b610558510361055852565b60281b610573510361057352565b60281b61058e510361058e52565b610cf36109cb565b5f90565b50610d0f915061088e8160281b61053d510161053d52565b600190565b61030f516104895160c091821c911c138203610d4e575b6103c9516104c95160c091821c911c138203610c3c57610d496109b5565b610c3c565b610d566109aa565b610d2b565b610c2c61ffff61034d610c26565b610d7161098d565b610c06565b90610917610d8a9161058e5160281c611381565b610d926114e5565b90610beb565b610da06112a0565b610bcf565b610dad611fa6565b610bbb565b90916101505160ff1c905b610dc7848461206b565b91928315610e3b57505050610e0c90835f14610e1157610dfa610e079161034d5160c01c906103c95160c01c0190610675565b61030f5160c01c90610640565b611234565b610dbd565b610e2e610e079161030f5160c01c906103c95160c01c0190610675565b61034d5160c01c90610640565b90925061065f9495919395610e5d610e5386856121ec565b61022f868b6121ec565b916103c95160c01c610e7561034d5160c01c82141590565b9081610f33575b61030f5160c01c14159182610f24575b5080159182610f1c575b50610eaf575b50505090610ea991610640565b93610640565b610ecf90610ef594969293959293610ec56109c0565b1515901514610f41565b610ed98886611070565b949093906104928561022f610eee898b6121ec565b918d6121ec565b610f04575b8094929394610e9c565b909150610ea99250610f146109d6565b90915f610efa565b90505f610e96565b1515831515141591505f610e8c565b821515841515149150610e7c565b15610fdb5761049c5f196103c95160c01c017faa3ed2381a8b1241d16168fd77ef989ed2b13be12b716aa23f35ed0e395560016103d15160281c780fffffffffffffff8000000000000002aaaaaaaaaaaaaaa001780fffffffffffffff8000000000000002aaaaaaaaaaaaaaa00019910902610fc26103ec5160281c612292565b91906103a951926103e7526103cc526103b1526103a952565b61049c60016103c95160c01c01610ff76103d15160281c612292565b7faa3ed2381a8b1241d16168fd77ef989ed2b13be12b716aa23f35ed0e395560016103ec5160281c780fffffffffffffff8000000000000002aaaaaaaaaaaaaaa001780fffffffffffffff8000000000000002aaaaaaaaaaaaaaa0001991090291906103a951926103e7526103cc526103b1526103a952565b906101505160ff1c90815f14611102576110f590925b6110dc611091611672565b611099611753565b906110ac868261058e5160281c01611381565b916105735160281c01916110c08784611433565b9003966105225160281c01906105585160281c01900301610652565b9361053d5160281c9101036105075160281c9003610652565b90156110fe5791565b9091565b6110f590611086565b61049c906111188161230d565b905f198083019083600160c11b5f5160206138c05f395f51905f520984030181600160c11b5f5160206138c05f395f51905f52090861032d805161036b9290925260289390931c61035052610335919091529052565b61049c9061117b8161230d565b905f198083019083600160c11b5f5160206138c05f395f51905f520984030181600160c11b5f5160206138c05f395f51905f52090861027380516102b19290925260289390931c6102965261027b919091529052565b61049c906111de8161230d565b905f198083019083600160c11b5f5160206138c05f395f51905f520984030181600160c11b5f5160206138c05f395f51905f52090861036b80516103a99290925260289390931c61038e52610373919091529052565b61049c906112418161230d565b905f198083019083600160c11b5f5160206138c05f395f51905f520984030181600160c11b5f5160206138c05f395f51905f5209086103a980516103e79290925260289390931c6103cc526103b1919091529052565b60ff0261028453565b60406104476104075e61049c6105ef51600160f01b6102875101806102875260f01c6102845160ff1c91610a88565b901515601b0260230368a43903008fac41d97d6102d161038b83015160281c92015160281c7f5bc2a24e50a66d39c35a9132c33f2fc50a1b99389d5455e78a7cf7ef8894e4cd8163cb21e499028464cef6ae8685020992020203907fdbad67320459464b8d379def907a3e0c7c8687340b82b93b6e54e966e257826781830202917f7082326d62b7ef4d06861f13c21dd192c8044b19a121205b7dc63c2642b5a8055f1992634bc3287b029102090390565b901515601b0260230368a43903008fac41d97d6102d16103c983015160281c92015160281c7f5bc2a24e50a66d39c35a9132c33f2fc50a1b99389d5455e78a7cf7ef8894e4cd8163cb21e499028464cef6ae8685020992020203907fdbad67320459464b8d379def907a3e0c7c8687340b82b93b6e54e966e257826781830202917f7082326d62b7ef4d06861f13c21dd192c8044b19a121205b7dc63c2642b5a8055f1992634bc3287b029102090390565b901515601b0260230368a43903008fac41d97d61038b6103c983015160281c92015160281c7f5bc2a24e50a66d39c35a9132c33f2fc50a1b99389d5455e78a7cf7ef8894e4cd8163cb21e499028464cef6ae8685020992020203907fdbad67320459464b8d379def907a3e0c7c8687340b82b93b6e54e966e257826781830202917f7082326d62b7ef4d06861f13c21dd192c8044b19a121205b7dc63c2642b5a8055f1992634bc3287b029102090390565b603e6102d161030f5e603e61034d6102d15e61151e61060f5161ffff60f01b6102855101806102855260f01c60031b015160c01c61110b565b6102845160ff1c1515159061049c828060ff02610284536105ef516102875160f01c9061154f835f19840183610b24565b610a88565b61030f5160c01c61038b5160c01c80821461166c576104075160f01c906104475160f01c9081156116645782820390848112918215601b02602303958561038b61030f89015160281c98015160281c9514611656576001603c1b82916104095160c01c938491875f14611646578391920301029383030102925b15611637576104495160c01c900380915b600160c01b87820993600160c01b86820991828610916001600160c01b03908890098601906001600160c01b03908a90098301030393600160c01b918203900881840660c01b0104910460c01b0192030201600f1c90565b6104495160c01c0380916115df565b82849103010294030102926115ce565b5050505090910302600f1c90565b505050505f90565b50505f90565b61030f5160c01c6103c95160c01c80821461166c576104075160f01c906104475160f01c9081156116645782820390848112918215601b0260230395856103c961030f89015160281c98015160281c9514611656576001603c1b82916104095160c01c938491875f146116465783919203010293830301029215611637576104495160c01c90038091600160c01b87820993600160c01b86820991828610916001600160c01b03908890098601906001600160c01b03908a90098301030393600160c01b918203900881840660c01b0104910460c01b0192030201600f1c90565b61030f5160c01c6103c95160c01c80821461166c576104875160f01c906104c75160f01c9081156116645782820390848112918215601b0260230395856103c961030f89015160281c98015160281c9514611656576001603c1b82916104895160c01c938491875f14611844578391920301029383030102925b15611835576104c95160c01c90038091600160c01b87820993600160c01b86820991828610916001600160c01b03908890098601906001600160c01b03908a90098301030393600160c01b918203900881840660c01b0104910460c01b0192030201600f1c90565b6104c95160c01c0380916115df565b82849103010294030102926117cd565b1561185b57565b630f975a0160e11b5f5260045ffd5b6101525160281c6105225160281c900390611883611554565b9082821315611a71576101505160ff1c908115611a5b576104095160c01c6104495160c01c9003905b6104475160f01c926104075160f01c809403936118ff8786603c1b9286028301845f14611a4257876104095160c01c61030f5160c01c90030201955b61030f851515601b02602303015160281c906122ba565b84608e1b03800190825f14611a235761030f5161038b5160c090811c91901c039661193590611930905b8a8a612638565b610662565b8587820201908261194e6119488361230d565b866125f8565b83608e1b039203809205918883020582603c1d039182600160531b039080010591821561198f5750886106fc61194e936119889301610662565b9050611935565b94975095505050506119a9919450600160531b1415611854565b8115611a145761030f5160c01c0392905b6119c384611234565b6119cb611672565b935b8285126119e5575050506119df6109e1565b60019190565b919350908115611a0c575f19015b6119fc82610f41565b611a04611672565b9391906119cd565b6001016119f3565b61030f5160c01c0192906119ba565b61038b5161030f5160c090811c91901c03966119359061193090611929565b8761030f5160c01c6104095160c01c90030201956118e8565b6104495160c01c6104095160c01c9003906118ac565b5f9250565b5f61030f5160c01c9061038b5160c01c808314611b8e576104475160f01c918215611b8757506104495160c01c908381129081601b026023039261038b61030f85015160281c94015160281c956104075160f01c808714611b7857826001603c1b9188038093875f14611b675782849103010294030102925b15611b57576104095160c01c0380915b600160c01b85820990600160c01b88860994828610916001600160c01b03908890098601906001600160c01b03908a90098301030393600160c01b918203900881840660c01b0104910460c01b0192030203600f1c90565b6104095160c01c90038091611aff565b839192030102938303010292611aef565b505050505090910302600f1c90565b9250505090565b5050505f90565b5f61030f5160c01c906103c95160c01c808314611b8e576104475160f01c918215611b8757506104495160c01c908381129081601b02602303926103c961030f85015160281c94015160281c956104075160f01c808714611b7857826001603c1b9188038093875f14611b6757828491030102940301029215611b57576104095160c01c038091600160c01b85820990600160c01b88860994828610916001600160c01b03908890098601906001600160c01b03908a90098301030393600160c01b918203900881840660c01b0104910460c01b0192030203600f1c90565b15611c7b57565b637fbbcd6760e01b5f5260045ffd5b6101525160281c6105075160281c900390611ca3611a76565b82811315611eaf576101505160ff1c928315611e99576104095160c01c6104495160c01c9003925b6104475160f01c936104075160f01c85039586603c1b9582028603815f14611e80578761030f5160c01c6104495160c01c90030201955b611d1e8583159461030f86601b02602303015160281c906122ba565b87608e1b0390825f14611e6a5761030f5160c01c61038b5160c01c9003975b8897808a1315611e4f575b50965b878a8202039082611d6d611d67611d618461230d565b60281c90565b86611f17565b83608e1b019201809205918b83020582603c1d019182600160531b0390800105918215611dae5750896106fc611d6d93611da79303610662565b9050611d4b565b9150925060018094979a50611dd69699959850611dd0925060531b1415611c74565b01610640565b8115611e3f5761030f5160c01c039391905b611df185611234565b611df9611b95565b945b838613611e0e57505050506119df6109e1565b92945090918115611e37576001015b90611e2783610f41565b611e2f611b95565b949291611dfb565b5f1901611e1d565b61030f5160c01c01939190611de8565b611d6d919850611930611e6391898c612638565b9790611d48565b61038b5160c01c61030f5160c01c900397611d3d565b876104495160c01c61030f5160c01c9003020195611d02565b6104495160c01c6104095160c01c900392611ccb565b5f925090565b905f808215611eee57505060061b0190603f1982015160f01c91603d1981015160c01c9160351982015160281c91601a19015160281c90565b9093909250600160d81b91507801e355bbaee85cada65f73f32e88fb3cc629b709109f57564d90565b5f199165010000000000918391600160d81b81830919915f19915f81129003905f8112900309080990565b6774600bc82ce9df527f7f6af8233bada11dd406b4458454ed9904d7af796be7aa4885b23e25b6985d49927fdbb82f7041b890fe67970a62a3568cc34df9dcb17cc3a2a6a027850e7e3724f9632ec3a856820264027d117d7b850209920202030290565b60406104c76104875e61049c6105ef516109fa600160f01b6102895101806102895260f01c6101505160ff1c92611eb5565b6101505160ff1c91611ff08361058e5160281c611381565b6105735160281c906120028583611433565b900361053d5160281c90036105075160281c9003906105225160281c016105585160281c9003935f1461204857612043929161203d91611f17565b92611f17565b900390565b6120439261203d91611f17565b1561205c57565b6327177a2d60e11b5f5260045ffd5b906101505160ff1c90815f146121e65791905b612086611672565b9061208f611753565b6120d3826120cd816120bf6105225160281c8a01886105585160281c019003956105735160281c01809601610652565b9661058e5160281c01611381565b92611433565b9003926120f261053d5160281c858301036105075160281c9003610652565b946120fb612473565b61214f61210661257d565b918515926103c98415601b026023036121398361038b61212e876102d186015160281c6125a3565b93015160281c6125a3565b900394601b02602303015160281c9103906125a3565b93156121bc578181612182926121698a61218b97966121ec565b61217389876121ec565b900399975b9798010190611f17565b92800190611f17565b01935f85135f851314159460161d808560261b059485156121aa575050565b6121b15750565b61049c901515612055565b829181612182926121d38861218b979b999b6121ec565b6121dd89856121ec565b90039997612178565b9061207e565b6001600160d81b039190600160d81b8282096001600160d81b03908103929091090890565b905f1982600160d81b09908260d81b918280821091039381851461228a578290600160d81b099082805f03168093046002816003021880820260020302808202600203028082026002030280820260020302808202600203028091026002030294600184805f0304019185841191030302920304170290565b505091500490565b780fffffffffffffff8000000000000002aaaaaaaaaaaaaaa00119818102915f199190090390565b90917fd49c04af80af1ea5f98f85886b450a4b264fc14874f9f64143836145a37dd8a1927f0f1aaddd7742e56d32fb9f997447d9e6314db84884fabab26bf059af9bc20b61828183860909920202030290565b6123e4906123de90808002908180025f19600160801b808386095f1984870903099061239161238361237c600f600760681b8802046609c0000000000085040169c91800000000000000008604016123748580025f19878009621eee11605a1b9190030490565b0196606a1b90565b600f900490565b916624900000000000900490565b5f1993600160b41b936a06df92000000000000000090049190920101600160ff1b01906910000000000000000000828209915f1991090309600160fe1b8183018101929190910301612618565b60021b90565b808002905f1990800903808002905f1990800903808002905f1990800903808002905f1990800903808002905f1990800903808002905f1990800903808002905f1990800903808002905f1990800903808002905f1990800903808002905f1990800903808002905f1990800903808002905f1990800903808002905f1990800903808002905f199080090390565b6104075161040951610447516104495160c092831c93921c9160f090811c91901c5b909192811561166457828214612554576103c95160c01c80851461252a57837c15fc21041027acbbfcd46780fee71ead23fbcb7f4a81e58767ef801a3294958381125f1461251a5783039303910302905b80600160c01b838509926001600160c01b03908482039082908709089281840660c01b0104910460c01b0191020160281c90565b92809293039303910302906124e6565b50507c15fc21041027acbbfcd46780fee71ead23fbcb7f4a81e58767ef801a320260281c92915050565b50507c15fc21041027acbbfcd46780fee71ead23fbcb7f4a81e58767ef801a3291500260281c90565b61048751610489516104c7516104c95160c092831c93921c9160f090811c91901c612495565b64f8f6376c447f28256938c4923ff15ab260970aa81f81c15e6f5ef3af38dc210569e77db19359927e1561650620dabb6a84b684e2a7e5a47caa0a0905210083f0e3b551aabf84e98183850209920202030290565b5f198281019283919080600160ff1b850990030191600160ff1b90090890565b5f198281019283919080600160fe1b850990030191600160fe1b90090890565b90915f1981019283915f1990808386099003019209089056fe60c034606957601f61126e38819003918201601f19168301916001600160401b03831184841017606d578084926040948552833981010312606957602081519101519060805260a0526040516111ec90816100828239608051816104c8015260a05181610d370152f35b5f80fd5b634e487b7160e01b5f52604160045260245ffdfe60806040526004361015610011575f80fd5b5f3560e01c806329bd432a146100745780634a33f20a1461006f5780637fc1946d1461006a57806380ac802914610065578063ea1cd6f7146100605763fefcd4671461005b575f80fd5b61020c565b6101ef565b610154565b610138565b6100c5565b34610090575f3660031901126100905760035460805260206080f35b5f80fd5b9181601f840112156100905782359167ffffffffffffffff8311610090576020808501948460051b01011161009057565b34610090576101203660031901126100905736608411610090573660e4116100905760e43567ffffffffffffffff811161009057610107903690600401610094565b906101043567ffffffffffffffff811161009057610129903690600401610094565b9290916084602460043561024b565b34610090575f3660031901126100905760205f54604051908152f35b34610090576101003660031901126100905736606411610090573660c4116100905760c43567ffffffffffffffff811161009057610196903690600401610094565b9060e43567ffffffffffffffff8111610090576101b7903690600401610094565b929091606460046101ea6101ca83610229565b67555554555555555567ffffffffffffffff650100000000009216060190565b61024b565b34610090575f366003190112610090576020600154604051908152f35b34610090575f366003190112610090576020600254604051908152f35b3567ffffffffffffffff811681036100905790565b3580151581036100905790565b9295919361028861028361027c61026460208901610229565b87800167ffffffffffffffff03906001890190610471565b9660400190565b610229565b610290610c10565b9161029f5f1987018093610428565b835d82915f906102ae836104c6565b935b84831061033157505050610306986102e1936102fd95936102f7936102d48661023e565b8a6102e66020890161023e565b61023e565b926102f181886104f9565b96610625565b60400190565b91830193610863565b61030e610961565b610316610a2c565b61060f516106515160ed1c6207fff816016105ee19016105eff35b9091946103618361035c61034f8f8a8961034a9261048a565b6104ae565b67ffffffffffffffff1690565b610428565b9061036a610c10565b9180835d815c811361038f5750906103856001928260010155565b955b0191906102b0565b80849298945c125f146103b15750906103ab8160019360010155565b91610387565b9a96929995919894909b9793836001850154905b8d815c13801561040a575b156103e157506001810154906103c5565b61040592969a9e95999d509a6103ff816001969a9e95999d60010155565b60010155565b610387565b508d825c126103d0565b634e487b7160e01b5f52601260045260245ffd5b8160011291825f1461046957600180935b1561045f576001915b030190811561045a5767ffffffffffffffff16060190565b610414565b6001809250610442565b808093610439565b906001906104426104828583610bf7565b948592610c04565b919081101561049a5760051b0190565b634e487b7160e01b5f52603260045260245ffd5b356affffffffffffffffffffff811681036100905790565b7f000000000000000000000000000000000000000000000000000000000000000090818111156104f4575090565b905090565b919091610504610c10565b905f825d81905f925b610516866104c6565b8410156105f75761055561054661053f61053461034a888b8861048a565b60401c62ffffff1690565b61ffff1690565b61ffff617fff91160660010190565b9061055e610c10565b9180835d815c81116105825750906105796001928260010155565b935b019261050d565b80859296955c105f146105a457509061059e8160019360010155565b9261057b565b95909691939480976001820154985b805c891080156105ed575b156105cf57506001890154986105b3565b6105e89297939850956103ff816001969b939860010155565b61057b565b50888a5c106105be565b9450505050565b634e487b7160e01b5f52601160045260245ffd5b5f1981019190821161062057565b6105fe565b9296919594828661063592610c2a565b916106426108086105ef52565b6001978015610829575b610813575b60018310156106c0575b505050509161069393918360019490156106ae575b610695575b506106809082610ce6565b016106515160101c9060f01b1761064f52565b565b61068091926106a685925c82610ce6565b019190610675565b50640100000000815c83031315610670565b9590935f989297959398965b6106d589610612565b8810156107fa576001015493878a6107196107096107036106fa61034a868d8761048a565b60501c60ff1690565b60011690565b6affffffffffffffffffffff1690565b1580156107da575b6107a7575b61070361073d61034a610746948b6107099561048a565b60541c600f1690565b158015610787575b610762575b600190810154970196936106cc565b95600180806106d59361077c828c01545c8a5c9083610d22565b019892505050610753565b506107a264010000000060018301545c835c90031315151590565b61074e565b9761070361073d61034a610746948b6001610709966107cb8e8b5c905c9083610d22565b019d9550509450505050610726565b506107f564010000000060018501545c855c90031315151590565b610721565b509197509395509293509190508160016106935f61065b565b9650610821875c865c610cb4565b600296610651565b50640100000000865c131561064c565b906008820180921161062057565b906040820180921161062057565b5f1981146106205760010190565b926105ef515f1961064f5160f01c0160061b01926108818461060f52565b156109575761089a9094925b85939560c01b8152610839565b916108ac5f935b8660c01b8152610839565b946108b683610d35565b8414610940576108c68183610bf7565b916108d3825f1992610c04565b019081831461090f576109006108ac92610907929460016108f86102838a8a8d61048a565b910190610471565b9294610855565b9391956108a1565b5050505061093b9150916109366002610693945b016106535160101c9060f01b1761065152565b610847565b604052565b50505061093b915091610936600261069394610923565b9161089a9061088d565b5f80555f5f1961064f5160f01c01906105ef5161060f51610998610986825160c01c90565b600883015160c01c121590565b121590565b925b8481106109a8575050505050565b806109f66109b860019386610d63565b5091929150806109ca85870189610d63565b505080939193928b5f146109ff575050600888015160c01c91820392910390829082905b5f5496610dc5565b015f550161099a565b91509150610a11886008015160c01c90565b01918291610a23896008015160c01c90565b019283916109ee565b610a355f600155565b610a3e5f600255565b610a475f600355565b5f196106515160f01c019061060f5190610a7983610a6c81859060031b015160c01c90565b939060031b015160c01c90565b9161060f51935f1961064f5160f01c01926105ef5192610ab7610ab261060f51610993610aa7825160c01c90565b916008015160c01c90565b151590565b925b60018110610bed575f1901600381901b88015160c01c9692909180881285811490858a5f5b8a8c8210610af457505050505050509190610ab9565b86600193610b028484610d63565b5050610b15819492949588880190610d63565b505080969196928b5f14610bb8575050610b3c92610b42918a039384938b03948592610bf7565b94610c04565b94858412610bad575b8a15610b8e57918183610b7787610b718a89878f99610b869e9b610b809d9b5496610e92565b01600155565b60035496610dc5565b01600355565b018b90610ade565b91610ba29391610ba8969360025496610dc5565b01600255565b610b86565b505050505050610b86565b610bd394919350610bd992508a019384938b01948592610c04565b94610bf7565b9483861215610b4b57505050505050610b86565b5050945050505050565b90808212156104f4575090565b818112156104f4575090565b5f5c5f5260205f2090815f5d565b8015610620575f190190565b92919280935f925b828410610c3f5750505050565b90919294815c600183015490815c148015610ca5575b15610c935750610c8860019182840183815401549055610c83610c7c848701546001015490565b8660010155565b610c1e565b955b01929190610c32565b60019196939250819092015492610c8a565b50835c60018501545c14610c55565b6105ef5191610cc282610f48565b939092601f1982019384519560208401526005830152601519820152601d19015252565b6105ef519060061b0190618000610cfc82610f48565b939092605f19820193845195601f19840152603a19830152605519820152605d19015252565b6105ef519060061b0191610cfc82610f48565b7f000000000000000000000000000000000000000000000000000000000000000090818111156104f4575090565b905f808215610d9c57505060061b0190603f1982015160f01c91603d1981015160c01c9160351982015160281c91601a19015160281c90565b9093909250600160d81b91507801e355bbaee85cada65f73f32e88fb3cc629b709109f57564d90565b610de3955f9594909392818403610de6575b505050505050600f1c90565b90565b909192938581969750125f14610e4c578385846001603c1b93610e308a8686610e1c610e15610e3e9e9f610f48565b5097610f48565b509a8b950399039a8b9203018802856110c1565b9203020196030102906110c1565b90035b5f8080808080610dd7565b91610e8b9486826001603c1b969893610e30610e688996610f48565b949050610e7486610f48565b998a94915003978c03998a918d03018802856110c1565b9003610e41565b610de3955f95919392909190858403610eb157505050505050600f1c90565b909180939495965082125f14610f0d57610e3e9492826001603c1b959392610efe610edc8895610f48565b939050610ee885610f48565b9890508303968b039889918c03018702846110c1565b918603020196030102906110c1565b85826001603c1b92610efe610f28610e8b99979a9896610f48565b50928585610f358d610f48565b509985039803998a9203018702846110c1565b61101f9061101990808002908180025f19600160801b808386095f19848709030990610fcc610fbe610fb7600f600760681b8802046609c0000000000085040169c9180000000000000000860401610faf8580025f19878009621eee11605a1b9190030490565b0196606a1b90565b600f900490565b916624900000000000900490565b5f1993600160b41b936a06df92000000000000000090049190920101600160ff1b01906910000000000000000000828209915f1991090309600160fe1b8183018101929190910301611139565b60021b90565b808002905f1990800903808002905f1990800903808002905f1990800903808002905f1990800903808002905f1990800903808002905f1990800903808002905f1990800903808002905f1990800903808002905f1990800903808002905f1990800903808002905f1990800903808002905f1990800903808002905f1990800903808002905f19908009036110be6110b782611159565b9160281c90565b91565b915f19828409828402928380831092039482861461113057908391099082805f03168093046002816003021880820260020302808202600203028082026002030280820260020302808202600203028091026002030294600184805f0304019185841191030302920304170290565b50505091500490565b5f198281019283919080600160fe1b850990030191600160fe1b90090890565b5f198181019180600160c11b7ff1aaddd7742e56d32fb9f997447d9e6314db84884fabab26bf059af9bc20b6090990030181600160c11b7ff1aaddd7742e56d32fb9f997447d9e6314db84884fabab26bf059af9bc20b60909089056fea26469706673582212209bc7213153c1b72ae2644e5a33617f0edb015b1953e22615cb80f47db56ff66364736f6c63430008210033f1aaddd7742e56d32fb9f997447d9e6314db84884fabab26bf059af9bc20b609a26469706673582212204096e93e54d3306249fa995a50de42240661ea40ffb2420220a68af490441bc564736f6c63430008210033","linkReferences":{}},"methodIdentifiers":{"searchOvershoot_test(bool[3],uint64[3],uint88[],uint64[],uint64)":"7074a13d"},"id":89}